:020000022000DC
:1060000000000420756302005D6302005F6302000C
:106010006163020063630200656302000000000028
:1060200000000000000000000000000067630200A4
:1060300069630200000000006B6302006D630200F0
:10604000F58502006F630200AD8A02006F630200F3
:106050006F6302006F630200018902006F63020038
:106060006F6302006F6302006F6302006F630200E0
:106070006F6302006F6302006F6302006F630200D0
:106080006F630200257102006F6302006F630200FC
:10609000C17102006F630200FDB302006F63020072
:1060A0006F6302006F6302006F6302006F630200A0
:1060B0006F6302006F630200000000000000000038
:1060C0006F6302006F6302006F6302006F63020080
:1060D0009DB702006F6302006F6302006F630200EE
:1060E0006F6302006F6302006F6302000000000034
:1060F000000000006F630200000000006F630200F8
:10610000000000000000000000000000000000008F
:10611000000000000000000000000000000000007F
:10612000000000000000000000000000000000006F
:10613000000000000000000000000000000000005F
:10614000000000000000000000000000000000004F
:10615000000000000000000000000000000000003F
:10616000000000000000000000000000000000002F
:10617000000000000000000000000000000000001F
:10618000000000000000000000000000000000000F
:1061900000000000000000000000000000000000FF
:1061A00000000000000000000000000000000000EF
:1061B00000000000000000000000000000000000DF
:1061C00000000000000000000000000000000000CF
:1061D00000000000000000000000000000000000BF
:1061E00000000000000000000000000000000000AF
:1061F000000000000000000000000000000000009F
:10620000354936480A1A02D0072291438D4634494F
:1062100034480A1A06D00722914381F309880222E2
:1062200082F3148830483149314A00F044F831484B
:106230003149324A00F03FF831483249324A00F0E1
:106240003AF832483249334A00F035F83248334997
:10625000334A00F030F833483349344A00F02BF821
:1062600033483449344A00F026F83448344900228F
:1062700000F02CF833483449002200F027F8334866
:106280003349091A082902DB002202604160314AC1
:1062900090471F481F49884205D00268043003B464
:1062A000904703BCF7E700208646EC46002000211B
:1062B000294A9047FEE7884207D0521A05D0037852
:1062C00001300B700131013AF9D17047884202D098
:1062D00002700130FAE770470000042000E003205C
:1062E000000004200000042078D70200E0290020EC
:1062F000EC2C0020D4630200D46302001CC4020012
:1063000078D70200E0290020E02900200CC5020017
:106310000CC502000CC502000CC502000CC5020031
:106320000CC502000CC502000CC5020077D70200A4
:1063300084DA0200EC2C0020EC2C0020EC2C002055
:106340007C4000207C4000207C4000207C400020DD
:106350007C6000209D63020039A10200FEE7FEE799
:10636000FEE7FEE7FEE7FEE7FEE7FEE7FEE7FEE705
:10637000704700BF1048804710484FF0070188431E
:1063800085460F4880470F48016841F4700101605D
:10639000BFF34F8FBFF36F8FFFF732BF0A480B4930
:1063A0000B4A884207D0521A05D0037801300B708F
:1063B0000131013AF9D170477163020000000420F5
:1063C0006D80020088ED00E00CC50200E02900208D
:0463D000E0290020A0
:1063D4007047000007B5044B0093044A402300F0C3
:1063E40032F803B05DF804FBF5630200ED2C0020E5
:1063F4002DE9F84388461446B2B10F4B0F4E0325DE
:10640400002743F00109224608EB0701002003F0AE
:10641400E9FF0744241A48B933782BB14FF47A4082
:10642400C847013D02D13570BDE8F88301233370BC
:10643400002CE8D1F8E700BF10C50200EC2C0020C6
:10644400704704F003B8F0B595B01D4616460846EB
:106454000C4601F0E7FC1A9B0D93CDE90865002575
:106464002B46082205A920460A958DF82C500C9538
:1064740001F0F5FC079B0293069B03939DF81430EF
:106484008DF8115003F00302012A1DD1BDF8142028
:10649400059DC3F3C203C2F383168DF81030B20016
:1064A40008230EA9204601F0DAFCC5F3952508ABB4
:1064B4000093324602AB0EA9284600F067FB204643
:1064C40001F0B4FC15B0F0BD022AF8D1BDF81650A5
:1064D400C3F3C203C5F389158DF810300827082DBE
:1064E4002E4628BF08263B4632460EA9204601F018
:1064F400B6FCAD1B08AB02AA31460EA8374400F027
:10650400A9FB002DEBD1DAE708B5FFF79AFF0448A1
:10651400042100F0A3FA034B01225A7108BD00BF05
:10652400FCC40200E0290020037813F0040216D012
:1065340003F00303012B03D0022B09D00120704781
:106544000A6800880232C0F3831002440A60F5E747
:106554000B684288023303EB92130B60EEE710469C
:10656400704700002DE9F04F87B000230446861CD5
:106574000DF107000F4615468DF8073001F020F99C
:10658400454801683960D0E90132134401335B1A8C
:10659400824600F21C4700F5836900F21448B342B6
:1065A4001CD30020002D73D004F00F039B0143F093
:1065B400050363F30F00DAF80020DAF8083013401B
:1065C400033316444AF823009DF80700CAF8006014
:1065D40001F01AF9012007B0BDE8F08F0121384617
:1065E40001F04BF9484601F060F9404601F05DF9CD
:1065F400DAF80400DAF808B0029000EA0B0003307D
:106604000AEB800002A9FFF78FFF029B50BB0BEA45
:1066140003020AEB820203F1020CD26803920133F3
:1066240003EA0B0B0AEB8B0B02F00302012ADBF8E3
:106634000C10CDF808C023D0022A16D08346404659
:1066440001F036F910B1029BCAF8043059463846B5
:1066540001F013F9DAE901231344DAF800200133D5
:106664009B1A9CE70BEA0300C9E7BDF80E30C3F39D
:10667400891303334FEA114B0CEB93030293DEE7C8
:10668400BDF80C30C3F383134FEA114B6344F5E7B1
:10669400A40544F006008EE7002E00200B4B0C48A6
:1066A400FF2210B59A600022C3F81824C3E900221F
:1066B400C3F8142483F8202401F06DFB044610B9B8
:1066C400044801F071FC204610BD00BF002E0020DC
:1066D400A0C402004CC5020030B50A4C71B10A4A8C
:1066E4000A49121BD20800239A4201D1002030BD6E
:1066F40031F82350854202D00133F5E7034654F8BC
:106704003300F4E728C40200A0C40200E0290020FA
:10671400094B013903EBC000032909D8DFE801F074
:106724000A020406042070470079704740797047D4
:10673400002070470220704728C40200034BD3E9AD
:106744000030C31A58425841704700BF002E002041
:106754002DE9F04387B0FFF7F1FF0646002840F02B
:10676400F9807D4DC5F81804BFF34F8F6B68AC6892
:1067740002932340033305EB830002A9FFF7D4FE01
:10678400029B18B1D5F81824002A5FD004EA03024A
:10679400991C013305EB8202234005EB8303D26885
:1067A400DB68049302F00303022B0392029160D18D
:1067B400BDF80E306948C3F38917502FB84628BF77
:1067C4004FF0500868F38F1308F10801ADF80E304C
:1067D40001F0F9FA0646002800F0A78001F022FB38
:1067E4000023082203A9304601F02FFB029924EA72
:1067F40001020132B8EB820F4FEA820332D95FFA09
:1068040088F85BB32140DCB2A8EB040803315FFADB
:1068140088F9A046524C05EB8101082342463046D4
:1068240001F013FB34B108F108034A46214630460F
:1068340001F00BFB029B033703EB97070297D5F894
:106844001834002B49D1D5F8104459E02A689A42EB
:106854008FD86A60304607B0BDE8F08340491C46D3
:106864009946DAE70C40E11C0823424605EB810116
:10687400DDE7012B59D1BDF80C303848C3F383113F
:10688400062928BF062161F3891302318900ADF876
:106894000C3001F098FA0646002846D001F0C2FAFE
:1068A4000023082203A9304601F0CFFA0027BDF8DF
:1068B4000C20C2F38312BB00974203F10803BED23B
:1068C40002994A1C21400331029205EB8101042202
:1068D400304601F0BAFA0137E9E7304601F0A6FA8A
:1068E400FFF72CFF80F00100C6B2B3E7E3685B79E1
:1068F40023B1236831461B6820469847E3681C6827
:10690400002CF3D1304601F091FA0DF107008DF817
:10691400074000F055FFD5F818340BB9029B6B60A3
:106924009DF8070000F070FFDAE7D5F8104454B979
:106934000C4B0D480D49C01AC008000440F0020079
:1069440000F062F8CCE7236820469B689847E36828
:106954001C68ECE700267DE7002E0020A0C402009E
:106964000C2E002028C4020050C4020034C50200CA
:106974002DE9F74F224D04460F46924601A9012204
:106984001846D5F808909B46FFF7ECFD20B3019E0E
:106994004FF00008B21CD84508EB020126D1194873
:1069A400002100F047FF80F31000000440EA144087
:1069B400E400731C04F0380403EA090306EA090638
:1069C40044F0010405EB8303033644EA881444EAE3
:1069D4008724D86045F8264095F820341BB1FFF78A
:1069E400B7FE0028FBD103B0BDE8F08F09EA01012E
:1069F40005EB81015AF82830CB6008F10108CAE799
:106A0400002E00201C32002000231A46FFF7B0BFDE
:106A140007B50123019201AAFFF7AAFF03B05DF8AD
:106A240004FB07B5CDE9002302236A46FFF7A0FF64
:106A340003B05DF804FB7FB5CDE90023089B029306
:106A4400099B03930A9B04930B9B05936A460623B5
:106A5400FFF78EFF07B05DF804FB000030B50F4967
:106A6400D1F8102403460020144634B9DC682071A0
:106A74004AB9C1F81034226030BDE46825798542F2
:106A840006D02468F1E7D268116821601360F3E747
:106A940001300A28E8D14FF0FF30EDE7002E002046
:106AA400094A38B50123D2F8104482F820341D462F
:106AB40004B938BDE3685D71236820465B68984774
:106AC400E3681C68F4E700BF002E002007B5034606
:106AD4000846197A052911D05B7A2BB1094A0A496B
:106AE400019000F048FF01980849019000F043FF2D
:106AF400019803B05DF804EB00F032BF002AF8D02F
:106B0400F2E700BF58C502005DC5020088CF02004D
:106B140030B5C38885B004460D4633B1144A00929B
:106B24001449154A284600F026FF217A05291DD06C
:106B3400637A4BB1A088FFF7EBFD104B104953F873
:106B44002020284600F017FF227A0E4BA08853F825
:106B5400222003920021FFF7BFFD039A0A4903464E
:106B6400284605B0BDE8304000F005BF05B030BD93
:106B740058C5020068C5020060C50200E4C50200F1
:106B84005DC5020008C6020080C502002DE9F0437D
:106B940085B01F460C9D002395F80C902B73064678
:106BA4000C46904629463846FFF7B2FFB8F1060F67
:106BB40009D8DFE808F00412181F283340003146D2
:106BC400284600F0D8FE002229463846FFF77EFF0B
:106BD40085F80C9005B0BDE8F0832268314628465C
:106BE40000F0C9FEEFE7D4E900233146284600F05F
:106BF400C2FEE8E7A36800933146D4E9002328469F
:106C040000F0B9FEDFE7E3680193A368009331461F
:106C1400D4E90023284600F0AEFED4E723690293AA
:106C2400E3680193A36800933146D4E9002328461E
:106C340000F0A1FEC7E76369039323690293E36845
:106C44000193A36800933146D4E90023284600F059
:106C540092FEB8E708292DE9F74F80460E461746FD
:106C64001C463CD8002593F80C901D731946104619
:106C7400FFF74EFFDFF888A0DFF888B0AE4231D9C5
:106C840018F805205946204600F075FE0135082DF8
:106C9400F4D11949194DDFF870A0204600F06BFEBD
:106CA4004FF0000B5E4522D918F80B207E2A05D838
:106CB4001046019204F080FE019A00B92E2251463A
:106CC400204600F058FE0BF1010BBBF1080FE9D18F
:106CD400012221463846FFF7F9FE84F80C9003B0F0
:106CE400BDE8F08F5146204600F045FECEE7294628
:106CF400204600F040FEE6E794C5020092C502007B
:106D040090C502008AC5020096C502002DE9F04F25
:106D1400364E87B04FF00009354B1B785FFA89F582
:106D2400AB4202D807B0BDE8F08F324BD3F800A0D5
:106D34001AF835000124D6E9001EA0F12002C0F1A2
:106D4400200304FA02F224FA03F3134304FA00FCC6
:106D5400059301EA0C030093059B0EEA03030193D8
:106D6400DDE9002313430AEBC50B3BD0059B21EA65
:106D74000C012EEA0303C6E9001301F0B1FD01463C
:106D84001AF835001C4DA0F12002C0F1200304FACA
:106D940002F224FA03F31343D5E900C284401340FA
:106DA40004EA0C040393A0F12002C0F1200321FAA9
:106DB40003F3029401FA02F848EA0308DDE9023415
:106DC40001FA00F7444508BFBB420BD1DBF804309D
:106DD40043B19BF80120541E62426241551A694234
:106DE4006941984709F1010996E700BFF032002094
:106DF400BC320020F8320020E8320020F8B5064604
:106E04001E4800F0C3FBC0BB0125A6F12004C6F157
:106E1400200325FA03F305FA04F41C43184BD3E9C1
:106E240000C2B5400CEA050002EA040101431F4612
:106E34001DD1304601F054FD124BD3E9001288B144
:106E440029432243C3E90012D7E900231C430E4B14
:106E54000A4819681543C7E900540022BDE8F84000
:106E640000F04CBB21EA050122EA0402EAE72CEA1D
:106E7400050522EA0404C3E90054F8BDC432002025
:106E8400F0320020E8320020C0320020042A2DE92C
:106E9400F34105460C46164639D901F051FCD8B1E8
:106EA4001C4B1D491D601D4BDFF884801C701C4B5E
:106EB40000221E600023C1E900231A49C1E900230E
:106EC400013CE4B200260327FF2C0CD1164A1748D4
:106ED400002100F001FB03E001F0FAFB0028DFD001
:106EE40002B0BDE8F08105EBC40315F834009B78CB
:106EF4008DF80660424601A98DF804708DF80530BE
:106F040001F028FC013CE4B20028DDD0E8E70720CA
:106F1400E6E700BFF8320020E8320020BC3200204F
:106F2400C0320020F0320020116D02001CC60200A5
:106F3400016E020070B5084D084E00242B789C4267
:106F440001D3002070BD3368012113F8340001F02F
:106F54007DFC0134F2E700BFBC320020F83200208F
:106F64001FB50021039001AA44F20100CDE90111EB
:106F740000F004F805B05DF804FB000010B572B62B
:106F8400FFF78EFDFFF7E4FB0028FBD1104B114CFB
:106F94001149E41AE408240444F00100FFF734FD25
:106FA4000E4B1B68DB0700D500BE0D4944F0020000
:106FB400FFF72AFDBFF34F8F0A490B4BCA6802F44F
:106FC400E0621343CB60BFF34F8F00BFFDE700BF08
:106FD40028C4020050C4020020C60200F0ED00E004
:106FE4002CC6020000ED00E00400FA0549B152B1DC
:106FF400531E1A4007D1826001608380C26010462C
:1070040070470E2070470920704710B58468C26825
:107014008388121B934208D3C26813400268D15478
:10702400C3680133C360002010BD0420FCE78268FC
:10703400C3689A420AD08268838813400268D35C8A
:107044000B7083680133836000207047052070470C
:10705400094A537891780133DBB2994208BF00237F
:10706400117899421FBF03705078182303FB002046
:1070740014BF043000207047FC32002073B505466D
:1070840000240DF107000E468DF8074000F098FB30
:107094000DF10600FFF7DCFF90B10670094B9DF877
:1070A400062045605A709DF8070000F0ADFB24B936
:1070B400054B4FF48012C3F80021204602B070BD86
:1070C4000424F0E7FC32002000E100E0024B4FF41E
:1070D4003C6043F00103184740C6020038B50C4B2E
:1070E4000C4C4FF40032C3F8802001254FF4803358
:1070F400C4F84833C4F808336560FFF7E7FF064B6C
:10710400A56000241C60FFF7E1FF044B1C7038BD30
:1071140000E100E000100140183400200934002090
:10712400F8B51F4B1F491B680025C1F84051C1F831
:107134004451C1F84851C1F84C51C1F80051C1F84B
:1071440004514BB3D1F8044517490968641A24F073
:107154007F442F461A68A24209D8A41A15441A7CFF
:10716400DE691AB1D3E905201F749047AEB90F4AFE
:107174000F4B11781B788B4205D10133DBB2022B04
:1071840008BF0023137012780A4B43F822500A4BAD
:107194004FF48012C3F80021F8BD3346DAE700BF8C
:1071A4001C34002000100140183400201534002045
:1071B400143400200C34002000E100E02DE9F04FED
:1071C400A24AA34913780978A24D994285B03CD0CC
:1071D4000133DBB2022B08BF002313709E491278DF
:1071E4009E4B0F6853F822003B1823F07F43002284
:1071F4000B602B6816461446944613B942B12B60B3
:1072040006E0196881420ED902B12B60091A19608F
:1072140001272B68DFF84CA201934FF00008BEB998
:10722400DFF848B262E0401A0C44D968D3F81CE095
:10723400C3F800C031B13A1922F07F42C3E90121F9
:10724400DE611E4673460122D7E700263746E0E793
:107254003446F669804A63681268DFF814C2A0688D
:10726400991A21F07F41614500F2A8800144216010
:10727400012222742A680023C4E90133E361002A4D
:1072840040F0A5802C60CAE79BF802105A1CD2B2C9
:1072940091428BF8002004BF00228BF800201822B2
:1072A40002FB03B32A6819799C68022977D0032961
:1072B40000F08180012919D1207CB8B9D3E90312E7
:1072C400A2605A69E2609A69654BA2611B78002B3F
:1072D4000CBF0B4603466360BCE78C4200F094800D
:1072E4008946C9690029F8D1002323749BF800302A
:1072F4009BF801209A42C7D12B68B8F1000F04D142
:10730400019A9A4201D1002F43D0002B79D0D3F8AF
:1073140000A0544D504BD5F804751C68DFF8548117
:107324003E1B98F8003026F07F4603369BB94FF495
:107334008033C5F84433C5F804334B4B4FF4003263
:107344004FF00109C3F880211A60C5F80090FFF7D7
:10735400BDFE88F80090B2452CBF5444A41924F013
:107364007F44C5F84045D5F80435DB1B23F07F4343
:10737400E41B033324F07F44A3420AD9D5F804352F
:10738400C5F84035FFF7A2FE374B4FF40032C3F87F
:107394000021334B00221A7005B0BDE8F08F11466E
:1073A40091469FE71174D2690123002AFAD1002B78
:1073B4009CD02A609AE700231946F6E7D31A23F0F3
:1073C4007F43834234BFC31A0023236050E72168FC
:1073D4001368994213D8591A1160E26152E7091AE5
:1073E400D8691A4638B1034618688842F7D3401A58
:1073F4001860184613462160E061DC610FE713460C
:10740400F2E7FFF76BFEC4E74C4511D1D3692B605B
:1074140073B9DFF844E00120CDE90212CAF808008C
:10742400CEF800300E4B1870FFF750FEDDE9021263
:107434000B68C969C9F81C1011B1086803440B60D2
:107444002B68934218BF4FF001084DE71434002015
:10745400153400201C340020183400200C34002083
:10746400083400200010014000E100E0FC3200205C
:10747400FEFF7F000934002008B5FFF72FFE104BF4
:1074840000200B2218809A700E4B18600E4B187057
:107494000E4B18700E4B4FF48012C021C3F880219C
:1074A40083F814131A6002F18042A2F56F22C2F825
:1074B400080583F81113074BD2F804251A6008BD98
:1074C400FC3200201C340020143400201534002029
:1074D40000E100E018340020074B9B784BB132B137
:1074E40028B10368187C20B959745A617047072081
:1074F40070470820704700BFFC3200202DE9F74395
:10750400DFF8848098F8023005460E461746ABB380
:10751400A0B3042930D9436983B3437C0024012BED
:107524000DF107000CBF8946A1468DF8074000F015
:1075340047F90DF10600FFF78BFDD8B10123037065
:107544000F4B4560D3F80435C0E90497C0E902360F
:107554009DF8063088F801309DF8070000F054F9D2
:1075640024B9084B4FF48012C3F80021204603B01D
:10757400BDE8F0830424EFE70724F7E70824F5E7E0
:107584000010014000E100E0FC320020064A92783D
:107594003AB130B1426922B1002202740221FFF7EC
:1075A4006DBD0820704700BFFC3200200648074A22
:1075B40003780749D35C012213B1043001F0DCBE27
:1075C4000C3001F0ABBC00BFE82900208C34002053
:1075D400483400200648074A03780749D35C01224F
:1075E40013B1043001F07ABE0C3001F045BC00BF89
:1075F400E82900208C3400204934002037B5057870
:10760400012D0BD0022D2CD0F5B91D491D48FFF7D3
:107614000EFD002830D1FFF7DDFF15E043681A4C5A
:1076240019782046FFF7F1FC80B18DF800500190E5
:10763400164B68461B689847A168E368A2885B1AE2
:107644009A420AD3FFF7B2FF03B030BDA268E368E1
:107654009A42F1D08DF80000EAE70D4B01221A702E
:10766400F2E7C3688DF800500193FFF79FFF074BC3
:1076740068461B689847E7E703238DF80030F6E770
:1076840049340020383400202434002020340020E1
:1076940034340020F0B51F46234B89B004461A60E9
:1076A4000D4600293DD08A8820480968FFF79EFCD2
:1076B400002834D1AA89A9681D48FFF797FC00283F
:1076C4002DD11C4E0FCE6D460FC596E80F0085E8F0
:1076D4000F0063690693237C174A18488DF81C70C1
:1076E400003B18BF01238DF81430637C002B14BFBA
:1076F4000E2300238DF81530E3680293A3680393E7
:107704002368019369466368009300F009FF30B968
:107714000B4B18702368013301D0FFF747FF09B002
:10772400F0BD0720FBE700BF2034002024340020F4
:107734003834002048C6020001760200E8290020FF
:107744003434002070B5084D014608482E78FFF700
:107754006EFC044636B100232B70FFF727FF08B1F7
:10776400FFF7FEFB204670BD343400202434002093
:1077740010B501460E48FFF748FC0446A8B90D4869
:107784000D4A0378D35C63B1043001F0E9FD60B9BC
:107794000A490748FFF74BFC38B9BDE81040FFF72A
:1077A40019BF0C3001F0AEFBF1E7204610BD00BF5D
:1077B40038340020E82900208C340020493400208B
:1077C40070B5EFF3108672B60C4A946801239CB925
:1077D40093600B4B0B4DD3F8801029401160C3F814
:1077E4008050D3F8841051604FF0FF32C3F88420E6
:1077F400047006B962B670BD0370FAE74C34002019
:1078040000E100E0FC06FFBD084B9A6810B55AB1D0
:1078140050B9EFF3108172B6054A1C6814605C68B5
:107824005460986001B962B610BD00BF4C340020AA
:1078340000E100E010B5034653E8000F0A4643E8B0
:10784400002494F0000FF7D110BD10B5034653E89F
:10785400002F42EA010043E8000494F0000FF6D13F
:1078640010BD10B5034653E8000F00EA010243E8D7
:10787400002494F0000FF6D110BD10B5034653E870
:10788400002F02EB010043E8000494F0000FF6D14E
:1078940010BD10B5034653E8002FA2EB010043E8E6
:1078A400000494F0000FF6D110BD0121FFF7CDBF05
:1078B4000021FFF7D6BF10B590B1D0E901230168CC
:1078C4009B1ADBB20A60013BDBB2FF2B026802D1D8
:1078D4000020107110BD11684C1C14600B70F2E78D
:1078E4000E20F7E737B5054600240DF107008DF8A3
:1078F4000740FFF765FF2A686B68116899420ED943
:10790400481E106011F8014CEB68298A01FB04340D
:10791400AB6811791B1ADBB2994238BF13719DF819
:107924000700FFF771FF204603B030BD37B50546A9
:1079340000230DF107000C468DF80730FFF740FFD8
:107944002A681368591C1160E968641A298AB4FB0F
:10795400F1F41C709DF80700FFF756FF03B030BD2B
:10796400826810B504462AB14369016800699847E2
:107974000023A36010BD0EB403B5039921B104AB79
:1079840001AA019300F076F802B05DF804EB03B0AD
:1079940070470A2938B504460D4602D10D21FFF778
:1079A400F8FFA3682268591CA160D554D4E90132B8
:1079B4009A4204D32046BDE83840FFF7D1BF38BD12
:1079C4002DE9F84F9846DDE90A43154682460F46ED
:1079D4000A464FF00109AA420FD2C14538BFC14639
:1079E40013F0010B01D16CB900240126B8F1010F89
:1079F4001BD908F1FF386E43F8E709F10109B2FB1E
:107A0400F5F2E8E79B070ED5B8F1000F0CBF30265E
:107A14002026A145E9D2013C31465046FFF7B9FF83
:107A2400002CF6D1E0E72026F3E7B7FBF6F39D42FE
:107A3400E1D9DFF83C80B7FBF6F3504618F80310A1
:107A440006FB1377FFF7A5FF3346AB42B6FBF5F60B
:107A5400F1D2BBF1000F02D00CB1A14501D3BDE8B6
:107A6400F88F20215046013CFFF793FFF4E700BF55
:107A740068C602002DE9F74F0546174688460029D7
:107A840000F0428118F8011B49B92B7B002B00F050
:107A94003B81284603B0BDE8F04FFFF761BF2529BD
:107AA40040F0B780002698F800302D2B424608F1AC
:107AB400010823D0302B24D02B2B25D000242A2BB3
:107AC40002F1010123D13B681A1D1B683A601C4472
:107AD4000A4613782E2B26D101324FF0000A1046A5
:107AE40010F8011BA1F1300CBCF1090F1DD80A23B9
:107AF40003FB0A13A3F1300A0246F0E746F001063D
:107B0400D1E746F00206CEE746F00406CBE711F8CB
:107B1400013CA3F130000928DBD80A2202FB04341B
:107B2400303C0A46CBE74FF0000A12F8011B01F083
:107B3400FB0068289046F8D0782909D86F290CD81A
:107B4400632962D022D8252963D0582900F088807F
:107B540098F80030002B95D197E770390829F7D8A9
:107B640001A353F821F000BFE77C0200557B02001B
:107B7400557B0200757C0200557B0200537C020099
:107B8400557B0200557B0200657C0200642901D00C
:107B94006929DDD13A68D2F80090111D89EAE972A9
:107BA4003960A2EBE9724FF0010B092A35DCD345A9
:107BB40038BFD3462CB1B9F1000F01DB720700D5F1
:107BC400013CB30702D5BAF1000F03D0F00701D48A
:107BD4004CBB0024B9F1000F2DDAC9F100092D21A5
:107BE4002846FFF7D6FE06F00302022A04D1BAF1B2
:107BF400000F01D11CBB0024CDE9004653460A22E4
:107C040049462846FFF7DCFEA2E73B681A1D1978AF
:107C14003A602846FFF7BDFE9AE70A230BF1010BF1
:107C2400B2FBF3F2C1E7A345D4D220212846013C9C
:107C3400FFF7AFFECCE77107D5D52B21D0E7A345DD
:107C4400DAD230212846013CFFF7A3FED2E7396897
:107C5400CDE900460A1D3A6053460A220968D0E776
:107C640039680A1D3A60CDE9004653461022F5E70B
:107C74003B681A1D3A6016F00106D3F8009028D12B
:107C8400B9F1000F03D0484604F07AF80646B4422E
:107C940000D904BB09F1FF3919F8011F00293FF489
:107CA40057AF2846FFF775FEF6E728460136FFF77B
:107CB40070FE19F806100029F7D1A642BFF448AFA8
:107CC400002C3FF445AF20212846013CFFF761FE1C
:107CD400F3E70026EDE720212846013CFFF759FE93
:107CE400D5E73B681A1D3A60302128461C68FFF727
:107CF40050FE78212846FFF74CFE00220823CDE9E8
:107D04000032214610227CE703B0BDE8F08F00BFAB
:107D14002DE9F84FB0F806A04579D2F800B09DF8E7
:107D240028900AFB05F5043D88460BEB0301A942A4
:107D340003F1040488BFA5EB030BB4FBFAF6074672
:107D44000AFB1644C2F800B04EB9AAEB04055D451F
:107D540028BF5D46BBF1000F04D1BDE8F88F3F6832
:107D6400013EF1E7043408EB06003C442A46B9F12D
:107D7400000F0DD02146ABEB050B03F083FFDA4572
:107D84002E443F6855464FF0000428BF5D46E1E7A6
:107D940001462046EFE7FFF78EBDF8B54679014668
:107DA400721E0546002393422D6803D30024A64285
:107DB40002D8F8BD0133F6E70F682846FFF7B6FD91
:107DC40001343946F3E72DE9F843068ACD1C07460A
:107DD400FFF788FD043E35440446B5FBF6F5F0B1E3
:107DE4004FF48073EDB28380C680013D0760814605
:107DF4004FF00008A84512D23846FFF773FD064637
:107E040048B163790133637108F10108C9F80000CE
:107E140007608146EEE72046FFF7BFFF3446204661
:107E2400BDE8F88301210430FFF727BD10B5012117
:107E340004460430FFF72DFD10F0FF0F04D1204657
:107E4400BDE81040FFF7A9BF10BD1FB50392002283
:107E5400009203AAFFF75CFF05B05DF804FB1FB5B1
:107E640003920122009203AAFFF752FF05B05DF8C6
:107E740004FB33DF704741DF70470000064B10B549
:107E840000241C70054B1C60BFF35F8F0449054838
:107E940000F093F8204610BD6134002064340020C3
:107EA40084C602005834002007B500230DF10700F2
:107EB4008DF80730FFF784FCF1EE103A23F09F03AE
:107EC400E1EE103ABFF35F8F094B4022C3F88421DF
:107ED4009DF80700FFF798FC03F074FA20B1FFF750
:107EE400CAFF03B05DF804FB20BF40BF20BFF8E722
:107EF40000E100E070B5264D044601212846FFF755
:107F040099FCBFF35F8F2E4638B9042C0AD0214B5D
:107F14001A781AB1BFF35F8F286070BD1E4A1470BF
:107F240001221A701D4C1C4D6368BBB9FEF7B8FDE5
:107F3400FEF70EFC0028FBD1174B1B78023B012BEC
:107F440014D8BFF34F8F1649164BCA6802F4E06287
:107F54001343CB60BFF34F8F00BFFDE71B68287846
:107F6400984788B1204600F032F8DDE703F02AFA9A
:107F740008B1FFF77EFF4FF080430122C3F80025CC
:107F8400BFF34F8F20BFFDE7BFF35F8F3060C4E7BF
:107F94006434002061340020603400205834002010
:107FA40000ED00E00400FA05836800225A60C3E98A
:107FB40004229A60DA601A6070470B684A6843606A
:107FC400934208BF0023016008BF436070474368C1
:107FD40043B10268916852680B449342436004BF02
:107FE400002343607047000010B50D49A1F5947259
:107FF400914201D800200FE08C1AE30F03EBE40355
:108004005B1002EBC30452F83330834205D802D22A
:1080140004F10802ECE7606810BD2146E8E700BF00
:1080240088CB020008B5FFF7DFFF024B002808BF2A
:10803400184608BD4ACA020010B50446C0B2FFF78C
:1080440097FB204610BD0000054B1B68082B01BFA1
:10805400044B1868B0FA80F0400918BF002070473C
:10806400300100103401001008B54FF080430022A5
:10807400C3F80C21C3F81021C3F838254FF08052FF
:1080840003F54043D2F80414C3F82015D2F80814B9
:10809400C3F82415D2F80C14C3F82815D2F8101418
:1080A400C3F82C15D2F81414C3F83015D2F81814E8
:1080B400C3F83415D2F81C14C3F84015D2F82014B0
:1080C400C3F84415D2F82414C3F84815D2F8281478
:1080D400C3F84C15D2F82C14C3F85015D2F8301448
:1080E400C3F85415D2F83414C3F86015D2F8381410
:1080F400C3F86415D2F83C14C3F86815D2F84014D8
:10810400C3F86C15D2F84424C3F87025FFF79CFF1C
:1081140010B1384B384A1A60FFF796FF18B1374B45
:10812400FB22C3F81825FFF78FFF48B13449354BBC
:108134000A681B6822F00F0203F00F0313430B605D
:10814400FFF782FF18B1304B4FF400721A604FF002
:108154008043D3F80024D20744BF6FF00102C3F870
:1081640000242A4AD2F8883043F47003C2F88830D5
:10817400BFF34F8FBFF36F8F4FF01023D3F800225C
:10818400002A03DBD3F80432002B2FDA204B012220
:10819400C3F80425D3F80024002AFBD04FF01022A2
:1081A4001221C2F80012D3F80024002AFBD04FF0A9
:1081B40010231222C3F80422154B1A46D3F80014D4
:1081C4000029FBD00021C3F80415D2F80034002B99
:1081D400FBD0BFF34F8F0D490E4BCA6802F4E06227
:1081E4001343CB60BFF34F8F00BFFDE70A4B0B4A2D
:1081F4001A6008BD8C5600404881030000F000401E
:10820400E40E0040580200104096024000ED00E0E9
:1082140000E001400400FA05FC2900200090D0038E
:10822400074B1B5C1F2B8ABF064A4FF0A04203F08A
:108234001F03D2F80405D840C04300F00100704782
:108244008CCB020000030050074B1B5C1F2B86BF26
:10825400064903F01F034FF0A041012202FA03F381
:10826400C1F80C35704700BF8CCB020000030050EE
:10827400074B1B5C1F2B86BF064903F01F034FF0FF
:10828400A041012202FA03F3C1F80835704700BF88
:108294008CCB02000003005008B50020FFF7E8FF74
:1082A4000120FFF7E5FF0220FFF7E2FFBDE80840E9
:1082B4000320FFF7DDBF08B50020FFF7C5FF01204D
:1082C400FFF7C2FF0220FFF7BFFFBDE8084003200D
:1082D400FFF7BABF0A4B185C1F288ABF094B4FF03F
:1082E400A04300F01F00D3F804250121814021EAB6
:1082F40002000A40C3F80805C3F80C25704700BF04
:108304008CCB020000030050074B1B5C1F2B8ABF61
:10831400064A4FF0A04203F01F03D2F81005D840DC
:10832400C04300F00100704788CB020000030050F6
:108334000B2809D00C2809D0182809D019280CBFFB
:1083440003204FF0FF307047002070470120704732
:1083540002207047014B185C704700BF88CB0200B5
:10836400C20710B504460CD54FF0A0430322C3F84E
:108374003427C3F83827C3F83C27C3F84027FFF74E
:108384008BFFA3070AD54FF0A0430C22C3F82C2778
:10839400C3F83027C3F86027C3F8642710BD000072
:1083A40038B5074C051E04F1080318BF1C462368A2
:1083B4002BB11A6822605B6828469847F7E738BDF6
:1083C4007034002020B9054B01225A70FFF7E8BF32
:1083D400012802D1014A9070F8E770476834002000
:1083E40020B9034B01225A70FFF7DABF704700BF70
:1083F4006834002038B50B4C237883B90A4863608D
:10840400A3602361E36000F0C9F8054602F0DAFFD7
:1084140008B900F0CFF801232370284638BD85251C
:10842400FBE700BF68340020C983020037B50B4C5A
:1084340000230DF107008DF80730FFF7C1F9E36859
:10844400013BE360E56815B900F0C6F8A5709DF836
:108454000700FFF7D9F903B030BD00BF683400202E
:10846400012813B508D003281CD018B9104B0122D9
:10847400C3F8802002B010BD0E4C00230DF107009C
:108484008DF80730FFF79CF923780BB9FFF7B2FF9B
:10849400E3689DF807000133E3600123A370FFF74D
:1084A400B3F9E7E700F086F8FFF7C0FFE2E700BFA3
:1084B40000E100E0683400201FB503788DF8003037
:1084C4004368019383688DF80830C368054A0393B1
:1084D400054B684653F8213052F82110984705B0EF
:1084E4005DF804FB7C340020843400201FB503783D
:1084F4008DF800304368019383688DF80830C368B1
:10850400054A0393054B684653F8213052F821106D
:10851400984705B05DF804FB7C34002084340020C7
:10852400F0B5194B90F800C0DFF86CE043F82C204C
:10853400164B16460A6943F82C204B7F0EF80C3074
:108544000C4607460FCC89B06D460FC594E80F0062
:1085540085E80F001EF80C30CDF810C04BB1002E8A
:108564000B4A694608BF3246381D00F0D9FD09B0F0
:10857400F0BD002E074A694608BF324607F10C00D9
:1085840000F0A4FBF3E700BF843400207C34002017
:10859400BD840200F18402008C340020044A137963
:1085A40023B90121106091801846704785207047D7
:1085B40090340020074B1A68D2075FBFC02283F8AB
:1085C400002301221A604FF080430122C3F81825CA
:1085D400704700BF00E100E0044B01221A604FF035
:1085E4008042D2F81834DB03FBD470470C000040FF
:1085F400154B07B51A687AB100221A601B680093FC
:10860400009B4FF080430122C3F808230F4B587995
:1086140010B95A711B6898470D4B1A6882B1002231
:108624001A601B680193019B4FF080430222C3F838
:108634000823064B1B68012003B05DF804EB1847C0
:1086440003B05DF804FB00BF00010040903400203B
:108654000401004000F1804000F5C040002382B0D6
:10866400036003680193019B02B0704703681F2BEA
:1086740083BF03F01F03036001484FF0A04070471D
:108684000003005007B5019001A8FFF7EFFF019B1D
:1086940000EB8300D0F8003723F44033C0F80037F0
:1086A400D0F8003743EA0141C0F8001703B05DF881
:1086B40004FB0000054B4FF0FF32072843F820204D
:1086C40084BFC01880F85820704700BF9834002039
:1086D40010B5174C94F86A3043BB04F130033021D1
:1086E400FF22013911F0FF0103F8012BF9D1C8B2BF
:1086F400FFF7E0FF01310C29F9D1062200210D48D2
:1087040003F0E9FA0C4BC02283F8062340221A60D6
:108714004FF4BE70FFF79EFF084B4FF00042C3F8C2
:108724000423012384F86A30002010BD0820FCE7EC
:1087340098340020FC34002000E100E00060004098
:10874400034B93F86A00003818BF0120704700BF3C
:1087540098340020F7B53B4E3318054693F9303072
:10876400002B6CDA8B78C3F34003002B0BBF082477
:1087740000240C200820844202D1042003B0F0BD60
:1087840056F82470013743D1701946F8242080F834
:10879400304013B9331983F858508B785A0717D4DB
:1087A400D80737D501A80195FFF760FF019B00EBBF
:1087B4008300D0F8003723F00203C0F800372248C2
:1087C400EA0805F007070123BB40875C3B43835459
:1087D4008B780A7813F0020328D0A40004F18044B3
:1087E40004F5C0442D02D4F8103523F44F3323F498
:1087F4004073C4F810351204D4F8103505F47C55D0
:1088040002F4403215431D43C4F810550020B5E767
:108814000134B0E701A84A780195FFF727FF019BCF
:1088240003F5E073920040F82320C8E7083C344481
:1088340094F8605045EA821284F86020E6E7082044
:108844009CE700BF98340020FC34002073B5224C10
:108854002618054696F93020072A1ADD224492F894
:1088640058309B09032B0FD1019001A8FFF7FEFE9E
:10887400019BD0F81015D94001F0010102312846BE
:10888400FFF700FF02B070BD012B0CBF02210321D2
:10889400F5E7D3B2072BF5D8930003F1804303F532
:1088A400C043D3F8100540F00100C3F8100502F1ED
:1088B4004000800080B2FFF7CDFE0029E2D096F997
:1088C400303054F82330002BDCD0012303FA02F2B9
:1088D400024BC3F80423D5E798340020006000401D
:1088E40007B5019001A8FFF7C1FE019BD0F8100560
:1088F400D84000F0010003B05DF804FB2DE9F04F0F
:10890400002489B0CDE90244624D4FF48072012104
:1089140002F1804303F5C04390B21B68012B06D1DA
:10892400D5F804330B4202D0FFF794FE0C43043213
:10893400B2F5907F4FEA4101EAD1574B1B68012BF6
:108944000ED14FF4BE70FFF785FE4FF0A04344F004
:108954000044D3F810350293504BD3F810350393E9
:1089640014F0FF0F1AD04E4F00250126344210D0C8
:10897400AB0003F1804303F5C043D3F81005D3F8EB
:10898400101557F8253023B1C1F30141C0F3052078
:1089940098470135082D4FEA4606E7D1002C75DAD1
:1089A40004AF002304937B604FF0FF33CDE906331B
:1089B400DFF8EC90DFF8EC800026354618F9012B3F
:1089C400531C4AD0C2F3C2000123D4B202F03F0BBD
:1089D40002F0070203FA02F208AB191811F8083C76
:1089E40013423AD009EB0B03A40993F9303059F838
:1089F40023A0BAF1000F08D1032C2ED117F800C020
:108A04004CEA020C07F800C001E0032CF6D001A8E0
:108A1400CDF804B0FFF72AFE019B11F8181C03F5EA
:108A2400E07C114250F82C00C0F3014005D002282C
:108A340013D1032C0BD1214604E003280DD1032CC0
:108A440005D102215846FFF71DFE0135EDB2BAF1FA
:108A5400000F02D021465846D0470136042EADD12E
:108A6400A5B14FF0A0430299D3F8102503F5407344
:108A74009142D3F8103502D10399994206D002925B
:108A84000393049A059B0692079393E709B0BDE804
:108A9400F08F00BF006000407C6100400003005084
:108AA40098340020F8340020014B1B68184700BF9D
:108AB400043500200E4B984237B50C4602D00020F6
:108AC40003B030BD00230DF107008DF80730FEF729
:108AD40077FE084B1D7915B901221C601A719DF8A7
:108AE4000700FEF791FE002DE9D01120E8E700BF52
:108AF40000200040043500200023435082B0435836
:108B04000193019B02B070470A4610B54FF48E7171
:108B1400FFF7F2FF136A9168C95C136A01331362A9
:108B2400C0F81C1510BD024608B500684FF49271D8
:108B3400FFF7E2FF4FF484711068FFF7DDFF13685D
:108B440001221A6008BD8B690A4610B54FF484717E
:108B540023B9FFF7D1FFD0F8183510BDFFF7CCFFCC
:108B6400536AD168D0F81805C854536A0133536264
:108B7400F3E700001FB501238DF80030044BCDE965
:108B84000110D3E900126846904705B05DF804FB74
:108B94000C35002030B54B48D0F8043313F4007F73
:108BA40085B005464DD0D0F82431002B49D04FF480
:108BB4009271FFF7A1FF4FF40173C0F80833424BE1
:108BC40093F829200AB9012242603E4902228DF815
:108BD4000020D1F88024C1F8802403929A6902927B
:108BE400DA6801920022C3E906226846D3E900123A
:108BF40090473448D0F81C315BB133490A6A4B6959
:108C04009A420A464AD291F82830002B46D1FFF7FF
:108C14007BFF2C48D0F844318BB14FF4A271FFF79D
:108C24006BFF294B93F829200AB1012202609A694B
:108C34002AB10022586AD9689A61FFF79BFF05B0F0
:108C440030BDD5F804335B07D3D5D5F80831002BF4
:108C5400CFD01D4C1B482146FFF775FF636AA269FC
:108C64009A422346C5D1E269E1684AB12369E360C7
:108C74000023606AA261E3616362FFF77BFFB8E7E8
:108C840094F829200AB901226A600E4A4FF401704F
:108C9400C2F808030022586A9A61EEE74FF48E7115
:108CA4000848FFF729FF51690029B2D00023029137
:108CB40091688DF80030019153616846D2E9001340
:108CC4009847A6E7002000400C3500202DE9F84322
:108CD400634B057991462C2202FB0532064692F835
:108CE4002A200C469846002A40F0B6805D49006868
:108CF400FFF7E0FE0746002840F0B08021684A1CD8
:108D040010D01F2987BF584A01F01F030B464FF0AC
:108D1400A0420120984003F5E073C2F8080503203F
:108D240042F823006068431C0DD01F288BBF00F05D
:108D34001F0303464C4A4FF0A04203F5E0734FF083
:108D4400000C42F823C03368A269C3F8242594F8C0
:108D540014C0627DBCF1010F4CEA0202C3F86C2519
:108D6400C3F81405C3F80C152BD1A168481C0DD009
:108D74001F298BBF01F01F020A463B484FF0A04059
:108D840002F5E0724FF0000C40F822C0E068421C8B
:108D940013D01F2887BF344A00F01F0C84464FF0BD
:108DA400A0424FF0010E0EFA0CFE0CF5E07CC2F866
:108DB40008E54FF0030E42F82CE0C3F80805C3F8A9
:108DC40010152C236B4308EB0302C2F804902269AC
:108DD40048F80320B9F1000F2BD03068247F4FF4FA
:108DE4008E71FFF789FE30684FF4A271FFF784FE9D
:108DF40032681E4BC2F80433110B42F30732002AC7
:108E0400A8BF02F160404FEA4413BABF184801F00A
:108E14000F0400F56140DBB2B4BF035580F80033A2
:108E240001F01F01012303FA01F15209114B43F828
:108E3400221033680422C3F800252C2303FB058386
:108E44000022C3E9062283F829205A61012283F80B
:108E54002A203846BDE8F8830827FAE71127F8E7FF
:108E64000C350020998B02000003005080000200A2
:108E740014ED00E000E100E02DE9F843204B077910
:108E84004FF02C0909FB0734054666699846002E05
:108E940033D100686261A16026624FF48E7184F858
:108EA4002860FFF729FE2868012383602146FFF725
:108EB4002BFE6368A14683B92868226A63699A42D3
:108EC40011D32B68D3F81C21002AFBD00122DA60CD
:108ED4002C2303FB078300225A613046BDE8F88344
:108EE40094F828303BB9D0F81C31002BF8D049460F
:108EF400FFF70AFEE1E70F26EAE71126EDE700BFD8
:108F04000C3500200379044A2C2101FB0323586902
:108F1400003818BF012070470C3500202DE9F843B4
:108F2400394F05792C2303FB057306465C6824B18D
:108F340003684FF40170C3F808032C2303FB057383
:108F4400986950B1D86900283ED024B133684FF4F1
:108F54000172C3F80423112433E09A61D960586282
:108F6400D8612C2303FB057393F829301BB910B97E
:108F74003046FFF7D8FD4FF02C0909FB057830681F
:108F8400D8F80430002B34D14FF4A271C146FFF756
:108F9400B3FD3068D0F82431D0F80821D0F844412A
:108FA400B2B90CB9002BF4D02C2202FB05750022B7
:108FB400AA6123BB2CBB95F8291033680122B1B1F7
:108FC4001A602046BDE8F8831961DA610120C8E718
:108FD400002BE9D1002CE7D14946FFF7B4FDD8F8BE
:108FE4002430D8F818209A42D3D82346DCE75A60B4
:108FF400E7E74FF40173C0F804330024E1E70324E6
:10900400DFE70F24DDE700BF0C35002000234350C9
:1090140082B043580193019B02B070471FB50123EE
:109024008DF80030044BCDE90110D3E900126846F5
:10903400904705B05DF804FB383500207FB5364A0B
:10904400D2F82461002E46D010464FF49271FFF7F7
:10905400DDFF02238DF80030D2F88034C2F880346A
:109064000393D2F83C3502932C4BDA680192002228
:10907400C3E906226846D3E9001290472648D0F88F
:10908400443173B14FF4A271FFF7C0FF234B9A69C7
:109094003AB10022C3E90622D968D0F83C05FFF7AB
:1090A400BDFF1D48D0F820319BB14FF49071FFF7FC
:1090B400ADFF1A4B5A6962B1D0F84C1502910022E7
:1090C40099688DF8002001915A616846D3E900122D
:1090D400904704B070BDD2F81031002BCED04FF4BD
:1090E40088711046FFF792FF0C4BD2F83C05996942
:1090F4008842C3D1DC69D96864B1D2F8005225F042
:109104002005C2F800521A699C61DA60DE61FFF73B
:1091140085FFB3E79C61FAE7002000403835002062
:109124002DE9F843674B06799146242202FB063267
:10913400044692F820200D469846002A40F0BE804E
:1091440061490068FFF7B6FC0746002840F0B88084
:109154002868421C10D01F2887BF5C4A00F01F03F8
:1091640003464FF0A0420121994003F5E073C2F891
:109174000815032142F8231069684B1C0DD01F29E0
:109184008BBF01F01F030B46504A4FF0A04203F57A
:10919400E0734FF0000C42F823C02368AA69C3F8B7
:1091A400242595F814C06A7DBCF1010F4CEA020233
:1091B400C3F86C25C3F80C05C3F814152BD1A968A2
:1091C400481C0DD01F298BBF01F01F020A463F48DF
:1091D4004FF0A04002F5E0724FF0000C40F822C0BE
:1091E400E868421C13D01F2887BF384A00F01F0CC0
:1091F40084464FF0A0424FF0010E0EFA0CFE0CF51F
:10920400E07CC2F808E54FF0030E42F82CE0C3F806
:109214000805C3F810152423734308EB0302C2F8AE
:1092240004902A6948F80320B9F1000F35D020686A
:109234002A7F4FF48871FFF7E9FE20684FF490719C
:10924400FFF7E4FE20684FF49271FFF7DFFE206819
:109254004FF4A271FFF7DAFE23681D49C3F8041323
:10926400190B43F30733002BAEBF03F1604001F049
:109274000F0518484FEA4212A8BF00F56140D2B268
:10928400B4BF425580F8002301F01F01012202FA05
:1092940001F15B09104A42F8231023680822C3F83D
:1092A4000025242303FB06830022C3E906225A6116
:1092B400012283F820203846BDE8F8830827FAE71E
:1092C4001127F8E7383500204190020000030050D0
:1092D4001003020014ED00E000E100E001F060433F
:1092E400B3F1005F2DE9F041064632D11B4B0779FB
:1092F400242505FB073598466C6964BB6A610068E0
:10930400A9604FF49071FFF781FE4FF4AC7130689F
:10931400FFF77CFE33686A69A968C3F84415C3F88B
:10932400482501229A606A6862B9D3F82021D3F8EB
:10933400584152B9002CF8D00F24242303FB07878B
:1093440000237B612046BDE8F081002C18BF0F2468
:10935400F3E71024F6E71124F4E700BF38350020C2
:109364000379044A242101FB03235869003818BFF8
:109374000120704738350020F8B501F06043B3F19F
:10938400005F04460F465ED10379304D242101FB72
:109394000351496821B100684FF40476C0F80863AA
:1093A400242000FB03539E6956B1D869002839D0A4
:1093B40021B123684FF40472C3F80423112030E070
:1093C4009A61DF60DE6120684FF48871FFF71EFE4A
:1093D40020684FF4A271FFF719FE2368C3F83475AF
:1093E400C3F8382516BB01221A602179242202FB16
:1093F400015252680ABBD3F81041D3F84421D3F880
:109404002401144302D10028F5D02246242303FB6F
:1094140001550023984218BF03209A42AB6118BF3C
:109424000F20F8BD1F61DA610126CCE7D3F80022D2
:1094340042F02002C3F80022D7E74FF40472C3F8C5
:1094440004230020EDE71020EBE700BF38350020AF
:109454000220FEF73FBF00002DE9F04780460D468D
:10946400FEF766FF0328044610D8012D10D0022D04
:1094740030D05DB91A48FEF789F81A4B04EB440260
:1094840013449E78184B1B5DB34219D0BDE8F08796
:10949400144D00EB4002A918AE5C4A78470052B163
:1094A400DFF84C900E484A464FF40041FEF726F888
:1094B40008B989F800803B192B449A780A4B1A554D
:1094C400002EE3D0094B1B68002BDFD03046BDE8EB
:1094D400F047184700EB4004024804446678EFE77D
:1094E40080350020C0350020D9350020D435002037
:1094F4005C35002000780221FFF7AEBF08B5094BA8
:109504001B7853B10020FEF7B3FE0120FEF7B0FE36
:10951400BDE808400320FEF7ABBEBDE80840FEF7F7
:10952400BBBE00BF5D350020F8B57B4C23780546F3
:109534001BB100232370FFF7E1FF172D00F2888091
:10954400DFE805F00C17174354657680888D888D05
:10955400959A9A9A9A9AC4C9D1D9E4E4FFF7CEFFAE
:109564006E48FEF713F86E4B002204461A7020462C
:10957400F8BD0020FEF754FEF8B10020FEF778FE97
:10958400022D0CBF4FF4E1614FF47A61644B1D70FE
:109594004FF400404FF4FA740025E0FB01454FF40A
:1095A4007A7200232046294602F012F9002201466D
:1095B400BDE8F8405948FDF7A1BFFEF745FE022D6E
:1095C4000CBFC8214FF4C871E0E70020FEF728FE65
:1095D40040B10020FEF74CFE4FF44871504B03227B
:1095E4001A70D5E7FEF730FEC821F7E70020FEF732
:1095F40017FE38B10020FEF73BFE4FF47A61484B6A
:109604000422EDE7FEF720FE4FF4C871F7E70020CF
:10961400FEF706FE48B10020FEF72AFE404B052265
:109624001A7041F69A110022C2E7FEF70DFEF5E723
:109634000020FEF74FFE3A4B06221A70002240F635
:10964400CD41B5E70020FEF7FFFD354B07221A7028
:1096540000248CE701202070FEF73CFEEEE7012099
:109664002070FEF737FE00224FF48041A0E7FEF79A
:1096740022FE2B4B0C22EAE72A482B4EFDF786FFED
:10968400D5F1110504461CD0D8B9012D13D0C82337
:109694005D434FF400474FF4FA7000214FF47A729F
:1096A4000023C7FB050102F093F8224601461D483A
:1096B400FDF724FF04460220FEF7C6FD01233370A4
:1096C40055E70220FEF7D4FD0023F8E7FFF716FF65
:1096D400134B1222BBE7FFF711FF0020FEF7B4FD86
:1096E4000F4B1322B3E7FFF709FF0120FEF7ACFD90
:1096F4000B4B1422ABE7FFF701FF0020FEF7A4FD9C
:109704000120FEF7A1FD064B1522A0E7FEF7D3FDCD
:10971400034B1D709CE700BFD0350020A03500200E
:10972400D8350020603500205D350020044B1B68CF
:10973400DB0703D5034B1878FFF7F6BE704700BF6D
:10974400CC350020D8350020002910B514BF0324DF
:109754000024FEF7FFFD1F288ABF0A4B4FF0A043E9
:1097640000F01F0003EB8000D0F8002722F4403201
:10977400C0F80027D0F8003743EA0443C0F80037A4
:10978400002010BD00030050032801D8FEF7BCBD23
:1097940000207047044B1B6813F0010301D0FFF74E
:1097A400C3BE1846704700BFCC35002038B51C4BEB
:1097B40018601C4B10F00204054619601AD01A4BAD
:1097C4001A480E221A700F22DA7010229A7111228E
:1097D4005A72042140F26662FDF758FB044648B908
:1097E400FDF7A8FB044628B90146114A1148FDF7C4
:1097F40073FE0446EB0711D50120FEF7B1FD6CB9E9
:1098040021460D4A0D48FDF767FE044630B9BDE810
:1098140038400B4A0B480121FDF75EBE204638BD97
:10982400CC350020D4350020C0350020B4CB020054
:10983400F9940200D8CB020031970200DCCB02007D
:1098440055940200D4CB0200032811D8012A0AD16E
:1098540001290FD100F10E02D2B20D4B00EB4000F2
:109864001A54002070470129F7D0022904D049B1C5
:10987400072070470022F8E7054B00EB400018442E
:109884004270EEE7024B00EB400018448270E8E7B8
:10989400C0350020032802D80121FFF755BF062058
:1098A400704708B5012202210020FFF7CDFF08B15F
:1098B400072810D1072202210120FFF7C5FF08B1B4
:1098C400072808D100210A220846FFF7BDFF10B17E
:1098D400072808BF002008BD0388102B10B502D04C
:1098E400112B1ED010BD1A4C2168B1B901220846B3
:1098F400FFF7AAFF08B1072824D10722022101207B
:10990400FFF7A2FF08B107281CD10422022100207E
:10991400FFF79AFF08B1072814D1236801332360A5
:10992400E0E70B4A1368013B1360002BDAD1FFF721
:10993400B8FF0028D6D0074B1B68002BD2D0BDE857
:1099440010401847034B1B68002BE6D09847E4E708
:10995400E4350020E035002008B50020FFF79AFF29
:1099640008B1062806D10120FFF794FF10B106289C
:1099740008BF002008BD00000D4B10B518600C4650
:1099840029B10120FFF700FF40B102232370094BE6
:109994001B6853B9BDE81040FFF783BFFFF7F4FE1F
:1099A40008B10B23F2E72070F1E7002010BD00BFDF
:1099B400E0350020E4350020BFF34F8F0549064B06
:1099C400CA6802F4E0621343CB60BFF34F8F00BF59
:1099D400FDE700BF00ED00E00400FA0575DF704705
:1099E40076DF70477FDF70478FDF7047014601489D
:1099F40001F082BBE43600200388212B13B5044612
:109A04000FD80F2B11D9103B112B0ED8DFE803F020
:109A14000F260D410D0D0D0D0D0D0D330D0D0D48C2
:109A24000D4E3B2B4AD0562B48D002B010BD818836
:109A34002548002201F030FC08B1FDF791FA072017
:109A4400FFF7A8FE08B1FDF78BFAA1881F4800F0C4
:109A540019FF0028E9D0FDF783FAE6E71C4B1D48FF
:109A6400A2881D49C01AC0080004237A40F00300EC
:109A7400FCF7D7FFD9E7037A022BD6D1144B15484C
:109A84001649C01AC008000440F00300FCF7BCFFEC
:109A9400CBE700231A4685218088FFF7A3FFD8E788
:109AA40000F108018088FFF799FFD2E7002301A99C
:109AB4008088ADF80430FFF797FFCAE7A088132128
:109AC400FFF78EFFC5E700BFE4360020022A00201E
:109AD40028C4020050C40200E0CB02000ECC0200F5
:109AE40008B5074801F0FCF908B1FDF739FA01207F
:109AF400FFF750FE18B1BDE80840FDF731BA08BDC4
:109B04002837002038B50378012B044636D0022BC1
:109B140025D01BBB1D4C1E4D20882844FDF712FE8A
:109B2400238801339BB21D44238015F8012C0A2A93
:109B340003D0184A12889A4210D87BB1164D144AA1
:109B44001649286801F0A2FF2B6818442860F42203
:109B54000F48002102F0BFF80023238038BD104BCA
:109B6400104811491B1ADB081B0443F00100FCF7E1
:109B74004BFF6068BDE83840FDF7F2B9084B09486F
:109B84000A491B1ADB081B04EFE700BFE03600207C
:109B9400EB350020002A0020D02C00205DC50200F7
:109BA40050C4020028C402002CCC02005ECC020087
:109BB40010B504460020FFF7EDFD08B1FDF7D0F91C
:109BC40024B9FFF7C9FE08B1FDF7CAF9012010BD99
:109BD4000A8840F677239A4213B50C4617D10D4BE9
:109BE4000D480E49C01AC008000440F0030001905B
:109BF400FCF70AFFA3880A4A0A490198033B9BB26F
:109C040013801A4602B0BDE81040FCF70ABF02B048
:109C140010BD00BF28C4020050C402008ACC020058
:109C2400002A0020A6CC0200042808B506D00A2881
:109C340010D1BDE808400020FEF75CB9064B1321A3
:109C44005888FFF7CDFE30F0080303D0BDE8084084
:109C5400FDF786B908BD00BFE43600201FB50378C0
:109C6400062B12D0072B17D0042B2AD1164B1748DA
:109C74001749C01AC008000440F00300FCF7C4FEF2
:109C840004B0BDE81040FFF72BBF4068C8B104B072
:109C9400BDE81040FDF764B941680B4C0B488B7864
:109CA4004A78001B8C7903944C7902940C790194C2
:109CB400C008C97800910004064940F00300FCF78D
:109CC400BAFE04B010BD00BF28C4020050C4020094
:109CD400FCCC0200CECC020038B5054D044645F05C
:109CE40001054FF47A40A847013CFAD138BD00BFC2
:109CF400C0CF020070B50E4E04460D46F42200217A
:109D0400304601F0E8FF0B4B25441E60A54205D107
:109D14004FF47A70FFF7E0FF012070BD2078FDF763
:109D240027FD18B11128F9D0FDF71AF90134EDE730
:109D340078380020D02C00202DE9F04104460D464F
:109D440090461E4601F0EAFC0746204602F018F849
:109D5400B04208D92946204601F0BEFE003818BF9B
:109D64000120BDE8F08101F0D9FC3A6803689B1A30
:109D74004345EADB0020F4E707B509210648FFF76D
:109D8400B9FF0123054900931A46054800F00AF873
:109D940003B05DF804FB00BF0CCD020015CD02003A
:109DA400783800202DE9F04104460D4690461F46C0
:109DB40001F0B4FC0646B7B9204601F0E1FF069B6A
:109DC400984219D92946204601F086FE88B908E050
:109DD400FFF7D2FF01F0A2FC726843689B1A434567
:109DE40001DBFFF7E9FD2946204601F075FE002856
:109DF400EED00120BDE8F08101F090FC7268436868
:109E04009B1A4345D8DBECE713B50D214F48FFF708
:109E140071FF4F494F4801230A22FFF78DFF0028A5
:109E240040F088800F214C48FFF764FF4B494948B4
:109E340004230A22FFF780FF00287DD00124192182
:109E44004748FFF757FF00230A2246494148009438
:109E5400FFF7A8FF1B214448FFF74CFF00230A2209
:109E640040493C480094FFF79DFF26213F48FFF7F7
:109E740041FF00230A223B4936480094FFF792FF32
:109E84002A213B48FFF736FF00230A22354931488F
:109E94000094FFF787FF28213648FFF72BFF0023A4
:109EA4000A2230492B480094FFF77CFF1D213248D9
:109EB400FFF720FF00230A222A4926480094FFF7CF
:109EC40071FF1F212D48FFF715FF00230A222549A2
:109ED40020480094FFF766FF25212948FFF70AFF71
:109EE40000230A221F491B480094FFF75BFF22212D
:109EF4002448FFF7FFFE00230A221A49154800945C
:109F0400FFF750FF44212048FFF7F4FE55230A22AF
:109F14001E4900930F480023FFF744FF1B211C48F0
:109F2400FFF7E8FE282300931A490A4800230A226F
:109F3400FFF738FF02B010BD174906481E230A2256
:109F4400FFF7FAFE00287FF479AFF3E71BCD020098
:109F540028CD02007838002036CD020045CD02001D
:109F64004BCD020062CD020065CD02007ECD020021
:109F7400A0CD0200C6CD0200EACD020005CE02004B
:109F840022CE020045CE020065CE0200A7CE02001A
:109F9400B5CE0200CECE0200DECE020010B51D21E9
:109FA40004460C48FFF7A6FE204601F0E9FE81B204
:109FB4002046FFF79FFE0D20FDF7DAFB1A20FDF780
:109FC400D7FB0D20FDF7D4FBBDE8104041F28830EB
:109FD400FFF782BEEDCE020000230370437083704E
:109FE400704700002DE9F0419AB001AC0C4F461EB9
:109FF400851CA04616F8012F82B92046394601F087
:10A0040045FDAE420444F5D140F6B830FFF764FE96
:10A014004046FFF7C3FF1AB0BDE8F0810122ECE728
:10A0240008CF020010B5074C2046FFF7D5FFA378F0
:10A0340062782178044801F009FD2046BDE810400B
:10A04400FFF7D0BFE83500200BCF020010B5084C55
:10A05400037808482344012203F8302CA37862785B
:10A06400217801F0F3FC2046BDE81040FFF7BABFA9
:10A07400E83500200BCF020070B50B78012B0646A3
:10A084000D4622D0022B25D093BB1A4B1A4C1B49E8
:10A09400E41AE408240444F003042046FCF7B4FC66
:10A0A400698805F10E02304601F0F6F808B1FCF7B4
:10A0B40057FF304601F0CEF808B1FCF751FF2046B7
:10A0C4000F49BDE87040FCF79FBCBDE8704088684C
:10A0D400FFF7BCBF074B08480A49C01AC008000470
:10A0E40040F00300FCF790FCBDE87040FFF7F8BCBB
:10A0F40070BD00BF28C4020050C4020017CF020084
:10A104002BCF020059CF020008B50849084800F0D7
:10A114004DFD08B1FCF724FF0548F72100F05AFD76
:10A1240018B1BDE80840FCF71BBF08BDD59B020071
:10A13400F436002000B54FF400418BB00020FCF74A
:10A14400ADFA08B1FCF70CFFFCF7DEF9FDF794F962
:10A1540008B1FCF705FF4F4D0FCD04AC0FC495E8D3
:10A1640003004D4B4D4A00934FF4807384E8030081
:10A17400CDE9022301934A4A0223694604A8FDF764
:10A1840089FA08B1FCF7ECFE46490120FFF70EFB03
:10A1940008B1FCF7E5FE04A90020FFF7EDFB08B1C8
:10A1A400FCF7DEFE404800F033FB08B1FCF7D8FEB4
:10A1B400FDF764FE08B1FCF7D3FE01F0C5F808B161
:10A1C400FCF7CEFE002304A90120049301F04AF910
:10A1D40008B1FCF7C5FE04A801F016FA08B1FCF7B3
:10A1E400BFFEFFF791FF314B3148049304A900F0FF
:10A1F400CDFF08B1FCF7B4FE102200210DEB0200E4
:10A2040001F069FD01232B4A2B488DF8143004A971
:10A214008DF81C3000F009FE08B1FCF7A1FE274AB6
:10A224002548032100F0D6FD08B1FCF799FE224829
:10A234000022042100F0E5FD08B1FCF791FE20485E
:10A2440001F004FC1F4920484A788B78097801F012
:10A25400FDFBFFF745FCFFF78FFDFFF7D5FD1B481E
:10A26400FFF79CFE1A4A1B480121FDF735F908B196
:10A27400FCF776FE184800224FF4F011FDF73EF982
:10A2840008B1FCF76DFEFCF763FA0028FBD1FDF77B
:10A294000BFEF8E7A4CF0200783700206C390020C9
:10A2A400099B02002D9C0200F19902007DA002008E
:10A2B400E4360020619C020028370020CCCF020045
:10A2C40067CF0200E83500208BCF020097CF020051
:10A2D40029A00200C8CF0200083700200369C16822
:10A2E4008B429DBF8268D21802F1FF3203F1FF3323
:10A2F40094BF501A581A70472DE9F843D0E90294D4
:10A304000546A9EB04084068904520440F461444D0
:10A3140004D901F0B7FCEC60BDE8F8834246A4EB35
:10A32400090401F0AFFC6868224607EB0801F0E776
:10A334002DE9F843C5680646894617464FF00008DC
:10A344003469B3687068A54228BFE418013C621BF5
:10A354005C1BBC4228BF3C46944228BF1446494675
:10A364002844224601F08EFCB3682544AB4208BF62
:10A3740000253F1BA044A144F560E1D14046BDE85F
:10A38400F883000010B5114C114AA2610223C4E9FC
:10A394000433104BE361A2644FF400730E4A0F4977
:10A3A4002362E26400231022E01DA3626362E3627D
:10A3B400A3656365E365226501F0C0FC0849204696
:10A3C40001F0BCFC2023A37110BD00BF6C3A002037
:10A3D400D0CF0200F43A0020E43A0020D9CF0200A2
:10A3E400DDCF0200F8B5184C182300FB033503FB3E
:10A3F40000402544C46A012C0F4616460FD0022C97
:10A404001AD0F4B92846FFF769FF864205D83246C8
:10A4140039462846FFF770FF34462046F8BD2846E3
:10A42400FFF75CFF8642344628BF0446224639467D
:10A434002846FFF761FFF0E72846BDE8F840FFF73C
:10A4440077BF0024E9E700BF6C3A0020FFF79ABF0A
:10A4540064DF704770B5C0B14AB116880024B442B5
:10A4640003D305196D789D4208D0A14201D800207C
:10A474000BE0055D01352C44A4B2F0E7A142F6D906
:10A48400A31C1380005D013880B270BDF0B587B0A5
:10A49400002306460C461046ADF8063002AA1023E7
:10A4A4000DF105018DF80530FFF7D2FF16B9002034
:10A4B40007B0F0BD0028FAD19DF80550042D2BD02B
:10A4C400102D2BD0022DF3D10323BDF806207AB929
:10A4D4000DF1060221463046FFF7BCFFBDF80630F9
:10A4E4002BB92B460DF106023046FFF7B3FF0446A5
:10A4F400BDF80670002FDAD00025AC42D7D9E81990
:10A504009DF8052002A9304401F06CFA48B19DF889
:10A5140005301D44ADB2F0E70523D6E70625072331
:10A52400D3E70120C4E79BDF70479DDF70479EDFC0
:10A534007047000030B50B4B19680B4B0022914259
:10A5440001D1002009E09D788478A54206D11D88B8
:10A554000488A54202D1054B186830BD013204338A
:10A56400EDE700BFFC3C002004400020F43C002048
:10A5740070B590F8C63216467622A0B002FB0300EE
:10A584000D46FFF7D7FF044660B17C22002101A8E5
:10A5940001F0A1FB01238DF80430ADF806600295AB
:10A5A40001A8A04720B070BD2DE9F74F8A4690F866
:10A5B400C612019193467622074601FB0200FFF77B
:10A5C400B9FF804670B3194E3568052D2AD8184C4A
:10A5D400019904EBC5197622EB0102FB0171A9F87C
:10A5E40002B009F10400009301F04CFBBAF1000F32
:10A5F400009BC9F87C8014BF00220222E2540D4B58
:10A604001A680135954235601D460BD10027E36F6A
:10A61400204698472B6801379F4204F18004F6D303
:10A624000023336003B0BDE8F08F00BF004000207A
:10A63400003D0020FC3C002037B50246084692F855
:10A64400C53292F8C642BBB1013B7621DBB261430D
:10A65400122505FB031313445B8A01339BB2ADF847
:10A664000430762303FB042201A91389ADF80630D4
:10A67400FFF75BFF03B030BD762303FB0423DB88C5
:10A68400EDE7000070B54FF433720E460021044626
:10A6940001F021FB114BA4F8CA6200251D60104B88
:10A6A40084F8C9521B6884F8C65284F8C5522360E2
:10A6B400224601213046FFF736FF112806D020B983
:10A6C400012384F8C73284F8C80270BD012384F8DA
:10A6D400C73284F8C8322846F7E700BF004000209C
:10A6E4000440002070B5194A90F8C9321268013349
:10A6F400DBB2934204460D4680F8C9324FF000069F
:10A7040021D290F8C63280F8C5620133DBB27621DB
:10A7140013FB01F180F8C63242180D4850F823307B
:10A724006350284601211671FFF7FDFE014648B12A
:10A7340084F8C7622A462046FFF71AFF054B032216
:10A744001A705D8070BD80F8C762F7E7FC3C00209A
:10A7540004400020003D00202DE9F3470546762300
:10A7640095F8C64295F8C56214FB03F410462A19FD
:10A7740006EBC60392F804C004EB4303771C0A33C8
:10A7840067452B4413D005F11C0A02F1220E0CF18B
:10A79400FF384FF01209A244F4B2A4450BD9B045D6
:10A7A4001C8919D11389A34225D100231CE01B89DC
:10A7B4001289934205D101230B70002002B0BDE839
:10A7C400F0870133ADF80430ADF8062000230B7098
:10A7D40001A9FFF7ACFEF1E709FB06F301343EF8EB
:10A7E4000370BC420DD1534495F8C542013485F839
:10A7F400C5420136D0E70134ADF80440ADF8063067
:10A80400E4E7013FADF80440ADF80670DEE7000070
:10A8140058B1074A00231360064A01211170064A01
:10A824001360064A1060184670470E20704700BF38
:10A83400FC3C0020F83C002000400020F43C0020B8
:10A8440010B5044680B10C4B1B787BB1FFF772FE48
:10A8540070B90A4A1368052B0CD80949246841F8D1
:10A8640023400133136010BD0E20FCE70820FAE7F3
:10A874000020F8E70420F6E7F83C0020FC3C002028
:10A884000440002050B1084A12784AB1074A1268BD
:10A8940032B190F8C7322BB9FFF7F4BE0E207047DF
:10A8A4000820704711207047F83C0020FC3C002031
:10A8B4002DE9FF410C460546E0B1D9B1924B1B7816
:10A8C400C3B10388322B62D017D8112B00F00B814F
:10A8D400302B30D094F8C83263B12B88303B9BB214
:10A8E4001F2B07D8B4F8CA32A988994202D120464E
:10A8F400FFF7C8FE04B0BDE8F081332BEAD18288AB
:10A90400B1F8CA329342E5D1C68891F8C6C291F82B
:10A91400C572002E00F0AB80762101FB0C4C7B1C31
:10A924009CF8041000268B428DF80F6000F0CF8055
:10A9340084F8C53290E08388B1F8CA229A42C9D11A
:10A94400C388DBB991F8C632762101FB0343016960
:10A95400C3F8061011462046FFF76EFE0146002894
:10A96400B8D0002384F8C732AA882046FFF700FE37
:10A97400664B03221A70AA885A80ABE7002120464E
:10A98400FFF712FEA9882046FFF7ACFEA2E78288F3
:10A99400B1F8CA329A429DD1C388002B58D191F89C
:10A9A400C672762317FB03F701EB0708837A98F83E
:10A9B40004603344062B26DC88F80430334603EB6A
:10A9C400C30207EB420205F10C062244002198F869
:10A9D4000400834206F10A0602F1120227D312226E
:10A9E400013B02FB034394F8C62276213B4401FB5E
:10A9F4000242598A138999422AD2062828D0A98862
:10AA040084F8C502A7E7062388F804304048414B80
:10AA1400CA5B4149C01AC008000440F0020001901A
:10AA2400FBF7F6FF3D490198FBF7EEFFC6E730461A
:10AA3400013350F80ACD42F808CCD0F804C042F8EB
:10AA440004CC0089108051809180D1801181BEE7AF
:10AA5400002684F8C562AA880DF10F012046FFF78D
:10AA64007BFE0146002838D084F8C7627CE7762351
:10AA740003FB0CF1122303FB0713B0F80AE0234491
:10AA84007645BFF449AFC189A1F52451082908D8F6
:10AA9400DFE801F014170507070707071A00818983
:10AAA4009982998A39B1D98A29B1198B19B1598BEB
:10AAB40000297FF431AF01360630E1E78189D9827C
:10AAC400EFE781891983ECE781895983E9E7012359
:10AAD4008DF80F30AA88012151E79DF80F30002B23
:10AAE4003FF4F8AEF6E78288B1F8CA329A427FF4AE
:10AAF400F1AE002381F8C73281F8C8324FF6FF73F4
:10AB0400A1F8CA32E6E600BFF83C0020003D002070
:10AB140058C4020028C40200E4CF02002AD0020074
:10AB240090DF7047A5DF7047B5DF70477FB500231E
:10AB3400ADF80810ADF80A106A4602A90646039358
:10AB44000093ADF80430FFF7EBFF054600B3124B5A
:10AB5400124CE41AE408FDF765FA240444F00104F5
:10AB640003460F4932462046FBF75BFFBDF8002041
:10AB7400BDF8023052EA030103D00A492046FBF72C
:10AB840050FFBDF804201AB107492046FBF740FFE7
:10AB9400284604B070BD00BF28C4020078C4020077
:10ABA40090D00200DAD0020019D1020080B14FF037
:10ABB400F7130360FB230371F723C3801723038177
:10ABC40041F6FB32002301614381828118467047BC
:10ABD4000E20704730B1A1F11703E02B04D8418057
:10ABE400002070470E2070470720704713B50346B6
:10ABF40080880C46B8B91A88242A00F0968014D8A4
:10AC0400112A71D0232A00F09E80102A3BD0A37A07
:10AC14004BB1E1880020FFF785FF002840F09980C0
:10AC24004FF48073638102B010BD3A2A65D0552A6F
:10AC3400EDD1DB88C988A072172B38BF17238B424C
:10AC440028BF0B462381FFF76FFF60B1FDF7EAF9D8
:10AC5400484B4949024649481B1ADB081B0443F088
:10AC64000100FBF7D5FEE37A002BD0D12369002B3A
:10AC7400CDD040F6772200922289ADF804206946AF
:10AC840020469847C3E7DB7B0A790A73012B13D06C
:10AC9400022B14D0E18823898B4205D20020FFF7D0
:10ACA40041FF70B90123E372217B637B8B42AED2F7
:10ACB4000020FFF73BFFAAE70B88E380EAE74B8815
:10ACC400FBE7112802D10123A372EDE7FDF7AAF9EE
:10ACD400284B2B49024629481B1ADB081B0443F066
:10ACE4000100FBF795FEDFE7F723CB8017230B81E9
:10ACF40041F6FB3348818B8189E75B89CA8893429B
:10AD040028BF1346172B0A6938BF17230B814AB192
:10AD1400C97A39B140F677210091ADF8043069461B
:10AD2400204690470023638171E71A7A0B694A73BE
:10AD3400002B3FF46CAF4DF67A218DF8050000919D
:10AD44008DF804209BE7197A237B994228BF194682
:10AD5400AFE711283FF467AFFDF764F9054B0849E5
:10AD6400024606481B1ADB081B0443F00100FBF7EC
:10AD74004FFE58E778C40200A0D1020028C40200A4
:10AD84006FD102008ADF70478BDF70478CDF70471A
:10AD940030B5037A89B004460D46CBB1837C019368
:10ADA400FFF7F2FF1422002103A800F094FF019B97
:10ADB40004F10A0204F11401A81CFFF7E7FF0623BB
:10ADC4008DF80C30049018B1636A0BB103A898474E
:10ADD40009B030BD10B5034668B162B103290CD186
:10ADE400007960B91C8811888C4203D00121197143
:10ADF40012681A6010BD0E20FCE70720FAE7042051
:10AE0400F8E750B1CB060AD011F0040116BF0123B4
:10AE1400417143718271002070470E2070470720F2
:10AE24007047007DC0F3C0007047F8B50D46044676
:10AE3400002852D042620021082200F04CFF002D6D
:10AE440038D02B7923722B7BA3742B68FBB104F1CC
:10AE5400140203F1080718685968164603C6083334
:10AE6400BB423246F7D1186830609B88B380AA6829
:10AE7400C2B11368C4F80A305368C4F80E3004F140
:10AE84002803A3641F23A4F84C300020F8BD636991
:10AE940003F0E30343F4200343F482736361502318
:10AEA400A361E4E7062363811823E3604FF4C873C6
:10AEB4002382E4E76369257203F0E30343F4200388
:10AEC40043F4827363615023A361062363811823CF
:10AED400E3604FF4C8732382D1E70E20D6E7000065
:10AEE40010B5044686B048B31422002101A800F02E
:10AEF400F2FEFFF749FF2046FFF793FF30B1636A84
:10AF040023B101228DF8042001A8984704F14801D7
:10AF140004F11400FFF736FF044630F008000BD0AC
:10AF24000748084B08491B1ADB081B0443F00100BF
:10AF34002246FBF76DFD204606B010BD0E20FBE750
:10AF440028C4020068C40200DCD102002DE9F04FDD
:10AF540005468BB035F8083B1D2B07460C4622D01E
:10AF640008D8102B00F0B0801B2B00F095800BB09C
:10AF7400BDE8F08F202BFAD114220DEB0200002142
:10AF840000F0A9FE626A002AF1D0286869680523E6
:10AF94008DF8143006AB03C31434297A099419705C
:10AFA40005A89047E3E7142200210DEB020000F00E
:10AFB40092FE04F1140320460993FFF732FF04F1D3
:10AFC400480A78B102238DF8143005A8636A0695FF
:10AFD400984751460020FFF7D5FE29462046FFF743
:10AFE400D7FEC4E794F8058094F80690B8F1000FF2
:10AFF40045D094F804B0B98C224604EB8B03064682
:10B0040093420CD1B9F1000F18D0B34518D19DF873
:10B014001C3043F004038DF81C30012313E0386A1C
:10B024000191CDE90223FFF731FADDE90112039B17
:10B0340000B30136F6B2B9F1000F1ED1002EE6D1ED
:10B044004FF00008434601220695B9F1000F19D0CC
:10B054009A421DD100238DF8143029462046FFF76B
:10B0640097FE636A0BB105A8984751460020FFF785
:10B0740089FE7CE7B9F1000FC7D10432C0E743462B
:10B084004246E1E7B8F1000F02D08DF81490E4E7EE
:10B0940003238DF81430E4E714220DEB02000021A1
:10B0A40000F019FE3A7A012A7FF461AF636A002B3B
:10B0B4003FF45DAF042114348DF8141009948DF815
:10B0C400182005A8984752E7142200210DEB02002E
:10B0D40000F001FE07238DF81430BB88ADF81C3056
:10B0E40004F114030993636A0695002BE9D13EE742
:10B0F400A3DF704762DF7047F0B50C4687B01422B7
:10B104000546002101A800F0E6FD227852BBA38881
:10B11400012B27D1A1792B78994223D194F808C027
:10B12400BDF81260BDF81400BDF81670122111FBB1
:10B134000C4123469446994216D1BCF1000F01D02C
:10B14400ADF816701AB1ADF81260ADF81400EB68E2
:10B1540043B16288ADF8062000228DF8042001A9CD
:10B164002846984707B0F0BDB3F80EE0BEF1020FD1
:10B1740004D0BEF1030F05D01233DCE7DF8A4FF0B1
:10B18400010CF9E7DE8A188B0122F5E7F0B5154BBF
:10B1940087B002AA04460D4603F1100C174618683E
:10B1A4005968164603C6083363453246F7D1BCB125
:10B1B400B5B121463846FFF79DFF78B923788DF85D
:10B1C40006300123ADF804304FF6FF7363802B681B
:10B1D400E360A080208101A8FFF732FB07B0F0BD37
:10B1E4000E20FBE713D202007FB503460846F9B1EF
:10B1F400F3B14A884FF6FF718A4202D0998891428E
:10B2040016D11988112916D0392911D182887AB119
:10B21400598991420CD1C26852B101218DF80410B0
:10B2240003F11001DB890391ADF8103001A99047B7
:10B2340007B05DF804FB9B889342F9D1C368002BE7
:10B24400F6D002228DF804204FF6FF72428001A945
:10B254009847EDE71FB5D8B143884FF6FF72934284
:10B2640018D0C288B2B10121ADF8001040F201112A
:10B27400ADF80410ADF8062001A94FF400321846C9
:10B284000292CDF80CD0FFF733FF05B05DF804FB54
:10B294000E20FAE70820F8E748B141802AB1538824
:10B2A400C3801388838093880381002070470E2015
:10B2B400704710DF7047000013B50446094968461B
:10B2C400FCF77BFE019808B902B010BDD0E900215B
:10B2D4002046904718B16846FCF779FEF2E7112042
:10B2E400F2E700BF30D2020013B5044607496846AE
:10B2F400FCF763FE019B0BB902B010BD2046D3E9F5
:10B30400002190476846FCF762FEF3E748D202004A
:10B314000B4991F816335A09EC231341DB0706D580
:10B32400084B9A683AB94FF480030B60704742F2B5
:10B334000200FBF715BE1A6842F480021A607047D7
:10B3440000E100E04C340020F7B5194F3C7864BBB1
:10B35400184E012520463570FFF7AEFF112821D085
:10B364002046FFF7C1FF144B8DF803401868019085
:10B374000DF10300FCF724FA104901A8FFF799FF27
:10B384000446B0FA80F0400938709DF80300FCF7D9
:10B394003BFA3CB90A4B34701C70FFF7B9FF2846DE
:10B3A400FFF7A2FF204603B0F0BD0824FAE700BF70
:10B3B4001D4000201C4000202BD20200816F02009F
:10B3C4001E400020014B1878704700BF1D4000202C
:10B3D40007B508496846FCF7F0FD019B13B903B0B3
:10B3E4005DF804FBD3E9002090476846FCF7EFFDC5
:10B3F400F3E700BF3CD20200FFF7EABF60DF70470B
:10B4040069DF704761DF704730B5114DADF5017DDF
:10B414004FF4FA740DF1020103A8ADF80240FFF7EE
:10B42400F1FF70B9294601A8FCF7C7FD029B002B68
:10B43400F0D003A8D3E90021904701A8FCF7C7FD89
:10B44400F4E7052801D0FBF78BFD0DF5017D30BD38
:10B45400D0D40200024B1B780BB1FFF7D5BF704765
:10B464001F40002030B5054685B00C46002900F089
:10B47400B6805C4B0B600C22002101A800F02BFC71
:10B4840001238DF8063022688DF80450062301A9A3
:10B494002020ADF80830FFF7B3FF60B1FCF7C2FD20
:10B4A400514B5249024652481B1ADB081B0443F015
:10B4B4000100FBF7ADFA0C22002101A800F00BFCFF
:10B4C40000238DF80530226840F2011301A94020C1
:10B4D400ADF80630FFF794FF60B1FCF7A3FD424BD3
:10B4E4004449024642481B1ADB081B0443F001008E
:10B4F400FBF78EFA0C22002101A800F0ECFBF723E5
:10B5040022688DF8045001A92320ADF80630FFF716
:10B5140077FF60B1FCF786FD334B37490246344868
:10B524001B1ADB081B0443F00100FBF771FA0C2221
:10B53400002101A800F0CFFB012022688DF804004F
:10B5440001A9FFF75DFF60B1FCF76CFD264B2B49A9
:10B55400024627481B1ADB081B0443F00100FBF7D3
:10B5640057FA0C22002101A800F0B5FB4FF4B06398
:10B574002268019301A9A120FFF742FF60B1FCF703
:10B5840051FD194B1E49024619481B1ADB081B04BE
:10B5940043F00100FBF73CFA0C22002101A800F063
:10B5A4009AFB9DF8043022686FF3000301A9A020E0
:10B5B4008DF80430FFF724FF034668B1FCF732FD31
:10B5C400094B104902460A481B1ADB081B0443F0C6
:10B5D4000100FBF71DFA0023184605B030BD0E2309
:10B5E400FAE700BFE029002088C4020054D2020018
:10B5F40028C402009AD20200E6D202002DD302002F
:10B6040079D30200CAD3020073B505460668FFF772
:10B61400F5FE2B68B34204461DD91A481A4B1B4940
:10B624001B1ADB081B0443F002000190FBF7ECF942
:10B634002B68174901983246FBF7F3F94FF0805312
:10B644002A68D3F80C31134901989B0203F1005383
:10B654009A1AFBF7DDF92CB90F4B01221A70204618
:10B6640002B070BD2046FCF7DDFC074B0B490246D7
:10B6740004481B1ADB081B0443F00100FBF7C8F95C
:10B68400EDE700BF28C4020088C402001DD40200F4
:10B694004CD402007DD402001F400020A7D4020035
:10B6A4004BDF70471FB50D4C01A8FFF7F9FF70B9C8
:10B6B400214602A8FCF781FC039B002BF4D00198DF
:10B6C400D3E90021904702A8FCF781FCF4E70528A0
:10B6D40001D0FBF745FC04B010BD00BFE8D4020064
:10B6E4000B4B73B5D3F804250A4B0B4E1B6801A80A
:10B6F40003EBD203019300F0BBFA04460FCC3546AA
:10B704000FC50FCC0FC523682B60304602B070BD47
:10B71400004002402C40002030400020194BD3ED63
:10B72400006AF5EE406AF1EE10FA37B526D0164BF2
:10B73400164AD3F80415164B12681B68154C02EB15
:10B74400D102D21A07EE902AB8EEE77AF6EE007A22
:10B75400E6EE877A01A8FDEEE77A17EE902A1A44FE
:10B76400019200F085FA05460FCD0FC40FCD0FC42A
:10B7740020462B6840F8203903B030BDFFF7B0FFF6
:10B78400FAE700BF24400020004002402C40002083
:10B794002840002030400020094BD3F8402172B1EA
:10B7A4000022C3F8402101229A600649064A09682A
:10B7B40013680B441360054B1B6803B118477047AB
:10B7C40000400240D42C00202C40002020400020C7
:10B7D40053EA020C61D02DE9F04BB3FA83F51E0055
:10B7E40007BFB2FA82F502FA05F403FA05F4164625
:10B7F400C5F120051EBF22FA05F73C43203556EA61
:10B80400044C4FEA144418BF0134A3464FF0000916
:10B81400C846904271EB030C39D3094207BFB0FA12
:10B8240080F700FA07F6B1FA81F701FA07F6C7F1D3
:10B8340020071EBF20FA07FC46EA0C062037B6FB99
:10B84400FBFC7F1B103F07F01F04C4F120060CFA19
:10B8540004F42CFA06F644BF34460026202FA4BF75
:10B864002646002454EA060C08BF012418EB0408F9
:10B8740049EB0609A4FB027CC01B06FB02CC04FBBB
:10B8840003CC71EB0C01904271EB030CC5D20B4657
:10B89400024649464046BDE8F08BB2FBF3F2000095
:10B8A4007F2805D8034B185C034B5B5C184070473A
:10B8B4000020704700D5020080D50200A0F161038A
:10B8C400192B98BF20387047A0F14103192B98BF5A
:10B8D400203070477F2805D8034B185C034B5B5C12
:10B8E400184070470020704700D5020080D5020040
:10B8F400A0F16103192B98BF20387047A0F14103D0
:10B90400192B98BF203070477F299ABF01700120FE
:10B914006FF02E0070475AB10A787F2A0AD800B116
:10B924000260002119605960501A18BF0120704745
:10B93400002070476FF02E00704738B50446084663
:10B94400A26842B1236861685D1C8D4208BF002073
:10B954008B4208D2D054E3682BB1216862689142CB
:10B9640001D22146984723680133236038BD70B55E
:10B974004C1E09D41646C5B229463046FFF7DDFFF2
:10B98400013CB4F1FF3FF7D170BD10F0100F08D1A6
:10B9940008B510F4007F14BF30202020FFF7E7FF24
:10B9A40008BD704708B5034B5B689B681B689847E4
:10B9B40008BD00BFD82C002008B50921FFF7F2FF0D
:10B9C40008BD10B491FBF2F302FB1314002904DB4D
:10B9D400036044605DF8044B7047002CC4BF01331E
:10B9E400A41AF5E77AB370B414460F2A15D902469F
:10B9F4000B4640EA010515F0030F01D0013C0EE0AF
:10BA0400194610460432043306680D68AE4204D168
:10BA140010461946043C042CF2D8013C0ED00A46C8
:10BA240003460444114618460133013206780D7862
:10BA3400AE4203D118461146A342F3D100780B78E5
:10BA4400C01A70BC70470020704700000FB410B5D6
:10BA540086B008AB53F8044B0593002303936FF0AF
:10BA640000430293084B049300F0D4FC059A21464A
:10BA740001A800F0B5F9044600F0CDFC204606B05C
:10BA8400BDE8104004B070473D8002000EB400B51C
:10BA940086B007AA52F8041B05920390002304936E
:10BAA4006FF00043029301A800F09AF906B05DF824
:10BAB40004EB03B07047037853B159B10144034612
:10BAC40013F8012F12B18B42FAD10B46181A7047A2
