:020000022000DC
:1060000000000120756302005D6302005F6302000F
:106010006163020063630200656302000000000028
:1060200000000000000000000000000067630200A4
:1060300069630200000000006B6302006D630200F0
:10604000A98302006F6302002D8802006F630200C3
:106050006F6302006F630200A98602006F63020093
:106060006F6302006F6302006F6302006F630200E0
:106070006F6302006F6302006F6302006F630200D0
:106080006F630200617102006F6302006F630200C0
:10609000FD7102006F6302006DA402006F630200D5
:1060A0006F6302006F6302006F6302006F630200A0
:1060B0006F6302006F630200000000000000000038
:1060C0006F6302006F6302006F6302006F63020080
:1060D0006F6302006F6302006F6302000000000044
:1060E00000000000000000000000000000000000B0
:1060F00000000000000000000000000000000000A0
:10610000000000000000000000000000000000008F
:10611000000000000000000000000000000000007F
:10612000000000000000000000000000000000006F
:10613000000000000000000000000000000000005F
:10614000000000000000000000000000000000004F
:10615000000000000000000000000000000000003F
:10616000000000000000000000000000000000002F
:10617000000000000000000000000000000000001F
:10618000000000000000000000000000000000000F
:1061900000000000000000000000000000000000FF
:1061A00000000000000000000000000000000000EF
:1061B00000000000000000000000000000000000DF
:1061C00000000000000000000000000000000000CF
:1061D00000000000000000000000000000000000BF
:1061E00000000000000000000000000000000000AF
:1061F000000000000000000000000000000000009F
:10620000354936480A1A02D0072291438D4634494F
:1062100034480A1A06D00722914381F309880222E2
:1062200082F3148830483149314A00F044F831484B
:106230003149324A00F03FF831483249324A00F0E1
:106240003AF832483249334A00F035F83248334997
:10625000334A00F030F833483349344A00F02BF821
:1062600033483449344A00F026F83448344900228F
:1062700000F02CF833483449002200F027F8334866
:106280003349091A082902DB002202604160314AC1
:1062900090471F481F49884205D00268043003B464
:1062A000904703BCF7E700208646EC46002000211B
:1062B000294A9047FEE7884207D0521A05D0037852
:1062C00001300B700131013AF9D17047884202D098
:1062D00002700130FAE770470000012000E0002062
:1062E0000000012000000120ECB60200B8220020CE
:1062F00008230020D4630200D4630200DAA802005D
:10630000ECB60200B8220020B8220020B0A902009A
:10631000B0A90200B0A90200B0A90200B0A9020011
:10632000B0A90200B0A90200B0A90200EAB60200BA
:106330003CB7020008230020082300200823002087
:106340007C2C00207C2C00207C2C00207C2C00202D
:106350007C4C00209D630200E9920200FEE7FEE70C
:10636000FEE7FEE7FEE7FEE7FEE7FEE7FEE7FEE705
:10637000704700BF1048804710484FF0070188431E
:1063800085460F4880470F48016841F4700101605D
:10639000BFF34F8FBFF36F8FFFF732BF0A480B4930
:1063A0000B4A884207D0521A05D0037801300B708F
:1063B0000131013AF9D170477163020000000120F8
:1063C000717E020088ED00E0B0A90200B822002032
:0463D000B8220020CF
:1063D400F0B595B01D46164608460C4601F05EFC25
:1063E4001A9B0D93CDE9086500252B46082205A9C3
:1063F40020460A958DF82C500C9501F06CFC079BF7
:106404000293069B03939DF814308DF8115003F00A
:106414000302012A1DD1BDF81420059DC3F3C20354
:10642400C2F383168DF81030B20008230EA920465B
:1064340001F051FCC5F3952508AB0093324602AB3D
:106444000EA9284600F0D8FB204601F02BFC15B01D
:10645400F0BD022AF8D1BDF81650C3F3C203C5F348
:1064640089158DF810300827082D2E4628BF0826D8
:106474003B4632460EA9204601F02DFCAD1B08AB6D
:1064840002AA31460EA8374400F01AFC002DEBD1C5
:10649400DAE70000014B01221A70704749230020FB
:1064A4007047000070B5124D06460FCD88B06C469B
:1064B4000FC495E80F00002E84E80F004FF0FF335F
:1064C4004FF00602CDE90023CDE90233094A0A4818
:1064D4004FF0EB7308BF00226946069301F0FAFE01
:1064E40008B100F08DFD054B1E7008B070BD00BFF3
:1064F400B0A9020099640200B822002008230020F9
:1065040007B5044B0093044A4023FFF761FF03B02F
:106514005DF804FB216502000923002038B50D4B0A
:106524000D4D002018700D4804782D5DD2B21C4624
:1065340065B1043002F09AFD08B100F061FD084B2A
:106544001A7812B12378002BFBD038BD0C3002F03E
:1065540097FBF1E749230020702A0020B82200208D
:106564000823002008B50848084A0378D35C3BB1E7
:10657400043002F019FDBDE808400020FFF792BF87
:106584000C3002F01BFBF6E7B8220020702A002032
:106594000120FFF787BF000008B5FFF7F9FF0448A3
:1065A400042100F091FA034B01225A7108BD00BF87
:1065B400A0A90200CC220020037813F0040216D014
:1065C40003F00303012B03D0022B09D001207047F1
:1065D4000A6800880232C0F3831002440A60F5E7B7
:1065E4000B684288023303EB92130B60EEE710460C
:1065F400704700002DE9F04F87B000230446861C45
:106604000DF107000F4615468DF8073000F0ECFF3A
:10661400454801683960D0E90132134401335B1AFB
:10662400824600F21C4700F5836900F21448B34225
:106634001CD30020002D73D004F00F039B0143F002
:10664400050363F30F00DAF80020DAF8083013408A
:10665400033316444AF823009DF80700CAF8006083
:1066640000F0E6FF012007B0BDE8F08F01213846B5
:1066740001F03FF8484601F054F8404601F051F863
:10668400DAF80400DAF808B0029000EA0B000330EC
:106694000AEB800002A9FFF78FFF029B50BB0BEAB5
:1066A40003020AEB820203F1020CD2680392013363
:1066B40003EA0B0B0AEB8B0B02F00302012ADBF853
:1066C4000C10CDF808C023D0022A16D083464046C9
:1066D40001F02AF810B1029BCAF804305946384632
:1066E40001F007F8DAE901231344DAF80020013352
:1066F4009B1A9CE70BEA0300C9E7BDF80E30C3F30D
:10670400891303334FEA114B0CEB93030293DEE737
:10671400BDF80C30C3F383134FEA114B6344F5E720
:10672400A40544F006008EE71C2400200B4B0C4803
:10673400FF2210B59A600022C3F81824C3E900228E
:10674400C3F8142483F8202401F061FA044610B934
:10675400044801F009FB204610BD00BF1C240020A2
:106764002CA9020004AA020030B50A4C71B10A4AED
:106774000A49121BD20800239A4201D1002030BDDD
:1067840031F82350854202D00133F5E7034654F82B
:106794003300F4E740A90200A0A90200B8220020B7
:1067A400094B013903EBC000032909D8DFE801F0E4
:1067B4000A02040604207047007970474079704744
:1067C400002070470220704740A90200034BD3E920
:1067D4000030C31A58425841704700BF1C2400209F
:1067E4002DE9F04387B0FFF7F1FF0646002840F09B
:1067F400F9807D4DC5F81804BFF34F8F6B68AC6802
:1068040002932340033305EB830002A9FFF7D4FE70
:10681400029B18B1D5F81824002A5FD004EA0302B9
:10682400991C013305EB8202234005EB8303D268F4
:10683400DB68049302F00303022B0392029160D1FC
:10684400BDF80E306948C3F38917502FB84628BFE6
:106854004FF0500868F38F1308F10801ADF80E30BB
:1068640001F0EDF90646002800F0A78001F016FAC1
:106874000023082203A9304601F023FA029924EAEE
:1068840001020132B8EB820F4FEA820332D95FFA78
:1068940088F85BB32140DCB2A8EB040803315FFA4B
:1068A40088F9A046524C05EB810108234246304644
:1068B40001F007FA34B108F108034A46214630468C
:1068C40001F0FFF9029B033703EB97070297D5F812
:1068D4001834002B49D1D5F8104459E02A689A425B
:1068E4008FD86A60304607B0BDE8F08340491C4643
:1068F4009946DAE70C40E11C0823424605EB810186
:10690400DDE7012B59D1BDF80C303848C3F38311AE
:10691400062928BF062161F3891302318900ADF8E5
:106924000C3001F08CF90646002846D001F0B6F987
:106934000023082203A9304601F0C3F90027BDF85B
:106944000C20C2F38312BB00974203F10803BED2AA
:1069540002994A1C21400331029205EB8101042271
:10696400304601F0AEF90137E9E7304601F09AF913
:10697400FFF72CFF80F00100C6B2B3E7E3685B7950
:1069840023B1236831461B6820469847E3681C6896
:10699400002CF3D1304601F085F90DF107008DF894
:1069A400074000F021FED5F818340BB9029B6B6048
:1069B4009DF8070000F03CFEDAE7D5F8104454B91E
:1069C4000C4B0D480D49C01AC008000440F00200E9
:1069D40000F062F8CCE7236820469B689847E36898
:1069E4001C68ECE700267DE71C2400202CA902008B
:1069F4002824002040A9020068A90200EDA9020091
:106A04002DE9F74F224D04460F46924601A9012273
:106A14001846D5F808909B46FFF7ECFD20B3019E7D
:106A24004FF00008B21CD84508EB020126D11948E2
:106A3400002100F02FFE80F31000000440EA14400F
:106A4400E400731C04F0380403EA090306EA0906A7
:106A540044F0010405EB8303033644EA881444EA52
:106A64008724D86045F8264095F820341BB1FFF7F9
:106A7400B7FE0028FBD103B0BDE8F08F09EA01019D
:106A840005EB81015AF82830CB6008F10108CAE708
:106A94001C2400203828002000231A46FFF7B0BF2A
:106AA40007B50123019201AAFFF7AAFF03B05DF81D
:106AB40004FB07B5CDE9002302236A46FFF7A0FFD4
:106AC40003B05DF804FB000030B50F49D1F8102481
:106AD40003460020144634B9DC6820714AB9C1F871
:106AE4001034226030BDE4682579854206D02468DC
:106AF400F1E7D268116821601360F3E701300A28D6
:106B0400E8D14FF0FF30EDE71C240020094A38B5E6
:106B14000123D2F8104482F820341D4604B938BD4C
:106B2400E3685D71236820465B689847E3681C68E6
:106B3400F4E700BF1C24002007B503460846197A71
:106B4400052911D05B7A2BB1094A0A49019000F05A
:106B54004EFE01980849019000F049FE019803B0E7
:106B64005DF804EB00F038BE002AF8D0F2E700BF6D
:106B740010AA020015AA020035AA020030B5C38883
:106B840085B004460D4633B1144A00921449154A9F
:106B9400284600F02CFE217A05291DD0637A4BB1DA
:106BA400A088FFF7FDFD104B104953F8202028461C
:106BB40000F01DFE227A0E4BA08853F82220039287
:106BC4000021FFF7D1FD039A0A490346284605B080
:106BD400BDE8304000F00BBE05B030BD10AA020085
:106BE40020AA020018AA02009CAA020015AA020008
:106BF400C0AA020038AA02002DE9F04385B01F465E
:106C04000C9D002395F80C902B7306460C46904679
:106C140029463846FFF7B2FFB8F1060F09D8DFE876
:106C240008F00412181F283340003146284600F0AB
:106C3400DEFD002229463846FFF77EFF85F80C90DA
:106C440005B0BDE8F08322683146284600F0CFFD48
:106C5400EFE7D4E900233146284600F0C8FDE8E711
:106C6400A36800933146D4E90023284600F0BFFD11
:106C7400DFE7E3680193A36800933146D4E9002376
:106C8400284600F0B4FDD4E723690293E368019336
:106C9400A36800933146D4E90023284600F0A7FDF9
:106CA400C7E76369039323690293E3680193A368C5
:106CB40000933146D4E90023284600F098FDB8E754
:106CC40008292DE9F74F80460E4617461C463CD846
:106CD400002593F80C901D7319461046FFF74EFFDC
:106CE400DFF888A0DFF888B0AE4231D918F8052063
:106CF4005946204600F07BFD0135082DF4D1194991
:106D0400194DDFF870A0204600F071FD4FF0000B24
:106D14005E4522D918F80B207E2A05D81046019228
:106D240003F048FD019A00B92E225146204600F096
:106D34005EFD0BF1010BBBF1080FE9D101222146E5
:106D44003846FFF7F9FE84F80C9003B0BDE8F08FE5
:106D54005146204600F04BFDCEE72946204600F080
:106D640046FDE6E74CAA02004AAA020048AA02002D
:106D740042AA02004EAA02002DE9F04F364E87B017
:106D84004FF00009354B1B785FFA89F5AB4202D806
:106D940007B0BDE8F08F324BD3F800A01AF83500E5
:106DA4000124D6E9001EA0F12002C0F1200304FA58
:106DB40002F224FA03F3134304FA00FC059301EAF4
:106DC4000C030093059B0EEA03030193DDE9002302
:106DD40013430AEBC50B3BD0059B21EA0C012EEAB9
:106DE4000303C6E9001301F053FC01461AF8350009
:106DF4001C4DA0F12002C0F1200304FA02F224FA8F
:106E040003F31343D5E900C28440134004EA0C049D
:106E14000393A0F12002C0F1200321FA03F30294AA
:106E240001FA02F848EA0308DDE9023401FA00F73E
:106E3400444508BFBB420BD1DBF8043043B19BF897
:106E44000120541E62426241551A694269419847C1
:106E540009F1010996E700BF08290020D82800207D
:106E64001029002000290020F8B506461E4800F02D
:106E7400ABFBC0BB0125A6F12004C6F1200325FA13
:106E840003F305FA04F41C43184BD3E900C2B540DC
:106E94000CEA050002EA040101431F461DD13046F5
:106EA40001F0F6FB124BD3E9001288B129432243C7
:106EB400C3E90012D7E900231C430E4B0A481968A2
:106EC4001543C7E900540022BDE8F84000F034BB84
:106ED40021EA050122EA0402EAE72CEA050522EA8E
:106EE4000404C3E90054F8BDE02800200829002068
:106EF40000290020DC280020042A2DE9F34105465E
:106F04000C46164639D901F0E1FAD8B11C4B1D499B
:106F14001D601D4BDFF884801C701C4B00221E601A
:106F24000023C1E900231A49C1E90023013CE4B26A
:106F340000260327FF2C0CD1164A1748002100F025
:106F4400E9FA03E001F08AFA0028DFD002B0BDE8D4
:106F5400F08105EBC40315F834009B788DF80660C6
:106F6400424601A98DF804708DF8053001F0B8FA95
:106F7400013CE4B20028DDD0E8E70720E6E700BFE3
:106F84001029002000290020D8280020DC28002017
:106F9400082900207D6D0200D4AA02006D6E020053
:106FA40070B5084D084E00242B789C4201D3002074
:106FB40070BD3368012113F8340001F003FB013480
:106FC400F2E700BFD82800201029002070B5094D31
:106FD400094E00242B789C4204D3BDE87040074836
:106FE40000F0F2BA336813F8340001F02FFB0134D7
:106FF400F0E700BFD828002010290020E028002056
:107004001FB50021039001AA44F20100CDE901114A
:1070140000F004F805B05DF804FB000010B572B68A
:10702400FFF774FDFFF7DCFB0028FBD1104B114C7C
:107034001149E41AE408240444F00100FFF72CFD8C
:107044000E4B1B68DB0700D500BE0D4944F002005F
:10705400FFF722FDBFF34F8F0A490B4BCA6802F4B6
:10706400E0621343CB60BFF34F8F00BFFDE700BF67
:1070740040A9020068A90200D8AA0200F0ED00E0CD
:10708400E4AA020000ED00E00400FA05094A53787E
:1070940091780133DBB2994208BF002311789942F9
:1070A4001FBF03705078182303FB002014BF043063
:1070B400002070471429002073B5054600240DF103
:1070C40007000E468DF8074000F08EFA0DF1060019
:1070D400FFF7DCFF90B10670094B9DF80620456070
:1070E4005A709DF8070000F0A3FA24B9054B4FF439
:1070F4008012C3F80021204602B070BD0424F0E7DA
:107104001429002000E100E0024B4FF43C6043F0FE
:107114000103184700AB020038B50C4B0C4C4FF47C
:107124000032C3F8802001254FF48033C4F848337B
:10713400C4F808336560FFF7E7FF064BA560002439
:107144001C60FFF7E1FF044B1C7038BD00E100E058
:1071540000100140302A0020212A0020F8B51F4BDE
:107164001F491B680025C1F84051C1F84451C1F8BA
:107174004851C1F84C51C1F80051C1F804514BB306
:10718400D1F8044517490968641A24F07F442F464E
:107194001A68A24209D8A41A15441A7CDE691AB1E5
:1071A400D3E905201F749047AEB90F4A0F4B1178ED
:1071B4001B788B4205D10133DBB2022B08BF0023BD
:1071C400137012780A4B43F822500A4B4FF4801282
:1071D400C3F80021F8BD3346DAE700BF342A0020A3
:1071E40000100140302A00202D2A00202C2A0020E3
:1071F400242A002000E100E02DE9F04FA24AA3492F
:1072040013780978A24D994285B03CD00133DBB2A2
:10721400022B08BF002313709E4912789E4B0F68FF
:1072240053F822003B1823F07F4300220B602B68A5
:1072340016461446944613B942B12B6006E0196809
:1072440081420ED902B12B60091A196001272B68FB
:10725400DFF84CA201934FF00008BEB9DFF848B242
:1072640062E0401A0C44D968D3F81CE0C3F800C0AB
:1072740031B13A1922F07F42C3E90121DE611E4691
:1072840073460122D7E700263746E0E73446F6691D
:10729400804A63681268DFF814C2A068991A21F062
:1072A4007F41614500F2A8800144216001222274DB
:1072B4002A680023C4E90133E361002A40F0A58071
:1072C4002C60CAE79BF802105A1CD2B291428BF888
:1072D400002004BF00228BF80020182202FB03B315
:1072E4002A6819799C68022977D0032900F08180E3
:1072F400012919D1207CB8B9D3E90312A2605A69D3
:10730400E2609A69654BA2611B78002B0CBF0B46A7
:1073140003466360BCE78C4200F094808946C969E7
:107324000029F8D1002323749BF800309BF8012036
:107334009A42C7D12B68B8F1000F04D1019A9A423E
:1073440001D1002F43D0002B79D0D3F800A0544DA5
:10735400504BD5F804751C68DFF854813E1B98F82F
:10736400003026F07F4603369BB94FF48033C5F8CE
:107374004433C5F804334B4B4FF400324FF001094A
:10738400C3F880211A60C5F80090FFF7BDFE88F8A5
:107394000090B2452CBF5444A41924F07F44C5F88E
:1073A4004045D5F80435DB1B23F07F43E41B03334E
:1073B40024F07F44A3420AD9D5F80435C5F84035F2
:1073C400FFF7A2FE374B4FF40032C3F80021334BD2
:1073D40000221A7005B0BDE8F08F114691469FE770
:1073E4001174D2690123002AFAD1002B9CD02A609F
:1073F4009AE700231946F6E7D31A23F07F43834222
:1074040034BFC31A0023236050E7216813689942EC
:1074140013D8591A1160E26152E7091AD8691A4659
:1074240038B1034618688842F7D3401A18601846E2
:1074340013462160E061DC610FE71346F2E7FFF7D2
:107444006BFEC4E74C4511D1D3692B6073B9DFF8E7
:1074540044E00120CDE90212CAF80800CEF8003059
:107464000E4B1870FFF750FEDDE902120B68C96974
:10747400C9F81C1011B1086803440B602B689342CF
:1074840018BF4FF001084DE72C2A00202D2A0020B8
:10749400342A0020302A0020242A0020202A002018
:1074A4000010014000E100E014290020FEFF7F00ED
:1074B400212A002008B5FFF72FFE104B00200B22D5
:1074C40018809A700E4B18600E4B18700E4B187083
:1074D4000E4B4FF48012C021C3F8802183F814139B
:1074E4001A6002F18042A2F56F22C2F8080583F8FF
:1074F4001113074BD2F804251A6008BD1429002083
:10750400342A00202C2A00202D2A002000E100E04B
:10751400302A0020074B9B784BB132B128B1036865
:10752400187C20B959745A617047072070470820A5
:10753400704700BF142900202DE9F743DFF8848049
:1075440098F8023005460E461746ABB3A0B304299B
:1075540030D9436983B3437C0024012B0DF1070028
:107564000CBF8946A1468DF8074000F03DF80DF1A7
:107574000600FFF78BFDD8B1012303700F4B456064
:10758400D3F80435C0E90497C0E902369DF8063003
:1075940088F801309DF8070000F04AF824B9084B38
:1075A4004FF48012C3F80021204603B0BDE8F083F5
:1075B4000424EFE70724F7E70824F5E70010014067
:1075C40000E100E014290020064A92783AB130B173
:1075D400426922B1002202740221FFF76DBD082026
:1075E400704700BF1429002070B5EFF3108672B6FF
:1075F4000C4A946801239CB993600B4B0B4DD3F850
:10760400801029401160C3F88050D3F88410516071
:107614004FF0FF32C3F88420047006B962B670BD1F
:107624000370FAE7382A002000E100E0FC06FFBD01
:10763400084B9A6810B55AB150B9EFF3108172B67D
:10764400054A1C6814605C685460986001B962B6AD
:1076540010BD00BF382A002000E100E001F01F0245
:107664004B090121914000EB830000F01EB801F0AA
:107674001F0301229A404B0900EB8300D14300F021
:107684002CB84B0901F01F0150F82300C84000F04A
:107694000100704710B5034653E8000F0A4643E85B
:1076A400002494F0000FF7D110BD10B5034653E841
:1076B400002F42EA010043E8000494F0000FF6D1E1
:1076C40010BD10B5034653E8000F00EA010243E879
:1076D400002494F0000FF6D110BD10B5034653E812
:1076E400002F02EA010043E8000494F0000FF6D1F1
:1076F40010BD10B5034653E8002F02EB010043E828
:10770400000494F0000FF6D110BD10B5034653E801
:10771400002FA2EB010043E8000494F0000FF6D11F
:1077240010BD0121FFF7C1BF0021FFF7CABF10B58B
:1077340090B1D0E9012301689B1ADBB20A60013BD6
:10774400DBB2FF2B026802D10020107110BD11685A
:107754004C1C14600B70F2E70E20F7E737B50546B2
:1077640000240DF107008DF80740FFF73DFF2A685C
:107774006B68116899420ED9481E106011F8014CCB
:10778400EB68298A01FB0434AB6811791B1ADBB25C
:10779400994238BF13719DF80700FFF749FF20464F
:1077A40003B030BD37B5054600230DF107000C4684
:1077B4008DF80730FFF718FF2A681368591C116009
:1077C400E968641A298AB4FBF1F41C709DF8070077
:1077D400FFF72EFF03B030BD826810B504462AB10E
:1077E40043690168006998470023A36010BD0EB483
:1077F40003B5039921B104AB01AA019300F076F813
:1078040002B05DF804EB03B070470A2938B50446AA
:107814000D4602D10D21FFF7F8FFA3682268591C19
:10782400A160D554D4E901329A4204D32046BDE87C
:107834003840FFF7D1BF38BD2DE9F84F9846DDE950
:107844000A43154682460F460A464FF00109AA42EA
:107854000FD2C14538BFC14613F0010B01D16CB939
:1078640000240126B8F1010F1BD908F1FF386E433B
:10787400F8E709F10109B2FBF5F2E8E79B070ED539
:10788400B8F1000F0CBF30262026A145E9D2013CF7
:1078940031465046FFF7B9FF002CF6D1E0E7202629
:1078A400F3E7B7FBF6F39D42E1D9DFF83C80B7FB81
:1078B400F6F3504618F8031006FB1377FFF7A5FFFD
:1078C4003346AB42B6FBF5F6F1D2BBF1000F02D062
:1078D4000CB1A14501D3BDE8F88F20215046013CED
:1078E400FFF793FFF4E700BF06AB02002DE9F74F63
:1078F400054617468846002900F0428118F8011B06
:1079040049B92B7B002B00F03B81284603B0BDE82E
:10791400F04FFFF761BF252940F0B780002698F8A3
:1079240000302D2B424608F1010823D0302B24D0FF
:107934002B2B25D000242A2B02F1010123D13B68F3
:107944001A1D1B683A601C440A4613782E2B26D154
:1079540001324FF0000A104610F8011BA1F1300C5F
:10796400BCF1090F1DD80A2303FB0A13A3F1300A43
:107974000246F0E746F00106D1E746F00206CEE7FC
:1079840046F00406CBE711F8013CA3F130000928C6
:10799400DBD80A2202FB0434303C0A46CBE74FF022
:1079A400000A12F8011B01F0FB0068289046F8D089
:1079B400782909D86F290CD8632962D022D82529BF
:1079C40063D0582900F0888098F80030002B95D1B6
:1079D40097E770390829F7D801A353F821F000BFBD
:1079E4005F7B0200CD790200CD790200ED7A0200BE
:1079F400CD790200CB7A0200CD790200CD79020064
:107A0400DD7A0200642901D06929DDD13A68D2F80F
:107A14000090111D89EAE9723960A2EBE9724FF016
:107A2400010B092A35DCD34538BFD3462CB1B9F153
:107A3400000F01DB720700D5013CB30702D5BAF190
:107A4400000F03D0F00701D44CBB0024B9F1000FA0
:107A54002DDAC9F100092D212846FFF7D6FE06F0DC
:107A64000302022A04D1BAF1000F01D11CBB002485
:107A7400CDE9004653460A2249462846FFF7DCFE74
:107A8400A2E73B681A1D19783A602846FFF7BDFE45
:107A94009AE70A230BF1010BB2FBF3F2C1E7A3450A
:107AA400D4D220212846013CFFF7AFFECCE7710772
:107AB400D5D52B21D0E7A345DAD230212846013C85
:107AC400FFF7A3FED2E73968CDE900460A1D3A6004
:107AD40053460A220968D0E739680A1D3A60CDE99D
:107AE400004653461022F5E73B681A1D3A6016F02B
:107AF4000106D3F8009028D1B9F1000F03D048460D
:107B040002F0B9FE0646B44200D904BB09F1FF39BC
:107B140019F8011F00293FF457AF2846FFF775FEF7
:107B2400F6E728460136FFF770FE19F8061000291B
:107B3400F7D1A642BFF448AF002C3FF445AF202153
:107B44002846013CFFF761FEF3E70026EDE720211C
:107B54002846013CFFF759FED5E73B681A1D3A60F9
:107B6400302128461C68FFF750FE78212846FFF78D
:107B74004CFE00220823CDE90032214610227CE786
:107B840003B0BDE8F08F00BF2DE9F84FB0F806A0B0
:107B94004579D2F800B09DF828900AFB05F5043D1C
:107BA40088460BEB0301A94203F1040488BFA5EB4B
:107BB400030BB4FBFAF607460AFB1644C2F800B0FE
:107BC4004EB9AAEB04055D4528BF5D46BBF1000F25
:107BD40004D1BDE8F88F3F68013EF1E7043408EBB7
:107BE40006003C442A46B9F1000F0DD02146ABEB08
:107BF400050B02F0E4FDDA452E443F6855464FF08C
:107C0400000428BF5D46E1E701462046EFE7FFF7A1
:107C14008EBDF8B546790146721E0546002393428F
:107C24002D6803D30024A64202D8F8BD0133F6E739
:107C34000F682846FFF7B6FD01343946F3E72DE90E
:107C4400F843068ACD1C0746FFF788FD043E3544F9
:107C54000446B5FBF6F5F0B14FF48073EDB28380C2
:107C6400C680013D076081464FF00008A84512D246
:107C74003846FFF773FD064648B1637901336371F3
:107C840008F10108C9F8000007608146EEE72046C4
:107C9400FFF7BFFF34462046BDE8F88301210430D6
:107CA400FFF727BD10B5012104460430FFF72DFD71
:107CB40010F0FF0F04D12046BDE81040FFF7A9BF24
:107CC40010BD1FB503920022009203AAFFF75CFFC8
:107CD40005B05DF804FB1FB503920122009203AACC
:107CE400FFF752FF05B05DF804FB41DF7047000069
:107CF400064B10B500241C70054B1C60BFF35F8F4E
:107D04000449054800F039F8204610BD4C2A0020EB
:107D1400502A002020AB0200442A002007B500238B
:107D24000DF107008DF80730FFF75EFCF1EE103A15
:107D340023F09F03E1EE103ABFF35F8F094B40221B
:107D4400C3F884219DF80700FFF772FC02F072FB70
:107D540020B1FFF7CAFF03B05DF804FB20BF40BFAA
:107D640020BFF8E700E100E0836800225A60C3E91D
:107D740004229A60DA601A6070470B684A684360AC
:107D8400934208BF0023016008BF43607047436803
:107D940043B10268916852680B449342436004BF44
:107DA400002343607047000010B50D49A1F594729B
:107DB400914201D800200FE08C1AE30F03EBE40397
:107DC4005B1002EBC30452F83330834205D802D26D
:107DD40004F10802ECE7606810BD2146E8E700BF43
:107DE40024B0020008B5FFF7DFFF024B002808BFEC
:107DF400184608BDE6AE02000C4B1B78062B10D1CA
:107E04000B4B1B681A070CD10A4B186800F0F003DF
:107E1400302B08D000F0E000A0F140035842584154
:107E24007047002070470120704700BFE00F00F04A
:107E3400E40F00F0E80F00F0094B1B78062B0CD17F
:107E4400084B1B681A0708D1074B186800F0F000AC
:107E5400A0F130035842584170470020704700BFDA
:107E6400E00F00F0E40F00F0E80F00F008B5FFF7B2
:107E7400C3FF28B17D4B7E4A1B68C3F30423136000
:107E8400FFF7DAFF10B17B4B7B4A1A60FFF7B4FFB0
:107E940028B17A4B7A4A1B68C3F342331360FFF765
:107EA400CBFF20B1774AD36823F08073D360FFF708
:107EB400A3FF40B14FF080430022C3F80C21C3F864
:107EC4001021C3F83825FFF7B7FF10B16E4B03221A
:107ED4001A60FFF7B1FF40B16C4B05221A60012212
:107EE4009A6700229A603F225A60694B1B78062BDE
:107EF40050D1684B1B6819074CD1674B1B6803F0C2
:107F0400F003502B46D14FF08052644BD2F8041446
:107F1400C3F82015D2F80814C3F82415D2F80C14A9
:107F2400C3F82815D2F81014C3F82C15D2F8141479
:107F3400C3F83015D2F81814C3F83415D2F81C1449
:107F4400C3F84015D2F82014C3F84415D2F8241409
:107F5400C3F84815D2F82814C3F84C15D2F82C14D9
:107F6400C3F85015D2F83014C3F85415D2F83414A9
:107F7400C3F86015D2F83814C3F86415D2F83C1469
:107F8400C3F86815D2F84014C3F86C15D2F8442429
:107F9400C3F87025FFF730FF28B1414B414A1B68F5
:107FA40003F04F031360FFF727FF48B14FF08043FE
:107FB400D3F80024D20744BF6FF00102C3F80024B1
:107FC400394B1B68062B08D1384B1B68062B01BFA5
:107FD400374A136843F480631360364AD2F8883012
:107FE40043F47003C2F88830BFF34F8FBFF36F8F31
:107FF4004FF01023D3F80022002A03DBD3F8043215
:10800400002B2FDA2C4B0122C3F80425D3F80024CB
:10801400002AFBD04FF010221521C2F80012D3F829
:108024000024002AFBD04FF010231522C3F80422A9
:10803400214B1A46D3F800140029FBD00021C3F8C1
:108044000415D2F80034002BFBD0BFF34F8F19492D
:108054001A4BCA6802F4E0621343CB60BFF34F8F3C
:1080640000BFFDE7164B174A1A6008BD2403001031
:108074004035014074C007400DF0ADBA4402001011
:108084003C050040F0ED00E0A00500401056004023
:10809400E00F00F0E40F00F0E80F00F000C0004033
:1080A40058020010E40E00403001001034010010AA
:1080B4003C17004000ED00E000E001400400FA0538
:1080C400D42200200090D003044B1A5C0123934077
:1080D4004FF0A042C2F80C35704700BF24B0020034
:1080E400044B1A5C012393404FF0A042C2F80835B8
:1080F400704700BF24B0020008B50020FFF7F0FF6E
:108104000120FFF7EDFF0220FFF7EAFFBDE808407A
:108114000320FFF7E5BFC20708B501460CD54FF0B1
:10812400A0430322C3F84427C3F84827C3F84C27C5
:10813400C3F85027FFF7E0FF8B070AD54FF0A043A1
:108144000C22C3F83427C3F83827C3F83C27C3F8F4
:10815400402708BD38B5074C051E04F1080318BFB5
:108164001C4623682BB11A6822605B68284698472E
:10817400F7E738BD5C2A002020B9054B01225A706C
:10818400FFF7E8BF012802D1014A9070F8E7704771
:10819400542A002020B9034B01225A70FFF7DABF9A
:1081A400704700BF542A002038B50B4C237883B99C
:1081B4000A486360A3602361E36000F0C9F80546E0
:1081C40002F038F908B900F0CFF8012323702846EB
:1081D40038BD8525FBE700BF542A00207D810200BD
:1081E40037B50B4C00230DF107008DF80730FFF76E
:1081F400FBF9E368013BE360E56815B900F0C6F8F4
:10820400A5709DF80700FFF713FA03B030BD00BF57
:10821400542A0020012813B508D003281CD018B90B
:10822400104B0122C3F8802002B010BD0E4C002375
:108234000DF107008DF80730FFF7D6F923780BB955
:10824400FFF7B2FFE3689DF807000133E360012301
:10825400A370FFF7EDF9E7E700F086F8FFF7C0FF3A
:10826400E2E700BF00E100E0542A00201FB50378D4
:108274008DF800304368019383688DF80830C36833
:10828400054A0393054B684653F8213052F82110F0
:10829400984705B05DF804FB682A00206C2A00208A
:1082A4001FB503788DF800304368019383688DF817
:1082B4000830C368054A0393054B684653F82130D8
:1082C40052F82110984705B05DF804FB682A002095
:1082D4006C2A0020F0B5194B90F800C091F81DE00D
:1082E40043F82C20164B16460A6943F82C20154BEC
:1082F40003F80CE00C4607460FCC89B06D460FC559
:1083040094E80F0085E80F00CDF810C0BEF1000F0F
:1083140009D0002E0C4A694608BF3246381D00F0C9
:108324007FFD09B0F0BD002E084A694608BF3246F9
:1083340007F10C0000F086FBF3E700BF6C2A002075
:10834400682A0020702A002071820200A58202009F
:10835400044A137923B901211060918018467047AB
:1083640085207047742A0020074B1A68D2075FBF24
:10837400C02283F8002301221A604FF080430122B7
:10838400C3F81825704700BF00E100E0044B012248
:108394001A604FF08042D2F81834DB03FBD47047E4
:1083A4000C000040154B07B51A687AB100221A6018
:1083B4001B680093009B4FF080430122C3F80823FD
:1083C4000F4B587910B95A711B6898470D4B1A68AE
:1083D40082B100221A601B680193019B4FF0804315
:1083E4000222C3F80823064B1B68012003B05DF882
:1083F40004EB184703B05DF804FB00BF0001004024
:10840400742A00200401004000F1804000F5C040BF
:10841400002382B0036003680193019B02B070479C
:10842400800000F1A040D0F8002722F44032C0F8C8
:108434000027D0F8003743EA0141C0F8001770471D
:10844400054B4FF0FF32072843F8202084BFC018A3
:1084540080F84820704700BF7C2A002010B5174CD4
:1084640094F8583043BB04F130032021FF22013932
:1084740011F0FF0103F8012BF9D1C8B2FFF7E0FFB7
:1084840001310C29F9D1042200210D4802F0C0F970
:108494000C4BC02283F8062340221A604FF4BE70AE
:1084A400FFF7B2FF084B4FF00042C3F80423012347
:1084B40084F85830002010BD0820FCE77C2A0020F6
:1084C400D02A002000E100E000600040034B93F854
:1084D4005800003818BF0120704700BF7C2A0020D4
:1084E400F0B5364D2C1894F93040002C64DA8C78B1
:1084F400C4F34004002C0BBF082300230C260826D9
:10850400B34201D10420F0BD55F8237001373FD1A7
:108514002E1845F8232086F8303014B9EA1882F86A
:1085240048008A78540713D4D60733D5820002F161
:10853400A042D2F8004724F00204C2F80047204EBB
:10854400C20800F007070124BC40B75C3C43B454A4
:108554008A780C7812F0020225D09B0003F1804344
:1085640003F5C0430202D3F8101521F4473121F476
:108574004071C3F810152404D3F8101502F4F8520E
:1085840004F4403422430A43C3F810250020BAE718
:108594000133B5E74C7800F5E0724FF0A046A40033
:1085A40046F82240CBE7083B2B4493F8501041EAAD
:1085B400841483F85040E9E70820A4E77C2A0020CB
:1085C400D02A002038B51F4C251895F93020072AE9
:1085D40016DD224492F848309B09032B0BD14FF04F
:1085E400A043D3F81015C14001F001010231BDE8E8
:1085F4003840FFF715BF012B0CBF02210321F6E71A
:10860400D3B2072B1CD8930003F1804303F5C04376
:10861400D3F8100540F00100C3F8100502F1400042
:10862400800080B2FFF7F0FE51B195F9303054F874
:1086340023302BB1012303FA02F2034BC3F80423C2
:1086440038BD00BF7C2A0020006000400E4B03446C
:1086540093F93020072A02DD0021FFF7E1BED3B2EF
:10866400072B10D8930003F1804303F5C043D3F8DC
:10867400101521F00101C3F81015012303FA02F2C9
:10868400024BC3F8082370477C2A00200060004096
:108694004FF0A043D3F8103523FA00F000F00100A6
:1086A400704700002DE9F04F87B000245A4D039421
:1086B4004FF48072012102F1804303F5C04390B26C
:1086C4001B68012B06D1D5F804330B4202D0FFF707
:1086D4009BFE0C430432B2F5907F4FEA4101EAD18C
:1086E4004E4B1B68012B0AD14FF4BE70FFF78CFE72
:1086F4004FF0A04344F00044D3F81035039314F032
:10870400FF0F1AD0464F00250126344210D0AB008B
:1087140003F1804303F5C043D3F81005D3F81015D3
:1087240057F8253023B1C1F30141C0F30420984721
:108734000135082D4FEA4606E7D1002C65DA002101
:108744004FF0FF33CDE90413354D01274FF0000AF4
:10875400344ED1464FF0A04816F9013B5A1C45D07F
:10876400C3F3C20106AA5018DCB210F8042C03F0BB
:108774003F0B03F0070307FA03F31A4236D005EB65
:108784000B02A40992F9302055F8222052B9032C87
:108794002CD10DF1100E1EF801C04CEA030C0EF89A
:1087A40001C001E0032CF4D00BF5E07110F80C0CBF
:1087B40058F821101842C1F3014105D0022915D1FE
:1087C400032C0FD1214604E003290FD1032C09D136
:1087D40002215846019209F10109FFF721FE019A8D
:1087E4005FFA89F912B12146584690470AF1010A05
:1087F400BAF1040FB0D1B9F1000F06D04FF0A04385
:10880400039AD3F81035934202D107B0BDE8F08F34
:108814000393049B059399E7006000407C6100404A
:108824007C2A0020CC2A0020014B1B68184700BF7B
:10883400D82A00200E4B984237B50C4602D00020AF
:1088440003B030BD00230DF107008DF80730FEF7AB
:10885400CBFE084B1D7915B901221C601A719DF8D5
:108864000700FEF7E5FE002DE9D01120E8E700BF80
:1088740000200040D82A0020034B984201BF034B3C
:1088840000221A601A71704700200040D82A002084
:108894000023435082B043580193019B02B07047B8
:1088A4000A4610B54FF48E71FFF7F2FF136A916810
:1088B400C95C136A01331362C0F81C1510BD8B69BF
:1088C4000A4610B54FF4847123B9FFF7E1FFD0F8DD
:1088D400183510BDFFF7DCFF536AD168D0F81805CE
:1088E400C854536A01335362F3E700001FB50123F0
:1088F4008DF80030044BCDE90110D3E9001268462D
:10890400904705B05DF804FBE02A002030B54B48E1
:10891400D0F8043313F4007F85B005464DD0D0F869
:108924002431002B49D04FF49271FFF7B1FF4FF47B
:108934000173C0F80833424B93F829200AB9012285
:1089440042603E4902228DF80020D1F88024C1F80B
:10895400802403929A690292DA6801920022C3E9A0
:1089640006226846D3E9001290473448D0F81C31F7
:108974005BB133490A6A4B699A420A464AD291F872
:108984002830002B46D1FFF78BFF2C48D0F8443118
:108994008BB14FF4A271FFF77BFF294B93F8292089
:1089A4000AB1012202609A692AB10022586AD96880
:1089B4009A61FFF79BFF05B030BDD5F804335B0720
:1089C400D3D5D5F80831002BCFD01D4C1B482146F8
:1089D400FFF775FF636AA2699A422346C5D1E2692B
:1089E400E1684AB12369E3600023606AA261E3613C
:1089F4006362FFF77BFFB8E794F829200AB90122E4
:108A04006A600E4A4FF40170C2F808030022586AE3
:108A14009A61EEE74FF48E710848FFF739FF516908
:108A24000029B2D00023029191688DF800300191A1
:108A340053616846D2E900139847A6E70020004036
:108A4400E02A00202DE9F843574B057991462C2262
:108A540002FB0532064692F82A200C469846002A64
:108A640040F09D8051490068FFF7E4FE0746002866
:108A740040F0978021683368481C0BD04FF0A04029
:108A840001228A40C0F8082501F5E0724FF0030C7A
:108A940040F822C06068421C1FBF00F5E0724FF02E
:108AA400A04C4FF0000E4CF822E0A269C3F8242534
:108AB40094F814C0627DBCF1010F4CEA0202C3F8C1
:108AC4006C25C3F81405C3F80C151DD1A1684A1C04
:108AD4001FBF01F5E0724FF0A0404FF0000C40F8CA
:108AE40022C0E268501C0BD04FF0A04C01209040F3
:108AF400CCF8080502F5E0704FF0030E4CF820E0C6
:108B0400C3F80825C3F810152C236B4308EB0302A4
:108B1400C2F80490226948F80320B9F1000F2BD061
:108B24003068247F4FF48E71FFF7B2FE30684FF443
:108B3400A271FFF7ADFE32681D4BC2F80433110B6E
:108B440042F30732002AA8BF02F160404FEA4413FF
:108B5400BABF184801F00F0400F56140DBB2B4BF9E
:108B6400035580F8003301F01F01012303FA01F1DA
:108B74005209114B43F8221033680422C3F800252C
:108B84002C2303FB05830022C3E9062283F8292052
:108B94005A61012283F82A203846BDE8F883082761
:108BA400FAE71127F8E700BFE02A00201189020044
:108BB4008000020014ED00E000E100E0F8B5047963
:108BC40000682C4D0023C0F800352C2303FB04530C
:108BD4005B686BB1284BC0F8083340F30733C0F32C
:108BE40004315B0901228A402033244941F82320BF
:108BF400D0F80C65D0F81415D0F80835D0F8102545
:108C04004FF0FF37BE42C0F8147518BF06F5E07682
:108C1400C0F80C75C0F80875C0F810751EBF4FF089
:108C2400A0474FF0020C47F826C04E1C1FBF4FF060
:108C3400A04601F5E071022746F82170511C1FBFC0
:108C44004FF0A04102F5E072022641F822605A1C5E
:108C54001FBF03F5E0734FF0A042022142F8231036
:108C6400FFF70AFE2C2303FB0454002384F82A3064
:108C74006360F8BDE02A00208402020000E100E005
:108C84002DE9F843204B07794FF02C0909FB0734F1
:108C9400054666699846002E33D100686261A1607A
:108CA40026624FF48E7184F82860FFF7F1FD28687E
:108CB400012383602146FFF7F3FD6368A14683B96E
:108CC4002868226A63699A4211D32B68D3F81C215D
:108CD400002AFBD00122DA602C2303FB0783002245
:108CE4005A613046BDE8F88394F828303BB9D0F88F
:108CF4001C31002BF8D04946FFF7D2FDE1E70F26DF
:108D0400EAE71126EDE700BFE02A002000234350E4
:108D140082B043580193019B02B070471FB50123F1
:108D24008DF80030044BCDE90110D3E900126846F8
:108D3400904705B05DF804FB0C2B00207FB5364A44
:108D4400D2F82461002E46D010464FF49271FFF7FA
:108D5400DDFF02238DF80030D2F88034C2F880346D
:108D64000393D2F83C3502932C4BDA68019200222B
:108D7400C3E906226846D3E9001290472648D0F892
:108D8400443173B14FF4A271FFF7C0FF234B9A69CA
:108D94003AB10022C3E90622D968D0F83C05FFF7AE
:108DA400BDFF1D48D0F820319BB14FF49071FFF7FF
:108DB400ADFF1A4B5A6962B1D0F84C1502910022EA
:108DC40099688DF8002001915A616846D3E9001230
:108DD400904704B070BDD2F81031002BCED04FF4C0
:108DE40088711046FFF792FF0C4BD2F83C05996945
:108DF4008842C3D1DC69D96864B1D2F8005225F045
:108E04002005C2F800521A699C61DA60DE61FFF73E
:108E140085FFB3E79C61FAE7002000400C2B00209B
:108E24002DE9F8435B4B06799146242202FB063276
:108E3400044692F820200D469846002A40F0A5806A
:108E440055490068FFF7F6FC0746002840F09F806C
:108E540029682368481C0BD04FF0A04001228A40A7
:108E6400C0F8082501F5E0724FF0030C40F822C069
:108E74006868421C1FBF00F5E0724FF0A04C4FF031
:108E8400000E4CF822E0AA69C3F8242595F814C012
:108E94006A7DBCF1010F4CEA0202C3F86C25C3F8E9
:108EA4000C15C3F814051DD1A9684A1C1FBF01F590
:108EB400E0724FF0A0404FF0000C40F822C0EA6886
:108EC400501C0BD04FF0A04C01209040CCF808056A
:108ED40002F5E0704FF0030E4CF820E0C3F80825CB
:108EE400C3F810152423734308EB0302C2F804905B
:108EF4002A6948F80320B9F1000F35D020682A7F89
:108F04004FF48871FFF702FF20684FF49071FFF768
:108F1400FDFE20684FF49271FFF7F8FE20684FF4CD
:108F2400A271FFF7F3FE23681C49C3F80413190B5D
:108F340043F30733002BAEBF03F1604001F00F058C
:108F440017484FEA4212A8BF00F56140D2B2B4BF3D
:108F5400425580F8002301F01F01012202FA01F1B9
:108F64005B09104A42F8231023680822C3F800253D
:108F7400242303FB06830022C3E906225A6101224B
:108F840083F820203846BDE8F8830827FAE711273C
:108F9400F8E700BF0C2B0020418D020010030200F3
:108FA40014ED00E000E100E0F8B5047900682C4D10
:108FB4000023C0F80035242303FB04535B686BB122
:108FC400284BC0F8083340F30733C0F304315B097E
:108FD40001228A402033244941F82320D0F80C652B
:108FE400D0F81415D0F80835D0F810254FF0FF3715
:108FF400BE42C0F80C7518BF06F5E076C0F81475CB
:10900400C0F80875C0F810751EBF4FF0A0474FF0A8
:10901400020C47F826C04E1C1FBF4FF0A04601F5B6
:10902400E071022746F82170511C1FBF4FF0A04188
:1090340002F5E072022641F822605A1C1FBF03F5B4
:10904400E0734FF0A042022142F82310FFF714FC12
:10905400242303FB0454002384F820306360F8BD08
:109064000C2B00201003020000E100E001F060433B
:10907400B3F1005F2DE9F041064632D11B4B07796D
:10908400242505FB073598466C6964BB6A61006852
:10909400A9604FF49071FFF739FE4FF4AC7130685A
:1090A400FFF734FE33686A69A968C3F84415C3F846
:1090B400482501229A606A6862B9D3F82021D3F85E
:1090C400584152B9002CF8D00F24242303FB0787FE
:1090D40000237B612046BDE8F081002C18BF0F24DB
:1090E400F3E71024F6E71124F4E700BF0C2B00206B
:1090F40072DF704773DF704776DF70477ADF70473F
:109104007CDF70477FDF70478FDF7047B1DF7047C8
:10911400FDF776BF08B5064B01211878FFF7EAFF83
:1091240008B1FDF76DFFBDE808400020FEF7CCBF95
:10913400F02200200388212B13B5044654D007D80D
:10914400112B30D0132B47D0102B0CD002B010BDF4
:10915400522B51D0562B01D03B2BF7D1A088132191
:10916400FFF7CAFF1AE0284B28482949C01AC0084B
:10917400000440F00300FDF78FFC0120FEF7A4FF7C
:109184000020FEF7ADFF234BA1882348198000F08F
:10919400C5FF08B1FDF734FFFDF702FF0028D5D065
:1091A400FDF72EFFD2E7184B18481C49C01AC00817
:1091B400000440F00300FDF76FFC0120FEF790FF70
:1091C400144B4FF6FF721A80FDF700FF08B1FDF74C
:1091D40017FFFFF79FFFB9E70E4800231A468521C2
:1091E4000088FFF78FFFD9E7002301A98088ADF835
:1091F4000430FFF789FFD1E7064800231A461946D1
:109204000088FFF783FFC9E740A9020068A90200AC
:109214004AB00200F22200209C2B002054B002002D
:1092240008B503784BB9054B3B211888FFF764FF59
:1092340018B1BDE80840FDF7E3BE08BDF2220020E6
:109244000D2807B51BD1124B12480191C01AC00852
:109254000004114940F00300FDF71EFC0F4B019A76
:109264000F49188801F03EF830F008020CD043F2A0
:109274000202904208D043F20142904204D003B06B
:109284005DF804EBFDF7BCBE03B05DF804FB00BF62
:1092940040A9020068A9020061B00200F222002085
:1092A400842B002010B50A4B0A4CE41AE408240469
:1092B40044F0030402203AB1FEF706FF06492046B3
:1092C400BDE81040FDF7E8BBFEF70AFF0349F6E7E7
:1092D40040A9020068A902007BB002008CB0020021
:1092E400FDF78EBE00B54FF40041A7B00020FDF796
:1092F4001DFA08B1FDF784FEFDF74EF90120FEF7D3
:109304000AFFFEF7D7F808B1FDF77AFE6A4840F283
:1093140066620121FDF7F0FD08B1FDF771FEFEF76D
:10932400E7FC08B1FDF76CFE01F046F808B1FDF763
:1093340067FE002317A90120179301F0C5F808B1AF
:10934400FDF75EFE17A801F071F908B1FDF758FEAC
:1093540011235A488DF8203001F08DFA574982B212
:1093640008A8FFF7CDFE08B1FDF74AFE0822002148
:1093740017A801F04DFA524A4FF0C87317A8CDE967
:109384001723FFF7BBFE08B1FDF73AFE4D48002155
:1093940000F0BCFD08B1FDF733FE002308934A48F2
:1093A4004A4B179317A900F0A7FE08B1FDF728FE52
:1093B400474B4848089308A900F026FF08B1FDF779
:1093C4001FFE41F22353ADF80430424B424C9B7CC8
:1093D4008DF806303C22002108A801F019FA022376
:1093E4008DF820303C2240F20163002117A8ADF82B
:1093F400223001F00DFA22460123ADF86C3052F808
:10940400041B01AB08A81C9300F0F0F808B1FDF7A9
:10941400F7FD324AA16817A800F0E8F808B1FDF793
:10942400EFFD1822002102A801F0F2F90023012225
:10943400ADF8143003934FF480738DF80820ADF821
:109444001C3025492648402302AA0493FFF750FE06
:1094540008B1FDF7D5FD1C22002117A801F0D8F9A9
:1094640000234FF42022CDE91732ADF86A304FF4CF
:1094740020328DF86C301B4B19921C9303221A4B2B
:109484008DF8682017A81D9300F078FB08B1FDF74C
:10949400B7FD164B16481749C01AC008000440F01F
:1094A4000300FDF7F9FAFFF735FEFDF799F90028F7
:1094B400FBD1FEF733FCF8E7D82200209EB002006F
:1094C4005000A000702B00209C2B0020159102005E
:1094D400A9920200842B0020E0220020EC2200202C
:1094E400F022002025920200E592020040A9020029
:1094F40068A90200ACB002006DDF704779DF7047E5
:109504007DDF704764DF70472DE9F04F85B000259B
:109514000E9CBDF83CB0B4F800A0019107469046FB
:109524001E46A9463A884A450DDC45B12388013BCD
:10953400A3EB0A039BB2FF2B3AD806F80A300020AB
:1095440005B0BDE8F08F7A6852F829000390002234
:109554000DF10B0103A8FFF7D5FF0028F0D19DF80A
:109564000B20424521D12288002D14BF0020022067
:1095740002EB0801014459451ADC3DB9013292B2AB
:10958400019B2280B35422880132228022880DF16B
:109594000B01324403A8FFF7B5FF0028D0D121887E
:1095A4009DF80B200A442280012509F10109B9E73D
:1095B4000C20C5E72DE9F341089FBDF8248015462A
:1095C400CDE90078022204461E46FFF79DFF50B9FC
:1095D4003346102229462046CDE9087802B0BDE87A
:1095E400F041FFF791BF02B0BDE8F0812DE9F04FE3
:1095F40000231788138090F82D3085B006460D4659
:10960400144653B3082F01D80C2027E102A8FFF712
:1096140073FF002840F0228123880822EA5423881B
:1096240001339BB21B222380EA542088013080B28C
:10963400208006220DF10901284401F0C0F8238896
:109644009DF8082006339BB212F0FE0218BF0122D7
:109654002380EA54238801332380B378FBB1238821
:109664000433BB42D0D802A8FFF748FF002840F0DB
:10967400F58023880322EA54238801339BB21922FC
:109684002380EA542388BDF8082001339BB2E918EB
:109694002380EA54120A4A70238802332380F27822
:1096A4009AB12388D91CB942AED80221E95423883F
:1096B40001339BB201212380E95423880B449BB2DC
:1096C4002380EA5423880B4423807268AAB1238838
:1096D400D91CB94298D8022192F90020E954238870
:1096E40001339BB20A212380E954238801339BB2BE
:1096F4002380EA542388013323803389002B40F0EC
:10970400A180338A5BB1CDE900472B4607220321B0
:1097140006F11000FFF74EFF002840F09F80338BC6
:109724005BB1CDE900472B461522142106F1180040
:10973400FFF740FF002840F09180326A002A40F091
:109744009080D6F82480B8F1000F30D0B8F80430F7
:109754002188981C8A1C0244BA423FF655AFFE2861
:109764003FF652AF03336B54238801339BB2FF227D
:109774002380EA54238801339BB22380B8F8002065
:10978400EA54E918120A4A702088023080B2208014
:10979400B8F804205AB1D8F8081000296BD028442E
:1097A40001F00DF82388B8F804201344238096F8B8
:1097B4002C30002B40F09A80307800284ED033882B
:1097C400012B58D0228802F1020CBC453FF61CAF95
:1097D400012805D17378023313449F42FFF414AF78
:1097E400023FBF1ABFB202A905EB0C00ADF8087026
:1097F400FFF786FE90BB3178BDF80830022900F0EF
:10980400BA8072789A4202D3BB4240F2B2800129F4
:1098140040F0B380974293B2C0F0AF80ADF8083007
:109824000821BDF80830FE2B3FF6EEAE2288013346
:10983400AB542288013292B22280A9542288134464
:1098440023800BE0CDE900472B460622022106F1D6
:109854000800FFF7AFFE00283FF453AF05B0BDE8A2
:10986400F08FB4F800C00CF10603BB423FF6CCAE57
:109874001188052901D80720F0E76FF4486E01EB41
:109884000E039BB24FF27D3E7345F4D95388052BEA
:10989400F1D96FF44860181880B27045EBD94FF6CF
:1098A400FF70814203D0834201D09942E3D805235B
:1098B40005F80C30238801339BB212212380E9542C
:1098C400238801339BB223801188E954E818090ADC
:1098D4004170238802339BB223805288EA54E918EA
:1098E400120A4A702388023323802AE7B36A002BC2
:1098F400C1D04FF000094FF00C0A4FF0160B96F848
:109904002C305FFA89F293427FF656AFB16A0AFBB4
:1099140002F201EB0208B8F80430981CFE283FF666
:1099240073AE208803332B54238801339BB22380E6
:1099340005F803B0238801339BB223808A5AEA5482
:10994400E918120A4A702088023080B22080B8F8E0
:1099540004205AB1D8F8081000298CD0284400F00B
:109964002EFF2388B8F804201344238009F1010949
:10997400C5E7092155E7BB42FBD9ADF808704FE7AD
:1099840075DF704776DF70477ADF70477BDF70479B
:10999400034B1A8882420CBF18460020704700BF50
:1099A400C42B0020024B9B6903B11847704700BFCA
:1099B400A82B002073B585B22846FFF7E9FF0446BB
:1099C40070B1164E027A337B9A420BD200F10A012F
:1099D4002846FFF7D5FFE8B1112801D0FFF7E2FFD1
:1099E40002B070BD00230372337C43B13B2128468F
:1099F400FFF7C8FF30F0080301D0FFF7D3FF736906
:109A0400002BEDD000228DF80420ADF8065001A8FB
:109A14009847E5E7237A01332372E1E7A82B002076
:109A240037B50B46497A0F4A71B9D2E901141D7A48
:109A34000246002D18BF21465868FDF77DFD08B188
:109A4400FFF7B0FF03B030BD002119725369002B3A
:109A5400F8D00122ADF806008DF8042001A898473B
:109A6400F0E700BFA82B00204B8802889A4213D845
:109A740042889A4210D380888A8840F2F31398422D
:109A840094BF031AC31A934206D800F2F31090420B
:109A940034BF002001207047002070470388122B38
:109AA40070B5014659D004D8102B1ED0112B44D0C8
:109AB40070BD502BFCD12F4BC288DB899A42F7D161
:109AC400038A022BF4D186883046FFF761FF0546EE
:109AD4000028EDD001F1120000F023F938BB6868CA
:109AE400FDF772FD0028E3D009E0C37B012BDFD131
:109AF4004FF6FF70FFF74CFF054620B90420BDE880
:109B04007040FFF74FBF1C4A8E8806800023037203
:109B14001368C0F80A305368C0F80E3010310A30A8
:109B2400FFF7A2FF134B6872DB89002BC0D12946D3
:109B34003046BDE87040FFF773BF8088FFF728FF09
:109B440004460028B4D04068FDF73EFD08B1FFF795
:109B540029FF4FF6FF732380AAE786883046FFF774
:109B640017FF05460028A3D008310A30FFF77CFF11
:109B74006872DCE7A82B0020D82B0020F8B5064635
:109B840048B305460FCD154F3C460FC495E8070072
:109B940084E807003068124C3C60B0B1FFF7F4FE73
:109BA400C0B9326813682360536863600D480E4A75
:109BB4004FF6FF7303800D4B40F8043F0021FDF77F
:109BC400A9FC002818BF032004E02046FFF7DEFEAE
:109BD4000028EBD0F8BD0E20FCE700BFA82B002026
:109BE400D82B0020C42B0020B9990200E02B0020C0
:109BF40073B50191019C06466CB100252C4629469B
:109C040001A8FDF73EFD18B106EB440301349D8025
:109C14000135142DF3D13046346002B070BD00001C
:109C24002DE9F04703888488112B8CB005463CD07D
:109C34001A2B3FD0102B17D1284EB368DB43009367
:109C440071686846FDF749FD009901A8FFF7D0FF48
:109C54000DF108094FF00008019B984507D3132C18
:109C640013D90420FDF7CCF90CB0BDE8F08739F81E
:109C740002AB00270137514606EB8700FDF7F7FCDE
:109C84001D2FF7D108F10108E6E715482146FDF735
:109C9400E5FC14482146FDF7E1FCEB7B012BE3D006
:109CA40011482146FDF7DAFCDEE70D482146FDF7B1
:109CB400DEFCD9E7037A0D481F2B4FEA1315214622
:109CC40006D9FDF7CBFC022D09482146EAD1EEE77F
:109CD400FDF7CDFC06482146E9E700BF002C002033
:109CE400082C0020042C00200C2C0020102C002018
:109CF400142C0020AADF7047002301380B700428BD
:109D040006D8DFE800F00306080A0C0011230B70E4
:109D140070472123FBE73123F9E71223F7E72223D6
:109D2400F5E7007800F001007047F0B58B7891B04A
:109D3400012B0C4638BF01238DF80E3005460B88E5
:109D4400ADF80C30002116466846032200F060FD91
:109D5400607C6946FFF7D0FFA07C0DF10101FFF79D
:109D6400CBFFE27B237B217D43EAC203227C43EACF
:109D740002139DF80220002922F0190203F01903AE
:109D840014BF02210121134361F342031C22002169
:109D940009A88DF8023000F03BFD637B13F0300F0F
:109DA40015D002AF03220021384600F031FDE07CDB
:109DB4000DF10901FFF7A0FF11238DF808309DF87C
:109DC4000A300E97012262F342038DF80A30637B56
:109DD4008DF824301422A37B8DF82530002104A8AB
:109DE40000F016FD03AB0493A388ADF81C30A36800
:109DF400CDF814D01BB1E288ADF818200893A369FC
:109E0400002B31D001AF03220021384600F000FDC1
:109E1400A3691A88ADF82C205A88ADF82E205A6808
:109E24000D97187B0A923946FFF766FFA3690DF177
:109E34000501587BFFF760FFA269917A137A43EA20
:109E4400C103D17A927B43EA01139DF80610002ADC
:109E540003F0190321F0190114BF022201220B435C
:109E640062F342038DF80630E36903B10C93334681
:109E740004AA09A92846FFF73DFF11B0F0BD90DF01
:109E84007047A5DF7047B5DF704700007FB500233A
:109E9400ADF80810ADF80A106A4602A90646039305
:109EA4000093ADF80430FFF7EAFF054600B3124B08
:109EB400124CE41AE408FDF795FF240444F001046D
:109EC40003460F4932462046FCF7F3FDBDF8002057
:109ED400BDF8023052EA030103D00A492046FCF7D8
:109EE400E8FDBDF804201AB107492046FCF7D8FD67
:109EF400284604B070BD00BF40A9020078A9020042
:109F0400C4B002000EB102004DB1020078B14FF0AE
:109F1400171303601B2303711723C380038141F6C6
:109F24001B320023016143818281184670470E2051
:109F34007047000013B5034680880C46B8B91A88E8
:109F4400242A00F0958014D8112A71D0232A00F015
:109F54009D80102A3BD0A37A4BB1E1880020FFF703
:109F640090FF002840F098804FF48073638102B022
:109F740010BD3A2A64D0552AEDD1DB88C988A07275
:109F8400172B38BF17238B4228BF0B462381FFF7BB
:109F94007AFF60B1FDF726FF484B4949024649481C
:109FA4001B1ADB081B0443F00100FCF779FDE37A7C
:109FB400002BD0D12369002BCDD040F6772200921C
:109FC4002289ADF80420694620469847C3E7DB7B25
:109FD4000A790A73012B13D0022B14D0E188238948
:109FE4008B4205D20020FFF74CFF70B90123E372C6
:109FF400217B637B8B42AED20020FFF747FFAAE7A9
:10A004000B88E380EAE74B88FBE7112802D10123A0
:10A01400A372EDE7FDF7E6FE284B2B4902462948DB
:10A024001B1ADB081B0443F00100FCF739FDDFE7D2
:10A034001723CB800B8141F61B3348818B818AE740
:10A044005B89CA88934228BF1346172B0A6938BF15
:10A0540017230B814AB1C97A39B140F677210091AF
:10A06400ADF804306946204690470023638172E7C7
:10A074001A7A0B694A73002B3FF46DAF4DF67A21BF
:10A084008DF8050000918DF804209CE7197A237B54
:10A09400994228BF1946B0E711283FF468AFFDF78D
:10A0A400A1FE064B0849024606481B1ADB081B049E
:10A0B40043F00100FCF7F4FC59E700BF78A9020063
:10A0C400D4B1020040A90200A3B10200B0DF70477E
:10A0D40066DF704710B5002104464088FFF7F8FF9B
:10A0E400034608B9237210BD112801D10123F9E7F1
:10A0F4006368BDE81040184760B159B10378DE2B9E
:10A104000AD00B684360DE2303704FF6FF7343806D
:10A11400002070470E2070470820704728B103784C
:10A12400DE2B04D14180002070470E2070470820A8
:10A134007047F0B5054685B00C46F1B1E8B10B782F
:10A14400DE2B1AD182884B889A4204D10B7A13B140
:10A154000846FFF7BFFF2B88112B32D0512B0ED0AE
:10A16400012B0AD12B7A012B07D1A988628891424D
:10A1740003D123722046FFF7ADFF05B0F0BDAE88D2
:10A184006388B342F9D1AF79022FF6D1AD7B2B1F8F
:10A19400022BF2D800211022684600F039FB052D6D
:10A1A40014BF4FF4C0730023694630468DF8007025
:10A1B400ADF80430FFF78AFF0028DED063689847C3
:10A1C400DBE76388AA889A4204BF4FF6FF73638073
:10A1D400D3E7A8DF7047AEDF704762DF70470288BD
:10A1E400502A10B40DD1C4884A88944209D1028AF5
:10A1F400012A06D14B6923B1827C5DF8044B808827
:10A2040018475DF8044B7047F0B50B6843618FB095
:10A21400334B02AA044603F110071646186859681E
:10A22400154603C50833BB422A46F7D104F112018F
:10A234003046FFF7D2FF00284FD1A37C8DF80630BB
:10A24400224641F2235301A90120ADF80430FFF75F
:10A25400C0FF002841D10146202206A800F0D8FA08
:10A2640041F22453ADF81830A37C8DF81A309DF8D0
:10A274002530224623F0120301254FF0011643F046
:10A28400120332F80A0B079606A98DF825308DF8CB
:10A2940029508DF82B50FFF748FDF0B901462022D4
:10A2A40006A800F0B5FA41F22553ADF81830A37CA6
:10A2B4008DF81A309DF825300796224623F00A03BC
:10A2C40043F00A0332F8020B8DF8253006A98DF805
:10A2D40029508DF82A50FFF728FD0FB0F0BD00BFBC
:10A2E40010B2020070B588B00D468DF80720102218
:10A2F400044601260DEB02000021ADF80E6000F0CB
:10A3040087FA6B89ADF810300DF10703079304A9A0
:10A314000DF10E0320468DF812600693FFF75BFFE4
:10A3240008B070BD10DF704713B50446094968468C
:10A33400FDF723FD019808B902B010BDD0E9002152
:10A344002046904718B16846FDF721FDF2E7112039
:10A35400F2E700BF2CB2020013B504460749684671
:10A36400FDF70BFD019B0BB902B010BD2046D3E9EC
:10A37400002190476846FDF70AFDF3E744B2020066
:10A384000B4991F816335A09EC231341DB0706D520
:10A39400084B9A683AB94FF480030B60704742F255
:10A3A4000200FCF72DBE1A6842F480021A6070475E
:10A3B40000E100E0382A0020F7B5194F3C7864BB6F
:10A3C400184E012520463570FFF7AEFF112821D025
:10A3D4002046FFF7C1FF144B8DF803401868019025
:10A3E4000DF10300FDF700F9104901A8FFF79AFFEA
:10A3F4000446B0FA80F0400938709DF80300FDF778
:10A4040017F93CB90A4B34701C70FFF7B9FF2846A2
:10A41400FFF7A2FF204603B0F0BD0824FAE700BF0F
:10A42400792C0020782C002028B202002170020030
:10A434007A2C0020014B1878704700BF792C00203B
:10A4440007B508496846FDF798FC019B13B903B0AA
:10A454005DF804FBD3E9002090476846FDF797FCBC
:10A46400F3E700BF38B20200FFF7EABF60DF7047CE
:10A4740069DF704761DF704730B5114B1B7891B0CD
:10A48400E3B1104D34240DF1020103A8ADF80240EC
:10A49400FFF7F0FF70B9294601A8FDF76EFC029B97
:10A4A400002BF0D003A8D3E90021904701A8FDF7C1
:10A4B4006EFCF4E7052801D0FCF7A2FD11B030BD15
:10A4C4007B2C002088B4020030B5054685B00C46CC
:10A4D400002900F099804D4B0B600C22002101A84B
:10A4E40000F096F901238DF8063022688DF80450A7
:10A4F400062301A92020ADF80830FFF7B9FF60B1A9
:10A50400FDF770FC424B4349024643481B1ADB08E3
:10A514001B0443F00100FCF7C3FA0C22002101A83C
:10A5240000F076F901238DF805302268002301A993
:10A534004020ADF80630FFF79BFF60B1FDF752FCF9
:10A54400334B3649024634481B1ADB081B0443F0DC
:10A554000100FCF7A5FA0C22002101A800F058F92B
:10A564000A2322688DF8043001A90120FFF780FF37
:10A5740060B1FDF737FC264B2949024626481B1AD1
:10A58400DB081B0443F00100FCF78AFA0C220021CB
:10A5940001A800F03DF94FF4B0632268019301A9CA
:10A5A400A120FFF765FF60B1FDF71CFC184B1D49A6
:10A5B400024619481B1ADB081B0443F00100FCF790
:10A5C4006FFA0C22002101A800F022F99DF8043052
:10A5D40022686FF3000301A9A0208DF80430FFF76F
:10A5E40047FF034668B1FDF7FDFB094B0E490246E0
:10A5F40009481B1ADB081B0443F00100FCF750FA5E
:10A604000023184605B030BD0E23FAE7B822002017
:10A6140088A9020050B2020040A9020096B20200CA
:10A62400E2B202002EB302007FB3020073B5054606
:10A634000668FFF71BFF2B68B34204461DD91A486E
:10A644001A4B1B491B1ADB081B0443F00200019040
:10A65400FCF722FA2B68174901983246FCF729FACD
:10A664004FF080532A68D3F80C31134901989B02A8
:10A6740003F100539A1AFCF713FA2CB90F4B012279
:10A684001A70204602B070BD2046FDF7ABFB074BA5
:10A694000B49024604481B1ADB081B0443F0010063
:10A6A400FCF7FEF9EDE700BF40A9020088A902000B
:10A6B400D2B3020001B4020032B402007B2C0020A9
:10A6C4005CB402004BDF70471FB50D4C01A8FFF7C7
:10A6D400F9FF70B9214602A8FDF74FFB039B002B3D
:10A6E400F4D00198D3E90021904702A8FDF74FFB6D
:10A6F400F4E7052801D0FCF783FC04B010BD00BFCB
:10A70400A0B402007F2805D8034B185C034B5B5CA4
:10A714001840704700207047B8B4020038B50200F2
:10A72400A0F16103192B98BF20387047A0F14103B1
:10A73400192B98BF203070477F2805D8034B185C2D
:10A74400034B5B5C1840704700207047B8B40200AC
:10A7540038B50200A0F16103192B98BF2038704767
:10A76400A0F14103192B98BF203070477F299ABF6D
:10A77400017001206FF02E0070475AB10A787F2AC9
:10A784000AD800B10260002119605960501A18BF3C
:10A7940001207047002070476FF02E0070470000C2
:10A7A40008B5034B5B689B681B68984708BD00BFEE
:10A7B400F422002008B50921FFF7F2FF08BD844602
:10A7C40040EA010313F0030F18D18446202A0BD367
:10A7D4002DE9F007B1E8F807A0E8F807A2F1200294
:10A7E400202AF7D2BDE8F007042A07D351F8043B26
:10A7F40040F8043BA2F10402042AF7D2002A05D04F
:10A8040011F8013B00F8013B013AF9D16046704769
:10A814008446002A2DD010F0030F04D000F8011B49
:10A82400013A26D0F7E7C9B241EA012141EA0141E0
:10A83400202A12D3A2F120022DE9F0030B460C4684
:10A844000D460E460F4688468946A0E8FA03203A8C
:10A85400FBD2BDE8F00320320BD0042A05D340F824
:10A86400041B043A05D0042AF9D200F8011B013A6A
:10A87400FBD16046704700F1010110F0030F11D0C5
:10A8840010F8012B002A23D010F0030F0AD010F87F
:10A89400012B002A1CD010F0030F03D010F8012B59
:10A8A400002A15D02DE970004FF001324FF08033AB
:10A8B40050F8044BA4EB020525EA04051D4000D121
:10A8C400F6E7A0F1040070BC10F8012B002AFBD1BC
:06A8D400A0EB010070473B
:08A8DC00998102000000000058
:10A8E400259C020000000000399F0200702B00200C
:10A8F400A19A02000000000037A102009C2B002056
:10A90400E3A10200842B0020399102000000000022
:08A9140019820200000000009E
:10A91C007DA4020000000000CDA602000000000093
:10A92C004C230020142400201C240020542300203D
:04A93C0018000000FF
:10A940002EB002000000000034B002000000000041
:10A950003BB00200000000003FB002000000000019
:10A9600044B0020000000000FEA902000000030342
:10A9700028B002000000000003B202000000030340
:10A9800020B202000000030379B4020000000303B8
:10A9900094B402000000030316AB020000000000A4
:10A9A000D0A9020000000000DCA90200CC22002097
:10A9B000FFFFFFFFFFFFFFFFFFFFFFFFFFFFFFFFA7
:10A9C00000000000000000000000D60106010000A9
:10A9D0000565020069650200A56402007561727474
:10A9E0005F6C6F675F6261636B656E640042616399
:10A9F0006B656E647320666C757368656400617066
:10AA000070000000402800207F000000C0280020C7
:10AA10001B5B306D002573001B5B313B33316D00D8
:10AA200025734C6F67732064726F707065642028A3
:10AA300025642925730D0A003C25733E2025733AB1
:10AA40002000202530327800202020007C00256363
:10AA5000001B5B313B33306D001B5B313B33326D90
:10AA6000001B5B313B33336D001B5B313B33346D7B
:10AA7000001B5B313B33356D001B5B313B33366D67
:10AA8000001B5B313B33376D007761726E696E6717
:10AA900000696E666F0064656275670010AA020047
:10AAA00051AA020018AA020059AA020061AA0200D3
:10AAB00069AA020071AA020079AA020081AA020012
:10AAC00000000000DEAA020089AA020091AA02008A
:10AAD00096AA0200E0280020466174616C2065722D
:10AAE000726F720053797374656D2072657365744B
:10AAF0000000000000000000000000000000000056
:10AB00000338FDD870473031323334353637383971
:10AB10004142434445467077725F6D676D74000033
:10AB2000E4A80200E4A80200040000004E52465FC0
:10AB300053554343455353004E52465F4552524F7F
:10AB4000525F5356435F48414E444C45525F4D4916
:10AB50005353494E47004E52465F4552524F525F43
:10AB6000534F46544445564943455F4E4F545F4505
:10AB70004E41424C4544004E52465F4552524F5260
:10AB80005F494E5445524E414C004E52465F45522D
:10AB9000524F525F4E4F5F4D454D004E52465F45FE
:10ABA00052524F525F4E4F545F464F554E44004EE7
:10ABB00052465F4552524F525F4E4F545F5355506D
:10ABC000504F52544544004E52465F4552524F52E8
:10ABD0005F494E56414C49445F504152414D004EF1
:10ABE00052465F4552524F525F494E56414C49447E
:10ABF0005F5354415445004E52465F4552524F52A6
:10AC00005F494E56414C49445F4C454E47544800BD
:10AC10004E52465F4552524F525F494E56414C4943
:10AC2000445F464C414753004E52465F4552524F97
:10AC3000525F494E56414C49445F44415441004E95
:10AC400052465F4552524F525F444154415F53490F
:10AC50005A45004E52465F4552524F525F54494D3D
:10AC6000454F5554004E52465F4552524F525F4E2B
:10AC7000554C4C004E52465F4552524F525F464F24
:10AC80005242494444454E004E52465F4552524F4F
:10AC9000525F494E56414C49445F41444452004E34
:10ACA00052465F4552524F525F42555359004E52E1
:10ACB000465F4552524F525F434F4E4E5F434F5592
:10ACC0004E54004E52465F4552524F525F524553CA
:10ACD0004F5552434553004E52465F4552524F52D4
:10ACE0005F4D4F44554C455F4E4F545F494E49545C
:10ACF00049414C495A4544004E52465F4552524FD5
:10AD0000525F4D555445585F494E49545F4641493D
:10AD10004C4544004E52465F4552524F525F4D558E
:10AD20005445585F4C4F434B5F4641494C454400A6
:10AD30004E52465F4552524F525F4D555445585FF3
:10AD4000554E4C4F434B5F4641494C4544004E5293
:10AD5000465F4552524F525F4D555445585F434FE1
:10AD60004E445F494E49545F4641494C4544004E6C
:10AD700052465F4552524F525F4D4F44554C455FCE
:10AD8000414C52454144595F494E495449414C490F
:10AD90005A4544004E52465F4552524F525F5354FB
:10ADA0004F524147455F46554C4C004E52465F4519
:10ADB00052524F525F4150495F4E4F545F494D5080
:10ADC0004C454D454E544544004E52465F45525207
:10ADD0004F525F464541545552455F4E4F545F4573
:10ADE0004E41424C4544004E52465F4552524F52EE
:10ADF0005F494F5F50454E44494E47004E52465FB3
:10AE00004552524F525F4452565F5457495F455224
:10AE1000525F4F56455252554E004E52465F455274
:10AE2000524F525F4452565F5457495F4552525FEA
:10AE3000414E41434B004E52465F4552524F525F86
:10AE40004452565F5457495F4552525F444E414306
:10AE50004B004E52465F4552524F525F424C455F47
:10AE6000495053505F52585F504B545F5452554EA7
:10AE70004341544544004E52465F4552524F525F43
:10AE8000424C455F495053505F4348414E4E454CFC
:10AE90005F414C52454144595F4558495354530012
:10AEA0004E52465F4552524F525F424C455F4950A9
:10AEB00053505F4C494E4B5F444953434F4E4E45B0
:10AEC00043544544004E52465F4552524F525F42F2
:10AED0004C455F495053505F504545525F52454A7B
:10AEE000454354454400556E6B6E6F776E20657216
:10AEF000726F7220636F6465000000000000000044
:10AF00002CAB02000100000038AB02000200000080
:10AF100056AB02000300000077AB02000400000003
:10AF20008AAB0200050000009BAB02000600000097
:10AF3000AFAB020007000000C7AB02000800000032
:10AF4000DFAB020009000000F7AB02000A000000BE
:10AF500010AC02000B00000028AC02000C00000046
:10AF60003FAC02000D00000053AC02000E000000D8
:10AF700065AC02000F00000074AC0200100000007D
:10AF800088AC0200110000009FAC0200120000001B
:10AF9000AEAC020013000000C3AC02008000000051
:10AFA000D7AC020081000000F8AC02008200000073
:10AFB00014AD02008300000030AD020084000000E8
:10AFC0004EAD0200850000006FAD0200860000005B
:10AFD00094AD020090000000ABAD020091000000B3
:10AFE000C9AD020092000000E7AD0200008200003F
:10AFF000FCAD0200018200001AAE020002820000D5
:10B0000036AE02000084000052AE0200018400004F
:10B0100076AE020002840000A0AE020003840000AD
:10B02000C5AE020011121314636C6F636B00434CC6
:10B030004F434B004750494F544500505253005521
:10B0400041525400554152544500436F6E6E656342
:10B0500074656400446973636F6E6E6563746564E0
:10B060000053656E6420627574746F6E2073746132
:10B070007465206368616E67652E0052656365695B
:10B08000766564204C4544204F4E2100526563652F
:10B0900069766564204C4544204F464621004E6F3A
:10B0A000726469635F426C696E6B7900426C696EB1
:10B0B0006B79206578616D706C6520737461727452
:10B0C00065642E0073645F626C655F6761705F64C6
:10B0D0006174615F6C656E6774685F7570646174DC
:10B0E00065282920287265717565737429206F6E33
:10B0F00020636F6E6E656374696F6E20307825789B
:10B100002072657475726E65642025732E00546814
:10B1100065207265717565737465642054582F528B
:10B1200058207061636B6574206C656E677468206D
:10B13000697320746F6F206C6F6E672062792025B1
:10B14000752F2575206F63746574732E00546865C0
:10B150002072657175657374656420636F6D6269D3
:10B160006E6174696F6E206F6620545820616E6442
:10B17000205258207061636B6574206C656E677433
:10B18000687320697320746F6F206C6F6E67206224
:10B1900079202575206D6963726F7365636F6E64C6
:10B1A000732E0073645F626C655F67617474635FC4
:10B1B00065786368616E67655F6D74755F726571F0
:10B1C0007565737428292072657475726E656420C4
:10B1D00025732E0073645F626C655F6761747473BE
:10B1E0005F65786368616E67655F6D74755F7265D2
:10B1F000706C7928292072657475726E65642025DB
:10B20000732E006E72665F626C655F6761747400B6
:10B2100023D1BCEA5F782315DEEF12120000000094
:10B220006E72665F736468000100000714A9020073
:10B2300014A90200080000001CA902002CA90200A9
:10B240000800000014A902001CA902000800000068
:10B2500073645F626C655F6366675F7365742829FA
:10B260002072657475726E65642025732077686539
:10B270006E20617474656D7074696E6720746F20E0
:10B2800073657420424C455F434F4E4E5F434647C3
:10B290005F4741502E0073645F626C655F63666751
:10B2A0005F73657428292072657475726E656420F9
:10B2B0002573207768656E20617474656D7074699C
:10B2C0006E6720746F2073657420424C455F474160
:10B2D000505F4346475F524F4C455F434F554E5476
:10B2E0002E0073645F626C655F6366675F7365748D
:10B2F00028292072657475726E6564202573207725
:10B3000068656E20617474656D7074696E67207411
:10B310006F2073657420424C455F434F4D4D4F4E37
:10B320005F4346475F56535F555549442E0073644B
:10B330005F626C655F6366675F736574282920725E
:10B34000657475726E6564202573207768656E205C
:10B35000617474656D7074696E6720746F207365B5
:10B360007420424C455F47415454535F4346475F06
:10B37000415454525F5441425F53495A452E007321
:10B38000645F626C655F6366675F7365742829201C
:10B3900072657475726E6564202573207768656EBA
:10B3A00020617474656D7074696E6720746F2073AA
:10B3B000657420424C455F47415454535F434647B0
:10B3C0005F534552564943455F4348414E474544C4
:10B3D0002E00496E73756666696369656E742052E6
:10B3E000414D20616C6C6F636174656420666F729F
:10B3F0002074686520536F66744465766963652EB2
:10B40000004368616E6765207468652052414D2075
:10B410007374617274206C6F636174696F6E2066FF
:10B42000726F6D203078257820746F203078257801
:10B430002E004D6178696D756D2052414D20736904
:10B440007A6520666F72206170706C6963617469DF
:10B450006F6E20697320307825782E0073645F62E8
:10B460006C655F656E61626C652829207265747514
:10B47000726E65642025732E006E72665F73646859
:10B480005F626C6500000000E4A8020014A90200DD
:10B49000080000006E72665F7364685F736F63001C
:10B4A000DCA80200E4A8020008000000430000003D
:10B4B000504F5349580000002020202020202020F9
:10B4C0002068282828282020202020202020202014
:10B4D00020202020202020204810101010101010B4
:10B4E00010101010101010108484848484848484BC
:10B4F00084841010101010101081818181818101CD
:10B50000010101010101010101010101010101012B
:10B5100001010110101010101082828282828202BA
:10B5200002020202020202020202020202020202FB
:10B53000020202101010102000070320041702015D
:10B540000857104080000000ACB40200B0B5020003
:10B55000C4B6020053756E004D6F6E0054756500E1
:10B560005765640054687500467269005361740041
:10B57000000000004A616E00466562004D61720085
:10B58000417072004D6179004A756E004A756C0019
:10B5900041756700536570004F6374004E6F76000D
:10B5A0004465630000000000414D00504D00000064
:10B5B000E8B60200E4B60200E4B60200E4B6020017
:10B5C000E4B60200E4B60200E4B60200E4B602000B
:10B5D000E4B60200E4B60200FFFFFFFFFFFFFFFF3B
:10B5E000FFFFFFFFFFFF000024B6020054B502007A
:10B5F00060B6020074B50200A8B5020008B60200E9
:10B60000B8B6020014B60200256D2F25642F2579E7
:10B61000000000002561202562202565202554209A
:10B620002559000053756E646179004D6F6E646139
:10B63000790054756573646179005765646E65734C
:10B640006461790054687572736461790046726947
:10B65000646179005361747572646179000000005F
:10B660004A616E75617279004665627275617279C0
:10B67000004D6172636800417072696C004D6179C0
:10B68000004A756E65004A756C790041756775737F
:10B69000740053657074656D626572004F63746FFA
:10B6A000626572004E6F76656D6265720044656317
:10B6B000656D62657200000025483A254D3A2553B4
:10B6C0000000000009A7020025A7020031A7020020
:10B6D0003DA7020059A7020065A7020071A702005A
:0AB6E0007FA70200000000002E000A
:10B6EC00000000000020004000000000002000408E
:10B6FC000000000000000000FF0000000090D003DC
:10B70C000D00030045920200302B00201F000000AA
:10B71C004F2B00201F000000FF00FFFF48B5020068
:10B72C0048B5020048B5020048B5020048B5020011
:040000032000637501
:00000001FF
