:020000022000DC
:1060000000000420756302005D6302005F6302000C
:106010006163020063630200656302000000000028
:1060200000000000000000000000000067630200A4
:1060300069630200000000006B6302006D630200F0
:10604000198C02006F630200D19002007DA502004E
:106050006F6302006F630200258F0200BD9D020086
:1060600041A202006F6302006F6302006F630200CF
:106070006F6302006F6302006F6302006F630200D0
:106080006F630200357202006F6302006F630200EB
:10609000D17202006F6302007DCF02006F630200C5
:1060A0006F6302006F6302006F6302006F630200A0
:1060B0006F6302006F630200000000000000000038
:1060C0006F6302006F6302006F6302006F63020080
:1060D0006F6302006F6302006F6302006F63020070
:1060E0006F6302006F6302006F6302000000000034
:1060F000000000006F630200000000006F630200F8
:10610000000000000000000000000000000000008F
:10611000000000000000000000000000000000007F
:10612000000000000000000000000000000000006F
:10613000000000000000000000000000000000005F
:10614000000000000000000000000000000000004F
:10615000000000000000000000000000000000003F
:10616000000000000000000000000000000000002F
:10617000000000000000000000000000000000001F
:10618000000000000000000000000000000000000F
:1061900000000000000000000000000000000000FF
:1061A00000000000000000000000000000000000EF
:1061B00000000000000000000000000000000000DF
:1061C00000000000000000000000000000000000CF
:1061D00000000000000000000000000000000000BF
:1061E00000000000000000000000000000000000AF
:1061F000000000000000000000000000000000009F
:10620000354936480A1A02D0072291438D4634494F
:1062100034480A1A06D00722914381F309880222E2
:1062200082F3148830483149314A00F044F831484B
:106230003149324A00F03FF831483249324A00F0E1
:106240003AF832483249334A00F035F83248334997
:10625000334A00F030F833483349344A00F02BF821
:1062600033483449344A00F026F83448344900228F
:1062700000F02CF833483449002200F027F8334866
:106280003349091A082902DB002202604160314AC1
:1062900090471F481F49884205D00268043003B464
:1062A000904703BCF7E700208646EC46002000211B
:1062B000294A9047FEE7884207D0521A05D0037852
:1062C00001300B700131013AF9D17047884202D098
:1062D00002700130FAE770470000042000E003205C
:1062E000000004200000042088F70200982A002003
:1062F0001C2B0020D4630200D463020000E50200DE
:1063000088F70200982A0020982A002054E602000C
:1063100054E6020054E6020054E6020054E602008D
:1063200054E6020054E6020054E6020087F7020039
:106330000CF802001C2B00201C2B00201C2B002022
:10634000F8600120F8600120F8600120F860012069
:10635000F88001209D630200D1B50200FEE7FEE750
:10636000FEE7FEE7FEE7FEE7FEE7FEE7FEE7FEE705
:10637000704700BF1048804710484FF0070188431E
:1063800085460F4880470F48016841F4700101605D
:10639000BFF34F8FBFF36F8FFFF732BF0A480B4930
:1063A0000B4A884207D0521A05D0037801300B708F
:1063B0000131013AF9D170477163020000000420F5
:1063C0009186020088ED00E054E60200982A002041
:0463D000982A0020E7
:1063D4007047000007B5044B0093044A402300F0C3
:1063E40032F803B05DF804FBF56302001D2B0020B6
:1063F4002DE9F84388461446B2B10F4B0F4E0325DE
:10640400002743F00109224608EB0701002005F0AC
:10641400ABFA0744241A48B933782BB14FF47A40C5
:10642400C847013D02D13570BDE8F88301233370BC
:10643400002CE8D1F8E700BF60E602001C2B002026
:10644400704705F0E5BAF0B595B01D461646084606
:106454000C4601F081FD1A9B0D93CDE908650025DA
:106464002B46082205A920460A958DF82C500C9538
:1064740001F08FFD079B0293069B03939DF8143054
:106484008DF8115003F00302012A1DD1BDF8142028
:10649400059DC3F3C203C2F383168DF81030B20016
:1064A40008230EA9204601F074FDC5F3952508AB19
:1064B4000093324602AB0EA9284600F06DFB20463D
:1064C40001F04EFD15B0F0BD022AF8D1BDF816500A
:1064D400C3F3C203C5F389158DF810300827082DBE
:1064E4002E4628BF08263B4632460EA9204601F018
:1064F40050FDAD1B08AB02AA31460EA8374400F08C
:10650400AFFB002DEBD1DAE738B50A4DFFF799FF61
:106514000421284600F0A8FA074B01245C7100F01E
:1065240079FC042105F1100000F09EFA034B5C7124
:1065340038BD00BF34E60200982A0020A02A0020BB
:10654400037813F0040216D003F00303012B03D0E5
:10655400022B09D0012070470A6800880232C0F378
:10656400831002440A60F5E70B684288023303EBA8
:1065740092130B60EEE71046704700002DE9F04FD0
:1065840087B000230446861C0DF107000F4615460C
:106594008DF8073001F086F9454801683960D0E983
:1065A4000132134401335B1A824600F21C4700F5A2
:1065B400836900F21448B3421CD30020002D73D029
:1065C40004F00F039B0143F0050363F30F00DAF8B3
:1065D4000020DAF808301340033316444AF8230045
:1065E4009DF80700CAF8006001F080F9012007B0A7
:1065F400BDE8F08F0121384601F0D9F9484601F091
:10660400EEF9404601F0EBF9DAF80400DAF808B0E4
:10661400029000EA0B0003300AEB800002A9FFF7A6
:106624008FFF029B50BB0BEA03020AEB820203F1C9
:10663400020CD2680392013303EA0B0B0AEB8B0BB7
:1066440002F00302012ADBF80C10CDF808C023D0B5
:10665400022A16D08346404601F0C4F910B1029BC9
:10666400CAF804305946384601F0A1F9DAE90123A1
:106674001344DAF8002001339B1A9CE70BEA030069
:10668400C9E7BDF80E30C3F3891303334FEA114B46
:106694000CEB93030293DEE7BDF80C30C3F38313D2
:1066A4004FEA114B6344F5E7A40544F006008EE776
:1066B400302C00200B4B0C48FF2210B59A600022AE
:1066C400C3F81824C3E90022C3F8142483F820244F
:1066D40001F0FBFB044610B9044801F07BFC2046A2
:1066E40010BD00BF302C00207CE50200ACE60200A7
:1066F40030B50A4C71B10A4A0A49121BD208002368
:106704009A4201D1002030BD31F82350854202D095
:106714000133F5E7034654F83300F4E7A4E5020037
:1067240034E60200982A0020094B013903EBC0002B
:10673400032909D8DFE801F00A020406042070479F
:1067440000797047407970470020704702207047F5
:10675400A4E50200034BD3E90030C31A5842584160
:10676400704700BF302C00202DE9F04387B0FFF7BD
:10677400F1FF0646002840F0F9807D4DC5F8180465
:10678400BFF34F8F6B68AC6802932340033305EB70
:10679400830002A9FFF7D4FE029B18B1D5F8182490
:1067A400002A5FD004EA0302991C013305EB82023C
:1067B400234005EB8303D268DB68049302F00303F0
:1067C400022B0392029160D1BDF80E306948C3F3E5
:1067D4008917502FB84628BF4FF0500868F38F131D
:1067E40008F10801ADF80E3001F087FB06460028D9
:1067F40000F0A78001F0B0FB0023082203A9304673
:1068040001F0BDFB029924EA01020132B8EB820FC8
:106814004FEA820332D95FFA88F85BB32140DCB2D5
:10682400A8EB040803315FFA88F9A046524C05EB43
:10683400810108234246304601F0A1FB34B108F13E
:1068440008034A462146304601F099FB029B033770
:1068540003EB97070297D5F81834002B49D1D5F8E4
:10686400104459E02A689A428FD86A60304607B0CB
:10687400BDE8F08340491C469946DAE70C40E11C28
:106884000823424605EB8101DDE7012B59D1BDF810
:106894000C303848C3F38311062928BF062161F35D
:1068A400891302318900ADF80C3001F026FB06464D
:1068B400002846D001F050FB0023082203A93046EB
:1068C40001F05DFB0027BDF80C20C2F38312BB006E
:1068D400974203F10803BED202994A1C21400331B6
:1068E400029205EB81010422304601F048FB013796
:1068F400E9E7304601F034FBFFF72CFF80F001009C
:10690400C6B2B3E7E3685B7923B1236831461B68F9
:1069140020469847E3681C68002CF3D1304601F008
:106924001FFB0DF107008DF8074000F0BBFFD5F801
:1069340018340BB9029B6B609DF8070000F0D6FF7A
:10694400DAE7D5F8104454B90C4B0D480D49C01A78
:10695400C008000440F0020000F062F8CCE72368AD
:1069640020469B689847E3681C68ECE700267DE7AF
:10697400302C00207CE502003C2C0020A4E5020021
:10698400ECE5020095E602002DE9F74F224D04469E
:106994000F46924601A901221846D5F808909B4655
:1069A400FFF7ECFD20B3019E4FF00008B21CD84560
:1069B40008EB020126D11948002100F0C9FF80F339
:1069C4001000000440EA1440E400731C04F038048E
:1069D40003EA090306EA090644F0010405EB83030C
:1069E400033644EA881444EA8724D86045F82640EC
:1069F40095F820341BB1FFF7B7FE0028FBD103B094
:106A0400BDE8F08F09EA010105EB81015AF828304D
:106A1400CB6008F10108CAE7302C00204C3000207C
:106A240000231A46FFF7B0BF07B50123019201AA5C
:106A3400FFF7AAFF03B05DF804FB07B5CDE9002317
:106A440002236A46FFF7A0FF03B05DF804FB1FB5FD
:106A5400CDE90123069B039301AA0323FFF794FFC7
:106A640005B05DF804FB000030B50F49D1F81024DF
:106A740003460020144634B9DC6820714AB9C1F8D1
:106A84001034226030BDE4682579854206D024683C
:106A9400F1E7D268116821601360F3E701300A2836
:106AA400E8D14FF0FF30EDE7302C0020094A38B52B
:106AB4000123D2F8104482F820341D4604B938BDAD
:106AC400E3685D71236820465B689847E3681C6847
:106AD400F4E700BF302C002007B503460846197AB6
:106AE400052911D05B7A2BB1094A0A49019000F0BB
:106AF400DCFF01980849019000F0D7FF019803B02A
:106B04005DF804EB00F0C6BF002AF8D0F2E700BF3E
:106B1400B8E60200BDE6020074F0020030B5C38896
:106B240085B004460D4633B1144A00921449154AFF
:106B3400284600F0BAFF217A05291DD0637A4BB1AB
:106B4400A088FFF7F1FD104B104953F82020284688
:106B540000F0ABFF227A0E4BA08853F82220039258
:106B64000021FFF7C5FD039A0A490346284605B0EC
:106B7400BDE8304000F099BF05B030BDB8E6020072
:106B8400C8E60200C0E6020044E70200BDE60200D7
:106B940068E70200E0E602002DE9F04385B01F46F5
:106BA4000C9D002395F80C902B7306460C469046DA
:106BB40029463846FFF7B2FFB8F1060F09D8DFE8D7
:106BC40008F00412181F283340003146284600F00C
:106BD4006CFF002229463846FFF77EFF85F80C90AB
:106BE40005B0BDE8F08322683146284600F05DFF19
:106BF400EFE7D4E900233146284600F056FFE8E7E2
:106C0400A36800933146D4E90023284600F04DFFE1
:106C1400DFE7E3680193A36800933146D4E90023D6
:106C2400284600F042FFD4E723690293E368019306
:106C3400A36800933146D4E90023284600F035FFC9
:106C4400C7E76369039323690293E3680193A36825
:106C540000933146D4E90023284600F026FFB8E724
:106C640008292DE9F74F80460E4617461C463CD8A6
:106C7400002593F80C901D7319461046FFF74EFF3C
:106C8400DFF888A0DFF888B0AE4231D918F80520C3
:106C94005946204600F009FF0135082DF4D1194961
:106CA400194DDFF870A0204600F0FFFE4FF0000BF6
:106CB4005E4522D918F80B207E2A05D81046019289
:106CC40006F0E8FF019A00B92E225146204600F052
:106CD400ECFE0BF1010BBBF1080FE9D101222146B7
:106CE4003846FFF7F9FE84F80C9003B0BDE8F08F46
:106CF4005146204600F0D9FECEE72946204600F052
:106D0400D4FEE6E7F4E60200F2E60200F0E6020052
:106D1400EAE60200F6E60200014B01221A7070470F
:106D24002D3100207047000070B5124D06460FCD7E
:106D340088B06C460FC495E80F00002E84E80F005D
:106D44004FF0FF334FF00602CDE90023CDE90233C3
:106D5400094A0A484FF0EB7308BF002269460693BC
:106D640001F0F0FE08B100F083F9054B1E7008B085
:106D740070BD00BF7CE702001D6D0200A82A002040
:106D8400EC30002007B5044B0093044A4023FFF77E
:106D94005AFB03B05DF804FBA56D0200ED30002042
:106DA40038B50D4B0D4D002018700D4804782D5D3D
:106DB400D2B21C4665B1043002F076FE08B100F090
:106DC40057F9084B1A7812B12378002BFBD038BD41
:106DD4000C3002F0D3FBF1E72D310020FC3200200F
:106DE400A82A0020EC30002008B50848084A037897
:106DF400D35C3BB1043002F003FEBDE80840002040
:106E0400FFF792BF0C3002F065FBF6E7A82A0020DA
:106E1400FC3200200120FFF787BF00002DE9F04F6E
:106E2400364E87B04FF00009354B1B785FFA89F571
:106E3400AB4202D807B0BDE8F08F324BD3F800A0C4
:106E44001AF835000124D6E9001EA0F12002C0F191
:106E5400200304FA02F224FA03F3134304FA00FCB5
:106E6400059301EA0C030093059B0EEA03030193C7
:106E7400DDE9002313430AEBC50B3BD0059B21EA54
:106E84000C012EEA0303C6E9001302F03BF80146A5
:106E94001AF835001C4DA0F12002C0F1200304FAB9
:106EA40002F224FA03F31343D5E900C284401340E9
:106EB40004EA0C040393A0F12002C0F1200321FA98
:106EC40003F3029401FA02F848EA0308DDE9023404
:106ED40001FA00F7444508BFBB420BD1DBF804308C
:106EE40043B19BF80120541E62426241551A694223
:106EF4006941984709F1010996E700BF6031002014
:106F04002E3100206831002058310020F8B50646A3
:106F14001E4800F0C3FBC0BB0125A6F12004C6F146
:106F2400200325FA03F305FA04F41C43184BD3E9B0
:106F340000C2B5400CEA050002EA040101431F4601
:106F44001DD1304601F0DEFF124BD3E9001288B1A7
:106F540029432243C3E90012D7E900231C430E4B03
:106F64000A4819681543C7E900540022BDE8F840EF
:106F740000F04CBB21EA050122EA0402EAE72CEA0C
:106F8400050522EA0404C3E90054F8BD34310020A5
:106F9400603100205831002030310020042A2DE9CE
:106FA400F34105460C46164639D901F0DBFED8B14B
:106FB4001C4B1D491D601D4BDFF884801C701C4B4D
:106FC40000221E600023C1E900231A49C1E90023FD
:106FD400013CE4B200260327FF2C0CD1164A1748C3
:106FE400002100F001FB03E001F084FE0028DFD063
:106FF40002B0BDE8F08105EBC40315F834009B78BA
:107004008DF80660424601A98DF804708DF80530AC
:1070140001F0B2FE013CE4B20028DDD0E8E707202D
:10702400E6E700BF68310020583100202E310020EF
:107034003031002060310020216E0200A8E70200F8
:10704400116F020070B5084D084E00242B789C4245
:1070540001D3002070BD3368012113F8340001F01E
:1070640007FF0134F2E700BF2E3100206831002011
:107074001FB50021039001AA44F20100CDE90111DA
:1070840000F004F805B05DF804FB000010B572B61A
:10709400FFF70CFDFFF768FB0028FBD1104B114CE8
:1070A4001149E41AE408240444F00100FFF7B8FC91
:1070B4000E4B1B68DB0700D500BE0D4944F00200EF
:1070C400FFF7AEFCBFF34F8F0A490B4BCA6802F4BB
:1070D400E0621343CB60BFF34F8F00BFFDE700BFF7
:1070E400A4E50200ECE50200ACE70200F0ED00E0EC
:1070F400B8E7020000ED00E00400FA0549B152B11E
:10710400531E1A4007D1826001608380C26010461A
:1071140070470E2070470920704710B58468C26814
:107124008388121B934208D3C26813400268D15467
:10713400C3680133C360002010BD0420FCE78268EB
:10714400C3689A420AD08268838813400268D35C79
:107154000B708368013383600020704705207047FB
:10716400094A537891780133DBB2994208BF00236E
:10717400117899421FBF03705078182303FB002035
:1071840014BF0430002070476C31002073B50546ED
:1071940000240DF107000E468DF8074000F082FB35
:1071A4000DF10600FFF7DCFF90B10670094B9DF866
:1071B400062045605A709DF8070000F097FB24B93B
:1071C400054B4FF48012C3F80021204602B070BD75
:1071D4000424F0E76C31002000E100E0024B4FF49E
:1071E4003C6043F001031847D0E7020038B50C4B6C
:1071F4000C4C4FF40032C3F8802001254FF4803347
:10720400C4F84833C4F808336560FFF7E7FF064B5A
:10721400A56000241C60FFF7E1FF044B1C7038BD1F
:1072240000E100E0001001408832002079320020A3
:10723400F8B51F4B1F491B680025C1F84051C1F820
:107244004451C1F84851C1F84C51C1F80051C1F83A
:1072540004514BB3D1F8044517490968641A24F062
:107264007F442F461A68A24209D8A41A15441A7CEE
:10727400DE691AB1D3E905201F749047AEB90F4AED
:107284000F4B11781B788B4205D10133DBB2022BF3
:1072940008BF0023137012780A4B43F822500A4B9C
:1072A4004FF48012C3F80021F8BD3346DAE700BF7B
:1072B4008C320020001001408832002085320020EA
:1072C400843200207C32002000E100E02DE9F04F00
:1072D400A24AA34913780978A24D994285B03CD0BB
:1072E4000133DBB2022B08BF002313709E491278CE
:1072F4009E4B0F6853F822003B1823F07F43002273
:107304000B602B6816461446944613B942B12B60A1
:1073140006E0196881420ED902B12B60091A19607E
:1073240001272B68DFF84CA201934FF00008BEB987
:10733400DFF848B262E0401A0C44D968D3F81CE084
:10734400C3F800C031B13A1922F07F42C3E90121E8
:10735400DE611E4673460122D7E700263746E0E782
:107364003446F669804A63681268DFF814C2A0687C
:10737400991A21F07F41614500F2A88001442160FF
:10738400012222742A680023C4E90133E361002A3C
:1073940040F0A5802C60CAE79BF802105A1CD2B2B8
:1073A40091428BF8002004BF00228BF800201822A1
:1073B40002FB03B32A6819799C68022977D0032950
:1073C40000F08180012919D1207CB8B9D3E90312D6
:1073D400A2605A69E2609A69654BA2611B78002B2E
:1073E4000CBF0B4603466360BCE78C4200F09480FC
:1073F4008946C9690029F8D1002323749BF8003019
:107404009BF801209A42C7D12B68B8F1000F04D130
:10741400019A9A4201D1002F43D0002B79D0D3F89E
:1074240000A0544D504BD5F804751C68DFF8548106
:107434003E1B98F8003026F07F4603369BB94FF484
:107444008033C5F84433C5F804334B4B4FF4003252
:107454004FF00109C3F880211A60C5F80090FFF7C6
:10746400BDFE88F80090B2452CBF5444A41924F002
:107474007F44C5F84045D5F80435DB1B23F07F4332
:10748400E41B033324F07F44A3420AD9D5F804351E
:10749400C5F84035FFF7A2FE374B4FF40032C3F86E
:1074A4000021334B00221A7005B0BDE8F08F11465D
:1074B40091469FE71174D2690123002AFAD1002B67
:1074C4009CD02A609AE700231946F6E7D31A23F0E2
:1074D4007F43834234BFC31A0023236050E72168EB
:1074E4001368994213D8591A1160E26152E7091AD4
:1074F400D8691A4638B1034618688842F7D3401A47
:107504001860184613462160E061DC610FE71346FA
:10751400F2E7FFF76BFEC4E74C4511D1D3692B604A
:1075240073B9DFF844E00120CDE90212CAF808007B
:10753400CEF800300E4B1870FFF750FEDDE9021252
:107544000B68C969C9F81C1011B1086803440B60C1
:107554002B68934218BF4FF001084DE78432002096
:10756400853200208C320020883200207C320020BA
:10757400783200200010014000E100E06C3100206E
:10758400FEFF7F007932002008B5FFF72FFE104B75
:1075940000200B2218809A700E4B18600E4B187046
:1075A4000E4B18700E4B4FF48012C021C3F880218B
:1075B40083F814131A6002F18042A2F56F22C2F814
:1075C400080583F81113074BD2F804251A6008BD87
:1075D4006C3100208C32002084320020853200205F
:1075E40000E100E088320020074B9B784BB132B1B8
:1075F40028B10368187C20B959745A617047072070
:1076040070470820704700BF6C3100202DE9F74314
:10761400DFF8848098F8023005460E461746ABB36F
:10762400A0B3042930D9436983B3437C0024012BDC
:107634000DF107000CBF8946A1468DF8074000F004
:1076440031F90DF10600FFF78BFDD8B1012303706A
:107654000F4B4560D3F80435C0E90497C0E90236FE
:107664009DF8063088F801309DF8070000F03EF9D7
:1076740024B9084B4FF48012C3F80021204603B00C
:10768400BDE8F0830424EFE70724F7E70824F5E7CF
:107694000010014000E100E06C310020064A9278BD
:1076A4003AB130B1426922B1002202740221FFF7DB
:1076B4006DBD0820704700BF6C3100200648074AA2
:1076C40003780749D35C012213B1043002F03ABABB
:1076D4000C3001F0A5BF00BFBC2A0020FC32002002
:1076E400B83200200648074A03780749D35C0122D0
:1076F40013B1043002F0D8B90C3001F03FBF00BF21
:10770400BC2A0020FC320020B932002037B50578AD
:10771400012D0BD0022D2CD0F5B91D491D48FFF7C2
:107724000EFD002830D1FFF7DDFF15E043681A4C49
:1077340019782046FFF7F1FC80B18DF800500190D4
:10774400164B68461B689847A168E368A2885B1AD1
:107754009A420AD3FFF7B2FF03B030BDA268E368D0
:107764009A42F1D08DF80000EAE70D4B01221A701D
:10777400F2E7C3688DF800500193FFF79FFF074BB2
:1077840068461B689847E7E703238DF80030F6E75F
:10779400B9320020A8320020943200209032002018
:1077A400A4320020F0B51F46234B89B004461A606A
:1077B4000D4600293DD08A8820480968FFF79EFCC1
:1077C400002834D1AA89A9681D48FFF797FC00282E
:1077D4002DD11C4E0FCE6D460FC596E80F0085E8DF
:1077E4000F0063690693237C174A18488DF81C70B0
:1077F400003B18BF01238DF81430637C002B14BFA9
:107804000E2300238DF81530E3680293A3680393D5
:107814002368019369466368009301F093F930B9D2
:107824000B4B18702368013301D0FFF747FF09B0F1
:10783400F0BD0720FBE700BF903200209432002007
:10784400A8320020D8E7020011770200BC2A0020E9
:10785400A432002010B501460E48FFF75EFC044632
:10786400A8B90D480D4A0378D35C63B1043002F023
:107874005DF960B90A490748FFF761FC38B9BDE80A
:107884001040FFF72FBF0C3001F0BEFEF1E7204699
:1078940010BD00BFA8320020BC2A0020FC3200200A
:1078A400B932002070B5EFF3108672B60C4A9468B2
:1078B40001239CB993600B4B0B4DD3F880102940E6
:1078C4001160C3F88050D3F8841051604FF0FF3238
:1078D400C3F88420047006B962B670BD0370FAE779
:1078E400BC32002000E100E0FC06FFBD084B9A68B2
:1078F40010B55AB150B9EFF3108172B6054A1C683D
:1079040014605C685460986001B962B610BD00BF31
:10791400BC32002000E100E001F01F024B0901210C
:10792400914000EB830000F01EB801F01F03012218
:107934009A404B0900EB8300D14300F02CB84B096B
:1079440001F01F0150F82300C84000F00100704707
:1079540010B5034653E8000F0A4643E8002494F0A8
:10796400000FF7D110BD10B5034653E8002F42EACB
:10797400010043E8000494F0000FF6D110BD10B5E7
:10798400034653E8000F00EA010243E8002494F0A0
:10799400000FF6D110BD10B5034653E8002F02EADC
:1079A400010043E8000494F0000FF6D110BD10B5B7
:1079B400034653E8002F02EB010043E8000494F06F
:1079C400000FF6D110BD10B5034653E8002FA2EB0B
:1079D400010043E8000494F0000FF6D110BD01212A
:1079E400FFF7C1BF0021FFF7CABF10B590B1D0E9BE
:1079F400012301689B1ADBB20A60013BDBB2FF2B57
:107A0400026802D10020107110BD11684C1C146072
:107A14000B70F2E70E20F7E737B5054600240DF1A9
:107A240007008DF80740FFF73DFF2A686B6811686F
:107A340099420ED9481E106011F8014CEB68298A4E
:107A440001FB0434AB6811791B1ADBB2994238BFCD
:107A540013719DF80700FFF749FF204603B030BDBE
:107A640037B5054600230DF107000C468DF80730A5
:107A7400FFF718FF2A681368591C1160E968641A33
:107A8400298AB4FBF1F41C709DF80700FFF72EFF60
:107A940003B030BD826810B504462AB14369016859
:107AA400006998470023A36010BD0EB403B5039981
:107AB40021B104AB01AA019300F076F802B05DF89D
:107AC40004EB03B070470A2938B504460D4602D1C9
:107AD4000D21FFF7F8FFA3682268591CA160D55453
:107AE400D4E901329A4204D32046BDE83840FFF776
:107AF400D1BF38BD2DE9F84F9846DDE90A43154654
:107B040082460F460A464FF00109AA420FD2C145E8
:107B140038BFC14613F0010B01D16CB90024012612
:107B2400B8F1010F1BD908F1FF386E43F8E709F1EA
:107B34000109B2FBF5F2E8E79B070ED5B8F1000F97
:107B44000CBF30262026A145E9D2013C31465046DF
:107B5400FFF7B9FF002CF6D1E0E72026F3E7B7FBE7
:107B6400F6F39D42E1D9DFF83C80B7FBF6F35046CB
:107B740018F8031006FB1377FFF7A5FF3346AB4253
:107B8400B6FBF5F6F1D2BBF1000F02D00CB1A14562
:107B940001D3BDE8F88F20215046013CFFF793FF45
:107BA400F4E700BFF8E702002DE9F74F0546174652
:107BB4008846002900F0428118F8011B49B92B7B43
:107BC400002B00F03B81284603B0BDE8F04FFFF7DF
:107BD40061BF252940F0B780002698F800302D2B8E
:107BE400424608F1010823D0302B24D02B2B25D07A
:107BF40000242A2B02F1010123D13B681A1D1B68C2
:107C04003A601C440A4613782E2B26D101324FF0D9
:107C1400000A104610F8011BA1F1300CBCF1090F49
:107C24001DD80A2303FB0A13A3F1300A0246F0E726
:107C340046F00106D1E746F00206CEE746F0040618
:107C4400CBE711F8013CA3F130000928DBD80A2264
:107C540002FB0434303C0A46CBE74FF0000A12F82A
:107C6400011B01F0FB0068289046F8D0782909D858
:107C74006F290CD8632962D022D8252963D05829CA
:107C840000F0888098F80030002B95D197E7703980
:107C94000829F7D801A353F821F000BF1B7E020086
:107CA400897C0200897C0200A97D0200897C020093
:107CB400877D0200897C0200897C0200997D020094
:107CC400642901D06929DDD13A68D2F80090111DE8
:107CD40089EAE9723960A2EBE9724FF0010B092AD3
:107CE40035DCD34538BFD3462CB1B9F1000F01DBE5
:107CF400720700D5013CB30702D5BAF1000F03D0D7
:107D0400F00701D44CBB0024B9F1000F2DDAC9F1FE
:107D140000092D212846FFF7D6FE06F00302022AA9
:107D240004D1BAF1000F01D11CBB0024CDE90046F7
:107D340053460A2249462846FFF7DCFEA2E73B6881
:107D44001A1D19783A602846FFF7BDFE9AE70A2300
:107D54000BF1010BB2FBF3F2C1E7A345D4D220210E
:107D64002846013CFFF7AFFECCE77107D5D52B21A0
:107D7400D0E7A345DAD230212846013CFFF7A3FE21
:107D8400D2E73968CDE900460A1D3A6053460A2213
:107D94000968D0E739680A1D3A60CDE900465346C0
:107DA4001022F5E73B681A1D3A6016F00106D3F875
:107DB400009028D1B9F1000F03D0484606F054F8DA
:107DC4000646B44200D904BB09F1FF3919F8011F72
:107DD40000293FF457AF2846FFF775FEF6E728461B
:107DE4000136FFF770FE19F806100029F7D1A642F4
:107DF400BFF448AF002C3FF445AF20212846013C96
:107E0400FFF761FEF3E70026EDE720212846013C59
:107E1400FFF759FED5E73B681A1D3A603021284622
:107E24001C68FFF750FE78212846FFF74CFE00221D
:107E34000823CDE90032214610227CE703B0BDE8D7
:107E4400F08F00BF2DE9F84FB0F806A04579D2F8BD
:107E540000B09DF828900AFB05F5043D88460BEB1D
:107E64000301A94203F1040488BFA5EB030BB4FB8F
:107E7400FAF607460AFB1644C2F800B04EB9AAEB5C
:107E840004055D4528BF5D46BBF1000F04D1BDE884
:107E9400F88F3F68013EF1E7043408EB06003C44E8
:107EA4002A46B9F1000F0DD02146ABEB050B05F0C6
:107EB4005DFFDA452E443F6855464FF0000428BF65
:107EC4005D46E1E701462046EFE7FFF78EBDF8B5D2
:107ED40046790146721E0546002393422D6803D35A
:107EE4000024A64202D8F8BD0133F6E70F682846FD
:107EF400FFF7B6FD01343946F3E72DE9F843068A66
:107F0400CD1C0746FFF788FD043E35440446B5FB07
:107F1400F6F5F0B14FF48073EDB28380C680013D75
:107F2400076081464FF00008A84512D23846FFF793
:107F340073FD064648B163790133637108F10108A2
:107F4400C9F8000007608146EEE72046FFF7BFFF4F
:107F540034462046BDE8F88301210430FFF727BDED
:107F640010B5012104460430FFF72DFD10F0FF0F7A
:107F740004D12046BDE81040FFF7A9BF10BD1FB5CE
:107F840003920022009203AAFFF75CFF05B05DF89C
:107F940004FB1FB503920122009203AAFFF752FFCC
:107FA40005B05DF804FB0000064B10B500241C70FE
:107FB400054B1C60BFF35F8F0449054800F013F8BC
:107FC400204610BDD0320020D432002014E8020034
:107FD400C8320020836800225A60C3E904229A60F0
:107FE400DA601A6070470B684A684360934208BFBE
:107FF4000023016008BF43607047436843B10268CF
:10800400916852680B449342436004BF0023436069
:108014007047000010B50D49A1F59472914201D842
:1080240000200FE08C1AE30F03EBE4035B1002EB78
:10803400C30452F83330834205D802D204F1080253
:10804400ECE7606810BD2146E8E700BF18ED0200C8
:1080540008B5FFF7DFFF024B002808BF184608BD2C
:10806400DAEB0200026813685268934291BFD01A97
:1080740080680130801888BFC01A7047036881681F
:108084001A685B688B4234BF01330023D31A584209
:1080940058417047F7B5002304460DF107000D461B
:1080A4008DF80730FFF7FEFB2046FFF7E7FF10B11E
:1080B400237C002B3CD12268A66853685168B142E6
:1080C40034BF01310021516030B11168A068814290
:1080D40034BF013100211160E2686068511E072934
:1080E40020D8DFE801F004101F141F1F1F182A787E
:1080F400C2542046FFF7B6FF23689A68824200D232
:108104009860002415E02A8820F81320F1E72A68F3
:1081140040F82320EDE7D5E9006700EBC300C0E990
:108124000067E6E7294602FB030005F01FFEE0E7CF
:1081340004249DF80700FFF7D9FB204603B0F0BDE7
:10814400036818685B68C31A58425841704773B58E
:10815400002305460DF107000C4616468DF807303E
:10816400FFF7A0FB2846FFF7EBFF002832D1296870
:108174000B682EB90A68A868824238BF561C0E6084
:10818400EA686968501E07281ED8DFE800F0040E6C
:108194001D121D1D1D16CB5C237000249DF80700C5
:1081A400FFF7A4FB204602B070BD31F813302380E2
:1081B400F3E751F823302360EFE701EBC301D1E982
:1081C4000023C4E90023E8E703FB0211204605F07D
:1081D400CDFDE2E70524E1E7F0B501680A7E0B680E
:1081E4009E6806EBC20E5FFA82FC56F832609EF877
:1081F40005309EF80470D4009EF8062012F0010F9A
:108204004FEA530587B003F0010336D0ABBBD1F876
:1082140000E09EF80CE00CF1010CF4452DDAD1F8E5
:1082240000C0DCF808C00834A4449CF805C0B5EBD1
:108234005C0F22D10B689B681A1953F804C0537958
:108244000C7E92F804E0927903F001030134C3F147
:1082540003035201E4B2DBB202F020020C7601A95E
:108264000C30CDE9027ECDE9046C8DF804308DF834
:10827400055002F0DDFA07B0F0BD52014FF0000CDA
:1082840002F02002E646EAE7034608461A68126846
:1082940022B11A681B6851681B68184770470000B0
:1082A4002DE9F74F0568DFF8989004460E464FF025
:1082B40000080DF107008DF80780FFF7F3FA16B9EF
:1082C40023681B6843B9606800222946FFF73FFF13
:1082D40068B3C5F8008000269DF80700FFF706FB89
:1082E40056B32B681B6923BB2F1D686910223946BE
:1082F40005F0D5FC80B104F10C0B584604F1080AD2
:1083040002F04CFA23464A463946504601F0C8FC6E
:10831400584602F019FA6F6185F818802046FFF775
:108324005BFF014640B12068FFF7AEFFC1E70126BD
:10833400D2E72B681F69D8E703B0BDE8F08F00BF10
:108344004983020010B500780C4668B90A68137EA8
:1083540011680133097BDBB2994206D913762046B2
:10836400FFF73AFF08B910BD032001462068FFF764
:108374008BFF20460121BDE81040FFF791BF0000AC
:10838400F8B50C4A0346044608300D4601F088FC53
:10839400064660B904F10C0002F0D6F9276895E8A6
:1083A4000F003C4644F8046B84E80F007C613046BF
:1083B400F8BD00BF4983020037B505460191406806
:1083C40001A9FFF767FE044618B901462846FFF7DE
:1083D40067FF204603B030BD70B506460C4D0D480E
:1083E4000A782D1AED080C462D0433460A4945F047
:1083F4000300FEF722FBA36A13B1E16830469847F5
:10840400E36A21465868BDE87040FFF729BB00BF06
:108414002CE60200A4E5020018ED020038B503467C
:10842400094C0A480A78241AE4080D46240444F046
:1084340003000749FEF701FBD5F81C3129465868AB
:10844400BDE83840FFF70CBB2CE60200A4E50200AF
:108454003CED02004068FFF7C8BA00002DE9F3477D
:108464002A4D9DF82CA0CDF800A09946284BED1A72
:10847400ED0807462D04134645F0030088461646CA
:108484000A462449FEF7E3FA7868FFF7C5FA04467A
:1084940048B9214945F00200FEF7C2FA04263046E5
:1084A40002B0BDE8F087012208FA02F343721343D5
:1084B4000A99437400F11403067002728272C16057
:1084C4008274C0E90A97406080F810A01422002149
:1084D400184605F074FC114AC4E90524221DE26122
:1084E400022284F8202001463868FFF765FF06461B
:1084F4000028D4D003460A4945F002004246FEF75C
:108504009CFA78682146FFF7ABFAC8E72CE602002C
:10851400A4E5020061ED020096ED0200DD83020095
:10852400ACED02002DE9F0472C4D9DF820A0164635
:108534002B4AAD1AED0807462D040A4645F0030000
:10854400884628499946FEF778FA7868FFF764FA6E
:10855400044648B92449424645F00200FEF764FA4D
:1085640004263046BDE8F0874FEA480380F8053119
:108574000023C0F81C71C0F8006180F8049180F8F1
:108584000631BAF1000F05D04A46314605F0EEFB3C
:10859400C4F8004104F5847314220021184605F040
:1085A4000EFC124AC4E9422404F58072C4F8102176
:1085B400012284F8142101463868FFF7FDFE0646BF
:1085C4000028CED003460A4945F002004246FEF791
:1085D40034FA78682146FFF743FAC2E72CE6020032
:1085E400A4E50200EBED02000FEE0200218402007C
:1085F400ACED02002DE9F043184C9946184BC3B07A
:10860400E41AE4089DF82851240407460E4644F071
:10861400030014499046FEF707FAFF2D0CD1FE2300
:10862400009344F0010010492B463246FEF70FFA3E
:10863400092043B0BDE8F0832A4649460DF10900FC
:108644008DF8088005F092FB6B1C01220092DBB2CE
:1086540002AA31463846FFF765FFEAE72CE6020036
:10866400A4E5020039EE020050EE0200054B1B683F
:10867400082B01BF044B1868B0FA80F0400918BFFA
:1086840000207047300100103401001008B54FF08D
:1086940080430022C3F80C21C3F81021C3F8382505
:1086A4004FF0805203F54043D2F80414C3F8201568
:1086B400D2F80814C3F82415D2F80C14C3F82815FA
:1086C400D2F81014C3F82C15D2F81414C3F83015CA
:1086D400D2F81814C3F83415D2F81C14C3F8401592
:1086E400D2F82014C3F84415D2F82414C3F848155A
:1086F400D2F82814C3F84C15D2F82C14C3F850152A
:10870400D2F83014C3F85415D2F83414C3F86015F1
:10871400D2F83814C3F86415D2F83C14C3F86815B9
:10872400D2F84014C3F86C15D2F84424C3F8702569
:10873400FFF79CFF10B1384B384A1A60FFF796FFD9
:1087440018B1374BFB22C3F81825FFF78FFF48B148
:108754003449354B0A681B6822F00F0203F00F03FB
:1087640013430B60FFF782FF18B1304B4FF40072D4
:108774001A604FF08043D3F80024D20744BF6FF04F
:108784000102C3F800242A4AD2F8883043F4700363
:10879400C2F88830BFF34F8FBFF36F8F4FF01023B1
:1087A400D3F80022002A03DBD3F80432002B2FDA9B
:1087B400204B0122C3F80425D3F80024002AFBD05F
:1087C4004FF010221221C2F80012D3F80024002A1C
:1087D400FBD04FF010231222C3F80422154B1A4683
:1087E400D3F800140029FBD00021C3F80415D2F8F3
:1087F4000034002BFBD0BFF34F8F0D490E4BCA68DA
:1088040002F4E0621343CB60BFF34F8F00BFFDE778
:108814000A4B0B4A1A6008BD8C560040488103007D
:1088240000F00040E40E0040580200104096024060
:1088340000ED00E000E001400400FA05D02A002029
:108844000090D003074B1B5C1F2B8ABF064A4FF0D6
:10885400A04203F01F03D2F80405D840C04300F03F
:1088640001007047B6EE020000030050074B1B5C8A
:108874001F2B86BF064903F01F034FF0A0410122BE
:1088840002FA03F3C1F80C35704700BFB6EE0200DC
:1088940000030050074B1B5C1F2B86BF064903F0E7
:1088A4001F034FF0A041012202FA03F3C1F8083577
:1088B400704700BFB6EE02000003005008B5002068
:1088C400FFF7E8FF0120FFF7E5FF0220FFF7E2FFD3
:1088D400BDE808400320FFF7DDBF08B50020FFF71F
:1088E400C5FF0120FFF7C2FF0220FFF7BFFFBDE86D
:1088F40008400320FFF7BABF0A4B185C1F288ABF41
:10890400094B4FF0A04300F01F00D3F804250121C8
:10891400814021EA02000A40C3F80805C3F80C2587
:10892400704700BFB6EE020000030050074B1B5C0B
:108934001F2B8ABF064A4FF0A04203F01F03D2F850
:108944001005D840C04300F001007047B2EE0200A9
:10895400000300500B2809D00C2809D0182809D08E
:1089640019280CBF03204FF0FF30704700207047D8
:108974000120704702207047014B185C704700BF0C
:10898400B2EE0200C20710B504460CD54FF0A04366
:108994000322C3F83427C3F83827C3F83C27C3F8A5
:1089A4004027FFF78BFFA3070AD54FF0A0430C2203
:1089B400C3F82C27C3F83027C3F86027C3F864270B
:1089C40010BD000038B5074C051E04F1080318BF9C
:1089D4001C4623682BB11A6822605B6828469847B6
:1089E400F7E738BDE032002020B9054B01225A7068
:1089F400FFF7E8BF012802D1014A9070F8E77047F9
:108A0400D832002020B9034B01225A70FFF7DABF95
:108A1400704700BFD832002038B50B4C237883B997
:108A24000A486360A3602361E36000F0C9F8054667
:108A340004F088FA08B900F0CFF80123237028461F
:108A440038BD8525FBE700BFD8320020ED89020040
:108A540037B50B4C00230DF107008DF80730FEF7F6
:108A640021FFE368013BE360E56815B900F0C6F84F
:108A7400A5709DF80700FEF739FF03B030BD00BFB5
:108A8400D8320020012813B508D003281CD018B907
:108A9400104B0122C3F8802002B010BD0E4C0023FD
:108AA4000DF107008DF80730FEF7FCFE23780BB9B3
:108AB400FFF7B2FFE3689DF807000133E360012389
:108AC400A370FEF713FFE7E700F086F8FFF7C0FF97
:108AD400E2E700BF00E100E0D83200201FB50378D0
:108AE4008DF800304368019383688DF80830C368BB
:108AF400054A0393054B684653F8213052F8211078
:108B0400984705B05DF804FBEC320020F4320020F5
:108B14001FB503788DF800304368019383688DF89E
:108B24000830C368054A0393054B684653F821305F
:108B340052F82110984705B05DF804FBEC32002090
:108B4400F4320020F0B5194B90F800C0DFF86CE067
:108B540043F82C20164B16460A6943F82C204B7F09
:108B64000EF80C300C4607460FCC89B06D460FC585
:108B740094E80F0085E80F001EF80C30CDF810C003
:108B84004BB1002E0B4A694608BF3246381D00F02F
:108B940059FE09B0F0BD002E074A694608BF3246A7
:108BA40007F10C0000F0C0FBF3E700BFF432002033
:108BB400EC320020E18A0200158B0200FC32002016
:108BC400044A137923B90121106091801846704733
:108BD4008520704700330020074B1A68D2075FBF17
:108BE400C02283F8002301221A604FF0804301223F
:108BF400C3F81825704700BF00E100E0044B0122D0
:108C04001A604FF08042D2F81834DB03FBD470476B
:108C14000C000040154B07B51A687AB100221A609F
:108C24001B680093009B4FF080430122C3F8082384
:108C34000F4B587910B95A711B6898470D4B1A6835
:108C440082B100221A601B680193019B4FF080439C
:108C54000222C3F80823064B1B68012003B05DF809
:108C640004EB184703B05DF804FB00BF00010040AB
:108C7400003300200401004000F1804000F5C040B2
:108C8400002382B0036003680193019B02B0704724
:108C940003681F2B83BF03F01F03036001484FF0D9
:108CA400A04070470003005007B5019001A8FFF7EA
:108CB400EFFF019B00EB8300D0F8003723F440332F
:108CC400C0F80037D0F8003743EA0141C0F8001774
:108CD40003B05DF804FB0000054B4FF0FF3207289A
:108CE40043F8202084BFC01880F85820704700BF84
:108CF4000833002010B5174C94F86A3043BB04F1D4
:108D040030033021FF22013911F0FF0103F8012B58
:108D1400F9D1C8B2FFF7E0FF01310C29F9D10622DD
:108D240000210D4805F04BF80C4BC02283F80623B4
:108D340040221A604FF4BE70FFF79EFF084B4FF0BD
:108D44000042C3F80423012384F86A30002010BDD4
:108D54000820FCE7083300206C33002000E100E029
:108D640000600040034B93F86A00003818BF0120EC
:108D7400704700BF08330020F7B53B4E3318054653
:108D840093F93030002B6CDA8B78C3F34003002B5B
:108D94000BBF082400240C200820844202D10420A4
:108DA40003B0F0BD56F82470013743D1701946F86A
:108DB400242080F8304013B9331983F858508B7845
:108DC4005A0717D4D80737D501A80195FFF760FFD4
:108DD400019B00EB8300D0F8003723F00203C0F8B6
:108DE40000372248EA0805F007070123BB40875CE7
:108DF4003B4383548B780A7813F0020328D0A400F1
:108E040004F1804404F5C0442D02D4F8103523F451
:108E14004F3323F44073C4F810351204D4F81035DA
:108E240005F47C5502F4403215431D43C4F8105533
:108E34000020B5E70134B0E701A84A780195FFF7AF
:108E440027FF019B03F5E073920040F82320C8E755
:108E5400083C344494F8605045EA821284F8602057
:108E6400E6E708209CE700BF083300206C330020AD
:108E740073B5224C2618054696F93020072A1ADDC8
:108E8400224492F858309B09032B0FD1019001A87A
:108E9400FFF7FEFE019BD0F81015D94001F0010147
:108EA40002312846FFF700FF02B070BD012B0CBF52
:108EB40002210321F5E7D3B2072BF5D8930003F180
:108EC400804303F5C043D3F8100540F00100C3F814
:108ED400100502F14000800080B2FFF7CDFE0029AA
:108EE400E2D096F9303054F82330002BDCD0012343
:108EF40003FA02F2024BC3F80423D5E70833002037
:108F04000060004007B5019001A8FFF7C1FE019B76
:108F1400D0F81005D84000F0010003B05DF804FB60
:108F24002DE9F04F002489B0CDE90244624D4FF49D
:108F34008072012102F1804303F5C04390B21B68A3
:108F4400012B06D1D5F804330B4202D0FFF794FE6F
:108F54000C430432B2F5907F4FEA4101EAD1574BFA
:108F64001B68012B0ED14FF4BE70FFF785FE4FF046
:108F7400A04344F00044D3F810350293504BD3F887
:108F84001035039314F0FF0F1AD04E4F002501261D
:108F9400344210D0AB0003F1804303F5C043D3F84F
:108FA4001005D3F8101557F8253023B1C1F301414A
:108FB400C0F3052098470135082D4FEA4606E7D14E
:108FC400002C75DA04AF002304937B604FF0FF3369
:108FD400CDE90633DFF8EC90DFF8EC800026354667
:108FE40018F9012B531C4AD0C2F3C2000123D4B296
:108FF40002F03F0B02F0070203FA02F208AB191861
:1090040011F8083C13423AD009EB0B03A40993F975
:10901400303059F823A0BAF1000F08D1032C2ED117
:1090240017F800C04CEA020C07F800C001E0032C5A
:10903400F6D001A8CDF804B0FFF72AFE019B11F881
:10904400181C03F5E07C114250F82C00C0F30140D9
:1090540005D0022813D1032C0BD1214604E00328A8
:109064000DD1032C05D102215846FFF71DFE013511
:10907400EDB2BAF1000F02D021465846D04701366E
:10908400042EADD1A5B14FF0A0430299D3F8102519
:1090940003F540739142D3F8103502D103999942F4
:1090A40006D002920393049A059B0692079393E7D2
:1090B40009B0BDE8F08F00BF006000407C61004053
:1090C400000300500833002068330020014B1B6864
:1090D400184700BF743300200E4B984237B50C4636
:1090E40002D0002003B030BD00230DF107008DF83D
:1090F4000730FEF7D7FB084B1D7915B901221C6018
:109104001A719DF80700FEF7F1FB002DE9D011203C
:10911400E8E700BF0020004074330020034B98426E
:1091240001BF034B00221A601A71704700200040EF
:10913400743300200023435082B043580193019BB1
:1091440002B070470A4610B54FF48E71FFF7F2FF74
:10915400136A9168C95C136A01331362C0F81C1561
:1091640010BD024608B500684FF49271FFF7E2FFA4
:109174004FF484711068FFF7DDFF136801221A6051
:1091840008BD8B690A4610B54FF4847123B9FFF703
:10919400D1FFD0F8183510BDFFF7CCFF536AD16862
:1091A400D0F81805C854536A01335362F3E700003A
:1091B4001FB501238DF80030044BCDE90110D3E92C
:1091C40000126846904705B05DF804FB7C3300202C
:1091D40030B54B48D0F8043313F4007F85B005460E
:1091E4004DD0D0F82431002B49D04FF49271FFF7C1
:1091F400A1FF4FF40173C0F80833424B93F82920C0
:109204000AB9012242603E4902228DF80020D1F8B9
:109214008024C1F8802403929A690292DA68019248
:109224000022C3E906226846D3E900129047344875
:10923400D0F81C315BB133490A6A4B699A420A4639
:109244004AD291F82830002B46D1FFF77BFF2C48F7
:10925400D0F844318BB14FF4A271FFF76BFF294B67
:1092640093F829200AB1012202609A692AB10022E6
:10927400586AD9689A61FFF79BFF05B030BDD5F8ED
:1092840004335B07D3D5D5F80831002BCFD01D4C60
:109294001B482146FFF775FF636AA2699A42234679
:1092A400C5D1E269E1684AB12369E3600023606AD9
:1092B400A261E3616362FFF77BFFB8E794F82920BA
:1092C4000AB901226A600E4A4FF40170C2F8080319
:1092D4000022586A9A61EEE74FF48E710848FFF74E
:1092E40029FF51690029B2D00023029191688DF8B9
:1092F4000030019153616846D2E900139847A6E70C
:10930400002000407C3300201F2886BF00F01F008F
:10931400044B4FF0A04300F5E070022243F82020F4
:10932400704700BF000300502DE9F843634B0579F3
:1093340091462C2202FB0532064692F82A200C465E
:109344009846002A40F0B6805D490068FFF7C4FEE5
:109354000746002840F0B08021684A1C10D01F291D
:1093640087BF584A01F01F030B464FF0A04201206B
:10937400984003F5E073C2F80805032042F823007F
:109384006068431C0DD01F288BBF00F01F030346E9
:109394004C4A4FF0A04203F5E0734FF0000C42F842
:1093A40023C03368A269C3F8242594F814C0627DED
:1093B400BCF1010F4CEA0202C3F86C25C3F8140592
:1093C400C3F80C152BD1A168481C0DD01F298BBFE5
:1093D40001F01F020A463B484FF0A04002F5E0723C
:1093E4004FF0000C40F822C0E068421C13D01F2844
:1093F40087BF344A00F01F0C84464FF0A0424FF060
:10940400010E0EFA0CFE0CF5E07CC2F808E54FF0F4
:10941400030E42F82CE0C3F80805C3F810152C23FA
:109424006B4308EB0302C2F80490226948F8032056
:10943400B9F1000F2BD03068247F4FF48E71FFF701
:1094440079FE30684FF4A271FFF774FE32681E4B48
:10945400C2F80433110B42F30732002AA8BF02F109
:1094640060404FEA4413BABF184801F00F0400F5F6
:109474006140DBB2B4BF035580F8003301F01F0133
:10948400012303FA01F15209114B43F82210336806
:109494000422C3F800252C2303FB05830022C3E91F
:1094A400062283F829205A61012283F82A203846AB
:1094B400BDE8F8830827FAE71127F8E77C33002092
:1094C400D5910200000300508000020014ED00E07A
:1094D40000E100E02DE9F04103680479244D002205
:1094E400C3F800252C2202FB0452014652686AB1DB
:1094F400204AC3F8082343F30732C3F3043652095E
:109504000120B04020321C4E46F82200D3F80C054E
:10951400D3F81485D3F80865D3F810754FF0FF32EB
:109524009042C3F81425C3F80C25C3F80825C3F8E2
:10953400102501D0FFF7E8FEB8F1FF3F02D0404606
:10954400FFF7E2FE7A1C02D03846FFF7DDFE731CFB
:1095540002D03046FFF7D8FE0868FFF7DFFD2C2362
:1095640003FB0454002384F82A306360BDE8F081CF
:109574007C3300208402020000E100E02DE9F8437E
:10958400204B07794FF02C0909FB0734054666691F
:109594009846002E33D100686261A16026624FF4C0
:1095A4008E7184F82860FFF7C5FD28680123836065
:1095B4002146FFF7C7FD6368A14683B92868226A7C
:1095C40063699A4211D32B68D3F81C21002AFBD07B
:1095D4000122DA602C2303FB078300225A61304600
:1095E400BDE8F88394F828303BB9D0F81C31002B3F
:1095F400F8D04946FFF7A6FDE1E70F26EAE7112672
:10960400EDE700BF7C3300200379044A2C2101FBE1
:1096140003235869003818BF012070477C330020A9
:109624002DE9F843394F05792C2303FB05730646CE
:109634005C6824B103684FF40170C3F808032C2359
:1096440003FB0573986950B1D86900283ED024B152
:1096540033684FF40172C3F80423112433E09A6190
:10966400D9605862D8612C2303FB057393F8293021
:109674001BB910B93046FFF774FD4FF02C0909FBF4
:1096840005783068D8F80430002B34D14FF4A27137
:10969400C146FFF74FFD3068D0F82431D0F80821D7
:1096A400D0F84441B2B90CB9002BF4D02C2202FBFF
:1096B40005750022AA6123BB2CBB95F829103368D9
:1096C4000122B1B11A602046BDE8F8831961DA615C
:1096D4000120C8E7002BE9D1002CE7D14946FFF768
:1096E40050FDD8F82430D8F818209A42D3D823460D
:1096F400DCE75A60E7E74FF40173C0F80433002451
:10970400E1E70324DFE70F24DDE700BF7C3300201B
:109714000023435082B043580193019B02B0704729
:109724001FB501238DF80030044BCDE90110D3E9B6
:1097340000126846904705B05DF804FBA83300208A
:109744007FB5364AD2F82461002E46D010464FF435
:109754009271FFF7DDFF02238DF80030D2F88034D8
:10976400C2F880340393D2F83C3502932C4BDA6868
:1097740001920022C3E906226846D3E90012904709
:109784002648D0F8443173B14FF4A271FFF7C0FFFB
:10979400234B9A693AB10022C3E90622D968D0F86A
:1097A4003C05FFF7BDFF1D48D0F820319BB14FF4B5
:1097B4009071FFF7ADFF1A4B5A6962B1D0F84C159E
:1097C4000291002299688DF8002001915A6168463F
:1097D400D3E90012904704B070BDD2F81031002BC9
:1097E400CED04FF488711046FFF792FF0C4BD2F89D
:1097F4003C0599698842C3D1DC69D96864B1D2F85F
:10980400005225F02005C2F800521A699C61DA6002
:10981400DE61FFF785FFB3E79C61FAE700200040B3
:10982400A83300201F2886BF00F01F00044B4FF010
:10983400A04300F5E070022243F82020704700BFE7
:10984400000300502DE9F843674B06799146242222
:1098540002FB0632044692F820200D469846002A60
:1098640040F0BE8061490068FFF736FC07460028D7
:1098740040F0B8802868421C10D01F2887BF5C4A7B
:1098840000F01F0303464FF0A0420121994003F565
:10989400E073C2F80815032142F8231069684B1CD1
:1098A4000DD01F298BBF01F01F030B46504A4FF008
:1098B400A04203F5E0734FF0000C42F823C0236884
:1098C400AA69C3F8242595F814C06A7DBCF1010F78
:1098D4004CEA0202C3F86C25C3F80C05C3F814154E
:1098E4002BD1A968481C0DD01F298BBF01F01F0282
:1098F4000A463F484FF0A04002F5E0724FF0000CDA
:1099040040F822C0E868421C13D01F2887BF384A99
:1099140000F01F0C84464FF0A0424FF0010E0EFAE7
:109924000CFE0CF5E07CC2F808E54FF0030E42F89B
:109934002CE0C3F80805C3F810152423734308EB7F
:109944000302C2F804902A6948F80320B9F1000F11
:1099540035D020682A7F4FF48871FFF7D9FE20683C
:109964004FF49071FFF7D4FE20684FF49271FFF723
:10997400CFFE20684FF4A271FFF7CAFE23681D4989
:10998400C3F80413190B43F30733002BAEBF03F1E1
:10999400604001F00F0518484FEA4212A8BF00F5D5
:1099A4006140D2B2B4BF425580F8002301F01F01D8
:1099B400012202FA01F15B09104A42F823102368DC
:1099C4000822C3F80025242303FB06830022C3E9ED
:1099D40006225A61012283F820203846BDE8F88324
:1099E4000827FAE71127F8E7A83300204597020073
:1099F400000300501003020014ED00E000E100E059
:109A04002DE9F04103680479244D0022C3F80025B0
:109A1400242202FB0452014652686AB1204AC3F868
:109A2400082343F30732C3F3043652090120B0403C
:109A340020321C4E46F82200D3F80C05D3F81485C6
:109A4400D3F80865D3F810754FF0FF329042C3F88D
:109A54000C25C3F81425C3F80825C3F8102501D034
:109A6400FFF7E0FEB8F1FF3F02D04046FFF7DAFE11
:109A74007A1C02D03846FFF7D5FE731C02D030465C
:109A8400FFF7D0FE0868FFF749FB242303FB0454C7
:109A9400002384F820306360BDE8F081A8330020FF
:109AA4001003020000E100E001F06043B3F1005F45
:109AB4002DE9F041064632D11B4B0779242505FBDD
:109AC400073598466C6964BB6A610068A9604FF405
:109AD4009071FFF71DFE4FF4AC713068FFF718FE6C
:109AE40033686A69A968C3F84415C3F84825012294
:109AF4009A606A6862B9D3F82021D3F8584152B900
:109B0400002CF8D00F24242303FB078700237B6158
:109B14002046BDE8F081002C18BF0F24F3E7102481
:109B2400F6E71124F4E700BFA83300200379044AC0
:109B3400242101FB03235869003818BF0120704712
:109B4400A8330020F8B501F06043B3F1005F044688
:109B54000F465ED10379304D242101FB035149683E
:109B640021B100684FF40476C0F80863242000FB98
:109B740003539E6956B1D869002839D021B12368AE
:109B84004FF40472C3F80423112030E09A61DF60BB
:109B9400DE6120684FF48871FFF7BAFD20684FF446
:109BA400A271FFF7B5FD2368C3F83475C3F83825EF
:109BB40016BB01221A602179242202FB0152526849
:109BC4000ABBD3F81041D3F84421D3F82401144339
:109BD40002D10028F5D02246242303FB015500239B
:109BE400984218BF03209A42AB6118BF0F20F8BDFA
:109BF4001F61DA610126CCE7D3F8002242F020028B
:109C0400C3F80022D7E74FF40472C3F804230020FA
:109C1400EDE71020EBE700BFA8330020034B1878D2
:109C240010B901221A70704785207047CC33002088
:109C34001FB503788DF800308388ADF8043083684D
:109C44008DF80630C3688DF80730036902934369C1
:109C5400054A0393054B684653F8213052F8211006
:109C6400984705B05DF804FBD0330020D8330020BA
:109C7400024B4FF4807043F001031847E0EE0200FA
:109C84001F2886BF054A00F01F004FF0A0420123A1
:109C940003FA00F0C2F80805704700BF0003005043
:109CA4002DE9F047154690F80080394A42F82850CB
:109CB400384A42F828304B7B06460C46A3B3086862
:109CC400DFF8D8904FF0A04100F5E07340F20C6249
:109CD40041F82320636803F5E073002741F823204B
:109CE400FFF7CEFF6068FFF7CBFF236803F5E0734F
:109CF40040F20D6241F82320636803F5E0734FF0EE
:109D0400010A41F82320FFF7B3FF63681F2B8ABFC2
:109D14004A464FF0A04203F01F03D2F8102522FA5E
:109D240003F3DB070BD507BB002D1B4A434608BFD3
:109D34002A462146301DBDE8F04700F07DBC23686B
:109D44001F2B86BF03F01F034A464FF0A0420AFAB6
:109D540003F3C2F80C35FFF78BFF01372068FFF7D8
:109D64008FFFFFF785FF092FCFD163681F2B86BFB5
:109D74000A4903F01F034FF0A041012202FA03F342
:109D8400C1F80C35FFF774FF6068FFF779FFCBE784
:109D9400D8330020D0330020359C0200000300504B
:109DA40000F1804000F5E040002382B003600368C6
:109DB4000193019B02B07047F0B5504B504C1B68A7
:109DC40085B0002B3DD04FF4827094F82E20FFF71D
:109DD400E7FF2AB394F82F3013BB4A4B1B68002BC0
:109DE40033D04FF48070FFF7DBFF638B94F82D10B2
:109DF4008B424FD922895B1A9BB292B26383D31AE6
:109E0400626802EB4303404AC2F82C36C2F83016AB
:109E14004FF48270FFF7C4FF3C4B01221A6014E038
:109E2400636802932389ADF80C30E36800218DF850
:109E3400041023BB2374236801A89847002384F8E3
:109E44002F3094F82E30002BC7D1314B1B685BB1F7
:109E54004FF48870FFF7A4FF0023237402238DF8C6
:109E6400043001A8236898472A4B1B68EBB14FF4D0
:109E74008A70FFF795FF0023237405B0F0BD208B93
:109E8400608363602081E160002AD4D11E4B0122EB
:109E94001A60D0E7BCD1E368012284F82F2013B103
:109EA40000226283AFE76383B2E766694FF000473D
:109EB4000125002EE1D0B6FA86F227FA02F34632E3
:109EC400920026EA030602F1804303F5E0431B688F
:109ED400002BEED01046FFF763FFA2F58C72D30877
:109EE40082F00402C2F380028DF808308DF8045029
:109EF40023688DF8092001A89847DAE70471004027
:109F0400E033002000710040007000400470004005
:109F1400107100401471004038B51E4B044693F88C
:109F24002C00A8BB1C4A19602178C2F8F01561788E
:109F3400C2F8F415E5781874012183F82C1083F81D
:109F44002D00586183F82F0083F82E506FF00043E2
:109F5400C2F808334FF48270FFF722FF4FF4807089
:109F6400FFF71EFF4FF48A70FFF71AFFA3780B4820
:109F74005B01DBB280F80733802303600223C2F85D
:109F840004330DB1C2F80413C2F80015002038BD23
:109F94000820FCE7E03300200070004000E100E00E
:109FA40030B5224B1A7C002A3ED100F10C0403EB9D
:109FB4004402127922B993F82D20013283F82D201E
:109FC40003EB4403CA790C7A8D781A715C714B786F
:109FD4002D021B0105F4E06503F030032B430D78DB
:109FE40005F003052B43CD782D0305F480552B4351
:109FF4000D792D0405F4E0252B434D7989792D0540
:10A0040005F48015090601F080712B430B4301010F
:10A0140001F1804101F5E0410020C1F81835C1F893
:10A024001445C1F8102530BD1120FCE7E0330020B1
:10A03400054B93F82E30002B14BF0020042000F1B0
:10A04400804000F5E0407047E033002070B5264AB8
:10A05400264B05461220C2F808031C7C022C03D1AF
:10A06400C2F80403112070BD187C01281DD1D868E2
:10A0740018B10223C2F80433F4E7DD60198393F8BE
:10A084002E3063B91A4A1368002BFCD04FF4807049
:10A09400FFF786FE144BC3F82C56C3F83016124B48
:10A0A4000222C3F804230020DDE7022093F82E40A7
:10A0B400C2F80403012600201E745D601981D86073
:10A0C4003CB1598393F82D30C2F82C56C2F830367F
:10A0D400C9E7C2F82C564FF48070C2F83016FFF767
:10A0E4005FFE20461660BEE700700040E0330020AB
:10A0F40000710040F7B506792F4D0C237343EF1818
:10A104003C7A002C56D1EA504B687B60477903684F
:10A114002246D0B2874244D843F30734C878002C8F
:10A12400A8BF04F16047C3F30732BABF234F02F05C
:10A134000F0C07F561474FEA4010C0B2B4BF07F8EF
:10A144000C0087F80003640901201D4F02F01F0270
:10A1540000FA02F247F82420D3F804454A7824F0A0
:10A16400030402F003022243C3F80425D3F808458C
:10A174008A7824F0030402F003022243C3F808257A
:10A184000A78D3F8104502F00F0224F00F010A43B5
:10A19400C3F810250C2303FB06552872002003B0D6
:10A1A400F0BD900000F5A07001321C5018580190C9
:10A1B4000198AEE70820F2E71034002014ED00E027
:10A1C40000E100E0036801221A600379034A0C21CC
:10A1D40001FB032302221A72704700BF10340020CF
:10A1E40037B54FF4803400688C407BB101F15003E3
:10A1F4009B000025C550C3580193019BC0F804433C
:10A2040001F5A87140F8212003B030BDC0F808431F
:10A21400F6E770B4046840F20116D4F800528E4098
:10A2240025EA0605C4F80052D4F800522B43C4F8BA
:10A2340000329DF80C3070BCFFF7D2BF2DE9F3411A
:10A24400104C114F114E00254FF480382368A4F5AB
:10A25400004080B26BB1D7F8043308FA05F21A4211
:10A2640007D00023236023680193019BD6E90031C2
:10A2740098470135042D04F10404E7D102B0BDE888
:10A28400F08100BF40810040008000401034002075
:10A294000023435082B043580193019B02B070479E
:10A2A4002DE9F0470E78089F9DF824A004460D463A
:10A2B4009846002E5ED1D0F82431D2F800903BB1FC
:10A2C4004FF49271FFF7E4FF012363612B7017E0F1
:10A2D400D0F81C3153B34FF48E71FFF7D9FFD0F887
:10A2E40024311BB14FF492712046EBE713689F426F
:10A2F40012D918F80330C0F81C3513680133136001
:10A30400B94535D1D4F8043193B34FF48271204662
:10A31400FFF7BEFF002604E00123BAF1000F03D0CB
:10A32400C3613046BDE8F0874361E9E7D0F80831FE
:10A33400002BE5D04FF48471FFF7AAFFD0F8243145
:10A34400002BCFD113689F42DAD9D0F8181508F83A
:10A3540003101368013313607A1E934205D102235C
:10A36400C0F8003201232362CAE79F42FAD1C7E74B
:10A374000126D6E74FF49271FFF78AFF4FF48E71EE
:10A38400FFF786FF4FF48471FFF782FFBAE70000FE
:10A394002DE9FF470C4605461F4620463B4B0393D9
:10A3A4004FF4827116469DF83080FFF771FF4FF429
:10A3B4009271FFF76DFF4FF48E71FFF769FF4FF451
:10A3C4008471FFF765FF0023C4F800326B6385F8DE
:10A3D4002E3001232362A3606A6B97421DD9B35CBC
:10A3E400C4F81C356B6B01336B632B68E3B905F15F
:10A3F400340A05F12E09039B002B1FDC95F82E303F
:10A4040053BB0020039B002B15DC0023C4F800354C
:10A414000523C4F8003503200DE0B8F1000F01D086
:10A42400E361E2E76361E0E740F28623AB60AB6897
:10A43400C4F80433002004B0BDE8F087CDE9007807
:10A444003346524649462046FFF72AFF0028D5D016
:10A45400039B013B0393CEE7D4F8C434C4F8C4345B
:10A46400002BCED013F0010F14BF4FF40240032091
:10A4740048F2012213F0020F18BF104613F0040F24
:10A4840048F2022318BF1846BCE700BFA0860100AB
:10A494002DE9FF470C4605461E462046354B0393DF
:10A4A4004FF482719046FFF7F3FE4FF49271FFF779
:10A4B400EFFE4FF48E71FFF7EBFE4FF48471FFF75C
:10A4C400E7FE0023012E2F686B6385F82E3008BF4A
:10A4D40002224FF001030CBFC4F80022C4F800327A
:10A4E40023622360AFB905F1340A05F12E09039BF9
:10A4F400002B18DC95F82E301BBB0020039B002B8F
:10A504000EDC0023C4F800350523C4F8003503200D
:10A5140006E040F28623AB60AB68C4F80433002045
:10A5240004B0BDE8F087CDE900674346524649468A
:10A534002046FFF7B5FE0028DCD0039B013B0393C4
:10A54400D5E7D4F8C434C4F8C434002BD5D013F000
:10A55400010F14BF4FF40240032048F2012213F00C
:10A56400020F18BF104613F0040F48F2022318BF5D
:10A574001846C3E7A0860100F0B52C4C2C4894F88B
:10A584002C3089B004F134020193A36A0093636A06
:10A5940004F12E01FFF784FE2746E0B994F82EC09B
:10A5A400266ABCF1000F1DD1217B8B1E012B19D80B
:10A5B400626AA3699A4215D1E26963696262C6F369
:10A5C40040160329A36284F82C6006D1184900962A
:10A5D4002046FFF7DDFE09B0F0BD15492046FFF720
:10A5E40057FFF8E7134D0FCD03AC0FC42B6823605E
:10A5F400BCF1000F17D00E4AD2F8C434C2F8C434E8
:10A6040099070CD501238DF80830002387F82F30E3
:10A614007307E0D4D7E9003102A89847DBE75A076B
:10A62400F3D50223EFE78DF808C0EEE71C340020D1
:10A6340000300040283400202DE9F84F06793D4DC4
:10A644004FF03C0A0AFB06FA05EB0A079B4697F80B
:10A654002D3080460C469146002B66D13649006861
:10A66400FEF73AFD002862D12168637B87F8383011
:10A674001F298CBF01F01F030B46B860C7F804B054
:10A6840087F82F0087F8300003F5E07288BF2B4F5E
:10A6940045F80A9098BF4FF0A04740F20C6347F882
:10A6A400223062681F2A1F468CBF02F01F03134624
:10A6B40003F5E0738CBFDFF884C04FF0A04C4CF876
:10A6C4002370D8F80030C3F80815C3F80C25A26825
:10A6D400C3F82425B9F1000F1FD043F30731002933
:10A6E400227BB4BF164C01F16044C3F30733B8BFF7
:10A6F40003F00F074FEA4212A8BF04F56144D2B237
:10A70400B4BFE25584F8002303F01F03012202FAC8
:10A7140003F349090B4A42F821303C2303FB065555
:10A72400012385F82D30BDE8F88F0820FBE71120C0
:10A73400F9E700BF1C3400207DA50200000300508F
:10A7440014ED00E000E100E0026803790521C2F89D
:10A754000015044A3C2101FB0323022283F82D2027
:10A76400704700BF1C34002003680A490279C3F80B
:10A774000813D3F8001221F00301C3F800120021DA
:10A78400C3F80015044B3C2101FB0233012283F87A
:10A794002D207047864204001C34002070B50579D2
:10A7A400204E3C236B430446F35863B1026842F3E2
:10A7B400073301215B09C2F3043201FA02F22033A8
:10A7C400194941F823202046FFF7CEFF2068FEF701
:10A7D400A5FC3C2303FB056393F83830DBB92168FF
:10A7E400D1F808351F2B86BF03F01F030F484FF025
:10A7F400A04003F5E073022240F82320D1F80C3581
:10A804001F2B86BF03F01F0308494FF0A04103F537
:10A81400E07341F823203C2303FB0565002385F8FE
:10A824002D3070BD1C34002000E100E00003005016
:10A834002DE9F74F2D4E0779D0F800902C4BC9F82D
:10A8440008333C2505FB0765C7EB071C95F82F303B
:10A854008E46144606EB8C0C03F0FF0B33B1AB6849
:10A86400C9F80433112003B0BDE8F08F82F004036B
:10A87400C3F3800385F82F302A628A46BAE80F00B2
:10A8840005F10C08A8E80F00DAF80030C8F8003029
:10A89400DEF80430AB62DEF80C206A629EF8011028
:10A8A400C9F888159EF80010012917D0A1B9C4F37E
:10A8B40040143C2101FB0761604681F82C40009460
:10A8C4004946FFF765FD3C235F43F219F359002B1A
:10A8D400C9D182F82F30C6E70124EAE785F82CB005
:10A8E40049466046FFF7D4FDEDE700BF1C34002065
:10A8F400864204002DE9F74F4FF00009154D164F1D
:10A9040006464FF0040AC8465FFA89FB01240DF19C
:10A91400070004FA0BF48DF80780FCF7C3FF2C4200
:10A9240008D03B6814EA030201BF23433B6086F866
:10A9340000B092469DF80700FCF7D8FFBAF1000F6B
:10A9440003D0A54309F10109DED1504603B0BDE8A7
:10A95400F08F00BFFFFF01005834002010B5A1B1F3
:10A964009AB101238340C3F3100484B10A4C2468D0
:10A9740023420ED0C00000F1804000F5F830C0F84A
:10A984001015C0F81425002010BD0E20FCE7072088
:10A99400FAE70820F8E700BF58340020012202FA41
:10A9A40000F3580C400440B91BB1064A1268134224
:10A9B40005D0054AC2F804357047072070470820BF
:10A9C400704700BF5834002000F001400220FDF71A
:10A9D40093BF00002DE9F04780460D46FDF7BAFF0E
:10A9E4000328044610D8012D10D0022D30D05DB9B3
:10A9F4001A48FCF753FE1A4B04EB440213449E78A6
:10AA0400184B1B5DB34219D0BDE8F087144D00EB21
:10AA14004002A918AE5C4A78470052B1DFF84C9066
:10AA24000E484A464FF40041FCF7F0FD08B989F896
:10AA340000803B192B449A780A4B1A55002EE3D018
:10AA4400094B1B68002BDFD03046BDE8F0471847A0
:10AA540000EB4004024804446678EFE780340020A9
:10AA6400C0340020D9340020D43400205C340020C9
:10AA740000780221FFF7AEBF08B5094B1B7853B12C
:10AA84000020FDF707FF0120FDF704FFBDE80840A3
:10AA94000320FDF7FFBEBDE80840FDF70FBF00BF70
:10AAA4005D340020F8B57B4C237805461BB10023A8
:10AAB4002370FFF7E1FF172D00F28880DFE805F02F
:10AAC4000C17174354657680888D888D959A9A9AC9
:10AAD4009A9AC4C9D1D9E4E4FFF7CEFF6E48FCF7D3
:10AAE400DDFD6E4B002204461A702046F8BD00209E
:10AAF400FDF7A8FEF8B10020FDF7CCFE022D0CBF37
:10AB04004FF4E1614FF47A61644B1D704FF40040DF
:10AB14004FF4FA740025E0FB01454FF47A720023E8
:10AB24002046294602F0C2FF00220146BDE8F84053
:10AB34005948FCF76BBDFDF799FE022D0CBFC821E7
:10AB44004FF4C871E0E70020FDF77CFE40B100201F
:10AB5400FDF7A0FE4FF44871504B03221A70D5E75D
:10AB6400FDF784FEC821F7E70020FDF76BFE38B13E
:10AB74000020FDF78FFE4FF47A61484B0422EDE785
:10AB8400FDF774FE4FF4C871F7E70020FDF75AFE95
:10AB940048B10020FDF77EFE404B05221A7041F6B5
:10ABA4009A110022C2E7FDF761FEF5E70020FDF7E8
:10ABB400A3FE3A4B06221A70002240F6CD41B5E7B7
:10ABC4000020FDF753FE354B07221A7000248CE752
:10ABD40001202070FDF790FEEEE701202070FDF7C4
:10ABE4008BFE00224FF48041A0E7FDF776FE2B4B4D
:10ABF4000C22EAE72A482B4EFCF750FDD5F111054B
:10AC040004461CD0D8B9012D13D0C8235D434FF49A
:10AC140000474FF4FA7000214FF47A720023C7FB07
:10AC2400050102F043FF224601461D48FCF7EEFCF5
:10AC340004460220FDF71AFE0123337055E7022073
:10AC4400FDF728FE0023F8E7FFF716FF134B122247
:10AC5400BBE7FFF711FF0020FDF708FE0F4B13229F
:10AC6400B3E7FFF709FF0120FDF700FE0B4B1422A9
:10AC7400ABE7FFF701FF0020FDF7F8FD0120FDF72A
:10AC8400F5FD064B1522A0E7FDF727FE034B1D70CB
:10AC94009CE700BFD0340020A0340020D83400202A
:10ACA400603400205D340020044B1B68DB0703D5AF
:10ACB400034B1878FFF7F6BE704700BFCC34002072
:10ACC400D8340020002910B514BF03240024FDF754
:10ACD40053FE1F288ABF0A4B4FF0A04300F01F0009
:10ACE40003EB8000D0F8002722F44032C0F800279C
:10ACF400D0F8003743EA0443C0F80037002010BD01
:10AD040000030050032801D8FDF710BE002070474F
:10AD1400044B1B6813F0010301D0FFF7C3BE1846B0
:10AD2400704700BFCC34002038B51C4B18601C4B56
:10AD340010F00204054619601AD01A4B1A480E2264
:10AD44001A700F22DA7010229A7111225A72042199
:10AD540040F26662FCF722F9044648B9FCF772F93E
:10AD6400044628B90146114A1148FCF73DFC044643
:10AD7400EB0711D50120FDF705FE6CB921460D4AFC
:10AD84000D48FCF731FC044630B9BDE838400B4AA5
:10AD94000B480121FCF728BC204638BDCC340020E8
:10ADA400D4340020C0340020FCEE020075AA020056
:10ADB40020EF0200ADAC020024EF0200D1A9020092
:10ADC4001CEF0200032811D8012A0AD101290FD14E
:10ADD40000F10E02D2B20D4B00EB40001A540020D9
:10ADE40070470129F7D0022904D049B107207047E0
:10ADF4000022F8E7054B00EB400018444270EEE7F0
:10AE0400024B00EB400018448270E8E7C034002095
:10AE1400032802D80121FFF755BF0620704708B563
:10AE2400012202210020FFF7CDFF08B1072810D12D
:10AE3400072202210120FFF7C5FF08B1072808D126
:10AE440000210A220846FFF7BDFF10B1072808BFFA
:10AE5400002008BD0388102B10B502D0112B1ED082
:10AE640010BD1A4C2168B1B901220846FFF7AAFFA8
:10AE740008B1072824D1072202210120FFF7A2FFED
:10AE840008B107281CD1042202210020FFF79AFFF1
:10AE940008B1072814D1236801332360E0E70B4A83
:10AEA4001368013B1360002BDAD1FFF7B8FF0028C9
:10AEB400D6D0074B1B68002BD2D0BDE810401847F2
:10AEC400034B1B68002BE6D09847E4E7E4340020EA
:10AED400E034002008B50020FFF79AFF08B10628E7
:10AEE40006D10120FFF794FF10B1062808BF002007
:10AEF40008BD00000D4B10B518600C4629B10120A7
:10AF0400FFF700FF40B102232370094B1B6853B9BC
:10AF1400BDE81040FFF783BFFFF7F4FE08B10B2331
:10AF2400F2E72070F1E7002010BD00BFE0340020FC
:10AF3400E434002076DF70477ADF70477CDF7047A7
:10AF44007FDF70478FDF7047B1DF704733DF7047B3
:10AF540070477047FCF78CB808B50020FFF7D8FE9F
:10AF640008B1FCF785F8FFF7B5FF08B1FCF780F8E6
:10AF7400FFF7ECFF18B1BDE80840FCF779B808BD4D
:10AF84000388212B13B504463DD007D8112B2BD0B1
:10AF9400132B40D0102B0CD002B010BD522B42D03A
:10AFA400562B01D03B2BF7D1A0881321FFF7C2FF0A
:10AFB40015E0214B21482249C01AC008000440F082
:10AFC4000300FBF72DFD0720FFF7A2FE08B1FCF7F5
:10AFD4004FF81C4BA1881C48198001F0B7FD0028CC
:10AFE400DAD0FCF745F8D7E7134B14481749C01AD1
:10AFF400C008000440F00300FBF712FD114B4FF6AC
:10B00400FF721A80C8E7002301A98088ADF80430D4
:10B01400FFF798FFE3E70B4800231A4685210088D1
:10B02400FFF78EFFDBE7074800231A46194600881E
:10B03400FFF78AFFD3E700BFA4E50200ECE50200B6
:10B0440028EF0200D82A0020A057012032EF020086
:10B054000C4B4A881B889A4212D10A8840F67723FF
:10B064009A420DD1084A09488B880949801A033B42
:10B07400C0089BB200041A4640F00300FBF7DDBC95
:10B08400704700BFD82A0020A4E50200ECE50200C6
:10B094003FEF020008B503784BB9054B3B211888F4
:10B0A400FFF748FF18B1BDE80840FBF7E1BF08BD52
:10B0B400D82A0020072808B513D00A280DD0042860
:10B0C40019D10D4B13211888FFF734FF30F0080312
:10B0D40011D0BDE80840FBF7CBBFBDE80840FFF73F
:10B0E4003BBF054B1A884FF6FF739A4203D10348BE
:10B0F40001F0F9F8EAE708BDD82A0020003500205D
:10B1040008B548B103280BD10220FFF701FE38B17E
:10B11400BDE80840FBF7ACBFBDE80840FFF71CBF23
:10B1240008BD00002DE9F0410578064645BB154CE5
:10B13400154BDFF85880E41AE408240444F00104B1
:10B14400B28A95420AD33369134413F8013C0D2B98
:10B1540016D10A20FCF77EFB1128F9E73369585D04
:10B16400FCF778FB074648B11128F7D00246414660
:10B174002046FBF759FC3846FBF77AFF0135DFE739
:10B18400BDE8F081ECE50200A4E502005BEF0200FB
:10B1940007B5DBB2CDE90023094800230A4619218B
:10B1A400FDF75CF9074B4FF47A4043F001039847ED
:10B1B400FBF7DAFA0028FBD103B05DF804FB00BF0B
:10B1C400DC2A0020B0F00200FBF752BF38B5054D71
:10B1D400044645F001054FF47A40A847013CFAD1F2
:10B1E40038BD00BFB0F002000000000038B52DEDFE
:10B1F400028B03780446002B57D140680221FEF7E6
:10B2040025FF08B1FBF734FF6368B3F9020007EECA
:10B21400900AF8EEE77A4FF4004517EE900A02F030
:10B2240001FC31A3D3E9002302F07AFA30A3D3E975
:10B23400002302F011FB02F00FFCDFED227A07EE8F
:10B24400100A67EE277A17EE900A02F0EBFB1BA3B5
:10B25400D3E9002302F000FB1B4B002202F05CFA4E
:10B2640002F0FAFB08EE100A02F0DCFB02460B4681
:10B27400164800F0CFFB63681548B3F90010154C6D
:10B2840000F0C8FB144800F0C5FB144ADFED147A43
:10B294001368B4EEE78A0133F1EE10FA136007DBAA
:10B2A400104800F0B7FBC4F80855BDEC028B38BD5C
:10B2B400C4F80C55F9E700BFAFF300806666666614
:10B2C40066660A400000FA420000294086EF020048
:10B2D40096EF02000003005075F00200FC340020D9
:10B2E40000004842ABEF0200CDCCCCCCCCCC0C401F
:10B2F4000000000000F88F4007B5DBB20093094856
:10B3040013460A461921FDF775F9074B4FF47A40A5
:10B3140043F001039847FBF727FA0028FBD103B059
:10B324005DF804FBDC2A0020B0F0020008B50849EF
:10B33400084801F0F7FA08B1FBF79AFE0548F7212F
:10B3440001F004FB18B1BDE80840FBF791BE08BD4D
:10B3540055B00200603700201FB5FEF75FFC08B14E
:10B36400FBF786FE174A18480023CDE9022302A9F9
:10B37400164AFEF7BFFE08B1FBF77AFE144B1548D8
:10B38400D3F810250021D2B220FA02F20091012351
:10B394000D48FEF73EFF0C48FEF714FFFEF748FE8B
:10B3A40004460D48FFF7A6FA08B1FBF761FE0A4B05
:10B3B4000A4918782246FFF7D1FA08B1FBF758FE7C
:10B3C40004B010BD00000306D0F0020057AF020025
:10B3D400008000400024F4009C570120408100407C
:10B3E40008B5054B1878FFF7D9FA18B1BDE808403D
:10B3F400FBF73EBE08BD00BF9C5701207FB51A4B2A
:10B40400596818686A4603C2197A53F8090F11700B
:10B4140059681B7A03AA03C2144915481370FEF72E
:10B424007BFD08B1FBF724FE69460020FEF7B8FD5A
:10B4340008B1FBF71DFE03A90120FEF7B1FD08B119
:10B44400FBF716FE0B480221FEF700FE08B1FBF7DE
:10B454000FFE09480221FEF7F9FD08B1FBF708FECB
:10B4640007B05DF804FB00BF78F00200F1B1020000
:10B47400A4F00200583700205C37002080B58AB061
:10B48400494B4A4C07934A4B089364200023099381
:10B49400FFF79CFE214607A801F0AFFF6420FFF7E9
:10B4A40095FE2378442B00D0FEE7012107A801F084
:10B4B400A9FF404D3F4907A801F0BBFF2C78002CA1
:10B4C400F8D1012107A801F03EFF022107A801F0ED
:10B4D40051FF214607A801F0BAFF012107A801F096
:10B4E400E2FF102107A801F0D3FE032107A801F011
:10B4F400FEFE314E314C324F0DF11B0107A801F015
:10B5040050FF9DF81B30002BF6D0062200212A485C
:10B5140002F055FC284907A801F051FFB6F90000D4
:10B5240001F0AAFEB6F9020084ED000A01F0A4FEBF
:10B53400B6F9040084ED010A01F09EFE206884ED52
:10B54400020A10EE105A02F06DFA02460B46284623
:10B55400CDE9042302F066FACDE90201606802F045
:10B5640061FADDE90423CDE900013946154802F00A
:10B57400C9FB4FF47A70FFF729FE206802F052FAF3
:10B5840002460B46A068CDE9042302F04BFACDE94C
:10B594000201606802F046FADDE90423CDE9000106
:10B5A400094800F037FAA7E7FDB20200955D0120D3
:10B5B40095B10200AC570120F4340020E834002097
:10B5C400C4EF0200AD590120D6EF020030B58B4D17
:10B5D4000FCDB1B005AC0FC495E80300884B894A80
:10B5E40001934FF4807384E80300CDE903230293AD
:10B5F400854A072301A905A8FCF7D4F808B1FBF78D
:10B6040037FD4FF400410020FBF754F808B1FBF775
:10B614002FFDFAF779FFFBF7B7FF08B1FBF728FD19
:10B624007A490320FFF780FB08B1FBF721FD05A948
:10B634000020FFF75FFC08B1FBF71AFDFCF7B4FC30
:10B6440008B1FBF715FD01F03FFC08B1FBF710FD55
:10B65400002305A90120059301F0C4FC08B1FBF700
:10B6640007FD05A801F08EFD08B1FBF701FD1123CC
:10B6740067488DF8043002F0F7FB654982B201A8EF
:10B68400FFF75CFC08B1FBF7F3FC0822002105A8D6
:10B6940002F095FB5F484FF0C873CDE9050305A898
:10B6A400FFF74AFC08B1FBF7E3FCFFF73FFE5A4BF8
:10B6B4005A48059305A901F037FA08B1FBF7D8FCFD
:10B6C400042200210DEB020002F079FB544B554893
:10B6D400019301A901F034FB08B1FBF7C9FCAC22CA
:10B6E400002105A802F06BFB02238DF814304FF4FF
:10B6F400A063ADF8163001234021ADF860308DF819
:10B70400903044F25063CDE92713474A474B4848E9
:10B71400199205A92E9300F029FC08B1FBF7A8FCA7
:10B724004348012100F01FFC1C22002105A802F05F
:10B7340046FB00234FF42032CDE90532ADF8223028
:10B744004FF470228DF824303A4B07920A93032267
:10B75400394B8DF8202005A80B9300F0E1FE08B1C9
:10B76400FBF786FC3548364C00F054F9354B364926
:10B77400E41AE408240444F003042046FBF750F9D7
:10B784002B48032100F069FC08B1FBF771FCFFF7BB
:10B7940035FEFFF7E1FDFFF723FE2C492046FBF7BA
:10B7A4003FF9FAF7E1FF04460028FAD1284B29486B
:10B7B4000325C3F83C5700F02DF91A231B22CDE9C9
:10B7C40005232548ADF821404FF0CC7305A98DF829
:10B7D400234007938DF82050FCF7D2FD08B1FBF706
:10B7E40047FC1E48FCF736FE08B1FBF741FCFCF7AA
:10B7F400DBFB08B1FBF73CFCFFF740FE8CF00200DA
:10B80400AD570120AD58012055AF0200B9B0020078
:10B81400EAEF020010003C0059AF0200A0570120DB
:10B8240029B10200E42A0020D42A002005B1020034
:10B834000035002099B00200CDB10200F9EF0200FA
:10B84400ECE50200A4E502000BF0020034F0020073
:10B854000003005056F00200B8F00200DC2A002079
:10B864000369C1688B429DBF8268D21802F1FF321E
:10B8740003F1FF3394BF501A581A70472DE9F84367
:10B88400D0E902940546A9EB040840689045204499
:10B894000F46144404D902F069FAEC60BDE8F88359
:10B8A4004246A4EB090402F061FA6868224607EBF9
:10B8B4000801F0E72DE9F843C568064689461746AE
:10B8C4004FF000083469B3687068A54228BFE418D3
:10B8D400013C621B5C1BBC4228BF3C46944228BF0F
:10B8E400144649462844224602F040FAB3682544E7
:10B8F400AB4208BF00253F1BA044A144F560E1D141
:10B904004046BDE8F883000010B5114C114AA2610D
:10B914000223C4E90433104BE361A2644FF40073BF
:10B924000E4A0F492362E26400231022E01DA36241
:10B934006362E362A3656365E365226502F072FAFC
:10B944000849204602F06EFA2023A37110BD00BFFF
:10B95400985D0120D8F00200205E0120105E0120D5
:10B96400E1F00200E5F00200F8B5184C182300FBE2
:10B97400033503FB00402544C46A012C0F461646D8
:10B984000FD0022C1AD0F4B92846FFF769FF86427B
:10B9940005D8324639462846FFF770FF344620461C
:10B9A400F8BD2846FFF75CFF8642344628BF0446AC
:10B9B400224639462846FFF761FFF0E72846BDE8EE
:10B9C400F840FFF777BF0024E9E700BF985D012046
:10B9D40073B50E4B1B7804460D4616460BB9FFF79C
:10B9E40093FF00230DF107008DF80730FBF75AFF92
:10B9F400324629462046FFF7B7FF04469DF8070064
:10BA0400FBF774FF204602B070BD00BF985D0120B3
:10BA1400FFF77ABF0FB410B5A2B024AB802153F85E
:10BA2400042B019302A802F093F9802804460ADD4E
:10BA3400802202A90020FFF7CBFF204622B0BDE8F8
:10BA4400104004B070470028F7DD0246F1E76DDFCF
:10BA5400704779DF70477DDF704764DF70472DE9F9
:10BA6400F04F85B000250E9CBDF83CB0B4F800A0A2
:10BA74000191074690461E46A9463A884A450DDC80
:10BA840045B12388013BA3EB0A039BB2FF2B3AD8B1
:10BA940006F80A30002005B0BDE8F08F7A6852F845
:10BAA4002900039000220DF10B0103A8FFF7D5FF35
:10BAB4000028F0D19DF80B20424521D12288002D89
:10BAC40014BF0020022002EB0801014459451ADC8E
