:1000000000000420750300005D0300005F03000092
:1000100061030000630300006503000000000000AE
:100020000000000000000000000000006703000066
:1000300069030000000000006B0300006D03000076
:100040006F0300006F030000711D0000E52F00002A
:100050006F0300006F030000C1330000E51D0000C6
:10006000692200006F0300006F0300006F030000AF
:100070006F0300006F0300006F0300006F030000B8
:100080006F030000FD1600006F0300006F03000007
:10009000991700006F0300006F0300006F0300005A
:1000A0006F0300006F0300006F0300006F03000088
:1000B0006F0300006F03000000000000000000005C
:1000C0006F0300006F0300006F0300006F03000068
:1000D0006F0300006F0300006F0300006F03000058
:1000E0006F0300006F0300006F03000000000000BA
:1000F000000000006F030000000000006F0300001C
:1001000000000000000000000000000000000000EF
:1001100000000000000000000000000000000000DF
:1001200000000000000000000000000000000000CF
:1001300000000000000000000000000000000000BF
:1001400000000000000000000000000000000000AF
:10015000000000000000000000000000000000009F
:10016000000000000000000000000000000000008F
:10017000000000000000000000000000000000007F
:10018000000000000000000000000000000000006F
:10019000000000000000000000000000000000005F
:1001A000000000000000000000000000000000004F
:1001B000000000000000000000000000000000003F
:1001C000000000000000000000000000000000002F
:1001D000000000000000000000000000000000001F
:1001E000000000000000000000000000000000000F
:1001F00000000000000000000000000000000000FF
:10020000354936480A1A02D0072291438D463449AF
:1002100034480A1A06D00722914381F30988022242
:1002200082F3148830483149314A00F044F83148AB
:100230003149324A00F03FF831483249324A00F041
:100240003AF832483249334A00F035F832483349F7
:10025000334A00F030F833483349344A00F02BF881
:1002600033483449344A00F026F8344834490022EF
:1002700000F02CF833483449002200F027F83348C6
:100280003349091A082902DB002202604160314A21
:1002900090471F481F49884205D00268043003B4C4
:1002A000904703BCF7E700208646EC46002000217B
:1002B000294A9047FEE7884207D0521A05D00378B2
:1002C00001300B700131013AF9D17047884202D0F8
:1002D00002700130FAE770470000042000E00320BC
:1002E0000000042000000420086500000000002039
:1002F0003C000020D4030000D4030000C05C0000D8
:100300000865000000000020000000206C5D000077
:100310006C5D00006C5D00006C5D00006C5D0000B9
:100320006C5D00006C5D00006C5D00000865000005
:10033000446500003C0000203C0000203C00002000
:10034000582F0120582F01205C2F01205C2F012005
:100350005C4F01209D0300006D390000FEE7FEE7C1
:10036000FEE7FEE7FEE7FEE7FEE7FEE7FEE7FEE765
:10037000704700BF1048804710484FF0070188437E
:1003800085460F4880470F48016841F470010160BD
:10039000BFF34F8FBFF36F8FFFF732BF0A480B4990
:1003A0000B4A884207D0521A05D0037801300B70EF
:1003B0000131013AF9D170477103000000000420B7
:1003C000213C000088ED00E06C5D00000000002092
:0403D0000000002009
:1003D40000487047502F0120F0B595B01D461646D1
:1003E40008460C4601F014F81A9B0D93CDE90865F4
:1003F40000252B46082205A920460A958DF82C5085
:100404000C9501F022F8079B0293069B03939DF839
:1004140014308DF8115003F00302012A1DD1BDF8E8
:100424001420059DC3F3C203C2F383168DF8103064
:10043400B20008230EA9204601F007F8C5F395255C
:1004440008AB0093324602AB0EA9284600F0DCFB51
:10045400204600F0E1FF15B0F0BD022AF8D1BDF846
:100464001650C3F3C203C5F389158DF8103008275D
:10047400082D2E4628BF08263B4632460EA92046A4
:1004840000F0E3FFAD1B08AB02AA31460EA83744C7
:1004940000F01EFC002DEBD1DAE70000014B012235
:1004A4001A7070477D0000207047000070B5124D2F
:1004B40006460FCD88B06C460FC495E80F00002E99
:1004C40084E80F004FF0FF334FF00602CDE900231C
:1004D400CDE90233094A0A484FF0EB7308BF002202
:1004E4006946069301F0A0FB08B100F04DFC054BF2
:1004F4001E7008B070BD00BF6C5D0000A104000058
:10050400000000203C00002007B5044B0093044A7F
:100514004023FFF761FF03B05DF804FB29050000E9
:100524003D00002038B50D4B0D4D002018700D48CE
:1005340004782D5DD2B21C4665B1043002F0E2FAB3
:1005440008B100F021FC084B1A7812B12378002B73
:10055400FBD038BD0C3002F0C3F8F1E77D00002079
:1005640058070020000000203C00002008B508487F
:10057400084A0378D35C3BB1043002F06FFABDE85B
:1005840008400020FFF792BF0C3002F055F8F6E760
:1005940000000020580700200120FFF787BF00005B
:1005A40008B5FFF7F9FF0448042100F095FA034B5E
:1005B40001225A7108BD00BF345D00001400002000
:1005C400037813F0040216D003F00303012B03D0C5
:1005D400022B09D0012070470A6800880232C0F358
:1005E400831002440A60F5E70B684288023303EB88
:1005F40092130B60EEE71046704700002DE9F04FB0
:10060400044685B0861C00200F46154600F014FCF5
:10061400454801683960D0E90132134401335B1A5B
:10062400824600F21C4700F5836900F21448B34285
:100634001BD30020002D72D004F00F039B0143F064
:10064400050363F30F00DAF80020DAF808301340EA
:10065400033316444AF823000020CAF8006000F06F
:10066400EDFB012005B0BDE8F08F0121384600F014
:100674000AFC484600F01FFC404600F01CFCDAF877
:100684000400DAF808B0009000EA0B0003300AEB2B
:1006940080006946FFF794FF009B50BB0BEA0302FE
:1006A4000AEB820203F1020CD2680192013303EADD
:1006B4000B0B0AEB8B0B02F00302012ADBF80C1084
:1006C400CDF800C023D0022A16D08346404600F05D
:1006D400F5FB10B1009BCAF804305946384600F0C7
:1006E400D2FBDAE901231344DAF8002001339B1A20
:1006F4009DE70BEA0300C9E7BDF80630C3F389138D
:1007040003334FEA114B0CEB93030093DEE7BDF880
:100714000430C3F383134FEA114B6344F5E7A40594
:1007240044F006008FE700BF500100200B4B0C483B
:10073400FF2210B59A600022C3F81824C3E90022EE
:10074400C3F8142483F8202400F01BFE044610B9D7
:10075400044800F09BFE204610BD00BF500100205D
:10076400445D0000C05D000030B50A4C71B10A4A16
:100774000A49121BD20800239A4201D1002030BD3D
:1007840031F82350854202D00133F5E7034654F88B
:100794003300F4E7C05C0000205D0000000000208E
:1007A400094B013903EBC000032909D8DFE801F044
:1007B4000A020406042070470079704740797047A4
:1007C4000020704702207047C05C0000034BD3E94F
:1007D4000030C31A58425841704700BF50010020EE
:1007E4002DE9F04385B0FFF7F1FF0646002840F0FD
:1007F400F5807B4DC5F81804BFF34F8F6B68AC6868
:1008040000932340033305EB83006946FFF7D8FECA
:10081400009B18B1D5F81824002A5FD004EA03021B
:10082400991C013305EB8202234005EB8303D26854
:10083400DB68029302F00303022B0192009160D162
:10084400BDF806306748C3F38917502FB84628BF50
:100854004FF0500868F38F1308F10801ADF8063023
:1008640000F0A7FD0646002800F0A38000F0D0FDAC
:100874000023082201A9304600F0DDFD009924EA96
:1008840001020132B8EB820F4FEA820332D95FFAD8
:1008940088F85BB32140DCB2A8EB040803315FFAAB
:1008A40088F9A046504C05EB8101082342463046A6
:1008B40000F0C1FD34B108F108034A462146304630
:1008C40000F0B9FD009B033703EB97070097D5F8B9
:1008D4001834002B49D1D5F8104459E02A689A42BB
:1008E4008FD86A60304605B0BDE8F0833E491C46A7
:1008F4009946DAE70C40E11C0823424605EB8101E6
:10090400DDE7012B55D1BDF804303648C3F383111C
:10091400062928BF062161F3891302318900ADF845
:10092400043000F046FD0646002842D000F070FD79
:100934000023082201A9304600F07DFD0027BDF800
:100944000420C2F38312BB00974203F10803BED212
:1009540000994A1C21400331009205EB81010422D5
:10096400304600F068FD0137E9E7304600F054FDF9
:10097400FFF72CFF80F00100C6B2B3E7E3685B79B0
:1009840023B1236831461B6820469847E3681C68F6
:10099400002CF3D1304600F03FFD204600F04CFA25
:1009A400D5F818340BB9009B6B60002000F046FAB0
:1009B400DEE7D5F8104454B90C4B0D480D49C01A64
:1009C400C008000440F0020000F062F8D0E7236899
:1009D40020469B689847E3681C68ECE7002681E79B
:1009E40050010020445D00005C010020C05C000058
:1009F400005D0000A95D00002DE9F74F224D04467B
:100A04000F46924601A901221846D5F808909B4644
:100A1400FFF7F4FD20B3019E4FF00008B21CD84547
:100A240008EB020126D11948002100F009FA80F3ED
:100A34001000000440EA1440E400731C04F038047D
:100A440003EA090306EA090644F0010405EB8303FB
:100A5400033644EA881444EA8724D86045F82640DB
:100A640095F820341BB1FFF7BBFE0028FBD103B07F
:100A7400BDE8F08F09EA010105EB81015AF828303D
:100A8400CB6008F10108CAE7500100206C05002082
:100A940000231A46FFF7B0BF07B50123019201AA4C
:100AA400FFF7AAFF03B05DF804FB07B5CDE9002307
:100AB40002236A46FFF7A0FF03B05DF804FB1FB5ED
:100AC400CDE90123069B039301AA0323FFF794FFB7
:100AD40005B05DF804FB000030B50F49D1F81024CF
:100AE40003460020144634B9DC6820714AB9C1F8C1
:100AF4001034226030BDE4682579854206D024682C
:100B0400F1E7D268116821601360F3E701300A2825
:100B1400E8D14FF0FF30EDE750010020094A38B525
:100B24000123D2F8104482F820341D4604B938BD9C
:100B3400E3685D71236820465B689847E3681C6836
:100B4400F4E700BF5001002007B503460846197AB0
:100B5400052911D05B7A2BB1094A0A49019000F0AA
:100B640007FA01980849019000F002FA019803B0CD
:100B74005DF804EB00F0F1B9002AF8D0F2E700BF09
:100B8400CC5D0000D15D0000995F000030B5C388E2
:100B940085B004460D4633B1144A00921449154AEF
:100BA400284600F0E5F9217A05291DD0637A4BB176
:100BB400A088FFF7F5FD104B104953F82020284674
:100BC40000F0D6F9227A0E4BA08853F82220039223
:100BD4000021FFF7C9FD039A0A490346284605B0D8
:100BE400BDE8304000F0C4B905B030BDCC5D0000B4
:100BF400DC5D0000D45D0000585E0000D15D0000A3
:100C04007C5E0000F45D00002DE9F04385B01F46D2
:100C14000C9D002395F80C902B7306460C469046C9
:100C240029463846FFF7B2FFB8F1060F09D8DFE8C6
:100C340008F00412181F283340003146284600F0FB
:100C440097F9002229463846FFF77EFF85F80C9075
:100C540005B0BDE8F08322683146284600F088F9E3
:100C6400EFE7D4E900233146284600F081F9E8E7AC
:100C7400A36800933146D4E90023284600F078F9AC
:100C8400DFE7E3680193A36800933146D4E90023C6
:100C9400284600F06DF9D4E723690293E3680193D1
:100CA400A36800933146D4E90023284600F060F994
:100CB400C7E76369039323690293E3680193A36815
:100CC40000933146D4E90023284600F051F9B8E7EF
:100CD40008292DE9F74F80460E4617461C463CD896
:100CE400002593F80C901D7319461046FFF74EFF2C
:100CF400DFF888A0DFF888B0AE4231D918F80520B3
:100D04005946204600F034F90135082DF4D119492B
:100D1400194DDFF870A0204600F02AF94FF0000BBF
:100D24005E4522D918F80B207E2A05D81046019278
:100D340003F00EFF019A00B92E225146204600F01E
:100D440017F90BF1010BBBF1080FE9D10122214680
:100D54003846FFF7F9FE84F80C9003B0BDE8F08F35
:100D64005146204600F004F9CEE72946204600F01B
:100D7400FFF8E6E7085E0000065E0000045E00007F
:100D8400FE5D00000A5E00001FB50021039001AA69
:100D940044F20100CDE9011100F004F805B05DF85A
:100DA40004FB000010B572B6FFF7B8FEFFF718FD9C
:100DB4000028FBD1104B114C1149E41AE408240417
:100DC40044F00100FFF764FE0E4B1B68DB0700D5FF
:100DD40000BE0D4944F00200FFF75AFEBFF34F8FE7
:100DE4000A490B4BCA6802F4E0621343CB60BFF3B9
:100DF4004F8F00BFFDE700BFC05C0000005D000036
:100E0400905E0000F0ED00E09C5E000000ED00E06C
:100E14000400FA0572B6024A13680133136070477E
:100E24000C060020034A1368013B136003B962B641
:100E3400704700BF0C060020FFF7ECBFFFF7F2BFBE
:100E440010B5034653E8000F0A4643E8002494F023
:100E5400000FF7D110BD10B5034653E8002F42EA46
:100E6400010043E8000494F0000FF6D110BD10B562
:100E7400034653E8000F00EA010243E8002494F01B
:100E8400000FF6D110BD10B5034653E8002F02EB56
:100E9400010043E8000494F0000FF6D110BD10B532
:100EA400034653E8002FA2EB010043E8000494F04A
:100EB400000FF6D110BD0121FFF7CDBF0021FFF7D0
:100EC400D6BF10B590B1D0E9012301689B1ADBB2FB
:100ED4000A60013BDBB2FF2B026802D100201071D3
:100EE40010BD11684C1C14600B70F2E70E20F7E77C
:100EF40038B504460020FFF79FFF22686368116835
:100F0400994213D9481E106011F8015CE368218AE4
:100F140001FB0535A36811791B1ADBB2994200D293
:100F240013710020FFF78AFF284638BD0025F8E733
:100F340038B5054600200C46FFF77EFF2A68136883
:100F4400591C1160E968641A298AB4FBF1F41C7015
:100F5400BDE838400020FFF771BF826810B5044631
:100F64002AB143690168006998470023A36010BD52
:100F74000EB403B5039921B104AB01AA019300F0A7
:100F84006FF802B05DF804EB03B07047826830B4C8
:100F94000468551C8560A154D0E901329A4202D3F9
:100FA40030BCFFF7DABF30BC704700002DE9F84FC2
:100FB4009846DDE90A43154682460F460A464FF035
:100FC4000109AA420FD2C14538BFC14613F0010B33
:100FD40001D16CB900240126B8F1010F1BD908F125
:100FE400FF386E43F8E709F10109B2FBF5F2E8E7CF
:100FF4009B070ED5B8F1000F0CBF30262026A14563
:10100400E9D2013C31465046FFF7C0FF002CF6D12F
:10101400E0E72026F3E7B7FBF6F39D42E1D9DFF8DA
:101024003C80B7FBF6F3504618F8031006FB137721
:10103400FFF7ACFF3346AB42B6FBF5F6F1D2BBF19A
:10104400000F02D00CB1A14501D3BDE8F88F2021D7
:101054005046013CFFF79AFFF4E700BFA95E000089
:101064002DE9F74F054617468846002900F04281CE
:1010740018F8011B49B92B7B002B00F03B81284653
:1010840003B0BDE8F04FFFF768BF252940F0B780F3
:10109400002698F800302D2B424608F1010823D091
:1010A400302B24D02B2B25D000242A2B02F1010134
:1010B40023D13B681A1D1B683A601C440A46137806
:1010C4002E2B26D101324FF0000A104610F8011BD6
:1010D400A1F1300CBCF1090F1DD80A2303FB0A133C
:1010E400A3F1300A0246F0E746F00106D1E746F0E4
:1010F4000206CEE746F00406CBE711F8013CA3F163
:1011040030000928DBD80A2202FB0434303C0A46AA
:10111400CBE74FF0000A12F8011B01F0FB0068282E
:101124009046F8D0782909D86F290CD8632962D061
:1011340022D8252963D0582900F0888098F80030F7
:10114400002B95D197E770390829F7D801A353F8F4
:1011540021F000BFD3120000411100004111000032
:1011640061120000411100003F1200004111000013
:101174004111000051120000642901D06929DDD118
:101184003A68D2F80090111D89EAE9723960A2EB3D
:10119400E9724FF0010B092A35DCD34538BFD34639
:1011A4002CB1B9F1000F01DB720700D5013CB30784
:1011B40002D5BAF1000F03D0F00701D44CBB0024D0
:1011C400B9F1000F2DDAC9F100092D212846FFF7E6
:1011D400DDFE06F00302022A04D1BAF1000F01D1A8
:1011E4001CBB0024CDE9004653460A224946284642
:1011F400FFF7DCFEA2E73B681A1D19783A6028461F
:10120400FFF7C4FE9AE70A230BF1010BB2FBF3F2DA
:10121400C1E7A345D4D220212846013CFFF7B6FEFE
:10122400CCE77107D5D52B21D0E7A345DAD23021FD
:101234002846013CFFF7AAFED2E73968CDE900460B
:101244000A1D3A6053460A220968D0E739680A1D24
:101254003A60CDE9004653461022F5E73B681A1D73
:101264003A6016F00106D3F8009028D1B9F1000FC6
:1012740003D0484603F061FD0646B44200D904BBDE
:1012840009F1FF3919F8011F00293FF457AF284627
:10129400FFF77CFEF6E728460136FFF777FE19F8DC
:1012A40006100029F7D1A642BFF448AF002C3FF442
:1012B40045AF20212846013CFFF768FEF3E70026EE
:1012C400EDE720212846013CFFF760FED5E73B68A7
:1012D4001A1D3A60302128461C68FFF757FE782112
:1012E4002846FFF753FE00220823CDE900322146A9
:1012F40010227CE703B0BDE8F08F00BF2DE9F84F62
:10130400B0F806A04579D2F800B09DF828900AFB01
:1013140005F5043D88460BEB0301A94203F10404DF
:1013240088BFA5EB030BB4FBFAF607460AFB164489
:10133400C2F800B04EB9AAEB04055D4528BF5D466E
:10134400BBF1000F04D1BDE8F88F3F68013EF1E71F
:10135400043408EB06003C442A46B9F1000F0DD0D2
:101364002146ABEB050B03F06AFCDA452E443F68DB
:1013740055464FF0000428BF5D46E1E7014620468C
:10138400EFE7FFF79EBDF8B546790146721E0546A4
:10139400002393422D6803D30024A64202D8F8BD4B
:1013A4000133F6E70F682846FFF7C2FD01343946DA
:1013B400F3E72DE9F843068ACD1C0746FFF798FDAD
:1013C400043E35440446B5FBF6F5F0B14FF48073A2
:1013D400EDB28380C680013D076081464FF000086E
:1013E400A84512D23846FFF783FD064648B1637913
:1013F4000133637108F10108C9F8000007608146F0
:10140400EEE72046FFF7BFFF34462046BDE8F883E9
:1014140001210430FFF737BD10B501210446043023
:10142400FFF73DFD10F0FF0F04D12046BDE810404A
:10143400FFF7A9BF10BD1FB503920022009203AAB3
:10144400FFF75CFF05B05DF804FB1FB503920122B2
:10145400009203AAFFF752FF05B05DF804FB0000F9
:10146400064B10B500241C70054B1C60BFF35F8F46
:101474000449054800F013F8204610BD1806002062
:101484001C060020C45E00001006002083680022B1
:101494005A60C3E904229A60DA601A6070470B68E4
:1014A4004A684360934208BF0023016008BF436059
:1014B4007047F0B501680A7E0B689E6806EBC20EA1
:1014C4005FFA82FC56F832609EF805309EF804708C
:1014D400D4009EF8062012F0010F4FEA530587B09E
:1014E40003F0010336D0ABBBD1F800E09EF80CE06A
:1014F4000CF1010CF4452DDAD1F800C0DCF808C079
:101504000834A4449CF805C0B5EB5C0F22D10B68E9
:101514009B681A1953F804C053790C7E92F804E0BE
:10152400927903F001030134C3F103035201E4B2DD
:10153400DBB202F020020C7601A90C30CDE9027E68
:10154400CDE9046C8DF804308DF8055001F0A4FE4B
:1015540007B0F0BD52014FF0000C02F02002E64645
:10156400EAE7034608461A68126822B11A681B683B
:1015740051681B68184770472DE9F84F0568DFF874
:101584008C9004460E464FF000080020FFF754FCF0
:1015940016B923681B6843B960680022294600F025
:1015A400C6FA60B3C5F8008000260020FFF746FCA9
:1015B40056B32B681B6923BB2F1D6869102239465B
:1015C40003F0D6FA80B104F10C0B584604F1080A72
:1015D40001F018FE23464A463946504601F00CFBFA
:1015E400584601F0E5FD6F6185F818802046FFF745
:1015F40060FF014640B12068FFF7B3FFC5E701264D
:10160400D3E72B681F69D8E7BDE8F88F15160000EB
:1016140010B500780C4668B90A68137E1168013366
:10162400097BDBB2994206D913762046FFF741FFC6
:1016340008B910BD032001462068FFF792FF204639
:101644000121BDE81040FFF797BF0000F8B50C4A30
:101654000346044608300D4601F0CEFA064660B94A
:1016640004F10C0001F0A4FD276895E80F003C4646
:1016740044F8046B84E80F007C613046F8BD00BF79
:101684001516000037B505460191406801A900F020
:10169400F7F9044618B901462846FFF76DFF2046BE
:1016A40003B030BD024B4FF43C6043F001031847D4
:1016B400D05E000038B50C4B0C4C4FF40032C3F82C
:1016C400802001254FF48033C4F84833C4F808332C
:1016D4006560FFF7E7FF064BA56000241C60FFF779
:1016E400E1FF044B1C7038BD00E100E00010014034
:1016F4003C0700202D070020F8B51F4B1F491B682D
:101704000025C1F84051C1F84451C1F84851C1F80D
:101714004C51C1F80051C1F804514BB3D1F8044500
:1017240017490968641A24F07F442F461A68A242B4
:1017340009D8A41A15441A7CDE691AB1D3E9052024
:101744001F749047AEB90F4A0F4B11781B788B4228
:1017540005D10133DBB2022B08BF002313701278CA
:101764000A4B43F822500A4B4FF48012C3F800216D
:10177400F8BD3346DAE700BF4007002000100140FF
:101784003C070020390700203807002030070020DC
:1017940000E100E02DE9F04FA24AA349137809784B
:1017A400A24D994285B03CD00133DBB2022B08BF75
:1017B400002313709E4912789E4B0F6853F8220041
:1017C4003B1823F07F4300220B602B681646144617
:1017D400944613B942B12B6006E0196881420ED9D0
:1017E40002B12B60091A196001272B68DFF84CA29B
:1017F40001934FF00008BEB9DFF848B262E0401A26
:101804000C44D968D3F81CE0C3F800C031B13A19CC
:1018140022F07F42C3E90121DE611E4673460122A4
:10182400D7E700263746E0E73446F669804A63681E
:101834001268DFF814C2A068991A21F07F4161454B
:1018440000F2A88001442160012222742A68002346
:10185400C4E90133E361002A40F0A5802C60CAE7A3
:101864009BF802105A1CD2B291428BF8002004BF9C
:1018740000228BF80020182202FB03B32A6819798E
:101884009C68022977D0032900F08180012919D1AD
:10189400207CB8B9D3E90312A2605A69E2609A695C
:1018A400654BA2611B78002B0CBF0B46034663609B
:1018B400BCE78C4200F094808946C9690029F8D1BC
:1018C400002323749BF800309BF801209A42C7D16F
:1018D4002B68B8F1000F04D1019A9A4201D1002F6C
:1018E40043D0002B79D0D3F800A0544D504BD5F8F9
:1018F40004751C68DFF854813E1B98F8003026F00C
:101904007F4603369BB94FF48033C5F84433C5F89A
:1019140004334B4B4FF400324FF00109C3F88021DC
:101924001A60C5F80090FFF7BDFE88F80090B24534
:101934002CBF5444A41924F07F44C5F84045D5F87D
:101944000435DB1B23F07F43E41B033324F07F4483
:10195400A3420AD9D5F80435C5F84035FFF7A2FEED
:10196400374B4FF40032C3F80021334B00221A7076
:1019740005B0BDE8F08F114691469FE71174D26916
:101984000123002AFAD1002B9CD02A609AE7002375
:101994001946F6E7D31A23F07F43834234BFC31AB0
:1019A4000023236050E721681368994213D8591A19
:1019B4001160E26152E7091AD8691A4638B1034640
:1019C40018688842F7D3401A1860184613462160F5
:1019D400E061DC610FE71346F2E7FFF76BFEC4E753
:1019E4004C4511D1D3692B6073B9DFF844E0012071
:1019F400CDE90212CAF80800CEF800300E4B187078
:101A0400FFF750FEDDE902120B68C969C9F81C1022
:101A140011B1086803440B602B68934218BF4FF060
:101A240001084DE73807002039070020400700204F
:101A34003C070020300700202C0700200010014044
:101A440000E100E020060020FEFF7F002D070020BB
:101A5400026813685268934291BFD01A80680130BB
:101A6400801888BFC01A7047036881681A685B6869
:101A74008B4234BF01330023D31A58425841704774
:101A8400F8B5044600200D46FFF7D6F92046FFF7C7
:101A9400EBFF10B1237C002B3CD12268A66853686D
:101AA4005168B14234BF01310021516030B1116835
:101AB400A068814234BF013100211160E26860688E
:101AC400511E072920D8DFE801F004101F141F1F3E
:101AD4001F182A78C2542046FFF7BAFF23689A6871
:101AE400824200D29860002415E02A8820F813204E
:101AF400F1E72A6840F82320EDE7D5E9006700EB19
:101B0400C300C0E90067E6E7294602FB030003F0CF
:101B140096F8E0E704240020FFF790F92046F8BD8A
:101B2400036818685B68C31A58425841704770B517
:101B3400054600200C461646FFF77EF92846FFF7B7
:101B4400EFFF002830D129680B682EB90A68A8680D
:101B5400824238BF561C0E60EA686968501E072826
:101B64001CD8DFE800F0040C1B101B1B1B14CB5CFF
:101B7400237000240020FFF761F9204670BD31F87E
:101B840013302380F5E751F823302360F1E701EBAC
:101B9400C301D1E90023C4E90023EAE703FB0211EE
:101BA400204603F04CF8E4E70524E3E7034B1878F8
:101BB40010B901221A70704785207047440700202D
:101BC4001FB503788DF800304368019383688DF85E
:101BD4000830C368054A0393054B684653F821301F
:101BE40052F82110984705B05DF804FB480700201F
:101BF400500700201FB503788DF800304368019327
:101C040083688DF80830C368054A0393054B68461A
:101C140053F8213052F82110984705B05DF804FBC1
:101C24004807002050070020F0B5194B90F800C079
:101C3400DFF86CE043F82C20164B16460A6943F88B
:101C44002C204B7F0EF80C300C4607460FCC89B085
:101C54006D460FC594E80F0085E80F001EF80C30A0
:101C6400CDF810C04BB1002E0B4A694608BF32466E
:101C7400381D00F015FE09B0F0BD002E074A694674
:101C840008BF324607F10C0000F000FCF3E700BF88
:101C94005007002048070020C51B0000F91B000066
:101CA400580700202DE9F84F134DDFF85080074600
:101CB4004FF0000A04264FF001095FFA8AFB002066
:101CC40009FA0BF4FFF7B8F82C420AD0D8F8003020
:101CD40014EA030201BF2343C8F8003087F800B0B8
:101CE40016460020FFF7AAF81EB1A5430AF1010A1F
:101CF400E3D13046BDE8F88FFFFF0F005C070020FA
:101D040010B5A1B19AB101238340C3F3130484B184
:101D14000A4C246823420ED0C00000F1804000F534
:101D2400F830C0F81015C0F81425002010BD0E209E
:101D3400FCE70720FAE70820F8E700BF5C0700206B
:101D4400012303FA00F0C0F313031BB1054B1B6816
:101D5400184204D0044BC3F804050020704708203F
:101D6400704700BF5C07002000F00140014B1B6876
:101D7400184700BF6007002038B50B4B98420C464B
:101D840001D0002038BD0020FFF756F8074B1D791D
:101D940015B901221C601A710020FFF74FF8002DBD
:101DA400EFD01120EEE700BF0020004060070020C4
:101DB400034B984201BF034B00221A601A7170470B
:101DC400002000406007002000F1804000F5E04062
:101DD400002382B0036003680193019B02B0704743
:101DE400F0B5504B504C1B6885B0002B3DD04FF4E0
:101DF400827094F82E20FFF7E7FF2AB394F82F306F
:101E040013BB4A4B1B68002B33D04FF48070FFF791
:101E1400DBFF638B94F82D108B424FD922895B1A18
:101E24009BB292B26383D31A626802EB4303404AC3
:101E3400C2F82C36C2F830164FF48270FFF7C4FF94
:101E44003C4B01221A6014E0636802932389ADF8C5
:101E54000C30E36800218DF8041023BB237423683D
:101E640001A89847002384F82F3094F82E30002BD3
:101E7400C7D1314B1B685BB14FF48870FFF7A4FFE7
:101E84000023237402238DF8043001A823689847A3
:101E94002A4B1B68EBB14FF48A70FFF795FF0023C0
:101EA400237405B0F0BD208B608363602081E16002
:101EB400002AD4D11E4B01221A60D0E7BCD1E368BA
:101EC400012284F82F2013B100226283AFE76383D9
:101ED400B2E766694FF000470125002EE1D0B6FA5B
:101EE40086F227FA02F34632920026EA030602F14A
:101EF400804303F5E0431B68002BEED01046FFF748
:101F040063FFA2F58C72D30882F00402C2F380024C
:101F14008DF808308DF8045023688DF8092001A845
:101F24009847DAE704710040680700200071004018
:101F340000700040047000401071004014710040B3
:101F440038B51E4B044693F82C00A8BB1C4A1960F4
:101F54002178C2F8F0156178C2F8F415E5781874A0
:101F6400012183F82C1083F82D00586183F82F0089
:101F740083F82E506FF00043C2F808334FF4827098
:101F8400FFF722FF4FF48070FFF71EFF4FF48A70B3
:101F9400FFF71AFFA3780B485B01DBB280F8073325
:101FA400802303600223C2F804330DB1C2F8041382
:101FB400C2F80015002038BD0820FCE7680700209F
:101FC4000070004000E100E030B5224B1A7C002A8A
:101FD4003ED100F10C0403EB4402127922B993F8C8
:101FE4002D20013283F82D2003EB4403CA790C7AA7
:101FF4008D781A715C714B782D021B0105F4E06534
:1020040003F030032B430D7805F003052B43CD7803
:102014002D0305F480552B430D792D0405F4E0259B
:102024002B434D7989792D0505F48015090601F0B6
:1020340080712B430B43010101F1804101F5E04123
:102044000020C1F81835C1F81445C1F8102530BD79
:102054001120FCE768070020054B93F82E30002B75
:1020640014BF0020042000F1804000F5E0407047D8
:102074006807002070B5264A264B05461220C2F890
:1020840008031C7C022C03D1C2F80403112070BD88
:10209400187C01281DD1D86818B10223C2F8043372
:1020A400F4E7DD60198393F82E3063B91A4A136894
:1020B400002BFCD04FF48070FFF786FE144BC3F85E
:1020C4002C56C3F83016124B0222C3F80423002006
:1020D400DDE7022093F82E40C2F804030126002015
:1020E4001E745D601981D8603CB1598393F82D301A
:1020F400C2F82C56C2F83036C9E7C2F82C564FF451
:102104008070C2F83016FFF75FFE20461660BEE707
:10211400007000406807002000710040F7B50679A0
:102124002F4D0C237343EF183C7A002C56D1EA5000
:102134004B687B60477903682246D0B2874244D813
:1021440043F30734C878002CA8BF04F16047C3F3F5
:102154000732BABF234F02F00F0C07F561474FEA6D
:102164004010C0B2B4BF07F80C0087F8000364093C
:1021740001201D4F02F01F0200FA02F247F824204A
:10218400D3F804454A7824F0030402F003022243FE
:10219400C3F80425D3F808458A7824F0030402F030
:1021A40003022243C3F808250A78D3F8104502F045
:1021B4000F0224F00F010A43C3F810250C2303FB7C
:1021C40006552872002003B0F0BD900000F5A07001
:1021D40001321C50185801900198AEE70820F2E72C
:1021E4009807002014ED00E000E100E003680122FC
:1021F4001A600379034A0C2101FB032302221A7299
:10220400704700BF9807002037B54FF4803400684A
:102214008C407BB101F150039B000025C550C3588D
:102224000193019BC0F8044301F5A87140F82120F3
:1022340003B030BDC0F80843F6E770B4046840F258
:102244000116D4F800528E4025EA0605C4F800525F
:10225400D4F800522B43C4F800329DF80C3070BC03
:10226400FFF7D2BF2DE9F341104C114F114E002559
:102274004FF480382368A4F5004080B26BB1D7F8DE
:10228400043308FA05F21A4207D0002323602368B6
:102294000193019BD6E9003198470135042D04F1DF
:1022A4000404E7D102B0BDE8F08100BF40810040E2
:1022B40000800040980700200023435082B0435818
:1022C4000193019B02B070470A4610B54FF48E711A
:1022D400FFF7F2FF136A9168C95C136A0133136252
:1022E400C0F81C1510BD8B690A4610B54FF48471F3
:1022F40023B9FFF7E1FFD0F8183510BDFFF7DCFF75
:10230400536AD168D0F81805C854536A013353622C
:10231400F3E700001FB501238DF80030044BCDE92D
:102324000110D3E900126846904705B05DF804FB3C
:10233400A407002030B54B48D0F8043313F4007FD1
:1023440085B005464DD0D0F82431002B49D04FF448
:102354009271FFF7B1FF4FF40173C0F80833424B99
:1023640093F829200AB9012242603E4902228DF8DD
:102374000020D1F88024C1F8802403929A69029243
:10238400DA6801920022C3E906226846D3E9001202
:1023940090473448D0F81C315BB133490A6A4B6921
:1023A4009A420A464AD291F82830002B46D1FFF7C8
:1023B4008BFF2C48D0F844318BB14FF4A271FFF756
:1023C4007BFF294B93F829200AB1012202609A6904
:1023D4002AB10022586AD9689A61FFF79BFF05B0B9
:1023E40030BDD5F804335B07D3D5D5F80831002BBD
:1023F400CFD01D4C1B482146FFF775FF636AA269C5
:102404009A422346C5D1E269E1684AB12369E3608F
:102414000023606AA261E3616362FFF77BFFB8E7B0
:1024240094F829200AB901226A600E4A4FF4017017
:10243400C2F808030022586A9A61EEE74FF48E71DD
:102444000848FFF739FF51690029B2D000230291EF
:1024540091688DF80030019153616846D2E9001308
:102464009847A6E700200040A40700201F2886BF45
:1024740000F01F00044B4FF0A04300F5E07002226F
:1024840043F82020704700BF000300502DE9F843B3
:10249400634B057991462C2202FB0532064692F8DD
:1024A4002A200C469846002A40F0B6805D49006810
:1024B400FFF762FC0746002840F0B08021684A1C00
:1024C40010D01F2987BF584A01F01F030B464FF055
:1024D400A0420120984003F5E073C2F808050320E8
:1024E40042F823006068431C0DD01F288BBF00F006
:1024F4001F0303464C4A4FF0A04203F5E0734FF02C
:10250400000C42F823C03368A269C3F8242594F868
:1025140014C0627DBCF1010F4CEA0202C3F86C25C1
:10252400C3F81405C3F80C152BD1A168481C0DD0B1
:102534001F298BBF01F01F020A463B484FF0A04001
:1025440002F5E0724FF0000C40F822C0E068421C33
:1025540013D01F2887BF344A00F01F0C84464FF065
:10256400A0424FF0010E0EFA0CFE0CF5E07CC2F80E
:1025740008E54FF0030E42F82CE0C3F80805C3F851
:1025840010152C236B4308EB0302C2F80490226954
:1025940048F80320B9F1000F2BD03068247F4FF4A2
:1025A4008E71FFF789FE30684FF4A271FFF784FE45
:1025B40032681E4BC2F80433110B42F30732002A6F
:1025C400A8BF02F160404FEA4413BABF184801F0B3
:1025D4000F0400F56140DBB2B4BF035580F800334B
:1025E40001F01F01012303FA01F15209114B43F8D1
:1025F400221033680422C3F800252C2303FB05832F
:102604000022C3E9062283F829205A61012283F8B3
:102614002A203846BDE8F8830827FAE71127F8E7A7
:10262400A4070020392300000003005080000200AA
:1026340014ED00E000E100E02DE9F04103680479C5
:10264400244D0022C3F800252C2202FB045201462B
:1026540052686AB1204AC3F8082343F30732C3F32C
:10266400043652090120B04020321C4E46F82200A4
:10267400D3F80C05D3F81485D3F80865D3F810758E
:102684004FF0FF329042C3F81425C3F80C25C3F869
:102694000825C3F8102501D0FFF7E8FEB8F1FF3F85
:1026A40002D04046FFF7E2FE7A1C02D03846FFF71C
:1026B400DDFE731C02D03046FFF7D8FE0868FFF732
:1026C40077FB2C2303FB0454002384F82A30636033
:1026D400BDE8F081A40700208402020000E100E0CC
:1026E4002DE9F843204B07794FF02C0909FB0734F7
:1026F400054666699846002E33D100686261A16080
:1027040026624FF48E7184F82860FFF7D5FD28689F
:10271400012383602146FFF7D7FD6368A14683B98F
:102724002868226A63699A4211D32B68D3F81C2162
:10273400002AFBD00122DA602C2303FB078300224A
:102744005A613046BDE8F88394F828303BB9D0F894
:102754001C31002BF8D04946FFF7B6FDE1E70F2600
:10276400EAE71126EDE700BFA40700200023435049
:1027740082B043580193019B02B070471FB50123F7
:102784008DF80030044BCDE90110D3E900126846FE
:10279400904705B05DF804FBD00700207FB5364AAA
:1027A400D2F82461002E46D010464FF49271FFF700
:1027B400DDFF02238DF80030D2F88034C2F8803473
:1027C4000393D2F83C3502932C4BDA680192002231
:1027D400C3E906226846D3E9001290472648D0F898
:1027E400443173B14FF4A271FFF7C0FF234B9A69D0
:1027F4003AB10022C3E90622D968D0F83C05FFF7B4
:10280400BDFF1D48D0F820319BB14FF49071FFF704
:10281400ADFF1A4B5A6962B1D0F84C1502910022EF
:1028240099688DF8002001915A616846D3E9001235
:10283400904704B070BDD2F81031002BCED04FF4C5
:1028440088711046FFF792FF0C4BD2F83C0599694A
:102854008842C3D1DC69D96864B1D2F8005225F04A
:102864002005C2F800521A699C61DA60DE61FFF744
:1028740085FFB3E79C61FAE700200040D007002001
:102884001F2886BF00F01F00044B4FF0A04300F543
:10289400E070022243F82020704700BF000300507C
:1028A4002DE9F843674B06799146242202FB063250
:1028B400044692F820200D469846002A40F0BE8037
:1028C40061490068FFF758FA0746002840F0B880CD
:1028D4002868421C10D01F2887BF5C4A00F01F03E1
:1028E40003464FF0A0420121994003F5E073C2F87A
:1028F4000815032142F8231069684B1C0DD01F29C9
:102904008BBF01F01F030B46504A4FF0A04203F562
:10291400E0734FF0000C42F823C02368AA69C3F89F
:10292400242595F814C06A7DBCF1010F4CEA02021B
:10293400C3F86C25C3F80C05C3F814152BD1A9688A
:10294400481C0DD01F298BBF01F01F020A463F48C7
:102954004FF0A04002F5E0724FF0000C40F822C0A6
:10296400E868421C13D01F2887BF384A00F01F0CA8
:1029740084464FF0A0424FF0010E0EFA0CFE0CF507
:10298400E07CC2F808E54FF0030E42F82CE0C3F8EF
:102994000805C3F810152423734308EB0302C2F897
:1029A40004902A6948F80320B9F1000F35D0206853
:1029B4002A7F4FF48871FFF7D9FE20684FF4907195
:1029C400FFF7D4FE20684FF49271FFF7CFFE206822
:1029D4004FF4A271FFF7CAFE23681D49C3F804131C
:1029E400190B43F30733002BAEBF03F1604001F032
:1029F4000F0518484FEA4212A8BF00F56140D2B251
:102A0400B4BF425580F8002301F01F01012202FAED
:102A140001F15B09104A42F8231023680822C3F825
:102A24000025242303FB06830022C3E906225A61FE
:102A3400012283F820203846BDE8F8830827FAE706
:102A44001127F8E7D0070020A12700000003005059
:102A54001003020014ED00E000E100E02DE9F04174
:102A640003680479244D0022C3F80025242202FBC4
:102A74000452014652686AB1204AC3F8082343F35A
:102A84000732C3F3043652090120B04020321C4EF1
:102A940046F82200D3F80C05D3F81485D3F808655A
:102AA400D3F810754FF0FF329042C3F80C25C3F8E9
:102AB4001425C3F80825C3F8102501D0FFF7E0FE5C
:102AC400B8F1FF3F02D04046FFF7DAFE7A1C02D08D
:102AD4003846FFF7D5FE731C02D03046FFF7D0FE10
:102AE4000868FFF765F9242303FB0454002384F8E2
:102AF40020306360BDE8F081D0070020100302009D
:102B040000E100E001F06043B3F1005F2DE9F04122
:102B1400064632D11B4B0779242505FB0735984619
:102B24006C6964BB6A610068A9604FF49071FFF737
:102B34001DFE4FF4AC713068FFF718FE33686A6904
:102B4400A968C3F84415C3F8482501229A606A6845
:102B540062B9D3F82021D3F8584152B9002CF8D0E7
:102B64000F24242303FB078700237B612046BDE851
:102B7400F081002C18BF0F24F3E71024F6E711248A
:102B8400F4E700BFD00700201FB503788DF80030AC
:102B94008388ADF8043083688DF80630C3688DF8F7
:102BA4000730036902934369054A0393054B68465A
:102BB40053F8213052F82110984705B05DF804FB12
:102BC400F4070020FC070020024B4FF4807043F010
:102BD40001031847005F00001F2886BF054A00F064
:102BE4001F004FF0A042012303FA00F0C2F80805C9
:102BF400704700BF000300502DE9F047154690F8D8
:102C04000080394A42F82850384A42F828304B7B31
:102C140006460C46A3B30868DFF8D8904FF0A041ED
:102C240000F5E07340F20C6241F82320636803F579
:102C3400E073002741F82320FFF7CEFF6068FFF719
:102C4400CBFF236803F5E07340F20D6241F82320C3
:102C5400636803F5E0734FF0010A41F82320FFF79E
:102C6400B3FF63681F2B8ABF4A464FF0A04203F0AC
:102C74001F03D2F8102522FA03F3DB070BD507BB99
:102C8400002D1B4A434608BF2A462146301DBDE895
:102C9400F04700F005BA23681F2B86BF03F01F031B
:102CA4004A464FF0A0420AFA03F3C2F80C35FFF784
:102CB4008BFF01372068FFF78FFFFFF785FF092F90
:102CC400CFD163681F2B86BF0A4903F01F034FF05F
:102CD400A041012202FA03F3C1F80C35FFF774FF97
:102CE4006068FFF779FFCBE7FC070020F4070020BA
:102CF4008D2B0000000300500023435082B0435842
:102D04000193019B02B070472DE9F0470E78089FAC
:102D14009DF824A004460D469846002E5ED1D0F8B6
:102D24002431D2F800903BB14FF49271FFF7E4FFE5
:102D3400012363612B7017E0D0F81C3153B34FF4B7
:102D44008E71FFF7D9FFD0F824311BB14FF4927183
:102D54002046EBE713689F4212D918F80330C0F8F5
:102D64001C35136801331360B94535D1D4F80431E7
:102D740093B34FF482712046FFF7BEFF002604E0B0
:102D84000123BAF1000F03D0C3613046BDE8F087D8
:102D94004361E9E7D0F80831002BE5D04FF48471A2
:102DA400FFF7AAFFD0F82431002BCFD113689F423C
:102DB400DAD9D0F8181508F8031013680133136032
:102DC4007A1E934205D10223C0F800320123236204
:102DD400CAE79F42FAD1C7E70126D6E74FF49271BA
:102DE400FFF78AFF4FF48E71FFF786FF4FF484716B
:102DF400FFF782FFBAE700002DE9FF470C460546BE
:102E04001F4620463B4B03934FF4827116469DF8B0
:102E14003080FFF771FF4FF49271FFF76DFF4FF4AD
:102E24008E71FFF769FF4FF48471FFF765FF00238C
:102E3400C4F800326B6385F82E3001232362A3604B
:102E44006A6B97421DD9B35CC4F81C356B6B0133B4
:102E54006B632B68E3B905F1340A05F12E09039B72
:102E6400002B1FDC95F82E3053BB0020039B002B56
:102E740015DC0023C4F800350523C4F8003503200D
:102E84000DE0B8F1000F01D0E361E2E76361E0E730
:102E940040F28623AB60AB68C4F80433002004B06E
:102EA400BDE8F087CDE900783346524649462046CE
:102EB400FFF72AFF0028D5D0039B013B0393CEE7FD
:102EC400D4F8C434C4F8C434002BCED013F0010FAA
:102ED40014BF4FF40240032048F2012213F0020F02
:102EE40018BF104613F0040F48F2022318BF184607
:102EF400BCE700BFA08601002DE9FF470C4605464C
:102F04001E462046354B03934FF482719046FFF7DB
:102F1400F3FE4FF49271FFF7EFFE4FF48E71FFF75B
:102F2400EBFE4FF48471FFF7E7FE0023012E2F68B8
:102F34006B6385F82E3008BF02224FF001030CBFEB
:102F4400C4F80022C4F8003223622360AFB905F14B
:102F5400340A05F12E09039B002B18DC95F82E305A
:102F64001BBB0020039B002B0EDC0023C4F80035A0
:102F74000523C4F80035032006E040F28623AB6045
:102F8400AB68C4F80433002004B0BDE8F087CDE991
:102F940000674346524649462046FFF7B5FE0028DF
:102FA400DCD0039B013B0393D5E7D4F8C434C4F8C5
:102FB400C434002BD5D013F0010F14BF4FF40240DA
:102FC400032048F2012213F0020F18BF104613F039
:102FD400040F48F2022318BF1846C3E7A086010075
:102FE400F0B52C4C2C4894F82C3089B004F1340200
:102FF4000193A36A0093636A04F12E01FFF784FE30
:103004002746E0B994F82EC0266ABCF1000F1DD102
:10301400217B8B1E012B19D8626AA3699A4215D1B0
:10302400E26963696262C6F340160329A36284F805
:103034002C6006D1184900962046FFF7DDFE09B042
:10304400F0BD15492046FFF757FFF8E7134D0FCDA4
:1030540003AC0FC42B682360BCF1000F17D00E4AD9
:10306400D2F8C434C2F8C43499070CD501238DF8BE
:103074000830002387F82F307307E0D4D7E90031F4
:1030840002A89847DBE75A07F3D50223EFE78DF848
:1030940008C0EEE7040800200030004010080020BB
:1030A4002DE9F84F06793D4D4FF03C0A0AFB06FA2C
:1030B40005EB0A079B4697F82D3080460C4691464F
:1030C400002B66D136490068FEF756FE002862D10F
:1030D4002168637B87F838301F298CBF01F01F03F8
:1030E4000B46B860C7F804B087F82F0087F83000A3
:1030F40003F5E07288BF2B4F45F80A9098BF4FF054
:10310400A04740F20C6347F8223062681F2A1F462A
:103114008CBF02F01F03134603F5E0738CBFDFF886
:1031240084C04FF0A04C4CF82370D8F80030C3F89A
:103134000815C3F80C25A268C3F82425B9F1000FBB
:103144001FD043F307310029227BB4BF164C01F191
:103154006044C3F30733B8BF03F00F074FEA4212CA
:10316400A8BF04F56144D2B2B4BFE25584F8002389
:1031740003F01F03012202FA03F349090B4A42F840
:1031840021303C2303FB0655012385F82D30BDE88F
:10319400F88F0820FBE71120F9E700BF040800209E
:1031A400E52F00000003005014ED00E000E100E012
:1031B400026803790521C2F80015044A3C2101FB89
:1031C4000323022283F82D20704700BF0408002047
:1031D40003680A490279C3F80813D3F8001221F0EE
:1031E4000301C3F800120021C3F80015044B3C216D
:1031F40001FB0233012283F82D207047864204002C
:103204000408002070B50579204E3C236B43044626
:10321400F35863B1026842F3073301215B09C2F337
:10322400043201FA02F22033194941F823202046DE
:10323400FFF7CEFF2068FEF7BBFD3C2303FB0563CD
:1032440093F83830DBB92168D1F808351F2B86BFD5
:1032540003F01F030F484FF0A04003F5E073022270
:1032640040F82320D1F80C351F2B86BF03F01F0331
:1032740008494FF0A04103F5E07341F823203C23B3
:1032840003FB0565002385F82D3070BD040800207C
:1032940000E100E0000300502DE9F74F2D4E0779BF
:1032A400D0F800902C4BC9F808333C2505FB076582
:1032B400C7EB071C95F82F308E46144606EB8C0C92
:1032C40003F0FF0B33B1AB68C9F80433112003B02A
:1032D400BDE8F08F82F00403C3F3800385F82F3038
:1032E4002A628A46BAE80F0005F10C08A8E80F0024
:1032F400DAF80030C8F80030DEF80430AB62DEF8EB
:103304000C206A629EF80110C9F888159EF8001016
:10331400012917D0A1B9C4F340143C2101FB076172
:10332400604681F82C4000944946FFF765FD3C2334
:103334005F43F219F359002BC9D182F82F30C6E745
:103344000124EAE785F82CB049466046FFF7D4FD2E
:10335400EDE700BF040800208642040000F180402D
:1033640000F5C040002382B0036003680193019B11
:1033740002B0704703681F2B83BF03F01F03036071
:1033840001484FF0A04070470003005007B501907A
:1033940001A8FFF7EFFF019B00EB8300D0F8003793
:1033A40023F44033C0F80037D0F8003743EA014132
:1033B400C0F8001703B05DF804FB00002DE9F047E6
:1033C400002488B0CDE902445E4D4FF4807201219F
:1033D40002F1804303F5C04390B21B68012B06D170
:1033E400D5F804330B4202D0FFF7B8FF0C43043284
:1033F400B2F5907F4FEA4101EAD1534B1B68012B90
:103404000ED14FF4BE70FFF7A9FF4FF0A04344F074
:103414000044D3F8103502934C4BD3F81035039382
:1034240014F0FF0F1AD04A4F00250126344210D061
:10343400AB0003F1804303F5C043D3F81005D3F880
:10344400101557F8253023B1C1F30141C0F305200D
:1034540098470135082D4FEA4606E7D1002C6ADA71
:1034640004AF002304937B604FF0FF33CDE90633B0
:10347400374EDFF8D8904FF0010896F9543096F89B
:103484005420013322F0C00455D008AB03EBD40A16
:1034940002F007011AF8083C08FA01F10B424FEA5E
:1034A400D40048D03319920993F9243056F82350A4
:1034B4002DB9032A3FD13B5C0B433B5401E0032A63
:1034C400F9D001A80194FFF755FF019B03F5E073C0
:1034D40050F823301AF8180C0842C3F3014307D0FC
:1034E400022B28D1032A1CD02DB34FF0000A1CE074
:1034F400032B20D1032AF7D102212046FFF746FFF0
:103504008DB94FF0A0430299D3F81025D9F810359E
:10351400914213D002920393049A059B0692079357
:10352400ABE71146E9E74FF0010A11462046A847E8
:10353400BAF1000FE5D108B0BDE8F08703999942CC
:10354400F9D0E7E7006000407C61004000030050D0
:10355400400800207047000007B5DBB2CDE9002326
:10356400094800230A46192100F076FC074B4FF462
:103574007A4043F001039847FDF732F90028FBD164
:1035840003B05DF804FB00BF1C000020E05F0000F6
:103594000000000038B52DED028B03780446002BA3
:1035A40062D140680221FEF765FD08B1FDF7ECFB2E
:1035B4003648374B374D38492A681B1ADB081B0439
:1035C40043F00300FDF768FA6368B3F9020007EEFD
:1035D400900AF8EEE77A17EE900A01F029F925A38C
:1035E400D3E9002300F0A2FF24A3D3E9002301F0D0
:1035F40039F801F037F9DFED297A07EE100A67EEA2
:10360400277A17EE900A01F013F91EA3D3E90023D9
:1036140001F028F8224B002200F084FF01F022F987
:1036240008EE100A01F004F902460B461D4800F0AA
:10363400C7FA63681848B3F900101B4C00F0C0FACD
:103644001A4800F0BDFADFED1A7A2B68B4EEE78A67
:103654000133F1EE10FA2B604FF4004507DB1548F7
:1036640000F0AEFAC4F80855BDEC028B38BDC4F8BE
:103674000C55F9E7CDCCCCCCCCCC0C4000000000F0
:1036840000F88F406666666666660A40C05C0000A5
:10369400005D0000B0080020175F00000000FA423F
:1036A400000029402C5F0000000300509A5F0000D6
:1036B400000048423C5F000007B5DBB200930948B4
:1036C40013460A46192100F093FC074B4FF47A4045
:1036D40043F001039847FDF783F80028FBD103B0BA
:1036E4005DF804FB1C000020E05F00001FB5FEF73E
:1036F4005DFA08B1FDF748FB174A18480023CDE9E5
:10370400022302A9164AFEF709FD08B1FDF73CFBA6
:10371400144B1548D3F810250021D2B220FA02F236
:10372400009101230D48FEF788FD0C48FEF75EFD6D
:10373400FEF792FC04460D48FEF7B4FA08B1FDF713
:1037440023FB0A4B0A4918782246FEF7D9FA08B136
:10375400FDF71AFB04B010BD000003060060000072
:103764005935000000800040006A1800DF2801205D
:103774004081004008B5054B1878FEF7E1FA18B10E
:10378400BDE80840FDF700BB08BD00BFDF280120ED
:103794007FB51A4B596818686A4603C2197A53F8F8
:1037A400090F117059681B7A03AA03C214491548FA
:1037B4001370FEF7C5FB08B1FDF7E6FA6946002071
:1037C400FEF702FC08B1FDF7DFFA03A90120FEF7BA
:1037D400FBFB08B1FDF7D8FA0B480221FEF74AFCBF
:1037E40008B1FDF7D1FA09480221FEF743FC08B1FC
:1037F400FDF7CAFA07B05DF804FB00BFBE5F000026
:1038040099350000D05F0000B4080020B8080020FB
:1038140008B54FF400410020FCF788FF08B1FDF71C
:10382400B3FABDE80840FCF7BBBE000080B58AB01F
:10383400444B454C0793454B08932146002307A866
:10384400099300F0E0FC2378442B00D0FEE701212B
:1038540007A800F0DDFC3E4D3D4907A800F0EFFC51
:103864002C78002CF8D1012107A800F072FC022169
:1038740007A800F085FC214607A800F0EEFC012112
:1038840007A800F016FD102107A800F007FC03218B
:1038940007A800F032FC2F4E2F4C304F0DF11B01C6
:1038A40007A800F084FC9DF81B30002BF6D00622FC
:1038B4000021284801F0ECF9264907A800F085FC0E
:1038C400B6F9000000F0DEFBB6F9020084ED000A50
:1038D40000F0D8FBB6F9040084ED010A00F0D2FB35
:1038E400206884ED020A10EE105A00F0A1FF02468F
:1038F4000B462846CDE9042300F09AFFCDE90201E6
:10390400606800F095FFDDE90423CDE90001394644
:10391400134801F060F9206800F08AFF02460B4664
:10392400A068CDE9042300F083FFCDE902016068BB
:1039340000F07EFFDDE90423CDE90001094800F031
:103944003FF9ABE7BD360000C92C01205D3500000E
:10395400E0280120A80800209C080020555F0000F2
:10396400E1280120675F00001FB54FF400410020EB
:10397400FCF7DCFE08B1FDF707FAFFF749FF214821
:1039840000F01EF91F4800F01BF9FCF729FF00287E
:10399400FBD11A231B22CDE900234FF0CC73ADF8E1
:1039A4000D008DF80F0002931748042369468DF823
:1039B4000C30FDF74BFE08B1FDF7E6F9134800F0B3
:1039C40047FA08B1FDF7E0F9FDF74AFD08B1FDF744
:1039D400DBF9FCF7E5FDFDF743FD08B1FDF7D4F98C
:1039E400FFF7D6FEFFF782FEFFF7C4FE084B094837
:1039F4000949C01AC008000440F00300FDF748F864
:103A0400FFF714FF7B5F0000E85F00001C0000204C
:103A1400C05C0000005D00009C5F00000369C16899
:103A24008B429DBF8268D21802F1FF3203F1FF334B
:103A340094BF501A581A70472DE9F843D0E90294FC
:103A44000546A9EB04084068904520440F461444F9
:103A540004D901F0F4F8EC60BDE8F8834246A4EB25
:103A6400090401F0ECF86868224607EB0801F0E766
:103A74002DE9F843C5680646894617464FF0000805
:103A84003469B3687068A54228BFE418013C621B1E
:103A94005C1BBC4228BF3C46944228BF144649469E
:103AA4002844224601F0CBF8B3682544AB4208BF52
:103AB40000253F1BA044A144F560E1D14046BDE888
:103AC400F883000010B5114C114AA2610223C4E925
:103AD4000433104BE361A2644FF400730E4A0F49A0
:103AE4002362E26400231022E01DA3626362E362A6
:103AF400A3656365E365226501F0FDF80849204686
:103B040001F0F9F82023A37110BD00BFCC2C0120D3
:103B140008600000542D0120442D01201160000094
:103B240015600000F8B5184C182300FB033503FB9F
:103B340000402544C46A012C0F4616460FD0022CBF
:103B44001AD0F4B92846FFF769FF864205D83246F1
:103B540039462846FFF770FF34462046F8BD28460C
:103B6400FFF75CFF8642344628BF044622463946A6
:103B74002846FFF761FFF0E72846BDE8F840FFF765
:103B840077BF0024E9E700BFCC2C012070B50B4BB4
:103B94001B7804460D4616460BB9FFF793FF002029
:103BA400FDF74AF9324629462046FFF7BBFF044693
:103BB4000020FDF743F9204670BD00BFCC2C012046
:103BC4000FB410B5A2B024AB802153F8042B019399
:103BD40002A801F026F8802804460ADD802202A902
:103BE4000020FFF7D3FF204622B0BDE8104004B008
:103BF40070470028F7DD0246F1E70000054B1B681B
:103C0400082B01BF044B1868B0FA80F0400918BFB4
:103C140000207047300100103401001008B54FF047
:103C240080430022C3F80C21C3F81021C3F83825BF
:103C34004FF0805203F54043D2F80414C3F8201522
:103C4400D2F80814C3F82415D2F80C14C3F82815B4
:103C5400D2F81014C3F82C15D2F81414C3F8301584
:103C6400D2F81814C3F83415D2F81C14C3F840154C
:103C7400D2F82014C3F84415D2F82414C3F8481514
:103C8400D2F82814C3F84C15D2F82C14C3F85015E4
:103C9400D2F83014C3F85415D2F83414C3F86015AC
:103CA400D2F83814C3F86415D2F83C14C3F8681574
:103CB400D2F84014C3F86C15D2F84424C3F8702524
:103CC400FFF79CFF10B1384B384A1A60FFF796FF94
:103CD40018B1374BFB22C3F81825FFF78FFF48B103
:103CE4003449354B0A681B6822F00F0203F00F03B6
:103CF40013430B60FFF782FF18B1304B4FF400728F
:103D04001A604FF08043D3F80024D20744BF6FF009
:103D14000102C3F800242A4AD2F8883043F470031D
:103D2400C2F88830BFF34F8FBFF36F8F4FF010236B
:103D3400D3F80022002A03DBD3F80432002B2FDA55
:103D4400204B0122C3F80425D3F80024002AFBD019
:103D54004FF010221221C2F80012D3F80024002AD6
:103D6400FBD04FF010231222C3F80422154B1A463D
:103D7400D3F800140029FBD00021C3F80415D2F8AD
:103D84000034002BFBD0BFF34F8F0D490E4BCA6894
:103D940002F4E0621343CB60BFF34F8F00BFFDE733
:103DA4000A4B0B4A1A6008BD8C5600404881030038
:103DB40000F00040E40E004058020010409602401B
:103DC40000ED00E000E001400400FA0524000020BA
:103DD4000090D00370B506460C4D0D480A782D1A94
:103DE400ED080C462D0433460A4945F00300FCF760
:103DF4005CFEA36A13B1E16830469847E36A214642
:103E04005868BDE87040FDF793B800BF185D000026
:103E1400C05C00001C60000038B50346094C0A4829
:103E24000A78241AE4080D46240444F003000749E0
:103E3400FCF73BFED5F81C3129465868BDE83840EC
:103E4400FDF776B8185D0000C05C0000406000001B
:103E54004068FDF736B800002DE9F3472A4D9DF878
:103E64002CA0CDF800A09946284BED1AED08074682
:103E74002D04134645F00300884616460A46244995
:103E8400FCF71DFE7868FDF733F8044648B921496C
:103E940045F00200FCF7FCFD0426304602B0BDE804
:103EA400F087012208FA02F3437213430A99437418
:103EB40000F11403067002728272C1608274C0E958
:103EC4000A97406080F810A014220021184600F0E0
:103ED400DFFE114AC4E90524221DE261022284F8AE
:103EE400202001463868FDF7CDFB06460028D4D0D3
:103EF40003460A4945F002004246FCF7D6FD7868BD
:103F04002146FDF715F8C8E7185D0000C05C000005
:103F1400656000009A600000D93D0000B0600000B8
:103F24002DE9F0472C4D9DF820A016462B4AAD1ADA
:103F3400ED0807462D040A4645F003008846284943
:103F44009946FCF7B2FD7868FCF7D2FF044648B9FD
:103F54002449424645F00200FCF79EFD0426304603
:103F6400BDE8F0874FEA480380F805310023C0F824
:103F74001C71C0F8006180F8049180F80631BAF130
:103F8400000F05D04A46314600F059FEC4F80041FE
:103F940004F5847314220021184600F079FE124AB5
:103FA400C4E9422404F58072C4F81021012284F883
:103FB400142101463868FDF765FB06460028CED07B
:103FC40003460A4945F002004246FCF76EFD786854
:103FD4002146FCF7ADFFC2E7185D0000C05C00009D
:103FE400EF600000136100001D3E0000B06000009F
:103FF4002DE9F043184C9946184BC3B0E41AE40871
:104004009DF82851240407460E4644F00300144941
:104014009046FCF741FDFF2D0CD1FE23009344F0A4
:10402400010010492B463246FCF749FD092043B0F4
:10403400BDE8F0832A4649460DF109008DF8088051
:1040440000F0FDFD6B1C01220092DBB202AA314696
:104054003846FFF765FFEAE7185D0000C05C000022
:104064003D6100005461000010B4D0E90140A44651
:104074005DF8044B604710B404688068A4465DF89A
:10408400044B604707EE900AB8EEE70ADFED027AC8
:1040940020EE270A704700BF23DB793E37B50123A2
:1040A4000C466A4620210546FFF7DEFF18BB9DF843
:1040B400002004F00F0322F00F0213438DF80030A8
:1040C4006A46012320212846FFF7D5FF98B901232A
:1040D40001AA25212846FFF7C7FF60B99DF80430DF
:1040E400240964F382038DF8043001AA01232521F5
:1040F4002846FFF7C0FF03B030BD37B501230C4697
:104104006A4620210546FFF7AFFF00BB9DF800304B
:1041140064F307138DF800306A46012320212846F2
:10412400FFF7A9FF98B9012301AA22212846FFF726
:104134009BFF60B99DF80430240964F301038DF8F2
:10414400043001AA012322212846FFF794FF03B07B
:1041540030BD37B501230D4601AA21210446FFF7DE
:1041640083FF58B99DF8043065F3C3038DF8043018
:1041740001AA012321212046FFF77DFF03B030BDB2
:1041840037B501230D4601AA25210446FFF76CFF2C
:1041940058B99DF8043065F305138DF8043001AA6D
:1041A400012325212046FFF766FF03B030BD13B578
:1041B40001230C4601AA2721FFF756FF9DF804307E
:1041C400C3F30003237002B010BD13B506230C46DD
:1041D4006A462821FFF748FF9DF801209DF800302A
:1041E40003EB022323809DF803209DF8023003EBA8
:1041F400022363809DF805209DF8043003EB02231D
:10420400A38002B010BD0A4601230F21FFF72CBF83
:1042140037B501230D4601AA21210446FFF724FFE7
:1042240058B99DF8043065F386138DF8043001AA5B
:10423400012321212046FFF71EFF03B030BD13B533
:1042440001230C4601AA2121FFF70EFF9DF804303B
:10425400C3F38013237002B010BD37B501230D469C
:104264006A4625210446FFF7FFFE00BB9DF80020A7
:104274002B0963F3C3028DF8002001236A4625212C
:104284002046FFF7F8FE90B9012301AA3F212046FA
:10429400FFF7EAFE58B99DF8043065F304138DF86E
:1042A400043001AA01233F212046FFF7E4FE03B0B6
:1042B40030BD37B501230D4601AA25210446FFF779
:1042C400D3FE58B99DF8043065F387138DF8043094
:1042D40001AA012325212046FFF7CDFE03B030BDFE
:1042E40030B591EA030F00F18480841A71EB030C5A
:1042F40005D2121953EB0C03001B71EB0C0140F2B5
:10430400000CCFF6E07C1CEA430F54D0BCEB410F09
:1043140061D90C0DA4EB135E31EA0C0141F4801158
:1043240033EA0C0343F48013DEF1200C2AD303FA9E
:104334000CF5401941F1000122FA0EF5401923FA57
:104344000EF5694112FA0CF2CD0208D349085FEA6E
:1043540030005FEA320228BF42F001020134013C1E
:104364005FEA500C72F1004250F1000051EB04512D
:104374004FF4001313EB410F38BF30BD090D09058D
:10438400002030BDBEF1200EBEF1200F1ED223FA54
:104394000EF5401941F10001CEF1200C124218BF74
:1043A400012203FA0CF52A43CEE711EA5C0F04BF9D
:1043B4000020002130BD1CEA410F04BF01F0004180
:1043C400002030BD01F00041002030BD21F48011F7
:1043D40001EB045130BD004218BF41F00101BCEBB8
:1043E400410F08BF30BD4FF0FE4141F47801002079
:1043F40030BD83F00043841A71EB030E07D28EF0B4
:10440400004E001B71EB0E01121953EB0E0340F228
:10441400000CCFF6E07C1CEA430FC6D0BCEB410F86
:1044240072D90C0DA4EB135EC90241EA5051C002CB
:1044340041F00041DB0243EA5253D20243F000430D
:10444400DEF1200C41D312FA0CF522FA0EF203FA33
:104454000CF542EA050218BF42F0010223FA0EF3FA
:10446400801A9941E30AC4F30A0411F0404F03D4BB
:1044740018D0013C40004941013C23D44205C00A04
:1044840040EA4150C90A51EAC3715FEA500C72F123
:10449400004250F1000051EB045130BD01002FD017
:1044A4000020203C0029F9D0B1FA81FCDCF1200E77
:1044B40011FA0CF130FA0EF510FA0CF02943A4EBC2
:1044C4000C04D9E70020D90730BDAEF1200EBEF1AF
:1044D400200F0DD2CEF1200C03FA0CF533FA0EF3B3
:1044E4002A4318BF43F00103C01A61F10001B9E780
:1044F40021F00041C00A40EA4150C90A01EB0451CD
:1045040030BD0020002130BD004218BF41F0010140
:10451400BCEB410F7FF467AFBCEB430F3FF463AFD9
:1045240030BD00BF83F00043FFF7DABEF0B540F2C0
:10453400FF7681EA030C16EA115E1EBFB64516EA41
:104544001355B5425AD021EA465141F48011A1FBDA
:10455400024723EA465343F48013AE44A0FB0365A9
:104564000CF0004C36197D41A1FB034747F10003D1
:10457400A0FB0217F619654153F10003094218BF65
:1045840046F0010640F2FE74B3F5007F13D2AEF597
:10459400806EA6452BD24CEA0331280341EA15511B
:1045A40040EA16503203450872F1004250F100000F
:1045B40051EB0E51F0BDAEF2FF3EA64517D24CEAC8
:1045C400C321E80241EA555140EA5650F202450837
:1045D40072F1004250F1000051EB0E51F0BD0CF0AD
:1045E400004141F0FE4141F470010020F0BD1EEA9B
:1045F4000E0FF4D50CF000410020F0BD16EA115F57
:1046040004BF01F000410020004218BF41F0010145
:1046140016EA135F04BF03F000430022124218BFDE
:1046240043F0010306EA1354B44218BF9EEA060F8E
:1046340003D00CF000410020F0BD21F0004123F034
:104644000043B1EB065F06D8B3EB065F03D800293D
:1046540018BF002BC3D140F20001C7F6F871002047
:10466400F0BD00BF2DE9F04391EA030E0EF0004EB9
:1046740040F20007CFF6E07717EA41051EBF95EA3E
:10468400070F17EA430595EA070F00F0A1807F0D95
:1046940017EA135623EA475343F4801317EA1155D4
:1046A40021EA475141F48011AD1B05F2FD354FEA73
:1046B400D31C1CF1010C4FF00047B7FBFCF77F0142
:1046C400A2FB079C0024E3FB07C4DCF1000CD9F136
:1046D40000097CF1000CA0FB07620020E1FB07202D
:1046E40000275FEAC628E0FB0987760D46EAC22662
:1046F400520DF61900277A41E0FB0C625FEAC823E9
:10470400E2FB09375FEA585848EAC628760D18EBE9
:10471400070800214E41E2FB0C8602EBC020DA02BE
:10472400E6FB09215B0D43EAC8235FEA58585B188E
:10473400002758EB0708E6FB0C38D102E8FB091701
:10474400520D42EAC3225B0DD21900277B41E8FBDC
:104754000C2308EBC6265FEAC128E3FB0987490D51
:1047640041EAC221520DC91942F10002E3FB0C12C5
:10477400470019EB08095CEB010C72EB040453EBE2
:10478400C62047EB56530026B3F5000F7641AD190A
:104794000236D6F1200910FA09F4F04013FA09F2AE
:1047A4001043F340E40F001943F10003B3F5001F75
:1047B40024BF5B08013540F2FE77BD4204D24EEAC5
:1047C40005511944BDE8F0832D4224D5714626E0F5
:1047D400004218BF41F00101124218BF43F0010327
:1047E400B7EB410F2CBFB7EB430F1BE0B7EB410F07
:1047F40004BFB7EB430F15E017EA410F04BF17EAF4
:10480400430F0FE017EA410FE0D017EA430F02D03D
:10481400B7EB430FDAD04EF0FE4141F470010020B3
:10482400BDE8F08340F20001C7F6F871F7E700BF76
:10483400C0F3C75191B142004FEA40704FEAD20130
:104844004FEA310101F16051B2F17F4F38BF704737
:1048540001F1605118BF41F40021704710F000418C
:104864000020704701F000428B1AA3F16051B1F5AA
:10487400801F0ADBB1F17F6F09D242EAC102C10095
:1048840071F1004142EB50707047104670470128A7
:104894005B4113F5001F04D842F0FE4040F40000D1
:1048A4007047C90041EA507040EA020040F48000B9
:1048B40040F08040704700BF10EE100A4FEA4000FD
:1048C400B0F17F4F0CBF01200020704710EE100A9A
:1048D40041000020B1F17F4F18BF50EB000070473A
:1048E40010EE100A00F00040704700BFB0EEC00A9E
:1048F400704700BF00B510EE100A00F003F800EE98
:10490400100A00BD4FF07F43B3EB400F22D94100A2
:1049140008BF704703EA4002120E7F3A14DB172ADD
:10492400A8BF70474FF6FF73C0F27F03D34018420D
:1049340020EA030018BF10F0004F08BF70474FF47F
:104944000001D1404018704710F0004F0CBF002008
:104954000248704718BF024870470000000080BF3B
:104964000000C07F00B5014610EE100A00F003F805
:1049740000EE100A00BD4FF07F43B3EB400F98BF29
:10498400704713EA400207D0120E7E3A0A6020EA0A
:10499400530040F07C5070470A6000F000407047BC
:1049A40000B5014610EE100A00F003F800EE100AFC
:1049B40000BD4FF07F43B3EB400F98BF704713EA3D
:1049C400400204BF00F00040704711EB1262DCBFEC
:1049D40000F000407047FF2A3CBF00EBC150704715
:1049E40040004FEA330070477F2805D8034B185C1A
:1049F400034B5B5C1840704700207047C4610000A3
:104A040044620000A0F16103192B98BF203870475D
:104A1400A0F14103192B98BF203070477F2805D897
:104A2400034B185C034B5B5C1840704700207047D5
:104A3400C461000044620000A0F16103192B98BF17
:104A440020387047A0F14103192B98BF20307047DC
:104A54007F299ABF017001206FF02E0070475AB170
:104A64000A787F2A0AD800B10260002119605960CF
:104A7400501A18BF01207047002070476FF02E00B5
:104A840070470000002816DB002817DD0022B7EE6F
:104A9400000A0C4B10F0010F1CBFD3ED007A20EE7E
:104AA400270A401004330028F4DC4AB1F7EE007AF8
:104AB40087EE800A704740420122E8E7B7EE000A19
:104AC400704700BF1C64000038B504460846A2685D
:104AD40042B1236861685D1C8D4208BF00208B428F
:104AE40008D2D054E3682BB121686268914201D2A4
:104AF4002146984723680133236038BD70B54C1EA6
:104B040009D41646C5B229463046FFF7DDFF013CFD
:104B1400B4F1FF3FF7D170BD10F0100F08D108B504
:104B240010F4007F14BF30202020FFF7E7FF08BDFA
:104B340070470028B8BF40427047000008B5034BD7
:104B44005B689B681B68984708BD00BF280000206D
:104B540008B50921FFF7F2FF08BD000000B5FBF717
:104B640037FC024B18445DF804FB00BF080000004A
:104B74007AB370B414460F2A15D902460B4640EA9C
:104B8400010515F0030F01D0013C0EE01946104653
:104B94000432043306680D68AE4204D11046194647
:104BA400043C042CF2D8013C0ED00A4603460444CB
:104BB400114618460133013206780D78AE4203D10E
:104BC40018461146A342F3D100780B78C01A70BC82
:104BD4007047002070470EB400B586B007AA52F89B
:104BE400041B05920390002304936FF00043029387
:104BF40001A800F0D3F806B05DF804EB03B07047E9
:104C0400037853B159B10144034613F8012F12B18B
:104C14008B42FAD10B46181A70470346FBE703464A
:104C2400F9E710B584B00C461146029000220392B5
:104C340001941A46684600F0B1F804B010BD8446E9
:104C440040EA010313F0030F18D18446202A0BD342
:104C54002DE9F007B1E8F807A0E8F807A2F120026F
:104C6400202AF7D2BDE8F007042A07D351F8043B01
:104C740040F8043BA2F10402042AF7D2002A05D02A
:104C840011F8013B00F8013B013AF9D16046704745
:104C94008446002A2DD010F0030F04D000F8011B25
:104CA400013A26D0F7E7C9B241EA012141EA0141BC
:104CB400202A12D3A2F120022DE9F0030B460C4660
:104CC4000D460E460F4688468946A0E8FA03203A68
:104CD400FBD2BDE8F00320320BD0042A05D340F800
:104CE400041B043A05D0042AF9D200F8011B013A46
:104CF400FBD160467047024610F0030F16D111F045
:104D0400030F13D12DE9F0004FF001374FF080333A
:104D140051F8044BA4EB070525EA04051D4002D114
:104D240042F8044BF4E7A1F10401F0BC11F8013B93
:104D340002F8013B002BF9D1704700F1010110F09A
:104D4400030F11D010F8012B002A23D010F0030F09
:104D54000AD010F8012B002A1CD010F0030F03D046
:104D640010F8012B002A15D02DE970004FF0013204
:104D74004FF0803350F8044BA4EB020525EA0405F8
:104D84001D4000D1F6E7A0F1040070BC10F8012B1F
:104D9400002AFBD1A0EB0100704700002DE9F04F81
:104DA4002DED048B89B083460392002303600D46E6
:104DB40015F8011B002900F0AE86DFEDA48A00F08F
:104DC4009CBE002607E05E2866D146F4805601E0CA
:104DD40046F0400615462A4612F8010B3028F2D850
:104DE4001F2838D9A0F12003102B34D801A151F881
:104DF40023F000BFD54D00005B4E00005B4E000069
:104E04003D4E00005B4E00005B4E00005B4E000018
:104E1400434E00005B4E00005B4E00005B4E000002
:104E2400494E00005B4E00004F4E00005B4E0000F8
:104E34005B4E0000554E000046F08006CAE746F47B
:104E44000046C7E746F02006C4E746F01006C1E76F
:104E540046F40076BEE72A281ED1039B191D039150
:104E64001F68002FBCBF7F4246F010061078AA1CB2
:104E740027EAE7752E2824D00027742845D07A28FD
:104E840043D06C2800F0C2804C2800F0C58068280C
:104E940000F0D38091463BE0A0F13003DBB2092B54
:104EA40088BF0027E4D8002707EB8707303800EBDA
:104EB400470712F8010BA0F13003DBB2092BF3D939
:104EC400D6E710782A280AD1039B191D03911F687D
:104ED40050780232002FD0DB46F48076CDE70132E1
:104EE400A0F13003DBB2092B88BF0027F4D80027D8
:104EF40007EB8707303800EB470712F8010BA0F1E6
:104F04003003DBB2092BF3D9E4E7914619F8010B1E
:104F1400782800F28480DFE810F010068200820016
:104F2400820082008200820082008200820082006D
:104F3400820082008200820082008200820082005D
:104F4400820082008200820082008200820082004D
:104F5400820082008200820082008200820082003D
:104F640082008200A300820082008200820082000C
:104F7400820082008200820082008200820082001D
:104F8400820082008200820082008200820082000D
:104F940082008200820082008200820082008200FD
:104FA40082008200C401E101E601820082008200E5
:104FB40082008200820082008200820082008200DD
:104FC400820082008200820082001E018200820030
:104FD40082008200820082008200820082008200BD
:104FE400A9005301C601E301E801820053018200D4
:104FF400820082008200B900410104018200820023
:10500400CE0082004C01820082002001914619F8F2
:10501400010B46F001067BE746F0010691460C4B76
:105024001C68002C00F0658503AB019300972B46A8
:1050340032465946A04700F05CBD1078682809D074
:1050440002F1010946F0040662E700BF0000C8420D
:10505400542F012046F0080602F10209507857E760
:1050640025215846FFF730FD00F043BD039B1A1D70
:1050740003921C78013D5A4629463046FFF74CFD01
:1050840021465846FFF720FDB0463AE016F0080FD7
:1050940008D0DBF80020039B191D03911B681A70CC
:1050A40000F027BD039B1A1D03921B68DBF8002048
:1050B4001A6000F01EBD039B1A1D03921C688C4BE2
:1050C400002C08BF1C4626F4007816F4807F23D0F9
:1050D40039462046FFF794FD0646AD1B5A4629463D
:1050E4004046FFF719FD06F1FF3A56B1274634440E
:1050F40017F8011B5846FFF7E7FCBC42F8D14FF004
:10510400FF3A18F0100F00F0F4845A462946202084
:10511400FFF7F4FC00F0EDBC2046FFF70EFE064658
:10512400DBE7039B1A1D03921B6816F0800F0CBF6C
:105134000024232446F4807608271A46002B00F026
:10514400B48404AB4FF0000806F40050DFF8A4C1A7
:10515400A64600F06ABC46F4005616F0800F1BD039
:1051640043F2780443F25803782818BF1C4616F417
:10517400807F01D026F4007616F4804F32D0039B52
:105184001A1D03921B6816F0040F1FD01BB2002BCC
:1051940020DA5B422D242DE00024E8E716F0800F8E
:1051A4000CBF0024302416F4807FE5D026F400766A
:1051B400E2E716F4807F07D026F400760024DBE7CC
:1051C40046F480460024D7E70024D5E716F0080FFC
:1051D400DDD0DBB216F0200F61D116F0400F18BFFE
:1051E400202407E0039B1A1D03921B6816F0040F8A
:1051F40050D09BB216F4807F00F0E68326F400764C
:105204005838202800F23B8401A252F820F000BF55
:105214003F510000835A0000835A0000835A000063
:10522400835A0000835A0000835A0000835A000006
:10523400835A0000835A0000835A0000835A0000F6
:10524400F9590000835A0000835A0000835A000071
:10525400835A0000F9590000835A0000835A000061
:10526400835A0000835A0000835A0000D159000079
:105274003F510000835A0000835A0000835A000003
:10528400835A0000F9590000835A0000835A000031
:105294003F51000016F0080FACD0DBB2AAE72B2474
:1052A400A8E746F4005646F48066039B073323F0D0
:1052B400070303F108020392D3E90001FFF7D2FACE
:1052C40008EE100A16F4807F16D0B7B906F44067CA
:1052D400B7F5406F14BF002701270EE046F40056CF
:1052E40046F40066E1E746F4005646F44066DCE71F
:1052F40034640000086400000627B0EE480AFFF793
:10530400DBFA002840F0BB80B0EE480AFFF7DEFA73
:105314008046002840F0CC80B0EE480AFFF7E0FA5F
:10532400002840F0CE8018EE103A08EE103A07A894
:1053340000EE103AFFF716FB079B03EB4303CA4A40
:1053440082FB0312DB17C3EBA2030793B5EE408A7B
:10535400F1EE10FA40F0BF8006F44064B4F5806FBB
:105364000AD0B4F5406F40F06E81079BBB4203DA6C
:1053740013F1040F80F2678107984042FFF782FB24
:1053840028EE008A8DED028AB5EE408AF1EE10FA1D
:1053940036D0B0EE480AFFF78FFA002840F0B1800B
:1053A400F2EE047AB4EEE78AF1EE10FA0FDB079B13
:1053B4000133F2EE047A1A4688EE278A0133B4EEFA
:1053C400E78AF1EE10FAF6DA8DED028A0792DDED46
:1053D400027AB7EE007AF4EEC77AF1EE10FA0FD53E
:1053E400079B013BF2EE046A1A4667EEA67A013B7C
:1053F400F4EEC77AF1EE10FAF6D4CDED027A079204
:1054040027B1B4F5406F08BF07F1FF377842FFF7C3
:1054140039FBF6EE007A60EE277A9DED027A77EE9C
:10542400877AB2EE047AF4EEC77AF1EE10FA80F2DB
:105434008180B0EE678A002F00F0918006F4086343
:10544400B3F5006F7ED026F4006302937B1DED1A42
:10545400013D16F4805F00F0F380079A834B83FBD1
:105464000213A3EBE27303EB4303D31A0233042BBB
:1054740000F2E480DFE803F099DA9699DA00B5EEF9
:10548400C08AF1EE10FA0CD416F4005F784C794B14
:1054940008BF1C4616F0200F08BF013426F480769E
:1054A40011E616F4005F744C744B08BF1C46F5E714
:1054B40016F4005F724C734B08BF1C4626F48076CA
:1054C40001E646F06006F1EE487A17EE903A2CE7D2
:1054D400079B0133079307980130FFF7D3FAB4EE23
:1054E400C08AF1EE10FAF3DC02E0079B013B07935C
:1054F4000798FFF7C7FAB4EEC08AF1EE10FAF4D4B5
:105504002AE7B5EEC08AF1EE10FA0CD416F4005F67
:10551400574C584B08BF1C4616F0200F08BF0134E7
:1055240026F48076CFE516F4005F534C534B08BF46
:105534001C46F5E7079B01330793B2EE047A87EE26
:10554400878A78E7092FA8BF09273846FFF79AFA10
:1055540060EE087AFCEEE77A17EE903A4BB926F43F
:1055640000630293053D16F080073FF472AF47468F
:105574006EE7454AA2FB0312D20802EB8202B3EBA8
:10558400420F7FF460AF4049A1FB0323DB08013FD6
:10559400E5D0A1FB0302D20802EB8202B3EB420F77
:1055A400F2D050E74FF0010808E0F2EE047A27EE5B
:1055B400888A013A0792013D4FF0020827EAE7770B
:1055C40016F0600F18BF05F1FF350798FFF7B1FA21
:1055D4006328C8BF05F1FF35F0EE487ABCEEC87AFF
:1055E40017EE104AB8EE478A37EEC88A25EAE57AFC
:1055F400029B13F4047F00F0D580029B13F0200F6C
:1056040000F0DE8013F0400F14BF2D212B215846EB
:10561400FFF75AFA029B13F0100F00F0DB801B4EC9
:1056240008F10055013D06EBC505EAE028EE888A3D
:10563400023A0792023D4FF00308BFE7D046BDE7A8
:105644004FF00108BCE716F4806F3ED0079B0E2B89
:105654003ADC0133FC1A092CA8BF092416F0800F88
:1056640016D0274631E000BF676666665655555525
:105674004C640000546400003C6400004464000076
:105684005C64000060640000CDCCCCCC6864000095
:10569400BB426BD0F6EE009AB2EE049A2046FFF7B6
:1056A400F1F928EE000A30EE290AFFF723F9F0EEAB
:1056B400490A00F085FAB5EE400AF1EE10FA57D126
:1056C400013CEBD1274600E0474626F48063029371
:1056D400079B7842A3F108028242C8BFA3F10900E4
:1056E400FFF7D0F94FF0FF30FFF75AF938EE008A90
:1056F400B0EE489A07980130FFF7C4F9B4EEC08AB7
:10570400F1EE10FA02DB079B013307930798002898
:1057140040DB09282EDCFCEEC97A17EE904AB8EE7D
:10572400678A39EE488A0023079320460021092C12
:1057340035D9DFF82CC44FF0010808F10108FCE961
:105744000223994208BF9042F7D207EB0803079A55
:105754001344ED1A06F080033B4318BF05F1FF35EF
:1057640016F0600F18BF05F1FF353FE72746ACE799
:105774002746AAE7A0F109030793C0F10900FFF740
:1057840081F929EE009AFCEEC97A17EE904A08EEE8
:10579400108ACAE7002407944FF00108D5E74FF0B8
:1057A4000108D2E7002D7FF728AF20255646013E99
:1057B40029465846FFF788F9002EF8D1B2461CE76F
:1057C400029B13F0400F3FF425AF20215846FFF70A
:1057D4007BF91FE7BAF1000F3FF421AF302556469D
:1057E400013E29465846FFF76FF9002EF8D1B2461C
:1057F40015E74FF0300C61465846FFF765F9B045A0
:1058040015D0D5E90023A846083D0021994208BFD8
:105814009442EED34FF0300C0CF1010C5FFA8CFC87
:10582400A41A0021994208BF9442F5D2E3E7029BEF
:1058340013F4006449D1002F55D1029B13F0800F5B
:1058440040F07E81029B13F4806F2FD013F4005F2D
:1058540014BF452165215846FFF736F9079B002BF5
:10586400C0F294802B215846FFF72EF9079963293B
:1058740000F394800799B64C84FB0132C917C1EB3D
:10588400A2013031C9B25846FFF71EF9079B84FBC9
:105894000324D917C1EBA40101EB8101A3EB41035C
:1058A40003F13001C9B25846FFF70EF9BAF1000FFF
:1058B40000F01F8120245546013D21465846FFF73C
:1058C40003F9002DF8D1AA4613E1079B002BB2DDA2
:1058D4003025013B079329465846FFF7F5F8079B07
:1058E400002BF6DCA7E72E215846FFF7EDF83D46DE
:1058F400092FA8BF092525EAE5757F1B8CB10798F8
:10590400281AFFF7BFF820EE088AFCEEC87A17EED3
:10591400904A7DB305F10055013D8E4B03EBC5055F
:1059240019E02846FFF7AEF820EE088AFCEEC87AA4
:1059340017EE904AEDE70CF1010C5FFA8CFCA41A07
:105944000021994208BF9442F5D261465846FFF7B8
:10595400BBF846450ED0D5E90023A846083D0021F2
:10596400994208BF944202D34FF0300CE3E74FF062
:10597400300CEAE7002F3FF465AF3024013F2146A5
:105984005846FFF7A1F8002FF8D15BE72D215846C0
:10599400FFF79AF8079B5B42079367E76E4C84FB1B
:1059A4000132C917C1EB62113031C9B25846FFF751
:1059B4008BF8079A84FB0231D317C3EB611364217C
:1059C40001FB1323079355E7012719E41A464FF007
:1059D4000008002B55D004A94FF0000803F007037A
:1059E400303301F8013B08F10108D2081346002ABC
:1059F400F4D146E019464FF00008002B41D04FF097
:105A0400000806F4004E4FF02C0ADFF858C1734624
:105A1400A6461C4624E002F00F01504C615C03F8DA
:105A2400011B08F10108120906D00028F3D002F086
:105A34000F011CF80110F2E7744622E008AB03EBF7
:105A44000800ACFB0132D20802EB8203A1EB430352
:105A5400303300F8103C08F1010809290DD911462A
:105A6400002CEBD008F00303032BE7D108AB43442D
:105A740003F810AC08F10108E0E7744601E04FF0C8
:105A84000008A7EB080727EAE777ED1BA5EB080555
:105A9400FF2C0DD9023DC4F307215846FFF714F833
:105AA400E1B25846FFF710F804E04FF00008E8E7C9
:105AB400002C4BD15A4629463046FFF72DF85A465A
:105AC40039463020FFF71AF8B8F1010A0ED404ABB6
:105AD40054461C449846217827465846FEF7F4FF5E
