:020000022000DC
:1060000000000120756302005D6302005F6302000F
:106010006163020063630200656302000000000028
:1060200000000000000000000000000067630200A4
:1060300069630200000000006B6302006D630200F0
:10604000619502006F630200A19902006F63020074
:106050006F6302006F6302001D9802006F6302000D
:106060006F6302006F6302006F6302006F630200E0
:106070006F630200C19A02006F6302006F63020047
:106080006F630200796D02006F6302006F630200AC
:10609000156E02006F630200851B03006F63020030
:1060A0006F6302006F6302006F6302006F630200A0
:1060B0006F6302006F630200000000000000000038
:1060C0006F6302006F6302006F6302006F63020080
:1060D0006F6302006F6302006F6302000000000044
:1060E00000000000000000000000000000000000B0
:1060F00000000000000000000000000000000000A0
:10610000000000000000000000000000000000008F
:10611000000000000000000000000000000000007F
:10612000000000000000000000000000000000006F
:10613000000000000000000000000000000000005F
:10614000000000000000000000000000000000004F
:10615000000000000000000000000000000000003F
:10616000000000000000000000000000000000002F
:10617000000000000000000000000000000000001F
:10618000000000000000000000000000000000000F
:1061900000000000000000000000000000000000FF
:1061A00000000000000000000000000000000000EF
:1061B00000000000000000000000000000000000DF
:1061C00000000000000000000000000000000000CF
:1061D00000000000000000000000000000000000BF
:1061E00000000000000000000000000000000000AF
:1061F000000000000000000000000000000000009F
:10620000354936480A1A02D0072291438D4634494F
:1062100034480A1A06D00722914381F309880222E2
:1062200082F3148830483149314A00F044F831484B
:106230003149324A00F03FF831483249324A00F0E1
:106240003AF832483249334A00F035F83248334997
:10625000334A00F030F833483349344A00F02BF821
:1062600033483449344A00F026F83448344900228F
:1062700000F02CF833483449002200F027F8334866
:106280003349091A082902DB002202604160314AC1
:1062900090471F481F49884205D00268043003B464
:1062A000904703BCF7E700208646EC46002000211B
:1062B000294A9047FEE7884207D0521A05D0037852
:1062C00001300B700131013AF9D17047884202D098
:1062D00002700130FAE770470000012000E0002062
:1062E000000001200000012020AA0300A42B0020B0
:1062F000202C0020D4630200D46302001C5403004D
:1063000020AA0300A42B0020A42B0020E8550300A2
:10631000E8550300E8550300E8550300E85503007D
:10632000E8550300E8550300E855030020AA0300E0
:106330009CAA0300202C0020202C0020202C0020D0
:1063400086420020884200208842002088420020A7
:10635000886200209D63020091C20200FEE7FEE712
:10636000FEE7FEE7FEE7FEE7FEE7FEE7FEE7FEE705
:10637000704700BF1048804710484FF0070188431E
:1063800085460F4880470F48016841F4700101605D
:10639000BFF34F8FBFF36F8FFFF732BF0A480B4930
:1063A0000B4A884207D0521A05D0037801300B708F
:1063B0000131013AF9D170477163020000000120F8
:1063C000DDC6020088ED00E0D4550300902B0020CC
:0463D000A42B0020DA
:1063D400022003F0FDBF00002DE9F04780460D4682
:1063E40004F016F80328044610D8012D10D0022D0D
:1063F40030D05DB91A4800F0F3FE1A4B04EB4402A6
:1064040013449E78184B1B5DB34219D0BDE8F08746
:10641400144D00EB4002A918AE5C4A78470052B113
:10642400DFF84C900E484A464FF4004100F090FECD
:1064340008B989F800803B192B449A780A4B1A55FD
:10644400002EE3D0094B1B68002BDFD03046BDE89B
:10645400F047184700EB4004024804446678EFE72D
:10646400442C0020842C00209D2C0020982C0020FB
:10647400202C002000780221FFF7AEBF08B5094B9D
:106484001B7853B1002003F079FF012003F076FF5D
:10649400BDE80840032003F071BFBDE8084003F0E5
:1064A40079BF00BF212C0020F8B57B4C237805462A
:1064B4001BB100232370FFF7E1FF172D00F2888042
:1064C400DFE805F00C17174354657680888D888DB6
:1064D400959A9A9A9A9AC4C9D1D9E4E4FFF7CEFF5F
:1064E4006E4800F07DFE6E4B002204461A70204672
:1064F400F8BD002003F028FFF8B1002003F03EFFB0
:10650400022D0CBF4FF4E1614FF47A61644B1D70AE
:106514004FF400404FF4FA740025E0FB01454FF4BA
:106524007A720023204629460BF01CFD0022014606
:10653400BDE8F840594800F00BBE03F013FF022DEC
:106544000CBFC8214FF4C871E0E7002003F0FCFE43
:1065540040B1002003F012FF4FF44871504B032266
:106564001A70D5E703F0FEFEC821F7E7002003F018
:10657400EBFE38B1002003F001FF4FF47A61484B81
:106584000422EDE703F0EEFE4FF4C871F7E70020B4
:1065940003F0DAFE48B1002003F0F0FE404B052280
:1065A4001A7041F69A110022C2E703F0DBFEF5E708
:1065B400002003F00DFF3A4B06221A70002240F629
:1065C400CD41B5E7002003F0CDFE354B07221A700C
:1065D40000248CE70120207003F0FAFEEEE701208E
:1065E400207003F0F5FE00224FF48041A0E703F091
:1065F400E0FE2B4B0C22EAE72A482B4E00F0F0FD7C
:10660400D5F1110504461CD0D8B9012D13D0C823E7
:106614005D434FF400474FF4FA7000214FF47A724F
:106624000023C7FB05010BF09DFC224601461D48D3
:1066340000F08EFD0446022003F094FE0123337023
:1066440055E7022003F09AFE0023F8E7FFF716FF50
:10665400134B1222BBE7FFF711FF002003F082FE69
:106664000F4B1322B3E7FFF709FF012003F07AFE73
:106674000B4B1422ABE7FFF701FF002003F072FE7F
:10668400012003F06FFE064B1522A0E703F091FEF4
:10669400034B1D709CE700BF942C0020642C002049
:1066A4009C2C0020242C0020212C0020044B1B684F
:1066B400DB0703D5034B1878FFF7F6BE704700BF1E
:1066C400902C00209C2C0020032801D803F092BEBB
:1066D40000207047044B1B6813F0010301D0FFF73F
:1066E400E3BE1846704700BF902C002038B51C4B01
:1066F40018601C4B10F00204054619601AD01A4B9E
:106704001A480E221A700F22DA7010229A7111227E
:106714005A72042140F2666200F014FA044648B941
:1067240000F064FA044628B90146114A114800F001
:10673400FDFC0446EB0711D5012003F081FE6CB982
:1067440021460D4A0D4800F0F1FC044630B9BDE87D
:1067540038400B4A0B48012100F0E8BC204638BD04
:10676400902C0020982C0020842C0020E855030055
:10677400796402000C560300B1660200105603004F
:10678400D563020008560300032811D8012A0AD150
:1067940001290FD100F10E02D2B20D4B00EB4000E3
:1067A4001A54002070470129F7D0022904D049B1B6
:1067B400072070470022F8E7054B00EB400018441F
:1067C4004270EEE7024B00EB400018448270E8E7A9
:1067D400842C0020032808B512D803F02BFE800077
:1067E40000F1A040D0F8003723F44033C0F800375C
:1067F400D0F8003743F44033C0F80037002008BD18
:106804000620FCE708B5012202210020FFF7BCFFA7
:1068140008B1072810D1072202210120FFF7B4FF95
:1068240008B1072808D100210A220846FFF7ACFF67
:1068340010B1072808BF002008BD00000388102BF2
:1068440010B502D0112B1ED010BD1A4C2168B1B95D
:1068540001220846FFF798FF08B1072824D1072230
:1068640002210120FFF790FF08B107281CD1042260
:1068740002210020FFF788FF08B1072814D12368FC
:1068840001332360E0E70B4A1368013B1360002BDC
:10689400DAD1FFF7B7FF0028D6D0074B1B68002BCF
:1068A400D2D0BDE810401847034B1B68002BE6D03C
:1068B4009847E4E7A82C0020A42C002008B5002069
:1068C400FFF788FF08B1062806D10120FFF782FFF1
:1068D40010B1062808BF002008BD00000D4B10B5FC
:1068E40018600C4629B10120FFF7EEFE40B10223E7
:1068F4002370094B1B6853B9BDE81040FFF782BFF2
:10690400FFF7E2FE08B10B23F2E72070F1E7002065
:1069140010BD00BFA42C0020A82C002005F018BA3C
:106924000021084605F0C8B910F1360F0AD058B155
:1069340048F2165248F2115310F1380F14BF1046A2
:106944001846704748F21450704708B50846114677
:1069540002F054FD002008BD30B5044685B0002087
:1069640002F0CEFC054678B9201D039004F0F9FE30
:106974000649039800952B462A4604F068FF05B0A3
:10698400BDE83040FFF7D0BF05B030BD4F6902000D
:1069940008B5043004F0EAFE02F0DEFC002008BD75
:1069A40008B5043004F0BCFFBDE80840FFF7BCBFE5
:1069B40008B5114604301A4604F0E7FEBDE8084065
:1069C400FFF7B2BF2DE9F04F364E87B04FF0000904
:1069D400354B1B785FFA89F5AB4202D807B0BDE8A6
:1069E400F08F324BD3F800A01AF835000124D6E911
:1069F400001EA0F12002C0F1200304FA02F224FADE
:106A040003F3134304FA00FC059301EA0C03009317
:106A1400059B0EEA03030193DDE9002313430AEB0C
:106A2400C50B3BD0059B21EA0C012EEA0303C6E902
:106A3400001302F0E7FE01461AF835001C4DA0F1E0
:106A44002002C0F1200304FA02F224FA03F31343F0
:106A5400D5E900C28440134004EA0C040393A0F176
:106A64002002C0F1200321FA03F3029401FA02F890
:106A740048EA0308DDE9023401FA00F7444508BF97
:106A8400BB420BD1DBF8043043B19BF80120541E08
:106A940062426241551A69426941984709F1010904
:106AA40096E700BFE02C0020AC2C0020E82C00204E
:106AB400D82C0020F8B506461E4800F091FBC0BB58
:106AC4000125A6F12004C6F1200325FA03F305FAF3
:106AD40004F41C43184BD3E900C2B5400CEA05008A
:106AE40002EA040101431F461DD1304602F08AFE2A
:106AF400124BD3E9001288B129432243C3E900129F
:106B0400D7E900231C430E4B0A4819681543C7E90B
:106B140000540022BDE8F84000F01ABB21EA050148
:106B240022EA0402EAE72CEA050522EA0404C3E99E
:106B34000054F8BDB42C0020E02C0020D82C0020F8
:106B4400B02C0020042A2DE9F34105460C461646D4
:106B540039D902F097FDD8B11C4B1D491D601D4B5E
:106B6400DFF884801C701C4B00221E600023C1E9E6
:106B740000231A49C1E90023013CE4B2002603279B
:106B8400FF2C0CD1164A1748002100F0CFFA03E07D
:106B940002F040FD0028DFD002B0BDE8F08105EB33
:106BA400C40315F834009B788DF80660424601A9A9
:106BB4008DF804708DF8053002F06EFD013CE4B2EE
:106BC4000028DDD0E8E70720E6E700BFE82C002036
:106BD400D82C0020AC2C0020B02C0020E02C00206D
:106BE400C969020014560300B96A020070B5084D61
:106BF400084E00242B789C4201D3002070BD3368DA
:106C0400012113F8340002F0B9FD0134F2E700BFAA
:106C1400AC2C0020E82C00201FB50021039001AA11
:106C240044F20100CDE9011100F004F805B05DF86B
:106C340004FB000010B572B603F0E8FF03F026FE73
:106C44000028FBD1104B114C1149E41AE408240428
:106C540044F0010003F076FF0E4B1B68DB0700D500
:106C640000BE0D4944F0020003F06CFFBFF34F8FE8
:106C74000A490B4BCA6802F4E0621343CB60BFF3CA
:106C84004F8F00BFFDE700BFE45403001455030019
:106C940018560300F0ED00E02456030000ED00E078
:106CA4000400FA05094A537891780133DBB299421A
:106CB40008BF0023117899421FBF0370507818232E
:106CC40003FB002014BF043000207047EC2C00208C
:106CD40073B5054600240DF107000E468DF80740F4
:106CE40000F098FA0DF10600FFF7DCFF90B1067092
:106CF400094B9DF8062045605A709DF8070000F086
:106D0400ADFA24B9054B4FF48012C3F80021204694
:106D140002B070BD0424F0E7EC2C002000E100E098
:106D2400024B4FF43C6043F0010318474056030004
:106D340038B50C4B0C4C4FF40032C3F880200125BD
:106D44004FF48033C4F84833C4F808336560FFF760
:106D5400E7FF064BA56000241C60FFF7E1FF044B2E
:106D64001C7038BD00E100E000100140082E002036
:106D7400F92D0020F8B51F4B1F491B680025C1F8E9
:106D84004051C1F84451C1F84851C1F84C51C1F8BF
:106D94000051C1F804514BB3D1F8044517490968AF
:106DA400641A24F07F442F461A68A24209D8A41A10
:106DB40015441A7CDE691AB1D3E905201F74904783
:106DC400AEB90F4A0F4B11781B788B4205D10133B2
:106DD400DBB2022B08BF0023137012780A4B43F86E
:106DE40022500A4B4FF48012C3F80021F8BD3346F9
:106DF400DAE700BF0C2E002000100140082E00200E
:106E0400052E0020042E0020FC2D002000E100E0CF
:106E14002DE9F04FA24AA34913780978A24D99426B
:106E240085B03CD00133DBB2022B08BF00231370C2
:106E34009E4912789E4B0F6853F822003B1823F0AA
:106E44007F4300220B602B6816461446944613B900
:106E540042B12B6006E0196881420ED902B12B6061
:106E6400091A196001272B68DFF84CA201934FF02F
:106E74000008BEB9DFF848B262E0401A0C44D96891
:106E8400D3F81CE0C3F800C031B13A1922F07F42B4
:106E9400C3E90121DE611E4673460122D7E70026BD
:106EA4003746E0E73446F669804A63681268DFF8DB
:106EB40014C2A068991A21F07F41614500F2A880AC
:106EC40001442160012222742A680023C4E90133A9
:106ED400E361002A40F0A5802C60CAE79BF8021009
:106EE4005A1CD2B291428BF8002004BF00228BF8C6
:106EF4000020182202FB03B32A6819799C6802292E
:106F040077D0032900F08180012919D1207CB8B9F8
:106F1400D3E90312A2605A69E2609A69654BA261DF
:106F24001B78002B0CBF0B4603466360BCE78C4206
:106F340000F094808946C9690029F8D1002323749C
:106F44009BF800309BF801209A42C7D12B68B8F116
:106F5400000F04D1019A9A4201D1002F43D0002B93
:106F640079D0D3F800A0544D504BD5F804751C6863
:106F7400DFF854813E1B98F8003026F07F46033634
:106F84009BB94FF48033C5F84433C5F804334B4BF5
:106F94004FF400324FF00109C3F880211A60C5F89C
:106FA4000090FFF7BDFE88F80090B2452CBF544412
:106FB400A41924F07F44C5F84045D5F80435DB1BFB
:106FC40023F07F43E41B033324F07F44A3420AD914
:106FD400D5F80435C5F84035FFF7A2FE374B4FF41A
:106FE4000032C3F80021334B00221A7005B0BDE80B
:106FF400F08F114691469FE71174D2690123002A4C
:10700400FAD1002B9CD02A609AE700231946F6E7B0
:10701400D31A23F07F43834234BFC31A002323606F
:1070240050E721681368994213D8591A1160E26134
:1070340052E7091AD8691A4638B1034618688842D3
:10704400F7D3401A1860184613462160E061DC61EA
:107054000FE71346F2E7FFF76BFEC4E74C4511D187
:10706400D3692B6073B9DFF844E00120CDE9021243
:10707400CAF80800CEF800300E4B1870FFF750FE27
:10708400DDE902120B68C969C9F81C1011B108685E
:1070940003440B602B68934218BF4FF001084DE77F
:1070A400042E0020052E00200C2E0020082E002087
:1070B400FC2D0020F82D00200010014000E100E02C
:1070C400EC2C0020FEFF7F00F92D002008B5FFF70F
:1070D4002FFE104B00200B2218809A700E4B186064
:1070E4000E4B18700E4B18700E4B4FF48012C021CB
:1070F400C3F8802183F814131A6002F18042A2F5C8
:107104006F22C2F8080583F81113074BD2F804253F
:107114001A6008BDEC2C00200C2E0020042E002048
:10712400052E002000E100E0082E0020074B9B788C
:107134004BB132B128B10368187C20B959745A6133
:107144007047072070470820704700BFEC2C0020D0
:107154002DE9F743DFF8848098F8023005460E469F
:107164001746ABB3A0B3042930D9436983B3437C36
:107174000024012B0DF107000CBF8946A1468DF8B0
:10718400074000F047F80DF10600FFF78BFDD8B17A
:10719400012303700F4B4560D3F80435C0E904970D
:1071A400C0E902369DF8063088F801309DF80700E2
:1071B40000F054F824B9084B4FF48012C3F80021AE
:1071C400204603B0BDE8F0830424EFE70724F7E783
:1071D4000824F5E70010014000E100E0EC2C002059
:1071E400064A92783AB130B1426922B1002202745F
:1071F4000221FFF76DBD0820704700BFEC2C002072
:10720400014BD3F80405704700100140401A20F0E8
:107214007F40704770B5EFF3108672B60C4A9468DD
:1072240001239CB993600B4B0B4DD3F8801029407C
:107234001160C3F88050D3F8841051604FF0FF32CE
:10724400C3F88420047006B962B670BD0370FAE70F
:10725400102E002000E100E0FC06FFBD084B9A68F8
:1072640010B55AB150B9EFF3108172B6054A1C68D3
:1072740014605C685460986001B962B610BD00BFC8
:10728400102E002000E100E070B5064D06460024F3
:1072940055F8043B0BB1304698470134042CF7D120
:1072A40070BD00BF282E0020033080B240F2FD33B1
:1072B400984230B51FD8124B1A783AB91C895D89A7
:1072C4002C440444A4B2B4F5806F0AD31A7DA2B945
:1072D4009A8BDC8B2244024492B2B2F5806F0CD2BA
:1072E40001220A801446142202FB04335A891044F2
:1072F4005881002030BD0920FCE70720FAE700BFD1
:107304005C2E00200B4A0C4B5188142000FB0131E9
:10731400CB6833B90420496810700122074801F092
:10732400E3BA07490523137002238B8001220968FD
:107334000023F3E7402E00205C2E0020902B002039
:10734400242F002007B5002305490093054A096846
:107354000548082301F032FA03B05DF804FB00BFCE
:10736400242F002054560300902B002007B500233F
:1073740001460093034A0448082301F01FFA03B0AE
:107384005DF804FB4C560300902B002013B500233A
:107394000C4600930146084A0848042301F00EFAFB
:1073A40038B90749142303FB04140123237402B0DE
:1073B40010BD0E20FBE700BF48560300902B0020B1
:1073C4005C2E002037B50A480A4B42689C8819682D
:1073D40053880325033305709BB2002000909B0063
:1073E40001EB8401044801F0E9F903B030BD00BFAA
:1073F400402E0020242F0020902B002010B50146A1
:10740400044800F047FE1C22044600210AF0E8FE6E
:10741400204610BD102F002068B10268084B9A4224
:1074240009D14068074B984207D00133984214BFF2
:10743400032001207047032070470020704700BFDD
:10744400DEC0ADDEFE011EF14388033300EB83038F
:10745400994209D382884FF6FF739A4206D0008876
:10746400B0FA80F04009704702207047012070474D
:107474002DE9F0410D460223154F2B80164600F5E9
:10748400805100F108044FF001088C420ED22368A9
:1074940001330BD02046FFF7D7FF48B10EB186F871
:1074A4000080022809D14FF480632B80BDE8F0816D
:1074B400A3683A68934200D93B602B8862880333FF
:1074C40013442B806388033304EB8304DDE700BF9C
:1074D400542E002038B5144B14220D4602FB003004
:1074E4002B68446804F58051A3B15C88033403EB32
:1074F40084048C4215D22368013312D02046FFF74E
:10750400A3FF012808D002280BD00028F1D12C6059
:10751400012038BD0834ECE76388033304EB8304AB
:10752400E7E70020F5E700BF5C2E0020426873B552
:1075340004460D4662B3234BD9688A4228D31B699B
:107544009A4225D812F0030322D11F4900890989E0
:1075540088421DD120689168884219D11B49486826
:10756400824203D900F5805082420DD389698A4250
:107574000CD901F580518A4208D201222A80B3FA3B
:1075840083F0400902B070BD1A46F7E70A23F6E714
:1075940000232B801E460196288801A9FFF79AFF35
:1075A40030B92B8801339BB2012B2B80F3D9E9E747
:1075B400019B226899689142EED16360024B1B895A
:1075C4002381DFE7902B0020402E00205C2E00203A
:1075D4002DE9F8431C461C4B1B7806460F461546FE
:1075E4006BB372B36CB3DFF868804FF01409A388EF
:1075F400012B01D90A2020E009FB03F318F803301A
:107604002BB9A0882146FFF765FF20B92060A38825
:107614000133A380EBE723681EB199883288914235
:10762400EFD11FB119883A889142EAD19A68C5E925
:107634000023064B1B892B810020BDE8F883022020
:10764400FBE70520F9E700BF382E0020402E00207C
:107654005C2E002008B5074B5888191DFFF73AFF28
:1076640018B1BDE80840FFF7ADBEBDE80840FFF71C
:1076740049BE00BF402E00202DE9F04FA14FDFF896
:10768400A89289B00646B8463B6823B99E48494645
:1076940000F03AFD3860D8F8005029784B1E052BCD
:1076A40007D8DFE813F02100790079000901090106
:1076B4005E010F241422002103A80AF091FD41F673
:1076C4001D539C4208BF0024D8F8003004941A7853
:1076D400013A052A00F2EF81DFE812F0DB01DF0155
:1076E400FF010F021B02250226B1884B00225A60BB
:1076F4000124DFE72B79032B1DD8DFE803F0150203
:107704002A3583490B78022B084619D00B7D022BAE
:107714004FF0010316D114225343C2180020C85459
:107724005068FFF723FE03E001232B71FFF70AFEE5
:10773400002800F0BC80754B00225A600E24B9E783
:107744000023E8E7714A13700023536041F61D5487
:10775400B0E770497048002302222B718A800968BF
:10776400012201F0C1F8E3E76A4C00262E7120687B
:10777400674DFFF7FBFD694BD4F800C05A8814230A
:107784005343EA18EE5451682160A188C2F804C03A
:1077940011810222A280CBE7B5F814A0AA7DDFF8FC
:1077A40070B1AEB1022AEB8806D9142101FB0AB1EB
:1077B400DA1C088902440A81142202FB0ABAC3F5BE
:1077C4007F43BAF80A20FD331344AAF80A308FE73E
:1077D400142303FB0AB318895C6804EB8004062AAB
:1077E40068D8DFE802F0274D35431D59040041F6FF
:1077F4001D54AA7DEB88022A06D9142101FB0AB183
:10780400DA1C088902440A81142202FB0ABAC3F56D
:107814007F43BAF80A20FD331344AAF80A3049E733
:107824003F48404900234360AB690360FFF77EFE95
:10783400002859D00223AB75002300930423EA18CF
:107844002146354800F0BAFF002830D00E24D0E796
:107854002B69002B14BF03230123AB750023009372
:1078640005F10C02042304F10801EAE70123AB75D6
:107874000022EB8800922A699B0004F10C01E0E7E6
:1078840003290CBF05230623AB75002300930423AF
:1078940005F10802E118D4E70623AB75214B1988DA
:1078A4001F4B5868FFF772FD04460028A1D109B0A8
:1078B400BDE8F08F0F249CE7002E7FF419AF2B79DD
:1078C400012B33D0022B3FF441AF002B7FF4F1AEF8
:1078D40002232B710DF10A01EB68039303A8CDE990
:1078E4000466FFF723FE08B90A24E3E60498BDF80A
:1078F4000A108388EB8003882B81FFF747FD044639
:1079040025E000BF582E0020102F0020382E002024
:107914005C2E0020242F0020902B0020402E0020DD
:107924001C2E0020302F0020502E00207F4B03AA55
:107934003146A81DFFF74CFE7C4B044658B9998884
:107944000498FFF723FD04460A2C3FF4FFAE002CF5
:107954007FF4B0AEABE70822314618460AF040FC8B
:10796400F2E7002E7FF4C4AE714B1A7BB2B11E73E2
:107974001A78013A062A3FF69CAE01A151F822F08A
:107984002B7A0200517A02006F7A0200757A0200A3
:10799400B77602007B7A02008D7A02001A78072AF1
:1079A400E6D801A151F822F0CD79020075790200E0
:1079B40075790200F3790200077A0200277A02003F
:1079C400277A0200EF7902001A895A4901321A8192
:1079D40000225A801A730A78B2FA82F252099A7211
:1079E4000A7DB2FA82F25209DA72012207E05249A0
:1079F40058688A884088033202448A8002221A70B6
:107A0400B6E74C4C5A884C49142505FB02420868D9
:107A1400546850608888108102228A800C60062293
:107A2400EDE70722EBE79A7A32B9DA7A8AB90022CB
:107A34001A705A805A6089E63E4900229A72CA68CE
:107A4400002AF2D1097C0029EFD05A80FFF702FE08
:107A540055E70022DA72374A116A0029E7D192F811
:107A64002420002AE3D00122EFE7FFF7ABFC46E72E
:107A7400FFF748FC43E72F4A5B88142101FB0323EB
:107A84005868FFF773FC3AE700225A60FFF75AFC84
:107A940035E700238DF80C300DE001228DF80C2021
:107AA4001A89ADF818209A88DB680593ADF81A2076
:107AB40000238DF81C3003A8FFF7E6FB0026494697
:107AC4001E48C8F8006000F04AFB1D48012100F080
:107AD40000FC00287FF4D8ADE9E602228DF80C20E2
:107AE4001A89ADF818209A88ADF81A20DA689B7DB7
:107AF40005929A1F53425341DBE703228DF80C2071
:107B0400DA88ADF818201A89DB68ADF81A200593D5
:107B1400D1E704228DF80C20DB88ADF8183000235F
:107B2400ADF81A30F3E70523B4E700BF342F002083
:107B3400402E00205C2E0020242F0020102F002037
:107B4400202F00204068FFF797BD000008B50548C6
:107B5400012100F0A6FB18B9BDE80840FFF78CBD71
:107B640008BD00BF202F00202DE9F3419846354B76
:107B74001B7806460D46002B5BD000295BD0098894
:107B84004FF6FF73994258D06B88002B55D06B6821
:107B94009B0754D14AB92F890DF102013846FFF7EA
:107BA40083FB30B102B0BDE8F08113885788ADF88B
:107BB400023001A8FFF722FC044658B9BDF8023090
:107BC400214A142101FB032358890338C01B58811F
:107BD4000820E7E780F8008000238375BDF80230B1
:107BE40083826B6803610121184800F066FB2B88CF
:107BF4002381B8F1030F6B88A38004BF0423A3750A
:107C04004FF0000508BF3368E06008BFA361104867
:107C1400E780658101A900F067FA36B1E368336053
:107C24000C4B75601B89B5723381FFF78FFF002001
:107C3400B8E70220B6E70520B4E70420B2E7032042
:107C4400B0E700BF382E00205C2E0020542E002008
:107C5400102F0020402E002008B503460748026874
:107C6400042A08D00168064A42F82130012100F0B4
:107C740024FB002008BD0C20FCE700BF2C2F0020B3
:107C8400282E00202DE9F04F14228BB000210DEB9B
:107C940002000AF0A5FA754A137803F0FF01CDE952
:107CA40001123BB105A8FFF7EFFA002630460BB0EE
:107CB400BDE8F08F029B181D00F017FB0028F4D1DB
:107CC40040F6F8734FF080521B685C1C08BF684B89
:107CD400684C08BF1B6811695269581C08BF02FB35
:107CE40001F323616449A3F5405300222046E36075
:107CF40000F032FD039406460028D7D15F4960485E
:107D0400DFF88891DFF888811C238C2200F08DF93C
:107D1400B24635464FF0030B3446039BDF685744A5
:107D240038463946FFF778FB01284AD0032815D096
:107D3400002835D11421614308EB010208F8010041
:107D4400576001F110020831424441443846FFF7BC
:107D54008FFB45F002050134A4B221E007F58052FF
:107D64000868013074D104319142F9D1D9F8002066
:107D74003AB902220123C9F80070A9F8042001933A
:107D84000CE014226243022008EB020108F802000E
:107D94003C4A4F60548001340881A4B245F0010587
:107DA4000AF5805ABAF5405FB7D1BBF1010F98BF0D
:107DB4000025EDB2022D02D0062D20D045BB0B26A6
:107DC40074E7019B63B11422624308EB02010220B1
:107DD40008F802000134D9F800204A600881A4B2EE
:107DE40000222949C9F800703846FFF741FBB9F869
:107DF4000420022A0CBF042208221543D0E7029A69
:107E04000123137005A800235360FFF73DFA4DE7E3
:107E140004A8FFF7F3FAC8B10123013D03700A2D4A
:107E240009D8DFE805F006080608070807080F1157
:107E34000F000023037104A9114800F055F9FFF75E
:107E440085FE33E70323F5E70223F3E708262DE74E
:107E54000BF1FF321FFA82FB1422624308EB02018A
:107E64004F60032108F8021075E700BF382E002088
:107E740014100010902B002050580300842E002072
:107E8400102F0020402E0020282F0020242F002017
:107E94005C2E002073B50D460446C8B1C1B10DF186
:107EA4000601FFF743FBA8B10B4BBDF8060066685B
:107EB400142202FB003001210C3000F0FEF963684B
:107EC4002E600C336B600123A372002002B070BDDE
:107ED4000520FBE70A20F9E75C2E002013B50446D1
:107EE400A8B10DF10601FFF721FB90B10B4ABDF8D3
:107EF4000630142101FB0323DA6862B1A27A52B17D
:107F0400DA680020013ADA60A07202B010BD0520E0
:107F1400FBE70A20F9E70620F7E700BF5C2E002004
:107F240002230022FFF720BE18B103230022FFF72B
:107F34001BBE052070470000104B1B7813B5044688
:107F4400ABB14FF6FF73984213D001A8FFF756FA6E
:107F540088B10523037001230371C48001A9084873
:107F640000F0C2F8FFF7F2FD002002B010BD0220BD
:107F7400FBE70420F9E70820F7E700BF382E0020CC
:107F8400102F00200E4B1B7807B5A3B101A8FFF7F3
:107F940035FA90B10623037001A90A4800F0A4F849
:107FA400094B1A780AB101221A73FFF7CFFD00209A
:107FB40003B05DF804FB0220FAE70820F8E700BFED
:107FC400382E0020102F0020402E002007B5ADF8D9
:107FD4000600ADF804100DF1060001A9FFF7F8FA48
:107FE40003B05DF804FB07B51346ADF806000A4676
:107FF40000200DF10601FFF7EBFA03B05DF804FB76
:1080040007B51346ADF806000A460DF10600002137
:10801400FFF7DEFA03B05DF804FB20B119B1036881
:108024000B60002070470520704710B561B1B2FBAA
:10803400F3F403FB1424A4B244B9C0E9001484602B
:108044008281C381204610BD0E20FCE70920FAE797
:1080540082B050E8022FC188B2EB324F4FF00003D8
:1080640017BF92B241EA014142EA014104E0426889
:10807400B2EB324F08BF012340E80212002AE8D1D4
:108084008DF807309DF80730002B0CBF112000201D
:1080940002B0704737B550E8013F9DB2C48925440A
:1080A4008489A54228BF2D1B0489A54202BFBFF3C2
:1080B4002F8F002207E0C5EA030540E80154002C95
:1080C400E9D14FF001028DF803200193019B9DF843
:1080D40003200B6002F0FF0322B10B8800681844F0
:1080E40003B030BD1846FBE70A884B889A4209D191
:1080F40050E8012FC2EA024240E80123002BF7D1E5
:10810400012070470020704737B550E8023F1FFA3E
:10811400A3F5C488A54202BFBFF32F8F00220DE050
:10812400C48925448489A54228BF2D1BC3EA05457B
:1081340040E80254002CE8D14FF001028DF80320EE
:108144000193019B9DF803200B6002F0FF0322B111
:108154004B880068184403B030BD1846FBE70A8812
:108164004B889A4209D150E8022FC2EA224240E8E1
:108174000223002BF7D1012070470020704701F043
:108184001F024B090121914000EB830000F065B808
:108194004B0910B501F01F040121A14000EB83003D
:1081A40000F04FF8E04000F0010010BD01F01F03A3
:1081B40001229A404B0900EB8300D14300F065B8DB
:1081C4004B0901F01F0150F82300C84000F00100E2
:1081D40070472DE9F0474F1E7F0980460E46013750
:1081E400002558F8254008EB8509E44394FAA4F4E3
:1081F400B4FA84F44FEA451A202C06D10135AF4273
:10820400EFD834462046BDE8F0875444A642F5D959
:1082140021464046FFF7BCFF0028F3D0D9F80040C0
:10822400E44394FAA4F4B4FA84F4E5E710B50346FD
:1082340053E8000F0A4643E8002494F0000FF7D1F6
:1082440010BD10B5034653E8000F40EA010243E8AD
:10825400002494F0000FF6D110BD10B5034653E886
:10826400002F42EA010043E8000494F0000FF6D125
:1082740010BD10B5034653E8000F00EA010243E8BD
:10828400002494F0000FF6D110BD10B5034653E856
:10829400002F02EA010043E8000494F0000FF6D135
:1082A40010BD10B5034653E8000F00EB010243E88C
:1082B400002494F0000FF6D110BD10B5034653E826
:1082C400002F02EB010043E8000494F0000FF6D104
:1082D40010BD10B5034653E8002FA2EB010043E89C
:1082E400000494F0000FF6D110BD0121FFF7A9BFDF
:1082F4000121FFF7B2BF0021FFF7BBBF10B590B15A
:10830400D0E9012301689B1ADBB20A60013BDBB2AE
:10831400FF2B026802D10020107110BD11684C1CA3
:1083240014600B70F2E70E20F7E737B5054600241A
:108334000DF107008DF80740FEF76CFF2A686B68A3
:10834400116899420ED9481E106011F8014CEB686F
:10835400298A01FB0434AB6811791B1ADBB29942F8
:1083640038BF13719DF80700FEF778FF204603B06D
:1083740030BD37B5054600230DF107000C468DF8D6
:108384000730FEF747FF2A681368591C1160E96833
:10839400641A298AB4FBF1F41C709DF80700FEF7F7
:1083A4005DFF03B030BD826810B504462AB143694D
:1083B4000168006998470023A36010BD0EB403B59B
:1083C400039921B104AB01AA019300F077F802B03C
:1083D4005DF804EB03B070470A2938B504460D462E
:1083E40002D10D21FFF7F8FFA3682268591CA16090
:1083F400D554D4E901329A4204D32046BDE838402A
:10840400FFF7D1BF38BD00002DE9F84F9846DDE9EC
:108414000A43154682460F460A464FF00109AA420E
:108424000FD2C14538BFC14613F0010B01D16CB95D
:1084340000240126B8F1010F1BD908F1FF386E435F
:10844400F8E709F10109B2FBF5F2E8E79B070ED55D
:10845400B8F1000F0CBF30262026A145E9D2013C1B
:1084640031465046FFF7B8FF002CF6D1E0E720264E
:10847400F3E7B7FBF6F39D42E1D9DFF83C80B7FBA5
:10848400F6F3504618F8031006FB1377FFF7A4FF22
:108494003346AB42B6FBF5F6F1D2BBF1000F02D086
:1084A4000CB1A14501D3BDE8F88F20215046013C11
:1084B400FFF792FFF4E700BF655603002DE9F74F7D
:1084C400054617468846002900F0428118F8011B2A
:1084D40049B92B7B002B00F03B81284603B0BDE853
:1084E400F04FFFF760BF252940F0B780002698F8C9
:1084F40000302D2B424608F1010823D0302B24D024
:108504002B2B25D000242A2B02F1010123D13B6817
:108514001A1D1B683A601C440A4613782E2B26D178
:1085240001324FF0000A104610F8011BA1F1300C83
:10853400BCF1090F1DD80A2303FB0A13A3F1300A67
:108544000246F0E746F00106D1E746F00206CEE720
:1085540046F00406CBE711F8013CA3F130000928EA
:10856400DBD80A2202FB0434303C0A46CBE74FF046
:10857400000A12F8011B01F0FB0068289046F8D0AD
:10858400782909D86F290CD8632962D022D82529E3
:1085940063D0582900F0888098F80030002B95D1DA
:1085A40097E770390829F7D801A353F821F000BFE1
:1085B4002F8702009D8502009D850200BD86020072
:1085C4009D8502009B8602009D8502009D85020018
:1085D400AD860200642901D06929DDD13A68D2F858
:1085E4000090111D89EAE9723960A2EBE9724FF03B
:1085F400010B092A35DCD34538BFD3462CB1B9F178
:10860400000F01DB720700D5013CB30702D5BAF1B4
:10861400000F03D0F00701D44CBB0024B9F1000FC4
:108624002DDAC9F100092D212846FFF7D5FE06F001
:108634000302022A04D1BAF1000F01D11CBB0024A9
:10864400CDE9004653460A2249462846FFF7DCFE98
:10865400A2E73B681A1D19783A602846FFF7BCFE6A
:108664009AE70A230BF1010BB2FBF3F2C1E7A3452E
:10867400D4D220212846013CFFF7AEFECCE7710797
:10868400D5D52B21D0E7A345DAD230212846013CA9
:10869400FFF7A2FED2E73968CDE900460A1D3A6029
:1086A40053460A220968D0E739680A1D3A60CDE9C1
:1086B400004653461022F5E73B681A1D3A6016F04F
:1086C4000106D3F8009028D1B9F1000F03D0484631
:1086D40009F0B9FD0646B44200D904BB09F1FF39DB
:1086E40019F8011F00293FF457AF2846FFF774FE1D
:1086F400F6E728460136FFF76FFE19F80610002941
:10870400F7D1A642BFF448AF002C3FF445AF202177
:108714002846013CFFF760FEF3E70026EDE7202141
:108724002846013CFFF758FED5E73B681A1D3A601E
:10873400302128461C68FFF74FFE78212846FFF7B2
:108744004BFE00220823CDE90032214610227CE7AB
:1087540003B0BDE8F08F00BF13B50B46114680B9D6
:10876400104B1148114AC01A0E23C0080093104B35
:108774000004104940F0010002F0FBF90E2002B0A1
:1087840010BD4BB9074B08480B4AC01AC0080E234A
:1087940000930004064BECE703601B6802B0BDE8DD
:1087A40010401847E4540300445503007556030071
:1087B4000B5803007A560300A95603002DE9F34130
:1087C40088B93D4B3D483E4AC01AC0080E243D4B73
:1087D400009400043C4940F0010002F0CAF920462C
:1087E40002B0BDE8F0814AB9334B3448374AC01A65
:1087F400C0080E24334B00940004EBE7D0F800E0EB
:10880400BEF1000F09D12C4B2C48314AC01AC008C4
:1088140008242C4B00940004DCE74BB9264B274872
:108824002C4AC01AC0080924264B00940004D1E73E
:108834004568D5F80480B3FBF8F508FB15354DB150
:108844001D4B1E48244AC01AC00809241D4B00941D
:108854000004BFE78D0709D0174B18481F4AC01AF8
:10886400C0081024174B00940004B3E712F0030F60
:1088740009D0114B11481A4AC01AC0081024114BD0
:1088840000940004A6E7C568A9420BD34D1EEC185A
:108894000569AC4206D8DEF80C40A44602B0BDE837
:1088A400F0416047044B05480E4AC01AC008102422
:1088B400044B009400048DE7E45403004455030082
:1088C400755603001D5803007A560300F75603003B
:1088D400A3560300B6560300FD56030027570300B2
:1088E4003F57030062570300F7B580B92A4B2B4862
:1088F4002B4AC01AC0080E242A4B009400042A49AB
:1089040040F0010002F035F9204603B0F0BDD0F884
:1089140000C0BCF1000F09D11F4B2048234AC01AE4
:10892400C00808241F4B00940004E8E74AB91A4B16
:108934001A481F4AC01AC00809241A4B009400049C
:10894400DDE74768D7F800E00EF1FF370F4209D0A2
:10895400114B1248174AC01AC0081024114B009436
:108964000004CCE7C768B9420CD304694D1E0EFB62
:108974000255A54206D8DCF81040A44603B0BDE871
:10898400F0406047044B05480B4AC01AC008102445
:10899400044B00940004B2E7E4540300445503007C
:1089A40075560300305803007A560300A35603009B
:1089B400B656030089570300AF57030029DF7047F9
:1089C40028DF704770B503689E6886B004460D467C
:1089D4006EB114220021684609F002FCA3680593D5
:1089E400237901952BB1012B0DD06846B04706B011
:1089F40070BD01238DF8003023690293E36803936B
:108A040063690493F1E702238DF80030E3681B03E4
:108A14000293F5E70846704700207047024B187A26
:108A2400003818BF01207047D82F0020034B187A54
:108A34000122B0FA80F05A7440097047D82F002000
:108A440008B510461A4609F0A2FB002008BD000034
:108A540008B514220021044809F0C2FB0348FFF7BB
:108A6400F7FA002008BD00BFD82F0020C82F00202F
:108A740010B5094C094B43602046FFF736FC40B95A
:108A840009F064F8064920741C2306488C22FFF779
:108A9400CCFA002010BD00BFD82F0020445803009A
:108AA4003C2F0020C82F002070B5244C244E237A7C
:108AB40025463BB923492448FFF726FB306008B913
:108AC400606070BD022334682B72237973B1012B6B
:108AD40024D020460321FFF775FF00232B726B601F
:108AE40018491948BDE87040FFF739BBD4E905239C
:108AF400D21AB2F5805FD4E9031028BF4FF4805234
:108B04009208012A38BF012219441844FFF756FF7E
:108B140050B11128DDD101232B72D2E7D4E903032C
:108B24001844FFF74DFFF3E72B7C002BC9D1014616
:108B3400BDE87040022000F009B800BFD82F002023
:108B4400F02F0020EC2F0020C82F002038B5831E02
:108B5400012B45D8234C237A002B41D0022B09D179
:108B6400032830D0204B00221B68E2601A793AB106
:108B7400012A22D0637C7BBBBDE83840FFF794BF59
:108B8400D3E905128D1AB5F5805F94BF521902F529
:108B940080529A619142EDD102284FF0000308BF40
:108BA40019462372104B18BF0D211868FFF70AFFEE
:108BB4000E490F48FFF7D3FADCE71A6901321A614C
:108BC4005B699A42E7E7E3680133082B01D8E36065
:108BD400D0E70023E360DFE7BDE8384008F0A6BF34
:108BE40038BD00BFD82F0020F02F0020EC2F00202C
:108BF400C82F002000F0FD03012B08D1044B0022F4
:108C04005A74421E504250411874FFF74DBF7047CA
:108C1400D82F002010B5064C201DFFF766FB28B99D
:108C2400637C1BB9BDE81040FFF73EBF10BD00BF19
:108C3400D82F00202DE9F34180460D460F4801A9A5
:108C440016461F46FFF726FA0446A8B11C22002147
:108C540009F0C6FA2D0B0123237101A90748C4F8B2
:108C64000080A760E5606661FFF73EFAFFF7D2FF78
:108C7400002002B0BDE8F0810420FAE7C82F0020EC
:108C84002DE9F74381468846104801A917461E4638
:108C9400FFF700FA0446B0B11C22002109F0A0FA43
:108CA40000250A9BA36001A9C4E90378074825713C
:108CB400C4F800906661FFF717FAFFF7ABFF284688
:108CC40003B0BDE8F0830420FAE700BFC82F0020FA
:108CD4002DE9F84FB0F806A04579D2F800B09DF818
:108CE40028900AFB05F5043D88460BEB0301A942D5
:108CF40003F1040488BFA5EB030BB4FBFAF60746A3
:108D04000AFB1644C2F800B04EB9AAEB04055D454F
:108D140028BF5D46BBF1000F04D1BDE8F88F3F6862
:108D2400013EF1E7043408EB06003C442A46B9F15D
:108D3400000F0DD02146ABEB050B09F028FADA45FC
:108D44002E443F6855464FF0000428BF5D46E1E7D6
:108D540001462046EFE7FFF7D1BAF8B54679014658
:108D6400721E0546002393422D6803D30024A642B5
:108D740002D8F8BD0133F6E70F682846FFF7F9FA81
:108D840001343946F3E72DE9F843068ACD1C07463A
:108D9400FFF7CBFA043E35440446B5FBF6F5F0B1D3
:108DA4004FF48073EDB28380C680013D0760814635
:108DB4004FF00008A84512D23846FFF7B6FA064627
:108DC40048B163790133637108F10108C9F80000FF
:108DD40007608146EEE72046FFF7BFFF3446204692
:108DE400BDE8F88301210430FFF767BA10B501210B
:108DF40004460430FFF76DFA10F0FF0F04D120464B
:108E0400BDE81040FFF7A9BF10BD1FB503920022B3
:108E1400009203AAFFF75CFF05B05DF804FB1FB5E1
:108E240003920122009203AAFFF752FF05B05DF8F6
:108E340004FB41DF70470000064B10B500241C7092
:108E4400054B1C60BFF35F8F0449054800F00EF921
:108E5400204610BDFC2F0020003000207C58030069
:108E6400F42F002007B500230DF107008DF807301B
:108E7400FEF7D0F9F1EE103A23F09F03E1EE103A39
:108E8400BFF35F8F094B4022C3F884219DF807008C
:108E9400FEF7E4F908F05AFE20B1FFF7CAFF03B069
:108EA4005DF804FB20BF40BF20BFF8E700E100E00D
:108EB400026813685268934291BFD01A80680130E7
:108EC400801888BFC01A70472DE9F84303681E68EC
:108ED4005D68AE4284BF8368013317468846C26822
:108EE400416894BFAD1B9D1BBD42044606FB0211A5
:108EF4000CD37A43404609F04AF9A3683E449E42A3
:108F040088BF002623681E60BDE8F88305FB02F9CC
:108F14004A46404609F03BF9E26861687D1B6A43B2
:108F240008EB090009F033F923681D60ECE70368D6
:108F340081681A685B688B4234BF01330023D31AFB
:108F4400584258417047F7B5002304460DF1070015
:108F54000D468DF80730FEF75DF92046FFF7E7FF71
:108F640010B1237C002B3CD12268A6685368516859
:108F7400B14234BF01310021516030B11168A068A1
:108F8400814234BF013100211160E2686068511EE2
:108F9400072920D8DFE801F004101F141F1F1F1831
:108FA4002A78C2542046FFF783FF23689A688242D6
:108FB40000D29860002415E02A8820F81320F1E7F5
:108FC4002A6840F82320EDE7D5E9006700EBC300E9
:108FD400C0E90067E6E7294602FB030009F0D7F879
:108FE400E0E704249DF80700FEF738F9204603B0B3
:108FF400F0BD7FB5054601911446AAB10DF10F00ED
:1090040000268DF80F60FEF705F92846FFF750FF9C
:10901400A04201990BD322462846FFF755FF344658
:109024009DF80F00FEF71AF9204604B070BD052420
:10903400F6E737B5044600250DF107008DF8075013
:10904400FEF7E8F80C222946206809F0C9F89DF8D3
:109054000700FEF703F903B030BD836800225A60AD
:10906400C3E904229A60DA601A6070470B684A68A0
:109074004360934208BF0023016008BF4360704708
:10908400436843B10268916852680B449342436059
:1090940004BF00234360704710B50D49A1F59472D5
:1090A400914201D800200FE08C1AE30F03EBE40394
:1090B4005B1002EBC30452F83330834205D802D26A
:1090C40004F10802ECE7606810BD2146E8E700BF40
:1090D400805D030008B5FFF7DFFF024B002808BFDF
:1090E400184608BD425C03000B7B23B14B68036048
:1090F4000023037170470B6803600123F9E70368D9
:109104004A68896810B5D41A8C428BBF5B18002357
:109114000360026098BF037110BD03680A68896820
:1091240010B59C1A8C428BBF5B1A0123036002604A
:1091340098BF037110BD037910B504461BB1FFF746
:10914400DEFF206810BDFFF7E8FFFAE738B5074CEB
:10915400051E04F1080318BF1C4623682BB11A68C6
:1091640022605B6828469847F7E738BD0C3000203A
:1091740020B9054B01225A70FFF7E8BF012802D13C
:10918400014A9070F8E770470430002020B9034B7F
:1091940001225A70FFF7DABF704700BF0430002085
:1091A40038B50B4C237883B90A486360A360236104
:1091B400E36000F0A9F9054608F0C8FC08B900F01E
:1091C400AFF901232370284638BD8525FBE700BF8E
:1091D400043000207591020037B50B4C00230DF1CB
:1091E40007008DF80730FEF715F8E368013BE360EC
:1091F400E56815B900F0A6F9A5709DF80700FEF71B
:109204002DF803B030BD00BF04300020012813B591
:1092140008D003281CD018B9104B0122C3F88020B1
:1092240002B010BD0E4C00230DF107008DF807307D
:10923400FDF7F0FF23780BB9FFF7B2FFE3689DF861
:1092440007000133E3600123A370FEF707F8E7E7A3
:1092540000F066F9FFF7C0FFE2E700BF00E100E0BD
:109264000430002031DF70471FB500238DF807005C
:109274000DF10F008DF80F30FDF7CCFF08F066FC00
:1092840050B909480DF10701FFF75DFE0648FFF7E5
:109294004EFE08B100F0F6FB9DF80F00FDF7DEFF6F
:1092A40005B05DF804FB00BF8454030007B520B18A
:1092B40003280BD003B05DF804FB0F4B1B78012B84
:1092C400F8D100F0DFFB00F0E5FBF3E700230DF13C
:1092D40007008DF80730FDF79DFF07480378012B41
:1092E40005D10649013000F08DFB00F0B9FB9DF873
:1092F4000700FDF7B3FFDDE7683000206D92020040
:1093040013B5124C2378FBB9114A8DF807300028A5
:1093140008BF10460288A4F801200DF10700FDF7EC
:1093240079FF08F013FC30B90A49601C00F06AFBAD
:1093340040B900F095FB9DF8070001232370FDF769
:109344008DFF002002B010BD8520FBE768300020AF
:109354008A5D03006D92020007B500230DF107003A
:109364008DF80730FDF756FF08F0F0FB18B900F050
:1093740089FB00F08FFB9DF80700FDF76FFF0448A1
:10938400FFF757FE034B00221A7003B05DF804FB8D
:1093940084540300683000202DE9F7430024DFF8EB
:1093A400589005460E46A0460DF107008DF807803B
:1093B400FDF730FF08F0CAFB074638B932462946A4
:1093C4004846FFF716FE044600F04AFB9DF80700E6
:1093D400FDF744FF47B131462846FFF743FF42F209
:1093E40007039842044605D0022CDDD0204603B082
:1093F400BDE8F0830524F9E784540300F8B5054675
:109404000C4604B9F8BD402C264628BF4026F7B2C6
:1094140039462846FFF7C0FF0028F9D1A41B35447C
:10942400EFE700001FB503788DF80030436801931F
:1094340083688DF80830C368054A0393054B684672
:1094440053F8213052F82110984705B05DF804FB19
:109454006C300020703000201FB503788DF8003088
:109464004368019383688DF80830C368054A039301
:10947400054B684653F8213052F82110984705B03F
:109484005DF804FB6C30002070300020F0B5194BFF
:1094940090F800C091F81DE043F82C20164B1646B6
:1094A4000A6943F82C20154B03F80CE00C460746D8
:1094B4000FCC89B06D460FC594E80F0085E80F0006
:1094C400CDF810C0BEF1000F09D0002E0C4A694639
:1094D40008BF3246381D00F0CFFD09B0F0BD002EA4
:1094E400084A694608BF324607F10C0000F0D6FB73
:1094F400F3E700BF703000206C300020743000208F
:10950400299402005D940200044A137923B90121CD
:10951400106091801846704785207047783000208D
:10952400074B1A68D2075FBFC02283F800230122C9
:109534001A604FF080430122C3F81825704700BF1A
:1095440000E100E0044B01221A604FF08042D2F89F
:109554001834DB03FBD470470C000040154B07B5EF
:109564001A687AB100221A601B680093009B4FF0BE
:1095740080430122C3F808230F4B587910B95A715C
:109584001B6898470D4B1A6882B100221A601B6849
:109594000193019B4FF080430222C3F80823064B3A
:1095A4001B68012003B05DF804EB184703B05DF8B5
:1095B40004FB00BF0001004078300020040100409B
:1095C40000F1804000F5C040002382B003600368CE
:1095D4000193019B02B07047800000F1A040D0F8D5
:1095E400002722F44032C0F80027D0F8003743EABD
:1095F4000141C0F800177047054B4FF0FF320728B0
:1096040043F8202084BFC01880F84820704700BF6A
:109614008030002010B5174C94F8583043BB04F147
:1096240030032021FF22013911F0FF0103F8012B3F
:10963400F9D1C8B2FFF7E0FF01310C29F9D10422B6
:1096440000210D4808F0CCFD0C4BC02283F8062302
:1096540040221A604FF4BE70FFF7B2FF084B4FF080
:109664000042C3F80423012384F85830002010BDBD
:109674000820FCE780300020D430002000E100E026
:1096840000600040034B93F85800003818BF0120D5
:10969400704700BF80300020F0B5364D2C1894F987
:1096A4003040002C64DA8C78C4F34004002C0BBFE7
:1096B400082300230C260826B34201D10420F0BD60
:1096C40055F8237001373FD12E1845F8232086F82A
:1096D400303014B9EA1882F848008A78540713D451
:1096E400D60733D5820002F1A042D2F8004724F015
:1096F4000204C2F80047204EC20800F00707012404
:10970400BC40B75C3C43B4548A780C7812F0020233
:1097140025D09B0003F1804303F5C0430202D3F834
:10972400101521F4473121F44071C3F810152404B5
:10973400D3F8101502F4F85204F4403422430A43D7
:10974400C3F810250020BAE70133B5E74C7800F5DB
:10975400E0724FF0A046A40046F82240CBE7083B55
:109764002B4493F8501041EA841483F85040E9E7FD
:109774000820A4E780300020D430002038B51F4CE6
:10978400251895F93020072A16DD224492F848302E
:109794009B09032B0BD14FF0A043D3F81015C14004
:1097A40001F001010231BDE83840FFF715BF012B7C
:1097B4000CBF02210321F6E7D3B2072B1CD8930078
:1097C40003F1804303F5C043D3F8100540F00100D2
:1097D400C3F8100502F14000800080B2FFF7F0FEEC
:1097E40051B195F9303054F823302BB1012303FAE9
:1097F40002F2034BC3F8042338BD00BF80300020BD
:10980400006000404FF0A043D3F8103523FA00F075
:1098140000F00100704700002DE9F04F87B00024EC
:109824005A4D03944FF48072012102F1804303F5F1
:10983400C04390B21B68012B06D1D5F804330B4208
:1098440002D0FFF7BDFE0C430432B2F5907F4FEA1D
:109854004101EAD14E4B1B68012B0AD14FF4BE7073
:10986400FFF7AEFE4FF0A04344F00044D3F81035A8
:10987400039314F0FF0F1AD0464F002501263442FB
:1098840010D0AB0003F1804303F5C043D3F81005B7
:10989400D3F8101557F8253023B1C1F30141C0F3B3
:1098A400042098470135082D4FEA4606E7D1002CDD
:1098B40065DA00214FF0FF33CDE90413354D01275C
:1098C4004FF0000A344ED1464FF0A04816F9013B40
:1098D4005A1C45D0C3F3C20106AA5018DCB210F8D2
:1098E400042C03F03F0B03F0070307FA03F31A42B7
:1098F40036D005EB0B02A40992F9302055F822204A
:1099040052B9032C2CD10DF1100E1EF801C04CEAF3
:10991400030C0EF801C001E0032CF4D00BF5E07148
:1099240010F80C0C58F821101842C1F3014105D06D
:10993400022915D1032C0FD1214604E003290FD1AC
:10994400032C09D102215846019209F10109FFF7BC
:1099540043FE019A5FFA89F912B1214658469047AD
:109964000AF1010ABAF1040FB0D1B9F1000F06D01F
:109974004FF0A043039AD3F81035934202D107B0B5
:10998400BDE8F08F0393049B059399E700600040C2
:109994007C61004080300020D0300020014B1B68E7
:1099A400184700BFDC3000200E4B984237B50C46F8
:1099B40002D0002003B030BD00230DF107008DF864
:1099C4000730FDF727FC084B1D7915B901221C60EF
:1099D4001A719DF80700FDF741FC002DE9D0112014
:1099E400E8E700BF00200040DC300020034B984231
:1099F40001BF034B00221A601A7170470020004017
:109A0400DC30002010B5124C2278FAB9114B1960E1
:109A1400037813F0010F104B1EBFD3F8042542F056
:109A24000102C3F80425D3F8002222F00102C3F88E
:109A340000224378094A5B01DBB282F80D334FF40C
:109A44000053136001232370002010BD8520FCE720
:109A5400E8300020E430002000D0004000E100E0C5
:109A6400064B00221A6082B01B680193019B044BD1
:109A74000122C3F804231A6002B0704700D10040E9
:109A840000D00040024A0123C2F8083353607047F3
:109A940000D00040064A0123C2F808335360054B46
:109AA4004FF40052C3F88020034B00221A70704711
:109AB40000D0004000E100E0E8300020074B002225
:109AC4001A6082B01B680193019B054BD3F808050B
:109AD400044B1B68C0B202B0184700BF00D100405D
:109AE40000D00040E43000200023435082B04358AB
:109AF4000193019B02B070470A4610B54FF48E7172
:109B0400FFF7F2FF136A9168C95C136A01331362A9
:109B1400C0F81C1510BD8B690A4610B54FF484714A
:109B240023B9FFF7E1FFD0F8183510BDFFF7DCFFCC
:109B3400536AD168D0F81805C854536A0133536284
:109B4400F3E700001FB501238DF80030044BCDE985
:109B54000110D3E900126846904705B05DF804FB94
:109B6400EC30002030B54B48D0F8043313F4007FB8
:109B740085B005464DD0D0F82431002B49D04FF4A0
:109B84009271FFF7B1FF4FF40173C0F80833424BF1
:109B940093F829200AB9012242603E4902228DF835
:109BA4000020D1F88024C1F8802403929A6902929B
:109BB400DA6801920022C3E906226846D3E900125A
:109BC40090473448D0F81C315BB133490A6A4B6979
:109BD4009A420A464AD291F82830002B46D1FFF720
:109BE4008BFF2C48D0F844318BB14FF4A271FFF7AE
:109BF4007BFF294B93F829200AB1012202609A695C
:109C04002AB10022586AD9689A61FFF79BFF05B010
:109C140030BDD5F804335B07D3D5D5F80831002B14
:109C2400CFD01D4C1B482146FFF775FF636AA2691C
:109C34009A422346C5D1E269E1684AB12369E360E7
:109C44000023606AA261E3616362FFF77BFFB8E708
:109C540094F829200AB901226A600E4A4FF401706F
:109C6400C2F808030022586A9A61EEE74FF48E7135
:109C74000848FFF739FF51690029B2D00023029147
:109C840091688DF80030019153616846D2E9001360
:109C94009847A6E700200040EC3000202DE9F84367
:109CA400574B057991462C2202FB0532064692F861
:109CB4002A200C469846002A40F09D8051490068AD
:109CC400FFF772FE0746002840F09780216833684A
:109CD400481C0BD04FF0A04001228A40C0F8082550
:109CE40001F5E0724FF0030C40F822C06068421C9A
:109CF4001FBF00F5E0724FF0A04C4FF0000E4CF87F
:109D040022E0A269C3F8242594F814C0627DBCF152
:109D1400010F4CEA0202C3F86C25C3F81405C3F81A
:109D24000C151DD1A1684A1C1FBF01F5E0724FF04C
:109D3400A0404FF0000C40F822C0E268501C0BD049
:109D44004FF0A04C01209040CCF8080502F5E070DB
:109D54004FF0030E4CF820E0C3F80825C3F81015A3
:109D64002C236B4308EB0302C2F80490226948F8E1
:109D74000320B9F1000F2BD03068247F4FF48E718B
:109D8400FFF7B2FE30684FF4A271FFF7ADFE326800
:109D94001D4BC2F80433110B42F30732002AA8BF4B
:109DA40002F160404FEA4413BABF184801F00F04AF
:109DB40000F56140DBB2B4BF035580F8003301F015
:109DC4001F01012303FA01F15209114B43F8221038
:109DD40033680422C3F800252C2303FB05830022E7
:109DE400C3E9062283F829205A61012283F82A2034
:109DF4003846BDE8F8830827FAE71127F8E700BFDB
:109E0400EC300020699B02008000020014ED00E0A9
:109E140000E100E0F8B5047900682C4D0023C0F897
:109E240000352C2303FB04535B686BB1284BC0F84B
:109E3400083340F30733C0F304315B0901228A403D
:109E44002033244941F82320D0F80C65D0F81415A8
:109E5400D0F80835D0F810254FF0FF37BE42C0F8CF
:109E6400147518BF06F5E076C0F80C75C0F80875CF
:109E7400C0F810751EBF4FF0A0474FF0020C47F812
:109E840026C04E1C1FBF4FF0A04601F5E07102270B
:109E940046F82170511C1FBF4FF0A04102F5E0723B
:109EA400022641F822605A1C1FBF03F5E0734FF0ED
:109EB400A042022142F82310FFF798FD2C2303FB54
:109EC4000454002384F82A306360F8BDEC30002089
:109ED4008402020000E100E02DE9F843204B0779F9
:109EE4004FF02C0909FB0734054666699846002E95
:109EF40033D100686261A16026624FF48E7184F8E8
:109F04002860FFF7F1FD2868012383602146FFF7ED
:109F1400F3FD6368A14683B92868226A63699A429B
:109F240011D32B68D3F81C21002AFBD00122DA605C
:109F34002C2303FB078300225A613046BDE8F883D3
:109F440094F828303BB9D0F81C31002BF8D049469E
:109F5400FFF7D2FDE1E70F26EAE71126EDE700BFA0
:109F6400EC3000200023435082B043580193019BFE
:109F740002B070471FB501238DF80030044BCDE9C2
:109F84000110D3E900126846904705B05DF804FB60
:109F9400183100207FB5364AD2F82461002E46D00D
:109FA40010464FF49271FFF7DDFF02238DF8003065
:109FB400D2F88034C2F880340393D2F83C3502934B
:109FC4002C4BDA6801920022C3E906226846D3E9E1
:109FD400001290472648D0F8443173B14FF4A2716F
:109FE400FFF7C0FF234B9A693AB10022C3E9062266
:109FF400D968D0F83C05FFF7BDFF1D48D0F82031E3
:10A004009BB14FF49071FFF7ADFF1A4B5A6962B1DF
:10A01400D0F84C150291002299688DF80020019126
:10A024005A616846D3E90012904704B070BDD2F873
:10A034001031002BCED04FF488711046FFF792FFF9
:10A044000C4BD2F83C0599698842C3D1DC69D968C4
:10A0540064B1D2F8005225F02005C2F800521A6902
:10A064009C61DA60DE61FFF785FFB3E79C61FAE784
:10A0740000200040183100202DE9F8435B4B06799D
:10A084009146242202FB0632044692F820200D4613
:10A094009846002A40F0A58055490068FFF784FCE3
:10A0A4000746002840F09F8029682368481C0BD08D
:10A0B4004FF0A04001228A40C0F8082501F5E07263
:10A0C4004FF0030C40F822C06868421C1FBF00F523
:10A0D400E0724FF0A04C4FF0000E4CF822E0AA6959
:10A0E400C3F8242595F814C06A7DBCF1010F4CEA2D
:10A0F4000202C3F86C25C3F80C15C3F814051DD16E
:10A10400A9684A1C1FBF01F5E0724FF0A0404FF050
:10A11400000C40F822C0EA68501C0BD04FF0A04C51
:10A1240001209040CCF8080502F5E0704FF0030ED2
:10A134004CF820E0C3F80825C3F810152423734312
:10A1440008EB0302C2F804902A6948F80320B9F125
:10A15400000F35D020682A7F4FF48871FFF702FF83
:10A1640020684FF49071FFF7FDFE20684FF4927160
:10A17400FFF7F8FE20684FF4A271FFF7F3FE23689F
:10A184001C49C3F80413190B43F30733002BAEBF68
:10A1940003F1604001F00F0517484FEA4212A8BFCF
:10A1A40000F56140D2B2B4BF425580F8002301F0FB
:10A1B4001F01012202FA01F15B09104A42F823103F
:10A1C40023680822C3F80025242303FB0683002206
:10A1D400C3E906225A61012283F820203846BDE8EB
:10A1E400F8830827FAE71127F8E700BF18310020A1
:10A1F400999F02001003020014ED00E000E100E06A
:10A20400F8B5047900682C4D0023C0F800352423E8
:10A2140003FB04535B686BB1284BC0F8083340F36D
:10A224000733C0F304315B0901228A4020332449F7
:10A2340041F82320D0F80C65D0F81415D0F808356F
:10A24400D0F810254FF0FF37BE42C0F80C7518BF88
:10A2540006F5E076C0F81475C0F80875C0F81075F6
:10A264001EBF4FF0A0474FF0020C47F826C04E1C0B
:10A274001FBF4FF0A04601F5E071022746F8217098
:10A28400511C1FBF4FF0A04102F5E072022641F8B5
:10A2940022605A1C1FBF03F5E0734FF0A042022155
:10A2A40042F82310FFF7A2FB242303FB04540023EA
:10A2B40084F820306360F8BD1831002010030200D8
:10A2C40000E100E001F06043B3F1005F2DE9F041EB
:10A2D400064632D11B4B0779242505FB07359846E2
:10A2E4006C6964BB6A610068A9604FF49071FFF700
:10A2F40039FE4FF4AC713068FFF734FE33686A6995
:10A30400A968C3F84415C3F8482501229A606A680D
:10A3140062B9D3F82021D3F8584152B9002CF8D0AF
:10A324000F24242303FB078700237B612046BDE819
:10A33400F081002C18BF0F24F3E71024F6E7112452
:10A34400F4E700BF18310020054A4FF0A043105C29
:10A35400D3F8043523FA00F0C04300F0010070473D
:10A36400B05D0300044B1A5C012393404FF0A042FC
:10A37400C2F80C35704700BFB05D0300044B1A5C93
:10A38400012393404FF0A042C2F80835704700BF44
:10A39400B05D030008B50020FFF7F0FF0120FFF7D0
:10A3A400EDFF0220FFF7EAFFBDE808400320FFF7B6
:10A3B400E5BF08B50020FFF7D5FF0120FFF7D2FF66
:10A3C4000220FFF7CFFFBDE808400320FFF7CABF14
:10A3D400074A4FF0A041105CD1F8043501228240B5
:10A3E40022EA03001340C1F80805C1F80C35704790
:10A3F400B05D0300054A4FF0A043105CD3F810355C
:10A4040023FA00F0C04300F001007047AC5D030084
:10A414000D2809D00E2809D00F2809D010280CBF08
:10A4240003204FF0FF307047002070470120704731
:10A4340002207047014B185C704700BFAC5D0300FD
:10A44400C20708B501460CD54FF0A0430322C3F858
:10A454004427C3F84827C3F84C27C3F85027FFF70D
:10A4640099FF8B070AD54FF0A0430C22C3F8342779
:10A47400C3F83827C3F83C27C3F8402708BDF0B514
:10A4840095B01D46164608460C46FEF7ABFC1A9BD3
:10A494000D93CDE9086500252B46082205A9204621
:10A4A4000A958DF82C500C95FEF7B9FC079B029386
:10A4B400069B03939DF814308DF8115003F00302AA
:10A4C400012A1DD1BDF81420059DC3F3C203C2F3B4
:10A4D40083168DF81030B20008230EA92046FEF72B
:10A4E4009EFCC5F3952508AB0093324602AB0EA93A
:10A4F400284600F001FC2046FEF778FC15B0F0BDBC
:10A50400022AF8D1BDF81650C3F3C203C5F3891566
:10A514008DF810300827082D2E4628BF08263B4604
:10A5240032460EA92046FEF77AFCAD1B08AB02AA00
:10A5340031460EA8374400F043FC002DEBD1DAE796
:10A54400014B01221A7070477D31002070470000D2
:10A5540070B5124D06460FCD88B06C460FC495E811
:10A564000F00002E84E80F004FF0FF334FF0060277
:10A57400CDE90023CDE90233094A0A484FF0EB73D1
:10A5840008BF002269460693FEF780FF08B1FCF776
:10A5940043FB054B1E7008B070BD00BFB45D0300E3
:10A5A40045A50200A42B00203C31002007B5044B34
:10A5B4000093044A4023FFF762FF03B05DF804FBF5
:10A5C400CDA502003D31002038B50D4B0D4D0020C6
:10A5D40018700D4804782D5DD2B21C4665B1043064
:10A5E400FFF770FE08B1FCF717FB084B1A7812B19D
:10A5F4002378002BFBD038BD0C30FFF76DFCF1E75E
:10A604007D31002074300020A42B00203C31002038
:10A6140008B50848084A0378D35C3BB10430FFF717
:10A62400EFFDBDE808400020FFF792BF0C30FFF7B4
:10A63400F1FBF6E7A42B0020743000200120FFF783
:10A6440087BF000008B5FFF7F9FF0448042100F0B4
:10A65400BBFA034B01225A7108BD00BFC455030065
:10A66400B82B0020037813F0040216D003F0030380
:10A67400012B03D0022B09D0012070470A680088FF
:10A684000232C0F3831002440A60F5E70B68428883
:10A69400023303EB92130B60EEE7104670470000A1
:10A6A4002DE9F04F87B000230446861C0DF1070006
:10A6B4000F4615468DF80730FCF7ACFD4548016898
:10A6C4003960D0E90132134401335B1A824600F247
:10A6D4001C4700F5836900F21448B3421CD30020E0
:10A6E400002D73D004F00F039B0143F0050363F3C3
:10A6F4000F00DAF80020DAF8083013400333164468
:10A704004AF823009DF80700CAF80060FCF7A6FD8C
:10A71400012007B0BDE8F08F01213846FDF7CDFDDB
:10A724004846FDF7E5FD4046FDF7E2FDDAF8040092
:10A73400DAF808B0029000EA0B0003300AEB80005C
:10A7440002A9FFF78FFF029B50BB0BEA03020AEB3F
:10A75400820203F1020CD2680392013303EA0B0B69
:10A764000AEB8B0B02F00302012ADBF80C10CDF884
:10A7740008C023D0022A16D083464046FDF7BBFD0D
:10A7840010B1029BCAF8043059463846FDF795FDCE
:10A79400DAE901231344DAF8002001339B1A9CE719
:10A7A4000BEA0300C9E7BDF80E30C3F38913033382
:10A7B4004FEA114B0CEB93030293DEE7BDF80C3028
:10A7C400C3F383134FEA114B6344F5E7A40544F044
:10A7D40006008EE7503200200B4B0C48FF2210B5C8
:10A7E4009A600022C3F81824C3E90022C3F8142491
:10A7F40083F82024FEF7AFFA044610B90448FEF7A4
:10A804002CFC204610BD00BF50320020C854030069
:10A81400085E030030B50A4C71B10A4A0A49121B9A
:10A82400D20800239A4201D1002030BD31F82350D0
:10A83400854202D00133F5E7034654F83300F4E7C8
:10A84400E4540300C4550300A42B0020094B013930
:10A8540003EBC000032909D8DFE801F00A0204066B
:10A864000420704700797047407970470020704792
:10A8740002207047E4540300034BD3E90030C31AA9
:10A8840058425841704700BF503200202DE9F04330
:10A8940087B0FFF7F1FF0646002840F0F9807D4DB0
:10A8A400C5F81804BFF34F8F6B68AC68029323405C
:10A8B400033305EB830002A9FFF7D4FE029B18B112
:10A8C400D5F81824002A5FD004EA0302991C013346
:10A8D40005EB8202234005EB8303D268DB68049313
:10A8E40002F00303022B0392029160D1BDF80E30F3
:10A8F4006948C3F38917502FB84628BF4FF0500852
:10A9040068F38F1308F10801ADF80E30FEF73BFA37
:10A914000646002800F0A780FEF764FA0023082208
:10A9240003A93046FEF771FA029924EA01020132C2
:10A93400B8EB820F4FEA820332D95FFA88F85BB32F
:10A944002140DCB2A8EB040803315FFA88F9A04681
:10A95400524C05EB8101082342463046FEF755FA76
:10A9640034B108F108034A4621463046FEF74DFA51
:10A97400029B033703EB97070297D5F81834002B93
:10A9840049D1D5F8104459E02A689A428FD86A60B0
:10A99400304607B0BDE8F08340491C469946DAE7E3
:10A9A4000C40E11C0823424605EB8101DDE7012B45
:10A9B40059D1BDF80C303848C3F38311062928BF98
:10A9C400062161F3891302318900ADF80C30FEF7DA
:10A9D400DAF90646002846D0FEF704FA00230822D6
:10A9E40003A93046FEF711FA0027BDF80C20C2F384
:10A9F4008312BB00974203F10803BED202994A1C9A
:10AA040021400331029205EB810104223046FEF716
:10AA1400FCF90137E9E73046FEF7E8F9FFF72CFFC8
:10AA240080F00100C6B2B3E7E3685B7923B1236821
:10AA340031461B6820469847E3681C68002CF3D114
:10AA44003046FEF7D3F90DF107008DF80740FCF707
:10AA5400E1FBD5F818340BB9029B6B609DF8070035
:10AA6400FCF7FCFBDAE7D5F8104454B90C4B0D485D
:10AA74000D49C01AC008000440F0020000F062F85A
:10AA8400CCE7236820469B689847E3681C68ECE79A
:10AA940000267DE750320020C85403005C320020B9
:10AAA400E454030014550300F15D03002DE9F74F4E
:10AAB400224D04460F46924601A901221846D5F8B4
:10AAC40008909B46FFF7ECFD20B3019E4FF0000871
:10AAD400B21CD84508EB020126D119480021FDF724
:10AAE400A5FB80F31000000440EA1440E400731C4A
:10AAF40004F0380403EA090306EA090644F00104F1
:10AB040005EB8303033644EA881444EA8724D860B7
:10AB140045F8264095F820341BB1FFF7B7FE00280E
:10AB2400FBD103B0BDE8F08F09EA010105EB810117
:10AB34005AF82830CB6008F10108CAE750320020E7
:10AB44006C36002000231A46FFF7B0BF07B5012377
:10AB5400019201AAFFF7AAFF03B05DF804FB07B551
:10AB6400CDE9002302236A46FFF7A0FF03B05DF896
:10AB740004FB1FB5CDE90123069B039301AA03231C
:10AB8400FFF794FF05B05DF804FB1FB5CDE9002382
:10AB9400069B0293079B03936A460423FFF786FFF1
:10ABA40005B05DF804FB7FB5CDE90123089B039351
:10ABB400099B04930A9B059301AA0523FFF776FFDB
:10ABC40007B05DF804FB000030B50F49D1F810243C
:10ABD40003460020144634B9DC6820714AB9C1F830
:10ABE4001034226030BDE4682579854206D024689B
:10ABF400F1E7D268116821601360F3E701300A2895
:10AC0400E8D14FF0FF30EDE750320020094A38B563
:10AC14000123D2F8104482F820341D4604B938BD0B
:10AC2400E3685D71236820465B689847E3681C68A5
:10AC3400F4E700BF5032002007B503460846197AEE
:10AC4400052911D05B7A2BB1094A0A490190FDF715
:10AC5400B5FB019808490190FDF7B0FB019803B0DA
:10AC64005DF804EBFDF79FBB002AF8D0F2E700BFC4
:10AC7400145E03004B930300365E030030B5C388B3
:10AC840085B004460D4633B1144A00921449154A5E
:10AC94002846FDF793FB217A05291DD0637A4BB131
:10ACA400A088FFF7D3FD104B104953F82020284605
:10ACB400FDF784FB227A0E4BA08853F822200392DE
:10ACC4000021FFF7A7FD039A0A490346284605B069
:10ACD400BDE83040FDF772BB05B030BD145E030023
:10ACE400215E0300195E0300A05E03004B93030082
:10ACF400C45E0300395E03002DE9F04385B01F46AE
:10AD04000C9D002395F80C902B7306460C46904638
:10AD140029463846FFF7B2FFB8F1060F09D8DFE835
:10AD240008F00412181F2833400031462846FDF766
:10AD340045FB002229463846FFF77EFF85F80C9034
:10AD440005B0BDE8F083226831462846FDF736FB9E
:10AD5400EFE7D4E9002331462846FDF72FFBE8E767
:10AD6400A36800933146D4E900232846FDF726FB67
:10AD7400DFE7E3680193A36800933146D4E9002335
:10AD84002846FDF71BFBD4E723690293E36801938C
:10AD9400A36800933146D4E900232846FDF70EFB4F
:10ADA400C7E76369039323690293E3680193A36884
:10ADB40000933146D4E900232846FDF7FFFAB8E7AB
:10ADC40008292DE9F74F80460E4617461C463CD805
:10ADD400002593F80C901D7319461046FFF74EFF9B
:10ADE400DFF888A0DFF888B0AE4231D918F8052022
:10ADF40059462046FDF7E2FA0135082DF4D11949E8
:10AE0400194DDFF870A02046FDF7D8FA4FF0000B7B
:10AE14005E4522D918F80B207E2A05D810460192E7
:10AE240007F060F9019A00B92E2251462046FDF739
:10AE3400C5FA0BF1010BBBF1080FE9D10122214640
:10AE44003846FFF7F9FE84F80C9003B0BDE8F08FA4
:10AE540051462046FDF7B2FACEE729462046FDF7D3
:10AE6400ADFAE6E74D5E03004B5E0300495E030066
:10AE7400435E03004F5E03004FF48C72002107F021
:10AE8400AFB920B100F58C730022984200D170470D
:10AE940000F8012BF9E70000C02AF0B541D0B2F563
:10AEA400807F40D0802A40F0C5800A230446036096
:10AEB40000F10803520944F8043F01EB82028A427C
:10AEC40033D103680C2B3ED00E2B6CD00A2B26D129
:10AED4005A4D5B4900F1A006426955F8044B876856
:10AEE400C2F307237C40CB5C6340140E10300C5D2E
:10AEF40083EA0443D4B20C5D83EA0463C2F30744D7
:10AF04000C5D83EA042350F8044C836063400468B6
:10AF1400C36063400361534043618642DCD1002037
:10AF24008AE00C23C2E70E23C0E78B784D781B041C
:10AF340043EA05230D782B43CD7843EA056344F8AF
:10AF4400043F0431BBE73D4C3D4900F1C005C269F3
:10AF540054F8046B8768C2F307237E40CB5C7340CC
:10AF6400160E18308E5D83EA0643D6B28E5D83EAF0
:10AF74000663C2F307468E5D83EA062350F80C6C21
:10AF84008360734050F8086CC360734050F8046CDD
:10AF94000361734006684361734083615340C36136
:10AFA4008542D4D1BBE7254D254900F1E006446A2A
:10AFB40055F8042B8768C4F307237A40CB5C876970
:10AFC4005340220E20308A5C83EA0243E2B28A5C58
:10AFD40083EA0263C4F307428A5C83EA022350F8DB
:10AFE400142C8360534050F8102CC360534050F825
:10AFF4000C2C03615340DAB243618A5C7A401F0E21
:10B00400CF5D82EA0762C3F30727C3F30743CF5D2B
:10B01400CB5C82EA072282EA034350F8042C836162
:10B0240053400268C36153400362634043628642F3
:10B03400BDD174E76FF01F00F0BD00BFD86F0300EF
:10B04400D85E03002DE9F04F47680D683B684C68F3
:10B054008E68C968DFF89882DFF898E2DFF898C252
:10B064005D407B685C40BB685E40FB684B400168A8
:10B074008FB049100139009107F1300151F8107C6B
:10B084000197EFB251F8200C58F8277087EA0009AD
:10B094001F0E95485EF8277089EA0709C4F307274D
:10B0A4004FEA146B5CF827705EF82BB089EA070945
:10B0B400C6F30747203150F8277089EA0709E7B239
:10B0C4005FFA89F058F82770029051F83C0C87EA2F
:10B0D400000A2F0E84485EF827708AEA070AC6F32E
:10B0E4000727C4F307445CF827708AEA070AC3F306
:10B0F400074750F827708AEA070AF7B2CAF307200D
:10B1040058F82770039051F8380C474087EA0B072A
:10B11400C3F3072B74485CF82BB087EA0B07C5F31D
:10B12400074BDBB250F82BB058F8233087EA0B07F3
:10B13400C7F30740360E049051F8340C5EF82660CD
:10B14400C5F307254340684873405CF8256050F810
:10B15400244051F82C0C059073406340C3F307401E
:10B16400069051F8280C0790F8B20890C3F3072012
:10B1740009901D0EC9F30740DBB20A900D93009BA2
:10B184004FEA1A600B90002B51F8240C0C905FFAD4
:10B194008AF4C7F3072B4FEA1966CAF3074AC9F3BF
:10B1A40007294FEA17675CDC5049039B019811F8A3
:10B1B40003C0029B0C5DCB5C43400498085C83EAAB
:10B1C4000C2383EA0043485D059D83EA006311F87C
:10B1D4000B0013706C4084EA00240698089D085CF8
:10B1E4004D5D84EA0044885D079E84EA0064099802
:10B1F400085C754085EA00250A980C9E085C85EA7F
:10B2040000450B98085C85EA00650D98085C704061
:10B2140011F8096080EA062011F80A60C95D80EA25
:10B22400064080EA0161180A5070180C1B0E9070D9
:10B23400D370230A5371230C93712B0A53722B0C72
:10B2440093720B0A14711572240E2D0E117353731D
:10B254000B0C090ED471D5729373D1730FB0BDE882
:10B26400F08F029B5EF8255058F823301E4858F89A
:10B2740024405EF827706B40019D6B40039D5CF891
:10B2840025505D40049B50F823305D405EF8263025
:10B294005C40059B5C405CF82B305C40069B50F89E
:10B2A40023305C40089B58F823600B9B5EF82330E6
:10B2B4005E40079B5E40099B5CF823305E400A9B1E
:10B2C40050F823305E400D9B58F823307B400C9F90
:10B2D4007B405CF829707B4050F82A707B40009FCB
:10B2E400013F0097CAE600BFD8670300D85E030099
:10B2F400D85F0300D86B0300D86303002DE9F04F37
:10B3040047680C683B684E688D68C968DFF89C82A2
:10B31400DFF89CE2DFF89CC25C407B685E40BB685F
:10B324005D40FB684B4001688FB0491001390091C2
:10B3340007F13001E7B251F8100C58F8277001906A
:10B3440051F8200C87EA0009370E96485EF82770FA
:10B3540089EA0709C3F307274FEA136B5CF82770E0
:10B364005EF82BB089EA0709C5F30747203150F886
:10B37400277089EA0709DFB25FFA89F058F8277065
:10B38400029051F8340C87EA000A270E85485EF8CB
:10B3940027708AEA070AC5F30727C3F307435CF853
:10B3A40027708AEA070AC6F3074750F827708AEA23
:10B3B400070AEFB2CAF3072058F82770039051F830
:10B3C400380C474087EA0B07C6F3072B75485CF82F
:10B3D4002BB087EA0B07C4F3074BF6B250F82BB037
:10B3E40058F8266087EA0B07C7F307402D0E049030
:10B3F40051F83C0C5EF82550C4F3072446406948D4
:10B404006E405CF8245050F8233051F8280C079013
:10B414006E405E40F8B251F82C3C0890C6F3072009
:10B4240005930990CAF30743C9F3074006930A90AA
:10B434004FEA1A600B9051F8240C0C90C6F30740A5
:10B444000D9000980028C9F3072B4FEA17634FEAC1
:10B454001664F5B25FFA8AFAC7F307274FEA196947
:10B464005CDC51490398019E11F800C00298085C05
:10B474007040049E8E5D80EA0C2080EA06400E5DDA
:10B4840011F80B4080EA06604E5D059D10706E4019
:10B4940086EA0426069C0C5D86EA0446CC5C099B7D
:10B4A40086EA0464CE5C089BCD5C079B5D400A9BE6
:10B4B400CB5C85EA062585EA03450B9B0C9ECB5C99
:10B4C40085EA036511F80A307340CE5D83EA0623EA
:10B4D4000D9E8E5D11F8091083EA064383EA016329
:10B4E400010A5170010C9170000E210AD070517143
:10B4F400210C9171290A5172290C9172190A147143
:10B504001572240E2D0E13735173190C1B0ED47166
:10B51400D5729173D3730FB0BDE8F08F029E5EF8BD
:10B52400244058F826601F485EF823305EF82990BE
:10B534005CF827707440019E7440039E5CF826609A
:10B544007440049E50F82660744058F825605E40AC
:10B55400059B5E405CF82B305E40069B50F8233020
:10B564005E40089B58F823500B9B5EF823305D40E7
:10B57400079B5D40099B5CF823305D400A9B50F8B3
:10B5840023300C985D4058F82A3083EA090343407D
:10B594007B400D98034F57F82070009801387B408A
:10B5A4000090C7E6007903000070030000710300F7
:10B5B400007D03000075030010B50C46012C1146F4
:10B5C4001A4603D1FFF73EFD002010BDFFF796FE9B
:10B5D400FAE72DE9F041B2F5C07FADF5467D0646A8
:10B5E4000F4615467BD84FF4D07200215EA806F0B2
:10B5F400F7FD18A8FFF740FC0DF5C8786BBA2A468A
:10B604000024ADF88A313946302340468DF88F3115
:10B61400ADF8884106F0BBFD802304AA08F8053084
:10B6240011461935234602F8013B0133202BFAD188
:10B634004FF4807218A8FFF72FFC00241022002179
:10B64400684606F0CDFDA8460DF287136A46A3F1BD
:10B654001007117817F8010F41409F4202F8011BAF
:10B66400F7D1B8F1100F6B4694BFA8EB0808A8F106
:10B6740010086A46012118A8FFF79EFF07F110037E
:10B68400B8F1000FE2D10CAB18191022694606F08C
:10B694007EFD9DF87B3110340133302C8DF87B31E5
:10B6A400CCD14FF480720CA918A8FFF7F5FB06F172
:10B6B400300414AB1A46012118A8FFF77DFF304669
:10B6C400102214A9103606F062FDB442F1D118A874
:10B6D400FFF7D7FB00200DF5467DBDE8F0816FF044
:10B6E4003700F8E72DE9F0418CB004460D463022CE
:10B6F4000021684606F074FD4FF0000804F12007AD
:10B704006E460DEB080304F10F010A780132D2B240
:10B71400084601F801290AB9A042F6D122460121BE
:10B72400384608F11008FFF747FFB8F1300FE7D1AA
:10B734006B1E2F35327813F8011F4A40AB4206F8CE
:10B74400012BF7D169464FF480723846FFF7A4FB0A
:10B75400102208A9204606F01AFD00200CB0BDE80E
:10B76400F0814FF4A072002106F03ABD10B50446F2
:10B7740038B12030FFF785FB04F5A07300229C420A
:10B7840000D110BD04F8012BF9E72DE9F0418369DC
:10B79400B3F5C07FE0B00446884616462DD8C3F5FD
:10B7A400C073934229D34FF4C0720021684606F057
:10B7B40017FDD4F83831A269D4F83C01694698479A
:10B7C4000546E8B9A769B8F1000F07D036B10DEB0B
:10B7D40007003246414606F0DAFC37443A466946E9
:10B7E4006846FFF7F6FE69462046FFF77BFF012314
:10B7F4002361284660B0BDE8F0816FF03705F8E7B3
:10B804006FF03305F5E7F0B58BB004460F461646E6
:10B814000021202202A81D4606F0E2FC04F12000CB
:10B824000190FFF729FB119BA36142F21073E361BE
:10B8340002A9C4E94E7601984FF48072FFF72CFBFD
:10B84400109A29462046FFF7A0FF0BB0F0BD13B5B0
:10B8540030240194049C0094FFF7D5FF02B010BD7E
:10B864002DE9F04190B0B2F5806FDDF858800446C0
:10B874000E4615461F464DD8B8F5807F4DD8302268
:10B88400002104A806F0ACFC2269E3699A4201DCB9
:10B89400636943B1424639462046FFF776FF70B1EB
:10B8A40010B0BDE8F081B8F1000F08D03946424627
:10B8B40004A8FFF78EFE04A92046FFF713FF04F146
:10B8C400200745B904A92046FFF70CFF236901337B
:10B8D40023612846E4E704F10F0213780133DBB255
:10B8E400114602F801390BB9A142F6D16B46224642
:10B8F40001213846FFF760FE102DA84628BF4FF0FF
:10B90400100830464246694606F041FC4644A5EB21
:10B914000805D6E76FF03500C2E76FF03700BFE7E0
:10B9240007B500230093FFF79BFF03B05DF804FB0A
:10B9340028B139B10023C1E900301846704748F2F4
:10B944001050704748F21350704738B1006848F2FD
:10B954004053884214BF18460020704748F21050E4
:10B96400704730B119B10B68934205D30A600020C7
:10B97400704748F21350704748F214507047000063
:10B984002DE9F041884600AF06461146404614466C
:10B994001D46FFF7CDFFF8B929464046FFF7C8FF1B
:10B9A400D0B998F804200F4B53F82230BBB156B9E4
:10B9B4000D4931F8121031B107316A46C908A2EBBA
:10B9C400C10295466E462A4621463046984718B924
:10B9D400064B2360063B2B60BD46BDE8F08148F270
:10B9E4000350F9E708810300008103007652464DB5
:10B9F40070B505460C461E46FFF79AFF70B9AB7941
:10BA04006AB1B3420ED12979094B53F8213063B19D
:10BA140011462046984708B9064B236070BD48F28A
:10BA24001050FBE748F21150F8E748F20350F5E7ED
:10BA3400148103007052464D2DE9F0410D460D4925
:10BA440004461646FFF781FF90B967683146BA7914
:10BA54002846FFF786FF58B93A79074B53F8223046
:10BA640023B129462046BDE8F041184748F2035067
:10BA7400BDE8F0817052464D20810300F0B528B135
:10BA84004079D9B18AB948F2135315E01846F8E75A
:10BA9400441E00254E5D0F5D575516550135013C7A
:10BAA400A542F7D91B1A014402448342F0D2002B69
:10BAB40048F2115218BF13461846F0BD48F210530D
:10BAC400FAE700002DE9F8430D4600AF04461D498E
